{
	"contracts/ToDoList.sol": {
		"ToDoList": {
			"abi": [
				{
					"inputs": [],
					"stateMutability": "nonpayable",
					"type": "constructor"
				},
				{
					"inputs": [
						{
							"internalType": "address",
							"name": "owner",
							"type": "address"
						}
					],
					"name": "OwnableInvalidOwner",
					"type": "error"
				},
				{
					"inputs": [
						{
							"internalType": "address",
							"name": "account",
							"type": "address"
						}
					],
					"name": "OwnableUnauthorizedAccount",
					"type": "error"
				},
				{
					"anonymous": false,
					"inputs": [
						{
							"indexed": true,
							"internalType": "address",
							"name": "previousOwner",
							"type": "address"
						},
						{
							"indexed": true,
							"internalType": "address",
							"name": "newOwner",
							"type": "address"
						}
					],
					"name": "OwnershipTransferred",
					"type": "event"
				},
				{
					"anonymous": false,
					"inputs": [
						{
							"indexed": true,
							"internalType": "uint256",
							"name": "id",
							"type": "uint256"
						},
						{
							"indexed": false,
							"internalType": "bool",
							"name": "completed",
							"type": "bool"
						}
					],
					"name": "TaskCompleted",
					"type": "event"
				},
				{
					"anonymous": false,
					"inputs": [
						{
							"indexed": true,
							"internalType": "uint256",
							"name": "id",
							"type": "uint256"
						},
						{
							"indexed": false,
							"internalType": "string",
							"name": "newContent",
							"type": "string"
						}
					],
					"name": "TaskContentUpdated",
					"type": "event"
				},
				{
					"anonymous": false,
					"inputs": [
						{
							"indexed": true,
							"internalType": "uint256",
							"name": "id",
							"type": "uint256"
						},
						{
							"indexed": false,
							"internalType": "string",
							"name": "content",
							"type": "string"
						}
					],
					"name": "TaskCreated",
					"type": "event"
				},
				{
					"anonymous": false,
					"inputs": [
						{
							"indexed": true,
							"internalType": "uint256",
							"name": "id",
							"type": "uint256"
						}
					],
					"name": "TaskDeleted",
					"type": "event"
				},
				{
					"inputs": [
						{
							"internalType": "string",
							"name": "_content",
							"type": "string"
						}
					],
					"name": "createTask",
					"outputs": [],
					"stateMutability": "nonpayable",
					"type": "function"
				},
				{
					"inputs": [
						{
							"internalType": "uint256",
							"name": "_id",
							"type": "uint256"
						}
					],
					"name": "deleteTask",
					"outputs": [],
					"stateMutability": "nonpayable",
					"type": "function"
				},
				{
					"inputs": [],
					"name": "getAllTasks",
					"outputs": [
						{
							"components": [
								{
									"internalType": "uint256",
									"name": "id",
									"type": "uint256"
								},
								{
									"internalType": "string",
									"name": "content",
									"type": "string"
								},
								{
									"internalType": "bool",
									"name": "completed",
									"type": "bool"
								}
							],
							"internalType": "struct ToDoList.Task[]",
							"name": "",
							"type": "tuple[]"
						}
					],
					"stateMutability": "view",
					"type": "function"
				},
				{
					"inputs": [
						{
							"internalType": "uint256",
							"name": "_id",
							"type": "uint256"
						}
					],
					"name": "getTask",
					"outputs": [
						{
							"internalType": "uint256",
							"name": "",
							"type": "uint256"
						},
						{
							"internalType": "string",
							"name": "",
							"type": "string"
						},
						{
							"internalType": "bool",
							"name": "",
							"type": "bool"
						}
					],
					"stateMutability": "view",
					"type": "function"
				},
				{
					"inputs": [],
					"name": "owner",
					"outputs": [
						{
							"internalType": "address",
							"name": "",
							"type": "address"
						}
					],
					"stateMutability": "view",
					"type": "function"
				},
				{
					"inputs": [],
					"name": "renounceOwnership",
					"outputs": [],
					"stateMutability": "nonpayable",
					"type": "function"
				},
				{
					"inputs": [],
					"name": "taskCount",
					"outputs": [
						{
							"internalType": "uint256",
							"name": "",
							"type": "uint256"
						}
					],
					"stateMutability": "view",
					"type": "function"
				},
				{
					"inputs": [
						{
							"internalType": "uint256",
							"name": "",
							"type": "uint256"
						}
					],
					"name": "tasks",
					"outputs": [
						{
							"internalType": "uint256",
							"name": "id",
							"type": "uint256"
						},
						{
							"internalType": "string",
							"name": "content",
							"type": "string"
						},
						{
							"internalType": "bool",
							"name": "completed",
							"type": "bool"
						}
					],
					"stateMutability": "view",
					"type": "function"
				},
				{
					"inputs": [
						{
							"internalType": "uint256",
							"name": "_id",
							"type": "uint256"
						}
					],
					"name": "toggleCompleted",
					"outputs": [],
					"stateMutability": "nonpayable",
					"type": "function"
				},
				{
					"inputs": [
						{
							"internalType": "address",
							"name": "newOwner",
							"type": "address"
						}
					],
					"name": "transferOwnership",
					"outputs": [],
					"stateMutability": "nonpayable",
					"type": "function"
				},
				{
					"inputs": [
						{
							"internalType": "uint256",
							"name": "_id",
							"type": "uint256"
						},
						{
							"internalType": "string",
							"name": "_newContent",
							"type": "string"
						}
					],
					"name": "updateTask",
					"outputs": [],
					"stateMutability": "nonpayable",
					"type": "function"
				}
			],
			"devdoc": {
				"details": "A simple smart contract to manage a task list.",
				"errors": {
					"OwnableInvalidOwner(address)": [
						{
							"details": "The owner is not a valid owner account. (eg. `address(0)`)"
						}
					],
					"OwnableUnauthorizedAccount(address)": [
						{
							"details": "The caller account is not authorized to perform an operation."
						}
					]
				},
				"kind": "dev",
				"methods": {
					"getTask(uint256)": {
						"details": "The `view` function does not change state and does not require gas fees when called off-chain.",
						"params": {
							"_id": "The ID of the task to be viewed."
						},
						"returns": {
							"_0": "id The task ID.",
							"_1": "content The task content.",
							"_2": "completed The completion status of the task."
						}
					},
					"owner()": {
						"details": "Returns the address of the current owner."
					},
					"renounceOwnership()": {
						"details": "Leaves the contract without owner. It will not be possible to call `onlyOwner` functions. Can only be called by the current owner. NOTE: Renouncing ownership will leave the contract without an owner, thereby disabling any functionality that is only available to the owner."
					},
					"transferOwnership(address)": {
						"details": "Transfers ownership of the contract to a new account (`newOwner`). Can only be called by the current owner."
					},
					"updateTask(uint256,string)": {
						"details": "Can only be called by the owner. Requires a valid task ID. ",
						"params": {
							"_id": "ID of the task to be changed. ",
							"_newContent": "New content for the task. "
						}
					}
				},
				"title": "ToDoList",
				"version": 1
			},
			"evm": {
				"assembly": "    /* \"contracts/ToDoList.sol\":200:4525  contract ToDoList is Ownable {... */\n  mstore(0x40, 0x80)\n    /* \"contracts/ToDoList.sol\":468:504  constructor() Ownable(msg.sender) {} */\n  callvalue\n  dup1\n  iszero\n  tag_1\n  jumpi\n  revert(0x00, 0x00)\ntag_1:\n  pop\n    /* \"contracts/ToDoList.sol\":490:500  msg.sender */\n  caller\n    /* \"@openzeppelin/contracts/access/Ownable.sol\":1297:1298  0 */\n  0x00\n    /* \"@openzeppelin/contracts/access/Ownable.sol\":1273:1299  initialOwner == address(0) */\n  0xffffffffffffffffffffffffffffffffffffffff\n  and\n    /* \"@openzeppelin/contracts/access/Ownable.sol\":1273:1285  initialOwner */\n  dup2\n    /* \"@openzeppelin/contracts/access/Ownable.sol\":1273:1299  initialOwner == address(0) */\n  0xffffffffffffffffffffffffffffffffffffffff\n  and\n  sub\n    /* \"@openzeppelin/contracts/access/Ownable.sol\":1269:1364  if (initialOwner == address(0)) {... */\n  tag_5\n  jumpi\n    /* \"@openzeppelin/contracts/access/Ownable.sol\":1350:1351  0 */\n  0x00\n    /* \"@openzeppelin/contracts/access/Ownable.sol\":1322:1353  OwnableInvalidOwner(address(0)) */\n  mload(0x40)\n  0x1e4fbdf700000000000000000000000000000000000000000000000000000000\n  dup2\n  mstore\n  0x04\n  add\n  tag_6\n  swap2\n  swap1\n  tag_7\n  jump\t// in\ntag_6:\n  mload(0x40)\n  dup1\n  swap2\n  sub\n  swap1\n  revert\n    /* \"@openzeppelin/contracts/access/Ownable.sol\":1269:1364  if (initialOwner == address(0)) {... */\ntag_5:\n    /* \"@openzeppelin/contracts/access/Ownable.sol\":1373:1405  _transferOwnership(initialOwner) */\n  tag_8\n    /* \"@openzeppelin/contracts/access/Ownable.sol\":1392:1404  initialOwner */\n  dup2\n    /* \"@openzeppelin/contracts/access/Ownable.sol\":1373:1391  _transferOwnership */\n  shl(0x20, tag_9)\n    /* \"@openzeppelin/contracts/access/Ownable.sol\":1373:1405  _transferOwnership(initialOwner) */\n  0x20\n  shr\n  jump\t// in\ntag_8:\n    /* \"@openzeppelin/contracts/access/Ownable.sol\":1225:1412  constructor(address initialOwner) {... */\n  pop\n    /* \"contracts/ToDoList.sol\":200:4525  contract ToDoList is Ownable {... */\n  jump(tag_11)\n    /* \"@openzeppelin/contracts/access/Ownable.sol\":2912:3099  function _transferOwnership(address newOwner) internal virtual {... */\ntag_9:\n    /* \"@openzeppelin/contracts/access/Ownable.sol\":2985:3001  address oldOwner */\n  0x00\n    /* \"@openzeppelin/contracts/access/Ownable.sol\":3004:3010  _owner */\n  0x00\n  0x00\n  swap1\n  sload\n  swap1\n  0x0100\n  exp\n  swap1\n  div\n  0xffffffffffffffffffffffffffffffffffffffff\n  and\n    /* \"@openzeppelin/contracts/access/Ownable.sol\":2985:3010  address oldOwner = _owner */\n  swap1\n  pop\n    /* \"@openzeppelin/contracts/access/Ownable.sol\":3029:3037  newOwner */\n  dup2\n    /* \"@openzeppelin/contracts/access/Ownable.sol\":3020:3026  _owner */\n  0x00\n  0x00\n    /* \"@openzeppelin/contracts/access/Ownable.sol\":3020:3037  _owner = newOwner */\n  0x0100\n  exp\n  dup2\n  sload\n  dup2\n  0xffffffffffffffffffffffffffffffffffffffff\n  mul\n  not\n  and\n  swap1\n  dup4\n  0xffffffffffffffffffffffffffffffffffffffff\n  and\n  mul\n  or\n  swap1\n  sstore\n  pop\n    /* \"@openzeppelin/contracts/access/Ownable.sol\":3083:3091  newOwner */\n  dup2\n    /* \"@openzeppelin/contracts/access/Ownable.sol\":3052:3092  OwnershipTransferred(oldOwner, newOwner) */\n  0xffffffffffffffffffffffffffffffffffffffff\n  and\n    /* \"@openzeppelin/contracts/access/Ownable.sol\":3073:3081  oldOwner */\n  dup2\n    /* \"@openzeppelin/contracts/access/Ownable.sol\":3052:3092  OwnershipTransferred(oldOwner, newOwner) */\n  0xffffffffffffffffffffffffffffffffffffffff\n  and\n  0x8be0079c531659141344cd1fd0a4f28419497f9722a3daafe3b4186f6b6457e0\n  mload(0x40)\n  mload(0x40)\n  dup1\n  swap2\n  sub\n  swap1\n  log3\n    /* \"@openzeppelin/contracts/access/Ownable.sol\":2975:3099  {... */\n  pop\n    /* \"@openzeppelin/contracts/access/Ownable.sol\":2912:3099  function _transferOwnership(address newOwner) internal virtual {... */\n  pop\n  jump\t// out\n    /* \"#utility.yul\":7:133   */\ntag_13:\n    /* \"#utility.yul\":44:51   */\n  0x00\n    /* \"#utility.yul\":84:126   */\n  0xffffffffffffffffffffffffffffffffffffffff\n    /* \"#utility.yul\":77:82   */\n  dup3\n    /* \"#utility.yul\":73:127   */\n  and\n    /* \"#utility.yul\":62:127   */\n  swap1\n  pop\n    /* \"#utility.yul\":7:133   */\n  swap2\n  swap1\n  pop\n  jump\t// out\n    /* \"#utility.yul\":139:235   */\ntag_14:\n    /* \"#utility.yul\":176:183   */\n  0x00\n    /* \"#utility.yul\":205:229   */\n  tag_19\n    /* \"#utility.yul\":223:228   */\n  dup3\n    /* \"#utility.yul\":205:229   */\n  tag_13\n  jump\t// in\ntag_19:\n    /* \"#utility.yul\":194:229   */\n  swap1\n  pop\n    /* \"#utility.yul\":139:235   */\n  swap2\n  swap1\n  pop\n  jump\t// out\n    /* \"#utility.yul\":241:359   */\ntag_15:\n    /* \"#utility.yul\":328:352   */\n  tag_21\n    /* \"#utility.yul\":346:351   */\n  dup2\n    /* \"#utility.yul\":328:352   */\n  tag_14\n  jump\t// in\ntag_21:\n    /* \"#utility.yul\":323:326   */\n  dup3\n    /* \"#utility.yul\":316:353   */\n  mstore\n    /* \"#utility.yul\":241:359   */\n  pop\n  pop\n  jump\t// out\n    /* \"#utility.yul\":365:587   */\ntag_7:\n    /* \"#utility.yul\":458:462   */\n  0x00\n    /* \"#utility.yul\":496:498   */\n  0x20\n    /* \"#utility.yul\":485:494   */\n  dup3\n    /* \"#utility.yul\":481:499   */\n  add\n    /* \"#utility.yul\":473:499   */\n  swap1\n  pop\n    /* \"#utility.yul\":509:580   */\n  tag_23\n    /* \"#utility.yul\":577:578   */\n  0x00\n    /* \"#utility.yul\":566:575   */\n  dup4\n    /* \"#utility.yul\":562:579   */\n  add\n    /* \"#utility.yul\":553:559   */\n  dup5\n    /* \"#utility.yul\":509:580   */\n  tag_15\n  jump\t// in\ntag_23:\n    /* \"#utility.yul\":365:587   */\n  swap3\n  swap2\n  pop\n  pop\n  jump\t// out\n    /* \"contracts/ToDoList.sol\":200:4525  contract ToDoList is Ownable {... */\ntag_11:\n  dataSize(sub_0)\n  dup1\n  dataOffset(sub_0)\n  0x00\n  codecopy\n  0x00\n  return\nstop\n\nsub_0: assembly {\n        /* \"contracts/ToDoList.sol\":200:4525  contract ToDoList is Ownable {... */\n      mstore(0x40, 0x80)\n      callvalue\n      dup1\n      iszero\n      tag_1\n      jumpi\n      revert(0x00, 0x00)\n    tag_1:\n      pop\n      jumpi(tag_2, lt(calldatasize, 0x04))\n      shr(0xe0, calldataload(0x00))\n      dup1\n      0x779900b4\n      gt\n      tag_14\n      jumpi\n      dup1\n      0x779900b4\n      eq\n      tag_8\n      jumpi\n      dup1\n      0x86533f6c\n      eq\n      tag_9\n      jumpi\n      dup1\n      0x8d977672\n      eq\n      tag_10\n      jumpi\n      dup1\n      0x8da5cb5b\n      eq\n      tag_11\n      jumpi\n      dup1\n      0xb6cb58a5\n      eq\n      tag_12\n      jumpi\n      dup1\n      0xf2fde38b\n      eq\n      tag_13\n      jumpi\n      jump(tag_2)\n    tag_14:\n      dup1\n      0x111002aa\n      eq\n      tag_3\n      jumpi\n      dup1\n      0x1d65e77e\n      eq\n      tag_4\n      jumpi\n      dup1\n      0x455f5024\n      eq\n      tag_5\n      jumpi\n      dup1\n      0x560f3192\n      eq\n      tag_6\n      jumpi\n      dup1\n      0x715018a6\n      eq\n      tag_7\n      jumpi\n    tag_2:\n      revert(0x00, 0x00)\n        /* \"contracts/ToDoList.sol\":1021:1349  function createTask(string calldata _content) external onlyOwner {... */\n    tag_3:\n      tag_15\n      0x04\n      dup1\n      calldatasize\n      sub\n      dup2\n      add\n      swap1\n      tag_16\n      swap2\n      swap1\n      tag_17\n      jump\t// in\n    tag_16:\n      tag_18\n      jump\t// in\n    tag_15:\n      stop\n        /* \"contracts/ToDoList.sol\":3240:3508  function getTask(uint _id) external view onlyOwner returns(uint, string memory, bool) {... */\n    tag_4:\n      tag_19\n      0x04\n      dup1\n      calldatasize\n      sub\n      dup2\n      add\n      swap1\n      tag_20\n      swap2\n      swap1\n      tag_21\n      jump\t// in\n    tag_20:\n      tag_22\n      jump\t// in\n    tag_19:\n      mload(0x40)\n      tag_23\n      swap4\n      swap3\n      swap2\n      swap1\n      tag_24\n      jump\t// in\n    tag_23:\n      mload(0x40)\n      dup1\n      swap2\n      sub\n      swap1\n      return\n        /* \"contracts/ToDoList.sol\":2183:2491  function toggleCompleted(uint _id) external onlyOwner {... */\n    tag_5:\n      tag_25\n      0x04\n      dup1\n      calldatasize\n      sub\n      dup2\n      add\n      swap1\n      tag_26\n      swap2\n      swap1\n      tag_21\n      jump\t// in\n    tag_26:\n      tag_27\n      jump\t// in\n    tag_25:\n      stop\n        /* \"contracts/ToDoList.sol\":2690:2887  function deleteTask(uint _id) external onlyOwner {... */\n    tag_6:\n      tag_28\n      0x04\n      dup1\n      calldatasize\n      sub\n      dup2\n      add\n      swap1\n      tag_29\n      swap2\n      swap1\n      tag_21\n      jump\t// in\n    tag_29:\n      tag_30\n      jump\t// in\n    tag_28:\n      stop\n        /* \"@openzeppelin/contracts/access/Ownable.sol\":2293:2394  function renounceOwnership() public virtual onlyOwner {... */\n    tag_7:\n      tag_31\n      tag_32\n      jump\t// in\n    tag_31:\n      stop\n        /* \"contracts/ToDoList.sol\":3860:4522  function getAllTasks() external view onlyOwner returns(Task[] memory) {... */\n    tag_8:\n      tag_33\n      tag_34\n      jump\t// in\n    tag_33:\n      mload(0x40)\n      tag_35\n      swap2\n      swap1\n      tag_36\n      jump\t// in\n    tag_35:\n      mload(0x40)\n      dup1\n      swap2\n      sub\n      swap1\n      return\n        /* \"contracts/ToDoList.sol\":1588:1928  function updateTask(uint _id, string calldata _newContent) external onlyOwner {... */\n    tag_9:\n      tag_37\n      0x04\n      dup1\n      calldatasize\n      sub\n      dup2\n      add\n      swap1\n      tag_38\n      swap2\n      swap1\n      tag_39\n      jump\t// in\n    tag_38:\n      tag_40\n      jump\t// in\n    tag_37:\n      stop\n        /* \"contracts/ToDoList.sol\":394:428  mapping(uint => Task) public tasks */\n    tag_10:\n      tag_41\n      0x04\n      dup1\n      calldatasize\n      sub\n      dup2\n      add\n      swap1\n      tag_42\n      swap2\n      swap1\n      tag_21\n      jump\t// in\n    tag_42:\n      tag_43\n      jump\t// in\n    tag_41:\n      mload(0x40)\n      tag_44\n      swap4\n      swap3\n      swap2\n      swap1\n      tag_24\n      jump\t// in\n    tag_44:\n      mload(0x40)\n      dup1\n      swap2\n      sub\n      swap1\n      return\n        /* \"@openzeppelin/contracts/access/Ownable.sol\":1638:1723  function owner() public view virtual returns (address) {... */\n    tag_11:\n      tag_45\n      tag_46\n      jump\t// in\n    tag_45:\n      mload(0x40)\n      tag_47\n      swap2\n      swap1\n      tag_48\n      jump\t// in\n    tag_47:\n      mload(0x40)\n      dup1\n      swap2\n      sub\n      swap1\n      return\n        /* \"contracts/ToDoList.sol\":366:387  uint public taskCount */\n    tag_12:\n      tag_49\n      tag_50\n      jump\t// in\n    tag_49:\n      mload(0x40)\n      tag_51\n      swap2\n      swap1\n      tag_52\n      jump\t// in\n    tag_51:\n      mload(0x40)\n      dup1\n      swap2\n      sub\n      swap1\n      return\n        /* \"@openzeppelin/contracts/access/Ownable.sol\":2543:2758  function transferOwnership(address newOwner) public virtual onlyOwner {... */\n    tag_13:\n      tag_53\n      0x04\n      dup1\n      calldatasize\n      sub\n      dup2\n      add\n      swap1\n      tag_54\n      swap2\n      swap1\n      tag_55\n      jump\t// in\n    tag_54:\n      tag_56\n      jump\t// in\n    tag_53:\n      stop\n        /* \"contracts/ToDoList.sol\":1021:1349  function createTask(string calldata _content) external onlyOwner {... */\n    tag_18:\n        /* \"@openzeppelin/contracts/access/Ownable.sol\":1531:1544  _checkOwner() */\n      tag_58\n        /* \"@openzeppelin/contracts/access/Ownable.sol\":1531:1542  _checkOwner */\n      tag_59\n        /* \"@openzeppelin/contracts/access/Ownable.sol\":1531:1544  _checkOwner() */\n      jump\t// in\n    tag_58:\n        /* \"contracts/ToDoList.sol\":1130:1131  0 */\n      0x00\n        /* \"contracts/ToDoList.sol\":1111:1119  _content */\n      dup3\n      dup3\n        /* \"contracts/ToDoList.sol\":1105:1127  bytes(_content).length */\n      swap1\n      pop\n        /* \"contracts/ToDoList.sol\":1105:1131  bytes(_content).length > 0 */\n      gt\n        /* \"contracts/ToDoList.sol\":1097:1170  require(bytes(_content).length > 0, \"ToDoList : Content cannot be empty\") */\n      tag_61\n      jumpi\n      mload(0x40)\n      0x08c379a000000000000000000000000000000000000000000000000000000000\n      dup2\n      mstore\n      0x04\n      add\n      tag_62\n      swap1\n      tag_63\n      jump\t// in\n    tag_62:\n      mload(0x40)\n      dup1\n      swap2\n      sub\n      swap1\n      revert\n    tag_61:\n        /* \"contracts/ToDoList.sol\":1183:1192  taskCount */\n      0x01\n      0x00\n        /* \"contracts/ToDoList.sol\":1183:1194  taskCount++ */\n      dup2\n      sload\n      dup1\n      swap3\n      swap2\n      swap1\n      tag_64\n      swap1\n      tag_65\n      jump\t// in\n    tag_64:\n      swap2\n      swap1\n      pop\n      sstore\n      pop\n        /* \"contracts/ToDoList.sol\":1205:1219  uint newTaskId */\n      0x00\n        /* \"contracts/ToDoList.sol\":1222:1231  taskCount */\n      sload(0x01)\n        /* \"contracts/ToDoList.sol\":1205:1231  uint newTaskId = taskCount */\n      swap1\n      pop\n        /* \"contracts/ToDoList.sol\":1261:1293  Task(newTaskId, _content, false) */\n      mload(0x40)\n      dup1\n      0x60\n      add\n      0x40\n      mstore\n      dup1\n        /* \"contracts/ToDoList.sol\":1266:1275  newTaskId */\n      dup3\n        /* \"contracts/ToDoList.sol\":1261:1293  Task(newTaskId, _content, false) */\n      dup2\n      mstore\n      0x20\n      add\n        /* \"contracts/ToDoList.sol\":1277:1285  _content */\n      dup5\n      dup5\n        /* \"contracts/ToDoList.sol\":1261:1293  Task(newTaskId, _content, false) */\n      dup1\n      dup1\n      0x1f\n      add\n      0x20\n      dup1\n      swap2\n      div\n      mul\n      0x20\n      add\n      mload(0x40)\n      swap1\n      dup2\n      add\n      0x40\n      mstore\n      dup1\n      swap4\n      swap3\n      swap2\n      swap1\n      dup2\n      dup2\n      mstore\n      0x20\n      add\n      dup4\n      dup4\n      dup1\n      dup3\n      dup5\n      calldatacopy\n      0x00\n      dup2\n      dup5\n      add\n      mstore\n      not(0x1f)\n      0x1f\n      dup3\n      add\n      and\n      swap1\n      pop\n      dup1\n      dup4\n      add\n      swap3\n      pop\n      pop\n      pop\n      pop\n      pop\n      pop\n      pop\n      dup2\n      mstore\n      0x20\n      add\n        /* \"contracts/ToDoList.sol\":1287:1292  false */\n      0x00\n        /* \"contracts/ToDoList.sol\":1261:1293  Task(newTaskId, _content, false) */\n      iszero\n      iszero\n      dup2\n      mstore\n      pop\n        /* \"contracts/ToDoList.sol\":1242:1247  tasks */\n      0x02\n        /* \"contracts/ToDoList.sol\":1242:1258  tasks[newTaskId] */\n      0x00\n        /* \"contracts/ToDoList.sol\":1248:1257  newTaskId */\n      dup4\n        /* \"contracts/ToDoList.sol\":1242:1258  tasks[newTaskId] */\n      dup2\n      mstore\n      0x20\n      add\n      swap1\n      dup2\n      mstore\n      0x20\n      add\n      0x00\n      keccak256\n        /* \"contracts/ToDoList.sol\":1242:1293  tasks[newTaskId] = Task(newTaskId, _content, false) */\n      0x00\n      dup3\n      add\n      mload\n      dup2\n      0x00\n      add\n      sstore\n      0x20\n      dup3\n      add\n      mload\n      dup2\n      0x01\n      add\n      swap1\n      dup2\n      tag_66\n      swap2\n      swap1\n      tag_67\n      jump\t// in\n    tag_66:\n      pop\n      0x40\n      dup3\n      add\n      mload\n      dup2\n      0x02\n      add\n      exp(0x0100, 0x00)\n      dup2\n      sload\n      dup2\n      0xff\n      mul\n      not\n      and\n      swap1\n      dup4\n      iszero\n      iszero\n      mul\n      or\n      swap1\n      sstore\n      pop\n      swap1\n      pop\n      pop\n        /* \"contracts/ToDoList.sol\":1321:1330  newTaskId */\n      dup1\n        /* \"contracts/ToDoList.sol\":1309:1341  TaskCreated(newTaskId, _content) */\n      0xa5ed9e6226c584326505694539c95cb0e3238ae09bcda5a65c00bbfdab1c6662\n        /* \"contracts/ToDoList.sol\":1332:1340  _content */\n      dup5\n      dup5\n        /* \"contracts/ToDoList.sol\":1309:1341  TaskCreated(newTaskId, _content) */\n      mload(0x40)\n      tag_68\n      swap3\n      swap2\n      swap1\n      tag_69\n      jump\t// in\n    tag_68:\n      mload(0x40)\n      dup1\n      swap2\n      sub\n      swap1\n      log2\n        /* \"contracts/ToDoList.sol\":1086:1349  {... */\n      pop\n        /* \"contracts/ToDoList.sol\":1021:1349  function createTask(string calldata _content) external onlyOwner {... */\n      pop\n      pop\n      jump\t// out\n        /* \"contracts/ToDoList.sol\":3240:3508  function getTask(uint _id) external view onlyOwner returns(uint, string memory, bool) {... */\n    tag_22:\n        /* \"contracts/ToDoList.sol\":3299:3303  uint */\n      0x00\n        /* \"contracts/ToDoList.sol\":3305:3318  string memory */\n      0x60\n        /* \"contracts/ToDoList.sol\":3320:3324  bool */\n      0x00\n        /* \"@openzeppelin/contracts/access/Ownable.sol\":1531:1544  _checkOwner() */\n      tag_71\n        /* \"@openzeppelin/contracts/access/Ownable.sol\":1531:1542  _checkOwner */\n      tag_59\n        /* \"@openzeppelin/contracts/access/Ownable.sol\":1531:1544  _checkOwner() */\n      jump\t// in\n    tag_71:\n        /* \"contracts/ToDoList.sol\":3362:3363  0 */\n      0x00\n        /* \"contracts/ToDoList.sol\":3345:3350  tasks */\n      0x02\n        /* \"contracts/ToDoList.sol\":3345:3355  tasks[_id] */\n      0x00\n        /* \"contracts/ToDoList.sol\":3351:3354  _id */\n      dup7\n        /* \"contracts/ToDoList.sol\":3345:3355  tasks[_id] */\n      dup2\n      mstore\n      0x20\n      add\n      swap1\n      dup2\n      mstore\n      0x20\n      add\n      0x00\n      keccak256\n        /* \"contracts/ToDoList.sol\":3345:3358  tasks[_id].id */\n      0x00\n      add\n      sload\n        /* \"contracts/ToDoList.sol\":3345:3363  tasks[_id].id != 0 */\n      sub\n        /* \"contracts/ToDoList.sol\":3337:3396  require(tasks[_id].id != 0, \"ToDoList : Task doesnt exist\") */\n      tag_73\n      jumpi\n      mload(0x40)\n      0x08c379a000000000000000000000000000000000000000000000000000000000\n      dup2\n      mstore\n      0x04\n      add\n      tag_74\n      swap1\n      tag_75\n      jump\t// in\n    tag_74:\n      mload(0x40)\n      dup1\n      swap2\n      sub\n      swap1\n      revert\n    tag_73:\n        /* \"contracts/ToDoList.sol\":3409:3427  Task storage _task */\n      0x00\n        /* \"contracts/ToDoList.sol\":3430:3435  tasks */\n      0x02\n        /* \"contracts/ToDoList.sol\":3430:3440  tasks[_id] */\n      0x00\n        /* \"contracts/ToDoList.sol\":3436:3439  _id */\n      dup7\n        /* \"contracts/ToDoList.sol\":3430:3440  tasks[_id] */\n      dup2\n      mstore\n      0x20\n      add\n      swap1\n      dup2\n      mstore\n      0x20\n      add\n      0x00\n      keccak256\n        /* \"contracts/ToDoList.sol\":3409:3440  Task storage _task = tasks[_id] */\n      swap1\n      pop\n        /* \"contracts/ToDoList.sol\":3459:3464  _task */\n      dup1\n        /* \"contracts/ToDoList.sol\":3459:3467  _task.id */\n      0x00\n      add\n      sload\n        /* \"contracts/ToDoList.sol\":3469:3474  _task */\n      dup2\n        /* \"contracts/ToDoList.sol\":3469:3482  _task.content */\n      0x01\n      add\n        /* \"contracts/ToDoList.sol\":3484:3489  _task */\n      dup3\n        /* \"contracts/ToDoList.sol\":3484:3499  _task.completed */\n      0x02\n      add\n      0x00\n      swap1\n      sload\n      swap1\n      0x0100\n      exp\n      swap1\n      div\n      0xff\n      and\n        /* \"contracts/ToDoList.sol\":3451:3500  return (_task.id, _task.content, _task.completed) */\n      dup2\n      dup1\n      sload\n      tag_76\n      swap1\n      tag_77\n      jump\t// in\n    tag_76:\n      dup1\n      0x1f\n      add\n      0x20\n      dup1\n      swap2\n      div\n      mul\n      0x20\n      add\n      mload(0x40)\n      swap1\n      dup2\n      add\n      0x40\n      mstore\n      dup1\n      swap3\n      swap2\n      swap1\n      dup2\n      dup2\n      mstore\n      0x20\n      add\n      dup3\n      dup1\n      sload\n      tag_78\n      swap1\n      tag_77\n      jump\t// in\n    tag_78:\n      dup1\n      iszero\n      tag_79\n      jumpi\n      dup1\n      0x1f\n      lt\n      tag_80\n      jumpi\n      0x0100\n      dup1\n      dup4\n      sload\n      div\n      mul\n      dup4\n      mstore\n      swap2\n      0x20\n      add\n      swap2\n      jump(tag_79)\n    tag_80:\n      dup3\n      add\n      swap2\n      swap1\n      0x00\n      mstore\n      keccak256(0x00, 0x20)\n      swap1\n    tag_81:\n      dup2\n      sload\n      dup2\n      mstore\n      swap1\n      0x01\n      add\n      swap1\n      0x20\n      add\n      dup1\n      dup4\n      gt\n      tag_81\n      jumpi\n      dup3\n      swap1\n      sub\n      0x1f\n      and\n      dup3\n      add\n      swap2\n    tag_79:\n      pop\n      pop\n      pop\n      pop\n      pop\n      swap2\n      pop\n      swap4\n      pop\n      swap4\n      pop\n      swap4\n      pop\n      pop\n        /* \"contracts/ToDoList.sol\":3240:3508  function getTask(uint _id) external view onlyOwner returns(uint, string memory, bool) {... */\n      swap2\n      swap4\n      swap1\n      swap3\n      pop\n      jump\t// out\n        /* \"contracts/ToDoList.sol\":2183:2491  function toggleCompleted(uint _id) external onlyOwner {... */\n    tag_27:\n        /* \"@openzeppelin/contracts/access/Ownable.sol\":1531:1544  _checkOwner() */\n      tag_83\n        /* \"@openzeppelin/contracts/access/Ownable.sol\":1531:1542  _checkOwner */\n      tag_59\n        /* \"@openzeppelin/contracts/access/Ownable.sol\":1531:1544  _checkOwner() */\n      jump\t// in\n    tag_83:\n        /* \"contracts/ToDoList.sol\":2273:2274  0 */\n      0x00\n        /* \"contracts/ToDoList.sol\":2256:2261  tasks */\n      0x02\n        /* \"contracts/ToDoList.sol\":2256:2266  tasks[_id] */\n      0x00\n        /* \"contracts/ToDoList.sol\":2262:2265  _id */\n      dup4\n        /* \"contracts/ToDoList.sol\":2256:2266  tasks[_id] */\n      dup2\n      mstore\n      0x20\n      add\n      swap1\n      dup2\n      mstore\n      0x20\n      add\n      0x00\n      keccak256\n        /* \"contracts/ToDoList.sol\":2256:2269  tasks[_id].id */\n      0x00\n      add\n      sload\n        /* \"contracts/ToDoList.sol\":2256:2274  tasks[_id].id != 0 */\n      sub\n        /* \"contracts/ToDoList.sol\":2248:2307  require(tasks[_id].id != 0, \"ToDoList : Task doesnt exist\") */\n      tag_85\n      jumpi\n      mload(0x40)\n      0x08c379a000000000000000000000000000000000000000000000000000000000\n      dup2\n      mstore\n      0x04\n      add\n      tag_86\n      swap1\n      tag_75\n      jump\t// in\n    tag_86:\n      mload(0x40)\n      dup1\n      swap2\n      sub\n      swap1\n      revert\n    tag_85:\n        /* \"contracts/ToDoList.sol\":2328:2353  Task storage taskToToogle */\n      0x00\n        /* \"contracts/ToDoList.sol\":2356:2361  tasks */\n      0x02\n        /* \"contracts/ToDoList.sol\":2356:2366  tasks[_id] */\n      0x00\n        /* \"contracts/ToDoList.sol\":2362:2365  _id */\n      dup4\n        /* \"contracts/ToDoList.sol\":2356:2366  tasks[_id] */\n      dup2\n      mstore\n      0x20\n      add\n      swap1\n      dup2\n      mstore\n      0x20\n      add\n      0x00\n      keccak256\n        /* \"contracts/ToDoList.sol\":2328:2366  Task storage taskToToogle = tasks[_id] */\n      swap1\n      pop\n        /* \"contracts/ToDoList.sol\":2403:2415  taskToToogle */\n      dup1\n        /* \"contracts/ToDoList.sol\":2403:2425  taskToToogle.completed */\n      0x02\n      add\n      0x00\n      swap1\n      sload\n      swap1\n      0x0100\n      exp\n      swap1\n      div\n      0xff\n      and\n        /* \"contracts/ToDoList.sol\":2402:2425  !taskToToogle.completed */\n      iszero\n        /* \"contracts/ToDoList.sol\":2377:2389  taskToToogle */\n      dup2\n        /* \"contracts/ToDoList.sol\":2377:2399  taskToToogle.completed */\n      0x02\n      add\n      0x00\n        /* \"contracts/ToDoList.sol\":2377:2425  taskToToogle.completed = !taskToToogle.completed */\n      0x0100\n      exp\n      dup2\n      sload\n      dup2\n      0xff\n      mul\n      not\n      and\n      swap1\n      dup4\n      iszero\n      iszero\n      mul\n      or\n      swap1\n      sstore\n      pop\n        /* \"contracts/ToDoList.sol\":2455:2458  _id */\n      dup2\n        /* \"contracts/ToDoList.sol\":2441:2483  TaskCompleted(_id, taskToToogle.completed) */\n      0xe21fa966ca5cd02748c0752352d18c48165e61cb55b4c29cccf924b5a95fcff1\n        /* \"contracts/ToDoList.sol\":2460:2472  taskToToogle */\n      dup3\n        /* \"contracts/ToDoList.sol\":2460:2482  taskToToogle.completed */\n      0x02\n      add\n      0x00\n      swap1\n      sload\n      swap1\n      0x0100\n      exp\n      swap1\n      div\n      0xff\n      and\n        /* \"contracts/ToDoList.sol\":2441:2483  TaskCompleted(_id, taskToToogle.completed) */\n      mload(0x40)\n      tag_87\n      swap2\n      swap1\n      tag_88\n      jump\t// in\n    tag_87:\n      mload(0x40)\n      dup1\n      swap2\n      sub\n      swap1\n      log2\n        /* \"contracts/ToDoList.sol\":2237:2491  {... */\n      pop\n        /* \"contracts/ToDoList.sol\":2183:2491  function toggleCompleted(uint _id) external onlyOwner {... */\n      pop\n      jump\t// out\n        /* \"contracts/ToDoList.sol\":2690:2887  function deleteTask(uint _id) external onlyOwner {... */\n    tag_30:\n        /* \"@openzeppelin/contracts/access/Ownable.sol\":1531:1544  _checkOwner() */\n      tag_90\n        /* \"@openzeppelin/contracts/access/Ownable.sol\":1531:1542  _checkOwner */\n      tag_59\n        /* \"@openzeppelin/contracts/access/Ownable.sol\":1531:1544  _checkOwner() */\n      jump\t// in\n    tag_90:\n        /* \"contracts/ToDoList.sol\":2775:2776  0 */\n      0x00\n        /* \"contracts/ToDoList.sol\":2758:2763  tasks */\n      0x02\n        /* \"contracts/ToDoList.sol\":2758:2768  tasks[_id] */\n      0x00\n        /* \"contracts/ToDoList.sol\":2764:2767  _id */\n      dup4\n        /* \"contracts/ToDoList.sol\":2758:2768  tasks[_id] */\n      dup2\n      mstore\n      0x20\n      add\n      swap1\n      dup2\n      mstore\n      0x20\n      add\n      0x00\n      keccak256\n        /* \"contracts/ToDoList.sol\":2758:2771  tasks[_id].id */\n      0x00\n      add\n      sload\n        /* \"contracts/ToDoList.sol\":2758:2776  tasks[_id].id != 0 */\n      sub\n        /* \"contracts/ToDoList.sol\":2750:2809  require(tasks[_id].id != 0, \"ToDoList : Task doesnt exist\") */\n      tag_92\n      jumpi\n      mload(0x40)\n      0x08c379a000000000000000000000000000000000000000000000000000000000\n      dup2\n      mstore\n      0x04\n      add\n      tag_93\n      swap1\n      tag_75\n      jump\t// in\n    tag_93:\n      mload(0x40)\n      dup1\n      swap2\n      sub\n      swap1\n      revert\n    tag_92:\n        /* \"contracts/ToDoList.sol\":2837:2842  tasks */\n      0x02\n        /* \"contracts/ToDoList.sol\":2837:2847  tasks[_id] */\n      0x00\n        /* \"contracts/ToDoList.sol\":2843:2846  _id */\n      dup3\n        /* \"contracts/ToDoList.sol\":2837:2847  tasks[_id] */\n      dup2\n      mstore\n      0x20\n      add\n      swap1\n      dup2\n      mstore\n      0x20\n      add\n      0x00\n      keccak256\n      0x00\n        /* \"contracts/ToDoList.sol\":2830:2847  delete tasks[_id] */\n      0x00\n      dup3\n      add\n      0x00\n      swap1\n      sstore\n      0x01\n      dup3\n      add\n      0x00\n      tag_94\n      swap2\n      swap1\n      tag_95\n      jump\t// in\n    tag_94:\n      0x02\n      dup3\n      add\n      exp(0x0100, 0x00)\n      dup2\n      sload\n      swap1\n      0xff\n      mul\n      not\n      and\n      swap1\n      sstore\n      pop\n      pop\n        /* \"contracts/ToDoList.sol\":2875:2878  _id */\n      dup1\n        /* \"contracts/ToDoList.sol\":2863:2879  TaskDeleted(_id) */\n      0xd078b251d950cc55c44340be1db732337ef4939a76e1367ee271ad2cb19c46af\n      mload(0x40)\n      mload(0x40)\n      dup1\n      swap2\n      sub\n      swap1\n      log2\n        /* \"contracts/ToDoList.sol\":2690:2887  function deleteTask(uint _id) external onlyOwner {... */\n      pop\n      jump\t// out\n        /* \"@openzeppelin/contracts/access/Ownable.sol\":2293:2394  function renounceOwnership() public virtual onlyOwner {... */\n    tag_32:\n        /* \"@openzeppelin/contracts/access/Ownable.sol\":1531:1544  _checkOwner() */\n      tag_97\n        /* \"@openzeppelin/contracts/access/Ownable.sol\":1531:1542  _checkOwner */\n      tag_59\n        /* \"@openzeppelin/contracts/access/Ownable.sol\":1531:1544  _checkOwner() */\n      jump\t// in\n    tag_97:\n        /* \"@openzeppelin/contracts/access/Ownable.sol\":2357:2387  _transferOwnership(address(0)) */\n      tag_99\n        /* \"@openzeppelin/contracts/access/Ownable.sol\":2384:2385  0 */\n      0x00\n        /* \"@openzeppelin/contracts/access/Ownable.sol\":2357:2375  _transferOwnership */\n      tag_100\n        /* \"@openzeppelin/contracts/access/Ownable.sol\":2357:2387  _transferOwnership(address(0)) */\n      jump\t// in\n    tag_99:\n        /* \"@openzeppelin/contracts/access/Ownable.sol\":2293:2394  function renounceOwnership() public virtual onlyOwner {... */\n      jump\t// out\n        /* \"contracts/ToDoList.sol\":3860:4522  function getAllTasks() external view onlyOwner returns(Task[] memory) {... */\n    tag_34:\n        /* \"contracts/ToDoList.sol\":3915:3928  Task[] memory */\n      0x60\n        /* \"@openzeppelin/contracts/access/Ownable.sol\":1531:1544  _checkOwner() */\n      tag_102\n        /* \"@openzeppelin/contracts/access/Ownable.sol\":1531:1542  _checkOwner */\n      tag_59\n        /* \"@openzeppelin/contracts/access/Ownable.sol\":1531:1544  _checkOwner() */\n      jump\t// in\n    tag_102:\n        /* \"contracts/ToDoList.sol\":3940:3960  uint activeTaskCount */\n      0x00\n        /* \"contracts/ToDoList.sol\":3963:3964  0 */\n      0x00\n        /* \"contracts/ToDoList.sol\":3940:3964  uint activeTaskCount = 0 */\n      swap1\n      pop\n        /* \"contracts/ToDoList.sol\":3979:3985  uint i */\n      0x00\n        /* \"contracts/ToDoList.sol\":3988:3989  1 */\n      0x01\n        /* \"contracts/ToDoList.sol\":3979:3989  uint i = 1 */\n      swap1\n      pop\n        /* \"contracts/ToDoList.sol\":3975:4111  for(uint i = 1; i <= taskCount; i++) {... */\n    tag_104:\n        /* \"contracts/ToDoList.sol\":3996:4005  taskCount */\n      sload(0x01)\n        /* \"contracts/ToDoList.sol\":3991:3992  i */\n      dup2\n        /* \"contracts/ToDoList.sol\":3991:4005  i <= taskCount */\n      gt\n        /* \"contracts/ToDoList.sol\":3975:4111  for(uint i = 1; i <= taskCount; i++) {... */\n      tag_105\n      jumpi\n        /* \"contracts/ToDoList.sol\":4045:4046  0 */\n      0x00\n        /* \"contracts/ToDoList.sol\":4030:4035  tasks */\n      0x02\n        /* \"contracts/ToDoList.sol\":4030:4038  tasks[i] */\n      0x00\n        /* \"contracts/ToDoList.sol\":4036:4037  i */\n      dup4\n        /* \"contracts/ToDoList.sol\":4030:4038  tasks[i] */\n      dup2\n      mstore\n      0x20\n      add\n      swap1\n      dup2\n      mstore\n      0x20\n      add\n      0x00\n      keccak256\n        /* \"contracts/ToDoList.sol\":4030:4041  tasks[i].id */\n      0x00\n      add\n      sload\n        /* \"contracts/ToDoList.sol\":4030:4046  tasks[i].id != 0 */\n      eq\n        /* \"contracts/ToDoList.sol\":4027:4100  if(tasks[i].id != 0) {... */\n      tag_107\n      jumpi\n        /* \"contracts/ToDoList.sol\":4067:4084  activeTaskCount++ */\n      dup2\n      dup1\n      tag_108\n      swap1\n      tag_65\n      jump\t// in\n    tag_108:\n      swap3\n      pop\n      pop\n        /* \"contracts/ToDoList.sol\":4027:4100  if(tasks[i].id != 0) {... */\n    tag_107:\n        /* \"contracts/ToDoList.sol\":4007:4010  i++ */\n      dup1\n      dup1\n      tag_109\n      swap1\n      tag_65\n      jump\t// in\n    tag_109:\n      swap2\n      pop\n      pop\n        /* \"contracts/ToDoList.sol\":3975:4111  for(uint i = 1; i <= taskCount; i++) {... */\n      jump(tag_104)\n    tag_105:\n      pop\n        /* \"contracts/ToDoList.sol\":4145:4146  0 */\n      0x00\n        /* \"contracts/ToDoList.sol\":4126:4141  activeTaskCount */\n      dup2\n        /* \"contracts/ToDoList.sol\":4126:4146  activeTaskCount == 0 */\n      sub\n        /* \"contracts/ToDoList.sol\":4123:4195  if(activeTaskCount == 0) {... */\n      tag_110\n      jumpi\n        /* \"contracts/ToDoList.sol\":4181:4182  0 */\n      0x00\n        /* \"contracts/ToDoList.sol\":4170:4183  new Task[](0) */\n      0xffffffffffffffff\n      dup2\n      gt\n      iszero\n      tag_111\n      jumpi\n      tag_112\n      tag_113\n      jump\t// in\n    tag_112:\n    tag_111:\n      mload(0x40)\n      swap1\n      dup1\n      dup3\n      mstore\n      dup1\n      0x20\n      mul\n      0x20\n      add\n      dup3\n      add\n      0x40\n      mstore\n      dup1\n      iszero\n      tag_114\n      jumpi\n      dup2\n      0x20\n      add\n    tag_115:\n      tag_116\n      tag_117\n      jump\t// in\n    tag_116:\n      dup2\n      mstore\n      0x20\n      add\n      swap1\n      0x01\n      swap1\n      sub\n      swap1\n      dup2\n      tag_115\n      jumpi\n      swap1\n      pop\n    tag_114:\n      pop\n        /* \"contracts/ToDoList.sol\":4163:4183  return new Task[](0) */\n      swap2\n      pop\n      pop\n      jump(tag_103)\n        /* \"contracts/ToDoList.sol\":4123:4195  if(activeTaskCount == 0) {... */\n    tag_110:\n        /* \"contracts/ToDoList.sol\":4207:4229  Task[] memory allTasks */\n      0x00\n        /* \"contracts/ToDoList.sol\":4243:4258  activeTaskCount */\n      dup2\n        /* \"contracts/ToDoList.sol\":4232:4259  new Task[](activeTaskCount) */\n      0xffffffffffffffff\n      dup2\n      gt\n      iszero\n      tag_118\n      jumpi\n      tag_119\n      tag_113\n      jump\t// in\n    tag_119:\n    tag_118:\n      mload(0x40)\n      swap1\n      dup1\n      dup3\n      mstore\n      dup1\n      0x20\n      mul\n      0x20\n      add\n      dup3\n      add\n      0x40\n      mstore\n      dup1\n      iszero\n      tag_120\n      jumpi\n      dup2\n      0x20\n      add\n    tag_121:\n      tag_122\n      tag_117\n      jump\t// in\n    tag_122:\n      dup2\n      mstore\n      0x20\n      add\n      swap1\n      0x01\n      swap1\n      sub\n      swap1\n      dup2\n      tag_121\n      jumpi\n      swap1\n      pop\n    tag_120:\n      pop\n        /* \"contracts/ToDoList.sol\":4207:4259  Task[] memory allTasks = new Task[](activeTaskCount) */\n      swap1\n      pop\n        /* \"contracts/ToDoList.sol\":4270:4287  uint currentIndex */\n      0x00\n        /* \"contracts/ToDoList.sol\":4290:4291  0 */\n      0x00\n        /* \"contracts/ToDoList.sol\":4270:4291  uint currentIndex = 0 */\n      swap1\n      pop\n        /* \"contracts/ToDoList.sol\":4306:4312  uint i */\n      0x00\n        /* \"contracts/ToDoList.sol\":4315:4316  1 */\n      0x01\n        /* \"contracts/ToDoList.sol\":4306:4316  uint i = 1 */\n      swap1\n      pop\n        /* \"contracts/ToDoList.sol\":4302:4489  for(uint i = 1; i <= taskCount; i++) {... */\n    tag_123:\n        /* \"contracts/ToDoList.sol\":4323:4332  taskCount */\n      sload(0x01)\n        /* \"contracts/ToDoList.sol\":4318:4319  i */\n      dup2\n        /* \"contracts/ToDoList.sol\":4318:4332  i <= taskCount */\n      gt\n        /* \"contracts/ToDoList.sol\":4302:4489  for(uint i = 1; i <= taskCount; i++) {... */\n      tag_124\n      jumpi\n        /* \"contracts/ToDoList.sol\":4373:4374  0 */\n      0x00\n        /* \"contracts/ToDoList.sol\":4358:4363  tasks */\n      0x02\n        /* \"contracts/ToDoList.sol\":4358:4366  tasks[i] */\n      0x00\n        /* \"contracts/ToDoList.sol\":4364:4365  i */\n      dup4\n        /* \"contracts/ToDoList.sol\":4358:4366  tasks[i] */\n      dup2\n      mstore\n      0x20\n      add\n      swap1\n      dup2\n      mstore\n      0x20\n      add\n      0x00\n      keccak256\n        /* \"contracts/ToDoList.sol\":4358:4369  tasks[i].id */\n      0x00\n      add\n      sload\n        /* \"contracts/ToDoList.sol\":4358:4374  tasks[i].id != 0 */\n      eq\n        /* \"contracts/ToDoList.sol\":4355:4478  if(tasks[i].id != 0) {... */\n      tag_126\n      jumpi\n        /* \"contracts/ToDoList.sol\":4420:4425  tasks */\n      0x02\n        /* \"contracts/ToDoList.sol\":4420:4428  tasks[i] */\n      0x00\n        /* \"contracts/ToDoList.sol\":4426:4427  i */\n      dup3\n        /* \"contracts/ToDoList.sol\":4420:4428  tasks[i] */\n      dup2\n      mstore\n      0x20\n      add\n      swap1\n      dup2\n      mstore\n      0x20\n      add\n      0x00\n      keccak256\n        /* \"contracts/ToDoList.sol\":4395:4428  allTasks[currentIndex] = tasks[i] */\n      mload(0x40)\n      dup1\n      0x60\n      add\n      0x40\n      mstore\n      swap1\n      dup2\n      0x00\n      dup3\n      add\n      sload\n      dup2\n      mstore\n      0x20\n      add\n      0x01\n      dup3\n      add\n      dup1\n      sload\n      tag_127\n      swap1\n      tag_77\n      jump\t// in\n    tag_127:\n      dup1\n      0x1f\n      add\n      0x20\n      dup1\n      swap2\n      div\n      mul\n      0x20\n      add\n      mload(0x40)\n      swap1\n      dup2\n      add\n      0x40\n      mstore\n      dup1\n      swap3\n      swap2\n      swap1\n      dup2\n      dup2\n      mstore\n      0x20\n      add\n      dup3\n      dup1\n      sload\n      tag_128\n      swap1\n      tag_77\n      jump\t// in\n    tag_128:\n      dup1\n      iszero\n      tag_129\n      jumpi\n      dup1\n      0x1f\n      lt\n      tag_130\n      jumpi\n      0x0100\n      dup1\n      dup4\n      sload\n      div\n      mul\n      dup4\n      mstore\n      swap2\n      0x20\n      add\n      swap2\n      jump(tag_129)\n    tag_130:\n      dup3\n      add\n      swap2\n      swap1\n      0x00\n      mstore\n      keccak256(0x00, 0x20)\n      swap1\n    tag_131:\n      dup2\n      sload\n      dup2\n      mstore\n      swap1\n      0x01\n      add\n      swap1\n      0x20\n      add\n      dup1\n      dup4\n      gt\n      tag_131\n      jumpi\n      dup3\n      swap1\n      sub\n      0x1f\n      and\n      dup3\n      add\n      swap2\n    tag_129:\n      pop\n      pop\n      pop\n      pop\n      pop\n      dup2\n      mstore\n      0x20\n      add\n      0x02\n      dup3\n      add\n      0x00\n      swap1\n      sload\n      swap1\n      0x0100\n      exp\n      swap1\n      div\n      0xff\n      and\n      iszero\n      iszero\n      iszero\n      iszero\n      dup2\n      mstore\n      pop\n      pop\n        /* \"contracts/ToDoList.sol\":4395:4403  allTasks */\n      dup4\n        /* \"contracts/ToDoList.sol\":4404:4416  currentIndex */\n      dup4\n        /* \"contracts/ToDoList.sol\":4395:4417  allTasks[currentIndex] */\n      dup2\n      mload\n      dup2\n      lt\n      tag_132\n      jumpi\n      tag_133\n      tag_134\n      jump\t// in\n    tag_133:\n    tag_132:\n      0x20\n      mul\n      0x20\n      add\n      add\n        /* \"contracts/ToDoList.sol\":4395:4428  allTasks[currentIndex] = tasks[i] */\n      dup2\n      swap1\n      mstore\n      pop\n        /* \"contracts/ToDoList.sol\":4447:4461  currentIndex++ */\n      dup2\n      dup1\n      tag_135\n      swap1\n      tag_65\n      jump\t// in\n    tag_135:\n      swap3\n      pop\n      pop\n        /* \"contracts/ToDoList.sol\":4355:4478  if(tasks[i].id != 0) {... */\n    tag_126:\n        /* \"contracts/ToDoList.sol\":4334:4337  i++ */\n      dup1\n      dup1\n      tag_136\n      swap1\n      tag_65\n      jump\t// in\n    tag_136:\n      swap2\n      pop\n      pop\n        /* \"contracts/ToDoList.sol\":4302:4489  for(uint i = 1; i <= taskCount; i++) {... */\n      jump(tag_123)\n    tag_124:\n      pop\n        /* \"contracts/ToDoList.sol\":4506:4514  allTasks */\n      dup2\n        /* \"contracts/ToDoList.sol\":4499:4514  return allTasks */\n      swap4\n      pop\n      pop\n      pop\n      pop\n        /* \"@openzeppelin/contracts/access/Ownable.sol\":1554:1555  _ */\n    tag_103:\n        /* \"contracts/ToDoList.sol\":3860:4522  function getAllTasks() external view onlyOwner returns(Task[] memory) {... */\n      swap1\n      jump\t// out\n        /* \"contracts/ToDoList.sol\":1588:1928  function updateTask(uint _id, string calldata _newContent) external onlyOwner {... */\n    tag_40:\n        /* \"@openzeppelin/contracts/access/Ownable.sol\":1531:1544  _checkOwner() */\n      tag_138\n        /* \"@openzeppelin/contracts/access/Ownable.sol\":1531:1542  _checkOwner */\n      tag_59\n        /* \"@openzeppelin/contracts/access/Ownable.sol\":1531:1544  _checkOwner() */\n      jump\t// in\n    tag_138:\n        /* \"contracts/ToDoList.sol\":1713:1714  0 */\n      0x00\n        /* \"contracts/ToDoList.sol\":1691:1702  _newContent */\n      dup3\n      dup3\n        /* \"contracts/ToDoList.sol\":1685:1710  bytes(_newContent).length */\n      swap1\n      pop\n        /* \"contracts/ToDoList.sol\":1685:1714  bytes(_newContent).length > 0 */\n      gt\n        /* \"contracts/ToDoList.sol\":1677:1753  require(bytes(_newContent).length > 0, \"ToDoList : Content cannot be empty\") */\n      tag_140\n      jumpi\n      mload(0x40)\n      0x08c379a000000000000000000000000000000000000000000000000000000000\n      dup2\n      mstore\n      0x04\n      add\n      tag_141\n      swap1\n      tag_63\n      jump\t// in\n    tag_141:\n      mload(0x40)\n      dup1\n      swap2\n      sub\n      swap1\n      revert\n    tag_140:\n        /* \"contracts/ToDoList.sol\":1789:1790  0 */\n      0x00\n        /* \"contracts/ToDoList.sol\":1772:1777  tasks */\n      0x02\n        /* \"contracts/ToDoList.sol\":1772:1782  tasks[_id] */\n      0x00\n        /* \"contracts/ToDoList.sol\":1778:1781  _id */\n      dup6\n        /* \"contracts/ToDoList.sol\":1772:1782  tasks[_id] */\n      dup2\n      mstore\n      0x20\n      add\n      swap1\n      dup2\n      mstore\n      0x20\n      add\n      0x00\n      keccak256\n        /* \"contracts/ToDoList.sol\":1772:1785  tasks[_id].id */\n      0x00\n      add\n      sload\n        /* \"contracts/ToDoList.sol\":1772:1790  tasks[_id].id != 0 */\n      sub\n        /* \"contracts/ToDoList.sol\":1764:1823  require(tasks[_id].id != 0, \"ToDoList : Task doesnt exist\") */\n      tag_142\n      jumpi\n      mload(0x40)\n      0x08c379a000000000000000000000000000000000000000000000000000000000\n      dup2\n      mstore\n      0x04\n      add\n      tag_143\n      swap1\n      tag_75\n      jump\t// in\n    tag_143:\n      mload(0x40)\n      dup1\n      swap2\n      sub\n      swap1\n      revert\n    tag_142:\n        /* \"contracts/ToDoList.sol\":1857:1868  _newContent */\n      dup2\n      dup2\n        /* \"contracts/ToDoList.sol\":1836:1841  tasks */\n      0x02\n        /* \"contracts/ToDoList.sol\":1836:1846  tasks[_id] */\n      0x00\n        /* \"contracts/ToDoList.sol\":1842:1845  _id */\n      dup7\n        /* \"contracts/ToDoList.sol\":1836:1846  tasks[_id] */\n      dup2\n      mstore\n      0x20\n      add\n      swap1\n      dup2\n      mstore\n      0x20\n      add\n      0x00\n      keccak256\n        /* \"contracts/ToDoList.sol\":1836:1854  tasks[_id].content */\n      0x01\n      add\n        /* \"contracts/ToDoList.sol\":1836:1868  tasks[_id].content = _newContent */\n      swap2\n      dup3\n      tag_144\n      swap3\n      swap2\n      swap1\n      tag_145\n      jump\t// in\n    tag_144:\n      pop\n        /* \"contracts/ToDoList.sol\":1903:1906  _id */\n      dup3\n        /* \"contracts/ToDoList.sol\":1884:1920  TaskContentUpdated(_id, _newContent) */\n      0x39fdc01494598bde3e34a388abd0032d3eafbd917b56d7572771da5146d27793\n        /* \"contracts/ToDoList.sol\":1908:1919  _newContent */\n      dup4\n      dup4\n        /* \"contracts/ToDoList.sol\":1884:1920  TaskContentUpdated(_id, _newContent) */\n      mload(0x40)\n      tag_146\n      swap3\n      swap2\n      swap1\n      tag_69\n      jump\t// in\n    tag_146:\n      mload(0x40)\n      dup1\n      swap2\n      sub\n      swap1\n      log2\n        /* \"contracts/ToDoList.sol\":1588:1928  function updateTask(uint _id, string calldata _newContent) external onlyOwner {... */\n      pop\n      pop\n      pop\n      jump\t// out\n        /* \"contracts/ToDoList.sol\":394:428  mapping(uint => Task) public tasks */\n    tag_43:\n      mstore(0x20, 0x02)\n      dup1\n      0x00\n      mstore\n      keccak256(0x00, 0x40)\n      0x00\n      swap2\n      pop\n      swap1\n      pop\n      dup1\n      0x00\n      add\n      sload\n      swap1\n      dup1\n      0x01\n      add\n      dup1\n      sload\n      tag_147\n      swap1\n      tag_77\n      jump\t// in\n    tag_147:\n      dup1\n      0x1f\n      add\n      0x20\n      dup1\n      swap2\n      div\n      mul\n      0x20\n      add\n      mload(0x40)\n      swap1\n      dup2\n      add\n      0x40\n      mstore\n      dup1\n      swap3\n      swap2\n      swap1\n      dup2\n      dup2\n      mstore\n      0x20\n      add\n      dup3\n      dup1\n      sload\n      tag_148\n      swap1\n      tag_77\n      jump\t// in\n    tag_148:\n      dup1\n      iszero\n      tag_149\n      jumpi\n      dup1\n      0x1f\n      lt\n      tag_150\n      jumpi\n      0x0100\n      dup1\n      dup4\n      sload\n      div\n      mul\n      dup4\n      mstore\n      swap2\n      0x20\n      add\n      swap2\n      jump(tag_149)\n    tag_150:\n      dup3\n      add\n      swap2\n      swap1\n      0x00\n      mstore\n      keccak256(0x00, 0x20)\n      swap1\n    tag_151:\n      dup2\n      sload\n      dup2\n      mstore\n      swap1\n      0x01\n      add\n      swap1\n      0x20\n      add\n      dup1\n      dup4\n      gt\n      tag_151\n      jumpi\n      dup3\n      swap1\n      sub\n      0x1f\n      and\n      dup3\n      add\n      swap2\n    tag_149:\n      pop\n      pop\n      pop\n      pop\n      pop\n      swap1\n      dup1\n      0x02\n      add\n      0x00\n      swap1\n      sload\n      swap1\n      0x0100\n      exp\n      swap1\n      div\n      0xff\n      and\n      swap1\n      pop\n      dup4\n      jump\t// out\n        /* \"@openzeppelin/contracts/access/Ownable.sol\":1638:1723  function owner() public view virtual returns (address) {... */\n    tag_46:\n        /* \"@openzeppelin/contracts/access/Ownable.sol\":1684:1691  address */\n      0x00\n        /* \"@openzeppelin/contracts/access/Ownable.sol\":1710:1716  _owner */\n      0x00\n      0x00\n      swap1\n      sload\n      swap1\n      0x0100\n      exp\n      swap1\n      div\n      0xffffffffffffffffffffffffffffffffffffffff\n      and\n        /* \"@openzeppelin/contracts/access/Ownable.sol\":1703:1716  return _owner */\n      swap1\n      pop\n        /* \"@openzeppelin/contracts/access/Ownable.sol\":1638:1723  function owner() public view virtual returns (address) {... */\n      swap1\n      jump\t// out\n        /* \"contracts/ToDoList.sol\":366:387  uint public taskCount */\n    tag_50:\n      sload(0x01)\n      dup2\n      jump\t// out\n        /* \"@openzeppelin/contracts/access/Ownable.sol\":2543:2758  function transferOwnership(address newOwner) public virtual onlyOwner {... */\n    tag_56:\n        /* \"@openzeppelin/contracts/access/Ownable.sol\":1531:1544  _checkOwner() */\n      tag_154\n        /* \"@openzeppelin/contracts/access/Ownable.sol\":1531:1542  _checkOwner */\n      tag_59\n        /* \"@openzeppelin/contracts/access/Ownable.sol\":1531:1544  _checkOwner() */\n      jump\t// in\n    tag_154:\n        /* \"@openzeppelin/contracts/access/Ownable.sol\":2647:2648  0 */\n      0x00\n        /* \"@openzeppelin/contracts/access/Ownable.sol\":2627:2649  newOwner == address(0) */\n      0xffffffffffffffffffffffffffffffffffffffff\n      and\n        /* \"@openzeppelin/contracts/access/Ownable.sol\":2627:2635  newOwner */\n      dup2\n        /* \"@openzeppelin/contracts/access/Ownable.sol\":2627:2649  newOwner == address(0) */\n      0xffffffffffffffffffffffffffffffffffffffff\n      and\n      sub\n        /* \"@openzeppelin/contracts/access/Ownable.sol\":2623:2714  if (newOwner == address(0)) {... */\n      tag_156\n      jumpi\n        /* \"@openzeppelin/contracts/access/Ownable.sol\":2700:2701  0 */\n      0x00\n        /* \"@openzeppelin/contracts/access/Ownable.sol\":2672:2703  OwnableInvalidOwner(address(0)) */\n      mload(0x40)\n      0x1e4fbdf700000000000000000000000000000000000000000000000000000000\n      dup2\n      mstore\n      0x04\n      add\n      tag_157\n      swap2\n      swap1\n      tag_48\n      jump\t// in\n    tag_157:\n      mload(0x40)\n      dup1\n      swap2\n      sub\n      swap1\n      revert\n        /* \"@openzeppelin/contracts/access/Ownable.sol\":2623:2714  if (newOwner == address(0)) {... */\n    tag_156:\n        /* \"@openzeppelin/contracts/access/Ownable.sol\":2723:2751  _transferOwnership(newOwner) */\n      tag_158\n        /* \"@openzeppelin/contracts/access/Ownable.sol\":2742:2750  newOwner */\n      dup2\n        /* \"@openzeppelin/contracts/access/Ownable.sol\":2723:2741  _transferOwnership */\n      tag_100\n        /* \"@openzeppelin/contracts/access/Ownable.sol\":2723:2751  _transferOwnership(newOwner) */\n      jump\t// in\n    tag_158:\n        /* \"@openzeppelin/contracts/access/Ownable.sol\":2543:2758  function transferOwnership(address newOwner) public virtual onlyOwner {... */\n      pop\n      jump\t// out\n        /* \"@openzeppelin/contracts/access/Ownable.sol\":1796:1958  function _checkOwner() internal view virtual {... */\n    tag_59:\n        /* \"@openzeppelin/contracts/access/Ownable.sol\":1866:1878  _msgSender() */\n      tag_160\n        /* \"@openzeppelin/contracts/access/Ownable.sol\":1866:1876  _msgSender */\n      tag_161\n        /* \"@openzeppelin/contracts/access/Ownable.sol\":1866:1878  _msgSender() */\n      jump\t// in\n    tag_160:\n        /* \"@openzeppelin/contracts/access/Ownable.sol\":1855:1878  owner() != _msgSender() */\n      0xffffffffffffffffffffffffffffffffffffffff\n      and\n        /* \"@openzeppelin/contracts/access/Ownable.sol\":1855:1862  owner() */\n      tag_162\n        /* \"@openzeppelin/contracts/access/Ownable.sol\":1855:1860  owner */\n      tag_46\n        /* \"@openzeppelin/contracts/access/Ownable.sol\":1855:1862  owner() */\n      jump\t// in\n    tag_162:\n        /* \"@openzeppelin/contracts/access/Ownable.sol\":1855:1878  owner() != _msgSender() */\n      0xffffffffffffffffffffffffffffffffffffffff\n      and\n      eq\n        /* \"@openzeppelin/contracts/access/Ownable.sol\":1851:1952  if (owner() != _msgSender()) {... */\n      tag_163\n      jumpi\n        /* \"@openzeppelin/contracts/access/Ownable.sol\":1928:1940  _msgSender() */\n      tag_164\n        /* \"@openzeppelin/contracts/access/Ownable.sol\":1928:1938  _msgSender */\n      tag_161\n        /* \"@openzeppelin/contracts/access/Ownable.sol\":1928:1940  _msgSender() */\n      jump\t// in\n    tag_164:\n        /* \"@openzeppelin/contracts/access/Ownable.sol\":1901:1941  OwnableUnauthorizedAccount(_msgSender()) */\n      mload(0x40)\n      0x118cdaa700000000000000000000000000000000000000000000000000000000\n      dup2\n      mstore\n      0x04\n      add\n      tag_165\n      swap2\n      swap1\n      tag_48\n      jump\t// in\n    tag_165:\n      mload(0x40)\n      dup1\n      swap2\n      sub\n      swap1\n      revert\n        /* \"@openzeppelin/contracts/access/Ownable.sol\":1851:1952  if (owner() != _msgSender()) {... */\n    tag_163:\n        /* \"@openzeppelin/contracts/access/Ownable.sol\":1796:1958  function _checkOwner() internal view virtual {... */\n      jump\t// out\n        /* \"@openzeppelin/contracts/access/Ownable.sol\":2912:3099  function _transferOwnership(address newOwner) internal virtual {... */\n    tag_100:\n        /* \"@openzeppelin/contracts/access/Ownable.sol\":2985:3001  address oldOwner */\n      0x00\n        /* \"@openzeppelin/contracts/access/Ownable.sol\":3004:3010  _owner */\n      0x00\n      0x00\n      swap1\n      sload\n      swap1\n      0x0100\n      exp\n      swap1\n      div\n      0xffffffffffffffffffffffffffffffffffffffff\n      and\n        /* \"@openzeppelin/contracts/access/Ownable.sol\":2985:3010  address oldOwner = _owner */\n      swap1\n      pop\n        /* \"@openzeppelin/contracts/access/Ownable.sol\":3029:3037  newOwner */\n      dup2\n        /* \"@openzeppelin/contracts/access/Ownable.sol\":3020:3026  _owner */\n      0x00\n      0x00\n        /* \"@openzeppelin/contracts/access/Ownable.sol\":3020:3037  _owner = newOwner */\n      0x0100\n      exp\n      dup2\n      sload\n      dup2\n      0xffffffffffffffffffffffffffffffffffffffff\n      mul\n      not\n      and\n      swap1\n      dup4\n      0xffffffffffffffffffffffffffffffffffffffff\n      and\n      mul\n      or\n      swap1\n      sstore\n      pop\n        /* \"@openzeppelin/contracts/access/Ownable.sol\":3083:3091  newOwner */\n      dup2\n        /* \"@openzeppelin/contracts/access/Ownable.sol\":3052:3092  OwnershipTransferred(oldOwner, newOwner) */\n      0xffffffffffffffffffffffffffffffffffffffff\n      and\n        /* \"@openzeppelin/contracts/access/Ownable.sol\":3073:3081  oldOwner */\n      dup2\n        /* \"@openzeppelin/contracts/access/Ownable.sol\":3052:3092  OwnershipTransferred(oldOwner, newOwner) */\n      0xffffffffffffffffffffffffffffffffffffffff\n      and\n      0x8be0079c531659141344cd1fd0a4f28419497f9722a3daafe3b4186f6b6457e0\n      mload(0x40)\n      mload(0x40)\n      dup1\n      swap2\n      sub\n      swap1\n      log3\n        /* \"@openzeppelin/contracts/access/Ownable.sol\":2975:3099  {... */\n      pop\n        /* \"@openzeppelin/contracts/access/Ownable.sol\":2912:3099  function _transferOwnership(address newOwner) internal virtual {... */\n      pop\n      jump\t// out\n        /* \"@openzeppelin/contracts/utils/Context.sol\":656:752  function _msgSender() internal view virtual returns (address) {... */\n    tag_161:\n        /* \"@openzeppelin/contracts/utils/Context.sol\":709:716  address */\n      0x00\n        /* \"@openzeppelin/contracts/utils/Context.sol\":735:745  msg.sender */\n      caller\n        /* \"@openzeppelin/contracts/utils/Context.sol\":728:745  return msg.sender */\n      swap1\n      pop\n        /* \"@openzeppelin/contracts/utils/Context.sol\":656:752  function _msgSender() internal view virtual returns (address) {... */\n      swap1\n      jump\t// out\n    tag_95:\n      pop\n      dup1\n      sload\n      tag_168\n      swap1\n      tag_77\n      jump\t// in\n    tag_168:\n      0x00\n      dup3\n      sstore\n      dup1\n      0x1f\n      lt\n      tag_170\n      jumpi\n      pop\n      jump(tag_169)\n    tag_170:\n      0x1f\n      add\n      0x20\n      swap1\n      div\n      swap1\n      0x00\n      mstore\n      keccak256(0x00, 0x20)\n      swap1\n      dup2\n      add\n      swap1\n      tag_171\n      swap2\n      swap1\n      tag_172\n      jump\t// in\n    tag_171:\n    tag_169:\n      pop\n      jump\t// out\n    tag_117:\n      mload(0x40)\n      dup1\n      0x60\n      add\n      0x40\n      mstore\n      dup1\n      0x00\n      dup2\n      mstore\n      0x20\n      add\n      0x60\n      dup2\n      mstore\n      0x20\n      add\n      iszero(iszero(0x00))\n      dup2\n      mstore\n      pop\n      swap1\n      jump\t// out\n    tag_172:\n    tag_173:\n      dup1\n      dup3\n      gt\n      iszero\n      tag_174\n      jumpi\n      0x00\n      dup2\n      0x00\n      swap1\n      sstore\n      pop\n      0x01\n      add\n      jump(tag_173)\n    tag_174:\n      pop\n      swap1\n      jump\t// out\n        /* \"#utility.yul\":88:205   */\n    tag_176:\n        /* \"#utility.yul\":197:198   */\n      0x00\n        /* \"#utility.yul\":194:195   */\n      0x00\n        /* \"#utility.yul\":187:199   */\n      revert\n        /* \"#utility.yul\":211:328   */\n    tag_177:\n        /* \"#utility.yul\":320:321   */\n      0x00\n        /* \"#utility.yul\":317:318   */\n      0x00\n        /* \"#utility.yul\":310:322   */\n      revert\n        /* \"#utility.yul\":334:451   */\n    tag_178:\n        /* \"#utility.yul\":443:444   */\n      0x00\n        /* \"#utility.yul\":440:441   */\n      0x00\n        /* \"#utility.yul\":433:445   */\n      revert\n        /* \"#utility.yul\":457:574   */\n    tag_179:\n        /* \"#utility.yul\":566:567   */\n      0x00\n        /* \"#utility.yul\":563:564   */\n      0x00\n        /* \"#utility.yul\":556:568   */\n      revert\n        /* \"#utility.yul\":580:697   */\n    tag_180:\n        /* \"#utility.yul\":689:690   */\n      0x00\n        /* \"#utility.yul\":686:687   */\n      0x00\n        /* \"#utility.yul\":679:691   */\n      revert\n        /* \"#utility.yul\":717:1270   */\n    tag_181:\n        /* \"#utility.yul\":775:783   */\n      0x00\n        /* \"#utility.yul\":785:791   */\n      0x00\n        /* \"#utility.yul\":835:838   */\n      dup4\n        /* \"#utility.yul\":828:832   */\n      0x1f\n        /* \"#utility.yul\":820:826   */\n      dup5\n        /* \"#utility.yul\":816:833   */\n      add\n        /* \"#utility.yul\":812:839   */\n      slt\n        /* \"#utility.yul\":802:924   */\n      tag_241\n      jumpi\n        /* \"#utility.yul\":843:922   */\n      tag_242\n      tag_178\n      jump\t// in\n    tag_242:\n        /* \"#utility.yul\":802:924   */\n    tag_241:\n        /* \"#utility.yul\":956:962   */\n      dup3\n        /* \"#utility.yul\":943:963   */\n      calldataload\n        /* \"#utility.yul\":933:963   */\n      swap1\n      pop\n        /* \"#utility.yul\":986:1004   */\n      0xffffffffffffffff\n        /* \"#utility.yul\":978:984   */\n      dup2\n        /* \"#utility.yul\":975:1005   */\n      gt\n        /* \"#utility.yul\":972:1089   */\n      iszero\n      tag_243\n      jumpi\n        /* \"#utility.yul\":1008:1087   */\n      tag_244\n      tag_179\n      jump\t// in\n    tag_244:\n        /* \"#utility.yul\":972:1089   */\n    tag_243:\n        /* \"#utility.yul\":1122:1126   */\n      0x20\n        /* \"#utility.yul\":1114:1120   */\n      dup4\n        /* \"#utility.yul\":1110:1127   */\n      add\n        /* \"#utility.yul\":1098:1127   */\n      swap2\n      pop\n        /* \"#utility.yul\":1176:1179   */\n      dup4\n        /* \"#utility.yul\":1168:1172   */\n      0x01\n        /* \"#utility.yul\":1160:1166   */\n      dup3\n        /* \"#utility.yul\":1156:1173   */\n      mul\n        /* \"#utility.yul\":1146:1154   */\n      dup4\n        /* \"#utility.yul\":1142:1174   */\n      add\n        /* \"#utility.yul\":1139:1180   */\n      gt\n        /* \"#utility.yul\":1136:1264   */\n      iszero\n      tag_245\n      jumpi\n        /* \"#utility.yul\":1183:1262   */\n      tag_246\n      tag_180\n      jump\t// in\n    tag_246:\n        /* \"#utility.yul\":1136:1264   */\n    tag_245:\n        /* \"#utility.yul\":717:1270   */\n      swap3\n      pop\n      swap3\n      swap1\n      pop\n      jump\t// out\n        /* \"#utility.yul\":1276:1805   */\n    tag_17:\n        /* \"#utility.yul\":1347:1353   */\n      0x00\n        /* \"#utility.yul\":1355:1361   */\n      0x00\n        /* \"#utility.yul\":1404:1406   */\n      0x20\n        /* \"#utility.yul\":1392:1401   */\n      dup4\n        /* \"#utility.yul\":1383:1390   */\n      dup6\n        /* \"#utility.yul\":1379:1402   */\n      sub\n        /* \"#utility.yul\":1375:1407   */\n      slt\n        /* \"#utility.yul\":1372:1491   */\n      iszero\n      tag_248\n      jumpi\n        /* \"#utility.yul\":1410:1489   */\n      tag_249\n      tag_176\n      jump\t// in\n    tag_249:\n        /* \"#utility.yul\":1372:1491   */\n    tag_248:\n        /* \"#utility.yul\":1558:1559   */\n      0x00\n        /* \"#utility.yul\":1547:1556   */\n      dup4\n        /* \"#utility.yul\":1543:1560   */\n      add\n        /* \"#utility.yul\":1530:1561   */\n      calldataload\n        /* \"#utility.yul\":1588:1606   */\n      0xffffffffffffffff\n        /* \"#utility.yul\":1580:1586   */\n      dup2\n        /* \"#utility.yul\":1577:1607   */\n      gt\n        /* \"#utility.yul\":1574:1691   */\n      iszero\n      tag_250\n      jumpi\n        /* \"#utility.yul\":1610:1689   */\n      tag_251\n      tag_177\n      jump\t// in\n    tag_251:\n        /* \"#utility.yul\":1574:1691   */\n    tag_250:\n        /* \"#utility.yul\":1723:1788   */\n      tag_252\n        /* \"#utility.yul\":1780:1787   */\n      dup6\n        /* \"#utility.yul\":1771:1777   */\n      dup3\n        /* \"#utility.yul\":1760:1769   */\n      dup7\n        /* \"#utility.yul\":1756:1778   */\n      add\n        /* \"#utility.yul\":1723:1788   */\n      tag_181\n      jump\t// in\n    tag_252:\n        /* \"#utility.yul\":1705:1788   */\n      swap3\n      pop\n      swap3\n      pop\n        /* \"#utility.yul\":1501:1798   */\n      pop\n        /* \"#utility.yul\":1276:1805   */\n      swap3\n      pop\n      swap3\n      swap1\n      pop\n      jump\t// out\n        /* \"#utility.yul\":1811:1888   */\n    tag_182:\n        /* \"#utility.yul\":1848:1855   */\n      0x00\n        /* \"#utility.yul\":1877:1882   */\n      dup2\n        /* \"#utility.yul\":1866:1882   */\n      swap1\n      pop\n        /* \"#utility.yul\":1811:1888   */\n      swap2\n      swap1\n      pop\n      jump\t// out\n        /* \"#utility.yul\":1894:2016   */\n    tag_183:\n        /* \"#utility.yul\":1967:1991   */\n      tag_255\n        /* \"#utility.yul\":1985:1990   */\n      dup2\n        /* \"#utility.yul\":1967:1991   */\n      tag_182\n      jump\t// in\n    tag_255:\n        /* \"#utility.yul\":1960:1965   */\n      dup2\n        /* \"#utility.yul\":1957:1992   */\n      eq\n        /* \"#utility.yul\":1947:2010   */\n      tag_256\n      jumpi\n        /* \"#utility.yul\":2006:2007   */\n      0x00\n        /* \"#utility.yul\":2003:2004   */\n      0x00\n        /* \"#utility.yul\":1996:2008   */\n      revert\n        /* \"#utility.yul\":1947:2010   */\n    tag_256:\n        /* \"#utility.yul\":1894:2016   */\n      pop\n      jump\t// out\n        /* \"#utility.yul\":2022:2161   */\n    tag_184:\n        /* \"#utility.yul\":2068:2073   */\n      0x00\n        /* \"#utility.yul\":2106:2112   */\n      dup2\n        /* \"#utility.yul\":2093:2113   */\n      calldataload\n        /* \"#utility.yul\":2084:2113   */\n      swap1\n      pop\n        /* \"#utility.yul\":2122:2155   */\n      tag_258\n        /* \"#utility.yul\":2149:2154   */\n      dup2\n        /* \"#utility.yul\":2122:2155   */\n      tag_183\n      jump\t// in\n    tag_258:\n        /* \"#utility.yul\":2022:2161   */\n      swap3\n      swap2\n      pop\n      pop\n      jump\t// out\n        /* \"#utility.yul\":2167:2496   */\n    tag_21:\n        /* \"#utility.yul\":2226:2232   */\n      0x00\n        /* \"#utility.yul\":2275:2277   */\n      0x20\n        /* \"#utility.yul\":2263:2272   */\n      dup3\n        /* \"#utility.yul\":2254:2261   */\n      dup5\n        /* \"#utility.yul\":2250:2273   */\n      sub\n        /* \"#utility.yul\":2246:2278   */\n      slt\n        /* \"#utility.yul\":2243:2362   */\n      iszero\n      tag_260\n      jumpi\n        /* \"#utility.yul\":2281:2360   */\n      tag_261\n      tag_176\n      jump\t// in\n    tag_261:\n        /* \"#utility.yul\":2243:2362   */\n    tag_260:\n        /* \"#utility.yul\":2401:2402   */\n      0x00\n        /* \"#utility.yul\":2426:2479   */\n      tag_262\n        /* \"#utility.yul\":2471:2478   */\n      dup5\n        /* \"#utility.yul\":2462:2468   */\n      dup3\n        /* \"#utility.yul\":2451:2460   */\n      dup6\n        /* \"#utility.yul\":2447:2469   */\n      add\n        /* \"#utility.yul\":2426:2479   */\n      tag_184\n      jump\t// in\n    tag_262:\n        /* \"#utility.yul\":2416:2479   */\n      swap2\n      pop\n        /* \"#utility.yul\":2372:2489   */\n      pop\n        /* \"#utility.yul\":2167:2496   */\n      swap3\n      swap2\n      pop\n      pop\n      jump\t// out\n        /* \"#utility.yul\":2502:2620   */\n    tag_185:\n        /* \"#utility.yul\":2589:2613   */\n      tag_264\n        /* \"#utility.yul\":2607:2612   */\n      dup2\n        /* \"#utility.yul\":2589:2613   */\n      tag_182\n      jump\t// in\n    tag_264:\n        /* \"#utility.yul\":2584:2587   */\n      dup3\n        /* \"#utility.yul\":2577:2614   */\n      mstore\n        /* \"#utility.yul\":2502:2620   */\n      pop\n      pop\n      jump\t// out\n        /* \"#utility.yul\":2626:2725   */\n    tag_186:\n        /* \"#utility.yul\":2678:2684   */\n      0x00\n        /* \"#utility.yul\":2712:2717   */\n      dup2\n        /* \"#utility.yul\":2706:2718   */\n      mload\n        /* \"#utility.yul\":2696:2718   */\n      swap1\n      pop\n        /* \"#utility.yul\":2626:2725   */\n      swap2\n      swap1\n      pop\n      jump\t// out\n        /* \"#utility.yul\":2731:2900   */\n    tag_187:\n        /* \"#utility.yul\":2815:2826   */\n      0x00\n        /* \"#utility.yul\":2849:2855   */\n      dup3\n        /* \"#utility.yul\":2844:2847   */\n      dup3\n        /* \"#utility.yul\":2837:2856   */\n      mstore\n        /* \"#utility.yul\":2889:2893   */\n      0x20\n        /* \"#utility.yul\":2884:2887   */\n      dup3\n        /* \"#utility.yul\":2880:2894   */\n      add\n        /* \"#utility.yul\":2865:2894   */\n      swap1\n      pop\n        /* \"#utility.yul\":2731:2900   */\n      swap3\n      swap2\n      pop\n      pop\n      jump\t// out\n        /* \"#utility.yul\":2906:3045   */\n    tag_188:\n        /* \"#utility.yul\":2995:3001   */\n      dup3\n        /* \"#utility.yul\":2990:2993   */\n      dup2\n        /* \"#utility.yul\":2985:2988   */\n      dup4\n        /* \"#utility.yul\":2979:3002   */\n      mcopy\n        /* \"#utility.yul\":3036:3037   */\n      0x00\n        /* \"#utility.yul\":3027:3033   */\n      dup4\n        /* \"#utility.yul\":3022:3025   */\n      dup4\n        /* \"#utility.yul\":3018:3034   */\n      add\n        /* \"#utility.yul\":3011:3038   */\n      mstore\n        /* \"#utility.yul\":2906:3045   */\n      pop\n      pop\n      pop\n      jump\t// out\n        /* \"#utility.yul\":3051:3153   */\n    tag_189:\n        /* \"#utility.yul\":3092:3098   */\n      0x00\n        /* \"#utility.yul\":3143:3145   */\n      0x1f\n        /* \"#utility.yul\":3139:3146   */\n      not\n        /* \"#utility.yul\":3134:3136   */\n      0x1f\n        /* \"#utility.yul\":3127:3132   */\n      dup4\n        /* \"#utility.yul\":3123:3137   */\n      add\n        /* \"#utility.yul\":3119:3147   */\n      and\n        /* \"#utility.yul\":3109:3147   */\n      swap1\n      pop\n        /* \"#utility.yul\":3051:3153   */\n      swap2\n      swap1\n      pop\n      jump\t// out\n        /* \"#utility.yul\":3159:3536   */\n    tag_190:\n        /* \"#utility.yul\":3247:3250   */\n      0x00\n        /* \"#utility.yul\":3275:3314   */\n      tag_270\n        /* \"#utility.yul\":3308:3313   */\n      dup3\n        /* \"#utility.yul\":3275:3314   */\n      tag_186\n      jump\t// in\n    tag_270:\n        /* \"#utility.yul\":3330:3401   */\n      tag_271\n        /* \"#utility.yul\":3394:3400   */\n      dup2\n        /* \"#utility.yul\":3389:3392   */\n      dup6\n        /* \"#utility.yul\":3330:3401   */\n      tag_187\n      jump\t// in\n    tag_271:\n        /* \"#utility.yul\":3323:3401   */\n      swap4\n      pop\n        /* \"#utility.yul\":3410:3475   */\n      tag_272\n        /* \"#utility.yul\":3468:3474   */\n      dup2\n        /* \"#utility.yul\":3463:3466   */\n      dup6\n        /* \"#utility.yul\":3456:3460   */\n      0x20\n        /* \"#utility.yul\":3449:3454   */\n      dup7\n        /* \"#utility.yul\":3445:3461   */\n      add\n        /* \"#utility.yul\":3410:3475   */\n      tag_188\n      jump\t// in\n    tag_272:\n        /* \"#utility.yul\":3500:3529   */\n      tag_273\n        /* \"#utility.yul\":3522:3528   */\n      dup2\n        /* \"#utility.yul\":3500:3529   */\n      tag_189\n      jump\t// in\n    tag_273:\n        /* \"#utility.yul\":3495:3498   */\n      dup5\n        /* \"#utility.yul\":3491:3530   */\n      add\n        /* \"#utility.yul\":3484:3530   */\n      swap2\n      pop\n        /* \"#utility.yul\":3251:3536   */\n      pop\n        /* \"#utility.yul\":3159:3536   */\n      swap3\n      swap2\n      pop\n      pop\n      jump\t// out\n        /* \"#utility.yul\":3542:3632   */\n    tag_191:\n        /* \"#utility.yul\":3576:3583   */\n      0x00\n        /* \"#utility.yul\":3619:3624   */\n      dup2\n        /* \"#utility.yul\":3612:3625   */\n      iszero\n        /* \"#utility.yul\":3605:3626   */\n      iszero\n        /* \"#utility.yul\":3594:3626   */\n      swap1\n      pop\n        /* \"#utility.yul\":3542:3632   */\n      swap2\n      swap1\n      pop\n      jump\t// out\n        /* \"#utility.yul\":3638:3747   */\n    tag_192:\n        /* \"#utility.yul\":3719:3740   */\n      tag_276\n        /* \"#utility.yul\":3734:3739   */\n      dup2\n        /* \"#utility.yul\":3719:3740   */\n      tag_191\n      jump\t// in\n    tag_276:\n        /* \"#utility.yul\":3714:3717   */\n      dup3\n        /* \"#utility.yul\":3707:3741   */\n      mstore\n        /* \"#utility.yul\":3638:3747   */\n      pop\n      pop\n      jump\t// out\n        /* \"#utility.yul\":3753:4274   */\n    tag_24:\n        /* \"#utility.yul\":3916:3920   */\n      0x00\n        /* \"#utility.yul\":3954:3956   */\n      0x60\n        /* \"#utility.yul\":3943:3952   */\n      dup3\n        /* \"#utility.yul\":3939:3957   */\n      add\n        /* \"#utility.yul\":3931:3957   */\n      swap1\n      pop\n        /* \"#utility.yul\":3967:4038   */\n      tag_278\n        /* \"#utility.yul\":4035:4036   */\n      0x00\n        /* \"#utility.yul\":4024:4033   */\n      dup4\n        /* \"#utility.yul\":4020:4037   */\n      add\n        /* \"#utility.yul\":4011:4017   */\n      dup7\n        /* \"#utility.yul\":3967:4038   */\n      tag_185\n      jump\t// in\n    tag_278:\n        /* \"#utility.yul\":4085:4094   */\n      dup2\n        /* \"#utility.yul\":4079:4083   */\n      dup2\n        /* \"#utility.yul\":4075:4095   */\n      sub\n        /* \"#utility.yul\":4070:4072   */\n      0x20\n        /* \"#utility.yul\":4059:4068   */\n      dup4\n        /* \"#utility.yul\":4055:4073   */\n      add\n        /* \"#utility.yul\":4048:4096   */\n      mstore\n        /* \"#utility.yul\":4113:4191   */\n      tag_279\n        /* \"#utility.yul\":4186:4190   */\n      dup2\n        /* \"#utility.yul\":4177:4183   */\n      dup6\n        /* \"#utility.yul\":4113:4191   */\n      tag_190\n      jump\t// in\n    tag_279:\n        /* \"#utility.yul\":4105:4191   */\n      swap1\n      pop\n        /* \"#utility.yul\":4201:4267   */\n      tag_280\n        /* \"#utility.yul\":4263:4265   */\n      0x40\n        /* \"#utility.yul\":4252:4261   */\n      dup4\n        /* \"#utility.yul\":4248:4266   */\n      add\n        /* \"#utility.yul\":4239:4245   */\n      dup5\n        /* \"#utility.yul\":4201:4267   */\n      tag_192\n      jump\t// in\n    tag_280:\n        /* \"#utility.yul\":3753:4274   */\n      swap5\n      swap4\n      pop\n      pop\n      pop\n      pop\n      jump\t// out\n        /* \"#utility.yul\":4280:4415   */\n    tag_193:\n        /* \"#utility.yul\":4368:4374   */\n      0x00\n        /* \"#utility.yul\":4402:4407   */\n      dup2\n        /* \"#utility.yul\":4396:4408   */\n      mload\n        /* \"#utility.yul\":4386:4408   */\n      swap1\n      pop\n        /* \"#utility.yul\":4280:4415   */\n      swap2\n      swap1\n      pop\n      jump\t// out\n        /* \"#utility.yul\":4421:4626   */\n    tag_194:\n        /* \"#utility.yul\":4541:4552   */\n      0x00\n        /* \"#utility.yul\":4575:4581   */\n      dup3\n        /* \"#utility.yul\":4570:4573   */\n      dup3\n        /* \"#utility.yul\":4563:4582   */\n      mstore\n        /* \"#utility.yul\":4615:4619   */\n      0x20\n        /* \"#utility.yul\":4610:4613   */\n      dup3\n        /* \"#utility.yul\":4606:4620   */\n      add\n        /* \"#utility.yul\":4591:4620   */\n      swap1\n      pop\n        /* \"#utility.yul\":4421:4626   */\n      swap3\n      swap2\n      pop\n      pop\n      jump\t// out\n        /* \"#utility.yul\":4632:4785   */\n    tag_195:\n        /* \"#utility.yul\":4720:4724   */\n      0x00\n        /* \"#utility.yul\":4743:4746   */\n      dup2\n        /* \"#utility.yul\":4735:4746   */\n      swap1\n      pop\n        /* \"#utility.yul\":4773:4777   */\n      0x20\n        /* \"#utility.yul\":4768:4771   */\n      dup3\n        /* \"#utility.yul\":4764:4778   */\n      add\n        /* \"#utility.yul\":4756:4778   */\n      swap1\n      pop\n        /* \"#utility.yul\":4632:4785   */\n      swap2\n      swap1\n      pop\n      jump\t// out\n        /* \"#utility.yul\":4791:4899   */\n    tag_196:\n        /* \"#utility.yul\":4868:4892   */\n      tag_285\n        /* \"#utility.yul\":4886:4891   */\n      dup2\n        /* \"#utility.yul\":4868:4892   */\n      tag_182\n      jump\t// in\n    tag_285:\n        /* \"#utility.yul\":4863:4866   */\n      dup3\n        /* \"#utility.yul\":4856:4893   */\n      mstore\n        /* \"#utility.yul\":4791:4899   */\n      pop\n      pop\n      jump\t// out\n        /* \"#utility.yul\":4905:5064   */\n    tag_197:\n        /* \"#utility.yul\":4979:4990   */\n      0x00\n        /* \"#utility.yul\":5013:5019   */\n      dup3\n        /* \"#utility.yul\":5008:5011   */\n      dup3\n        /* \"#utility.yul\":5001:5020   */\n      mstore\n        /* \"#utility.yul\":5053:5057   */\n      0x20\n        /* \"#utility.yul\":5048:5051   */\n      dup3\n        /* \"#utility.yul\":5044:5058   */\n      add\n        /* \"#utility.yul\":5029:5058   */\n      swap1\n      pop\n        /* \"#utility.yul\":4905:5064   */\n      swap3\n      swap2\n      pop\n      pop\n      jump\t// out\n        /* \"#utility.yul\":5070:5427   */\n    tag_198:\n        /* \"#utility.yul\":5148:5151   */\n      0x00\n        /* \"#utility.yul\":5176:5215   */\n      tag_288\n        /* \"#utility.yul\":5209:5214   */\n      dup3\n        /* \"#utility.yul\":5176:5215   */\n      tag_186\n      jump\t// in\n    tag_288:\n        /* \"#utility.yul\":5231:5292   */\n      tag_289\n        /* \"#utility.yul\":5285:5291   */\n      dup2\n        /* \"#utility.yul\":5280:5283   */\n      dup6\n        /* \"#utility.yul\":5231:5292   */\n      tag_197\n      jump\t// in\n    tag_289:\n        /* \"#utility.yul\":5224:5292   */\n      swap4\n      pop\n        /* \"#utility.yul\":5301:5366   */\n      tag_290\n        /* \"#utility.yul\":5359:5365   */\n      dup2\n        /* \"#utility.yul\":5354:5357   */\n      dup6\n        /* \"#utility.yul\":5347:5351   */\n      0x20\n        /* \"#utility.yul\":5340:5345   */\n      dup7\n        /* \"#utility.yul\":5336:5352   */\n      add\n        /* \"#utility.yul\":5301:5366   */\n      tag_188\n      jump\t// in\n    tag_290:\n        /* \"#utility.yul\":5391:5420   */\n      tag_291\n        /* \"#utility.yul\":5413:5419   */\n      dup2\n        /* \"#utility.yul\":5391:5420   */\n      tag_189\n      jump\t// in\n    tag_291:\n        /* \"#utility.yul\":5386:5389   */\n      dup5\n        /* \"#utility.yul\":5382:5421   */\n      add\n        /* \"#utility.yul\":5375:5421   */\n      swap2\n      pop\n        /* \"#utility.yul\":5152:5427   */\n      pop\n        /* \"#utility.yul\":5070:5427   */\n      swap3\n      swap2\n      pop\n      pop\n      jump\t// out\n        /* \"#utility.yul\":5433:5532   */\n    tag_199:\n        /* \"#utility.yul\":5504:5525   */\n      tag_293\n        /* \"#utility.yul\":5519:5524   */\n      dup2\n        /* \"#utility.yul\":5504:5525   */\n      tag_191\n      jump\t// in\n    tag_293:\n        /* \"#utility.yul\":5499:5502   */\n      dup3\n        /* \"#utility.yul\":5492:5526   */\n      mstore\n        /* \"#utility.yul\":5433:5532   */\n      pop\n      pop\n      jump\t// out\n        /* \"#utility.yul\":5590:6352   */\n    tag_200:\n        /* \"#utility.yul\":5691:5694   */\n      0x00\n        /* \"#utility.yul\":5727:5731   */\n      0x60\n        /* \"#utility.yul\":5722:5725   */\n      dup4\n        /* \"#utility.yul\":5718:5732   */\n      add\n        /* \"#utility.yul\":5812:5816   */\n      0x00\n        /* \"#utility.yul\":5805:5810   */\n      dup4\n        /* \"#utility.yul\":5801:5817   */\n      add\n        /* \"#utility.yul\":5795:5818   */\n      mload\n        /* \"#utility.yul\":5831:5894   */\n      tag_295\n        /* \"#utility.yul\":5888:5892   */\n      0x00\n        /* \"#utility.yul\":5883:5886   */\n      dup7\n        /* \"#utility.yul\":5879:5893   */\n      add\n        /* \"#utility.yul\":5865:5877   */\n      dup3\n        /* \"#utility.yul\":5831:5894   */\n      tag_196\n      jump\t// in\n    tag_295:\n        /* \"#utility.yul\":5742:5904   */\n      pop\n        /* \"#utility.yul\":5989:5993   */\n      0x20\n        /* \"#utility.yul\":5982:5987   */\n      dup4\n        /* \"#utility.yul\":5978:5994   */\n      add\n        /* \"#utility.yul\":5972:5995   */\n      mload\n        /* \"#utility.yul\":6042:6045   */\n      dup5\n        /* \"#utility.yul\":6036:6040   */\n      dup3\n        /* \"#utility.yul\":6032:6046   */\n      sub\n        /* \"#utility.yul\":6025:6029   */\n      0x20\n        /* \"#utility.yul\":6020:6023   */\n      dup7\n        /* \"#utility.yul\":6016:6030   */\n      add\n        /* \"#utility.yul\":6009:6047   */\n      mstore\n        /* \"#utility.yul\":6068:6141   */\n      tag_296\n        /* \"#utility.yul\":6136:6140   */\n      dup3\n        /* \"#utility.yul\":6122:6134   */\n      dup3\n        /* \"#utility.yul\":6068:6141   */\n      tag_198\n      jump\t// in\n    tag_296:\n        /* \"#utility.yul\":6060:6141   */\n      swap2\n      pop\n        /* \"#utility.yul\":5914:6152   */\n      pop\n        /* \"#utility.yul\":6239:6243   */\n      0x40\n        /* \"#utility.yul\":6232:6237   */\n      dup4\n        /* \"#utility.yul\":6228:6244   */\n      add\n        /* \"#utility.yul\":6222:6245   */\n      mload\n        /* \"#utility.yul\":6258:6315   */\n      tag_297\n        /* \"#utility.yul\":6309:6313   */\n      0x40\n        /* \"#utility.yul\":6304:6307   */\n      dup7\n        /* \"#utility.yul\":6300:6314   */\n      add\n        /* \"#utility.yul\":6286:6298   */\n      dup3\n        /* \"#utility.yul\":6258:6315   */\n      tag_199\n      jump\t// in\n    tag_297:\n        /* \"#utility.yul\":6162:6325   */\n      pop\n        /* \"#utility.yul\":6342:6346   */\n      dup1\n        /* \"#utility.yul\":6335:6346   */\n      swap2\n      pop\n        /* \"#utility.yul\":5696:6352   */\n      pop\n        /* \"#utility.yul\":5590:6352   */\n      swap3\n      swap2\n      pop\n      pop\n      jump\t// out\n        /* \"#utility.yul\":6358:6598   */\n    tag_201:\n        /* \"#utility.yul\":6469:6479   */\n      0x00\n        /* \"#utility.yul\":6504:6592   */\n      tag_299\n        /* \"#utility.yul\":6588:6591   */\n      dup4\n        /* \"#utility.yul\":6580:6586   */\n      dup4\n        /* \"#utility.yul\":6504:6592   */\n      tag_200\n      jump\t// in\n    tag_299:\n        /* \"#utility.yul\":6490:6592   */\n      swap1\n      pop\n        /* \"#utility.yul\":6358:6598   */\n      swap3\n      swap2\n      pop\n      pop\n      jump\t// out\n        /* \"#utility.yul\":6604:6738   */\n    tag_202:\n        /* \"#utility.yul\":6695:6699   */\n      0x00\n        /* \"#utility.yul\":6727:6731   */\n      0x20\n        /* \"#utility.yul\":6722:6725   */\n      dup3\n        /* \"#utility.yul\":6718:6732   */\n      add\n        /* \"#utility.yul\":6710:6732   */\n      swap1\n      pop\n        /* \"#utility.yul\":6604:6738   */\n      swap2\n      swap1\n      pop\n      jump\t// out\n        /* \"#utility.yul\":6800:7879   */\n    tag_203:\n        /* \"#utility.yul\":6961:6964   */\n      0x00\n        /* \"#utility.yul\":6990:7065   */\n      tag_302\n        /* \"#utility.yul\":7059:7064   */\n      dup3\n        /* \"#utility.yul\":6990:7065   */\n      tag_193\n      jump\t// in\n    tag_302:\n        /* \"#utility.yul\":7081:7188   */\n      tag_303\n        /* \"#utility.yul\":7181:7187   */\n      dup2\n        /* \"#utility.yul\":7176:7179   */\n      dup6\n        /* \"#utility.yul\":7081:7188   */\n      tag_194\n      jump\t// in\n    tag_303:\n        /* \"#utility.yul\":7074:7188   */\n      swap4\n      pop\n        /* \"#utility.yul\":7214:7217   */\n      dup4\n        /* \"#utility.yul\":7259:7263   */\n      0x20\n        /* \"#utility.yul\":7251:7257   */\n      dup3\n        /* \"#utility.yul\":7247:7264   */\n      mul\n        /* \"#utility.yul\":7242:7245   */\n      dup6\n        /* \"#utility.yul\":7238:7265   */\n      add\n        /* \"#utility.yul\":7289:7366   */\n      tag_304\n        /* \"#utility.yul\":7360:7365   */\n      dup6\n        /* \"#utility.yul\":7289:7366   */\n      tag_195\n      jump\t// in\n    tag_304:\n        /* \"#utility.yul\":7389:7396   */\n      dup1\n        /* \"#utility.yul\":7420:7421   */\n      0x00\n        /* \"#utility.yul\":7405:7834   */\n    tag_305:\n        /* \"#utility.yul\":7430:7436   */\n      dup6\n        /* \"#utility.yul\":7427:7428   */\n      dup2\n        /* \"#utility.yul\":7424:7437   */\n      lt\n        /* \"#utility.yul\":7405:7834   */\n      iszero\n      tag_307\n      jumpi\n        /* \"#utility.yul\":7501:7510   */\n      dup5\n        /* \"#utility.yul\":7495:7499   */\n      dup5\n        /* \"#utility.yul\":7491:7511   */\n      sub\n        /* \"#utility.yul\":7486:7489   */\n      dup10\n        /* \"#utility.yul\":7479:7512   */\n      mstore\n        /* \"#utility.yul\":7552:7558   */\n      dup2\n        /* \"#utility.yul\":7546:7559   */\n      mload\n        /* \"#utility.yul\":7580:7686   */\n      tag_308\n        /* \"#utility.yul\":7681:7685   */\n      dup6\n        /* \"#utility.yul\":7666:7679   */\n      dup3\n        /* \"#utility.yul\":7580:7686   */\n      tag_201\n      jump\t// in\n    tag_308:\n        /* \"#utility.yul\":7572:7686   */\n      swap5\n      pop\n        /* \"#utility.yul\":7709:7790   */\n      tag_309\n        /* \"#utility.yul\":7783:7789   */\n      dup4\n        /* \"#utility.yul\":7709:7790   */\n      tag_202\n      jump\t// in\n    tag_309:\n        /* \"#utility.yul\":7699:7790   */\n      swap3\n      pop\n        /* \"#utility.yul\":7819:7823   */\n      0x20\n        /* \"#utility.yul\":7814:7817   */\n      dup11\n        /* \"#utility.yul\":7810:7824   */\n      add\n        /* \"#utility.yul\":7803:7824   */\n      swap10\n      pop\n        /* \"#utility.yul\":7465:7834   */\n      pop\n        /* \"#utility.yul\":7452:7453   */\n      0x01\n        /* \"#utility.yul\":7449:7450   */\n      dup2\n        /* \"#utility.yul\":7445:7454   */\n      add\n        /* \"#utility.yul\":7440:7454   */\n      swap1\n      pop\n        /* \"#utility.yul\":7405:7834   */\n      jump(tag_305)\n    tag_307:\n        /* \"#utility.yul\":7409:7423   */\n      pop\n        /* \"#utility.yul\":7850:7854   */\n      dup3\n        /* \"#utility.yul\":7843:7854   */\n      swap8\n      pop\n        /* \"#utility.yul\":7870:7873   */\n      dup8\n        /* \"#utility.yul\":7863:7873   */\n      swap6\n      pop\n        /* \"#utility.yul\":6966:7879   */\n      pop\n      pop\n      pop\n      pop\n      pop\n        /* \"#utility.yul\":6800:7879   */\n      swap3\n      swap2\n      pop\n      pop\n      jump\t// out\n        /* \"#utility.yul\":7885:8342   */\n    tag_36:\n        /* \"#utility.yul\":8070:8074   */\n      0x00\n        /* \"#utility.yul\":8108:8110   */\n      0x20\n        /* \"#utility.yul\":8097:8106   */\n      dup3\n        /* \"#utility.yul\":8093:8111   */\n      add\n        /* \"#utility.yul\":8085:8111   */\n      swap1\n      pop\n        /* \"#utility.yul\":8157:8166   */\n      dup2\n        /* \"#utility.yul\":8151:8155   */\n      dup2\n        /* \"#utility.yul\":8147:8167   */\n      sub\n        /* \"#utility.yul\":8143:8144   */\n      0x00\n        /* \"#utility.yul\":8132:8141   */\n      dup4\n        /* \"#utility.yul\":8128:8145   */\n      add\n        /* \"#utility.yul\":8121:8168   */\n      mstore\n        /* \"#utility.yul\":8185:8335   */\n      tag_311\n        /* \"#utility.yul\":8330:8334   */\n      dup2\n        /* \"#utility.yul\":8321:8327   */\n      dup5\n        /* \"#utility.yul\":8185:8335   */\n      tag_203\n      jump\t// in\n    tag_311:\n        /* \"#utility.yul\":8177:8335   */\n      swap1\n      pop\n        /* \"#utility.yul\":7885:8342   */\n      swap3\n      swap2\n      pop\n      pop\n      jump\t// out\n        /* \"#utility.yul\":8348:9022   */\n    tag_39:\n        /* \"#utility.yul\":8428:8434   */\n      0x00\n        /* \"#utility.yul\":8436:8442   */\n      0x00\n        /* \"#utility.yul\":8444:8450   */\n      0x00\n        /* \"#utility.yul\":8493:8495   */\n      0x40\n        /* \"#utility.yul\":8481:8490   */\n      dup5\n        /* \"#utility.yul\":8472:8479   */\n      dup7\n        /* \"#utility.yul\":8468:8491   */\n      sub\n        /* \"#utility.yul\":8464:8496   */\n      slt\n        /* \"#utility.yul\":8461:8580   */\n      iszero\n      tag_313\n      jumpi\n        /* \"#utility.yul\":8499:8578   */\n      tag_314\n      tag_176\n      jump\t// in\n    tag_314:\n        /* \"#utility.yul\":8461:8580   */\n    tag_313:\n        /* \"#utility.yul\":8619:8620   */\n      0x00\n        /* \"#utility.yul\":8644:8697   */\n      tag_315\n        /* \"#utility.yul\":8689:8696   */\n      dup7\n        /* \"#utility.yul\":8680:8686   */\n      dup3\n        /* \"#utility.yul\":8669:8678   */\n      dup8\n        /* \"#utility.yul\":8665:8687   */\n      add\n        /* \"#utility.yul\":8644:8697   */\n      tag_184\n      jump\t// in\n    tag_315:\n        /* \"#utility.yul\":8634:8697   */\n      swap4\n      pop\n        /* \"#utility.yul\":8590:8707   */\n      pop\n        /* \"#utility.yul\":8774:8776   */\n      0x20\n        /* \"#utility.yul\":8763:8772   */\n      dup5\n        /* \"#utility.yul\":8759:8777   */\n      add\n        /* \"#utility.yul\":8746:8778   */\n      calldataload\n        /* \"#utility.yul\":8805:8823   */\n      0xffffffffffffffff\n        /* \"#utility.yul\":8797:8803   */\n      dup2\n        /* \"#utility.yul\":8794:8824   */\n      gt\n        /* \"#utility.yul\":8791:8908   */\n      iszero\n      tag_316\n      jumpi\n        /* \"#utility.yul\":8827:8906   */\n      tag_317\n      tag_177\n      jump\t// in\n    tag_317:\n        /* \"#utility.yul\":8791:8908   */\n    tag_316:\n        /* \"#utility.yul\":8940:9005   */\n      tag_318\n        /* \"#utility.yul\":8997:9004   */\n      dup7\n        /* \"#utility.yul\":8988:8994   */\n      dup3\n        /* \"#utility.yul\":8977:8986   */\n      dup8\n        /* \"#utility.yul\":8973:8995   */\n      add\n        /* \"#utility.yul\":8940:9005   */\n      tag_181\n      jump\t// in\n    tag_318:\n        /* \"#utility.yul\":8922:9005   */\n      swap3\n      pop\n      swap3\n      pop\n        /* \"#utility.yul\":8717:9015   */\n      pop\n        /* \"#utility.yul\":8348:9022   */\n      swap3\n      pop\n      swap3\n      pop\n      swap3\n      jump\t// out\n        /* \"#utility.yul\":9028:9154   */\n    tag_204:\n        /* \"#utility.yul\":9065:9072   */\n      0x00\n        /* \"#utility.yul\":9105:9147   */\n      0xffffffffffffffffffffffffffffffffffffffff\n        /* \"#utility.yul\":9098:9103   */\n      dup3\n        /* \"#utility.yul\":9094:9148   */\n      and\n        /* \"#utility.yul\":9083:9148   */\n      swap1\n      pop\n        /* \"#utility.yul\":9028:9154   */\n      swap2\n      swap1\n      pop\n      jump\t// out\n        /* \"#utility.yul\":9160:9256   */\n    tag_205:\n        /* \"#utility.yul\":9197:9204   */\n      0x00\n        /* \"#utility.yul\":9226:9250   */\n      tag_321\n        /* \"#utility.yul\":9244:9249   */\n      dup3\n        /* \"#utility.yul\":9226:9250   */\n      tag_204\n      jump\t// in\n    tag_321:\n        /* \"#utility.yul\":9215:9250   */\n      swap1\n      pop\n        /* \"#utility.yul\":9160:9256   */\n      swap2\n      swap1\n      pop\n      jump\t// out\n        /* \"#utility.yul\":9262:9380   */\n    tag_206:\n        /* \"#utility.yul\":9349:9373   */\n      tag_323\n        /* \"#utility.yul\":9367:9372   */\n      dup2\n        /* \"#utility.yul\":9349:9373   */\n      tag_205\n      jump\t// in\n    tag_323:\n        /* \"#utility.yul\":9344:9347   */\n      dup3\n        /* \"#utility.yul\":9337:9374   */\n      mstore\n        /* \"#utility.yul\":9262:9380   */\n      pop\n      pop\n      jump\t// out\n        /* \"#utility.yul\":9386:9608   */\n    tag_48:\n        /* \"#utility.yul\":9479:9483   */\n      0x00\n        /* \"#utility.yul\":9517:9519   */\n      0x20\n        /* \"#utility.yul\":9506:9515   */\n      dup3\n        /* \"#utility.yul\":9502:9520   */\n      add\n        /* \"#utility.yul\":9494:9520   */\n      swap1\n      pop\n        /* \"#utility.yul\":9530:9601   */\n      tag_325\n        /* \"#utility.yul\":9598:9599   */\n      0x00\n        /* \"#utility.yul\":9587:9596   */\n      dup4\n        /* \"#utility.yul\":9583:9600   */\n      add\n        /* \"#utility.yul\":9574:9580   */\n      dup5\n        /* \"#utility.yul\":9530:9601   */\n      tag_206\n      jump\t// in\n    tag_325:\n        /* \"#utility.yul\":9386:9608   */\n      swap3\n      swap2\n      pop\n      pop\n      jump\t// out\n        /* \"#utility.yul\":9614:9836   */\n    tag_52:\n        /* \"#utility.yul\":9707:9711   */\n      0x00\n        /* \"#utility.yul\":9745:9747   */\n      0x20\n        /* \"#utility.yul\":9734:9743   */\n      dup3\n        /* \"#utility.yul\":9730:9748   */\n      add\n        /* \"#utility.yul\":9722:9748   */\n      swap1\n      pop\n        /* \"#utility.yul\":9758:9829   */\n      tag_327\n        /* \"#utility.yul\":9826:9827   */\n      0x00\n        /* \"#utility.yul\":9815:9824   */\n      dup4\n        /* \"#utility.yul\":9811:9828   */\n      add\n        /* \"#utility.yul\":9802:9808   */\n      dup5\n        /* \"#utility.yul\":9758:9829   */\n      tag_185\n      jump\t// in\n    tag_327:\n        /* \"#utility.yul\":9614:9836   */\n      swap3\n      swap2\n      pop\n      pop\n      jump\t// out\n        /* \"#utility.yul\":9842:9964   */\n    tag_207:\n        /* \"#utility.yul\":9915:9939   */\n      tag_329\n        /* \"#utility.yul\":9933:9938   */\n      dup2\n        /* \"#utility.yul\":9915:9939   */\n      tag_205\n      jump\t// in\n    tag_329:\n        /* \"#utility.yul\":9908:9913   */\n      dup2\n        /* \"#utility.yul\":9905:9940   */\n      eq\n        /* \"#utility.yul\":9895:9958   */\n      tag_330\n      jumpi\n        /* \"#utility.yul\":9954:9955   */\n      0x00\n        /* \"#utility.yul\":9951:9952   */\n      0x00\n        /* \"#utility.yul\":9944:9956   */\n      revert\n        /* \"#utility.yul\":9895:9958   */\n    tag_330:\n        /* \"#utility.yul\":9842:9964   */\n      pop\n      jump\t// out\n        /* \"#utility.yul\":9970:10109   */\n    tag_208:\n        /* \"#utility.yul\":10016:10021   */\n      0x00\n        /* \"#utility.yul\":10054:10060   */\n      dup2\n        /* \"#utility.yul\":10041:10061   */\n      calldataload\n        /* \"#utility.yul\":10032:10061   */\n      swap1\n      pop\n        /* \"#utility.yul\":10070:10103   */\n      tag_332\n        /* \"#utility.yul\":10097:10102   */\n      dup2\n        /* \"#utility.yul\":10070:10103   */\n      tag_207\n      jump\t// in\n    tag_332:\n        /* \"#utility.yul\":9970:10109   */\n      swap3\n      swap2\n      pop\n      pop\n      jump\t// out\n        /* \"#utility.yul\":10115:10444   */\n    tag_55:\n        /* \"#utility.yul\":10174:10180   */\n      0x00\n        /* \"#utility.yul\":10223:10225   */\n      0x20\n        /* \"#utility.yul\":10211:10220   */\n      dup3\n        /* \"#utility.yul\":10202:10209   */\n      dup5\n        /* \"#utility.yul\":10198:10221   */\n      sub\n        /* \"#utility.yul\":10194:10226   */\n      slt\n        /* \"#utility.yul\":10191:10310   */\n      iszero\n      tag_334\n      jumpi\n        /* \"#utility.yul\":10229:10308   */\n      tag_335\n      tag_176\n      jump\t// in\n    tag_335:\n        /* \"#utility.yul\":10191:10310   */\n    tag_334:\n        /* \"#utility.yul\":10349:10350   */\n      0x00\n        /* \"#utility.yul\":10374:10427   */\n      tag_336\n        /* \"#utility.yul\":10419:10426   */\n      dup5\n        /* \"#utility.yul\":10410:10416   */\n      dup3\n        /* \"#utility.yul\":10399:10408   */\n      dup6\n        /* \"#utility.yul\":10395:10417   */\n      add\n        /* \"#utility.yul\":10374:10427   */\n      tag_208\n      jump\t// in\n    tag_336:\n        /* \"#utility.yul\":10364:10427   */\n      swap2\n      pop\n        /* \"#utility.yul\":10320:10437   */\n      pop\n        /* \"#utility.yul\":10115:10444   */\n      swap3\n      swap2\n      pop\n      pop\n      jump\t// out\n        /* \"#utility.yul\":10450:10671   */\n    tag_209:\n        /* \"#utility.yul\":10590:10624   */\n      0x546f446f4c697374203a20436f6e74656e742063616e6e6f7420626520656d70\n        /* \"#utility.yul\":10586:10587   */\n      0x00\n        /* \"#utility.yul\":10578:10584   */\n      dup3\n        /* \"#utility.yul\":10574:10588   */\n      add\n        /* \"#utility.yul\":10567:10625   */\n      mstore\n        /* \"#utility.yul\":10659:10663   */\n      0x7479000000000000000000000000000000000000000000000000000000000000\n        /* \"#utility.yul\":10654:10656   */\n      0x20\n        /* \"#utility.yul\":10646:10652   */\n      dup3\n        /* \"#utility.yul\":10642:10657   */\n      add\n        /* \"#utility.yul\":10635:10664   */\n      mstore\n        /* \"#utility.yul\":10450:10671   */\n      pop\n      jump\t// out\n        /* \"#utility.yul\":10677:11043   */\n    tag_210:\n        /* \"#utility.yul\":10819:10822   */\n      0x00\n        /* \"#utility.yul\":10840:10907   */\n      tag_339\n        /* \"#utility.yul\":10904:10906   */\n      0x22\n        /* \"#utility.yul\":10899:10902   */\n      dup4\n        /* \"#utility.yul\":10840:10907   */\n      tag_187\n      jump\t// in\n    tag_339:\n        /* \"#utility.yul\":10833:10907   */\n      swap2\n      pop\n        /* \"#utility.yul\":10916:11009   */\n      tag_340\n        /* \"#utility.yul\":11005:11008   */\n      dup3\n        /* \"#utility.yul\":10916:11009   */\n      tag_209\n      jump\t// in\n    tag_340:\n        /* \"#utility.yul\":11034:11036   */\n      0x40\n        /* \"#utility.yul\":11029:11032   */\n      dup3\n        /* \"#utility.yul\":11025:11037   */\n      add\n        /* \"#utility.yul\":11018:11037   */\n      swap1\n      pop\n        /* \"#utility.yul\":10677:11043   */\n      swap2\n      swap1\n      pop\n      jump\t// out\n        /* \"#utility.yul\":11049:11468   */\n    tag_63:\n        /* \"#utility.yul\":11215:11219   */\n      0x00\n        /* \"#utility.yul\":11253:11255   */\n      0x20\n        /* \"#utility.yul\":11242:11251   */\n      dup3\n        /* \"#utility.yul\":11238:11256   */\n      add\n        /* \"#utility.yul\":11230:11256   */\n      swap1\n      pop\n        /* \"#utility.yul\":11302:11311   */\n      dup2\n        /* \"#utility.yul\":11296:11300   */\n      dup2\n        /* \"#utility.yul\":11292:11312   */\n      sub\n        /* \"#utility.yul\":11288:11289   */\n      0x00\n        /* \"#utility.yul\":11277:11286   */\n      dup4\n        /* \"#utility.yul\":11273:11290   */\n      add\n        /* \"#utility.yul\":11266:11313   */\n      mstore\n        /* \"#utility.yul\":11330:11461   */\n      tag_342\n        /* \"#utility.yul\":11456:11460   */\n      dup2\n        /* \"#utility.yul\":11330:11461   */\n      tag_210\n      jump\t// in\n    tag_342:\n        /* \"#utility.yul\":11322:11461   */\n      swap1\n      pop\n        /* \"#utility.yul\":11049:11468   */\n      swap2\n      swap1\n      pop\n      jump\t// out\n        /* \"#utility.yul\":11474:11654   */\n    tag_211:\n        /* \"#utility.yul\":11522:11599   */\n      0x4e487b7100000000000000000000000000000000000000000000000000000000\n        /* \"#utility.yul\":11519:11520   */\n      0x00\n        /* \"#utility.yul\":11512:11600   */\n      mstore\n        /* \"#utility.yul\":11619:11623   */\n      0x11\n        /* \"#utility.yul\":11616:11617   */\n      0x04\n        /* \"#utility.yul\":11609:11624   */\n      mstore\n        /* \"#utility.yul\":11643:11647   */\n      0x24\n        /* \"#utility.yul\":11640:11641   */\n      0x00\n        /* \"#utility.yul\":11633:11648   */\n      revert\n        /* \"#utility.yul\":11660:11893   */\n    tag_65:\n        /* \"#utility.yul\":11699:11702   */\n      0x00\n        /* \"#utility.yul\":11722:11746   */\n      tag_345\n        /* \"#utility.yul\":11740:11745   */\n      dup3\n        /* \"#utility.yul\":11722:11746   */\n      tag_182\n      jump\t// in\n    tag_345:\n        /* \"#utility.yul\":11713:11746   */\n      swap2\n      pop\n        /* \"#utility.yul\":11768:11834   */\n      0xffffffffffffffffffffffffffffffffffffffffffffffffffffffffffffffff\n        /* \"#utility.yul\":11761:11766   */\n      dup3\n        /* \"#utility.yul\":11758:11835   */\n      sub\n        /* \"#utility.yul\":11755:11858   */\n      tag_346\n      jumpi\n        /* \"#utility.yul\":11838:11856   */\n      tag_347\n      tag_211\n      jump\t// in\n    tag_347:\n        /* \"#utility.yul\":11755:11858   */\n    tag_346:\n        /* \"#utility.yul\":11885:11886   */\n      0x01\n        /* \"#utility.yul\":11878:11883   */\n      dup3\n        /* \"#utility.yul\":11874:11887   */\n      add\n        /* \"#utility.yul\":11867:11887   */\n      swap1\n      pop\n        /* \"#utility.yul\":11660:11893   */\n      swap2\n      swap1\n      pop\n      jump\t// out\n        /* \"#utility.yul\":11899:12079   */\n    tag_113:\n        /* \"#utility.yul\":11947:12024   */\n      0x4e487b7100000000000000000000000000000000000000000000000000000000\n        /* \"#utility.yul\":11944:11945   */\n      0x00\n        /* \"#utility.yul\":11937:12025   */\n      mstore\n        /* \"#utility.yul\":12044:12048   */\n      0x41\n        /* \"#utility.yul\":12041:12042   */\n      0x04\n        /* \"#utility.yul\":12034:12049   */\n      mstore\n        /* \"#utility.yul\":12068:12072   */\n      0x24\n        /* \"#utility.yul\":12065:12066   */\n      0x00\n        /* \"#utility.yul\":12058:12073   */\n      revert\n        /* \"#utility.yul\":12085:12265   */\n    tag_212:\n        /* \"#utility.yul\":12133:12210   */\n      0x4e487b7100000000000000000000000000000000000000000000000000000000\n        /* \"#utility.yul\":12130:12131   */\n      0x00\n        /* \"#utility.yul\":12123:12211   */\n      mstore\n        /* \"#utility.yul\":12230:12234   */\n      0x22\n        /* \"#utility.yul\":12227:12228   */\n      0x04\n        /* \"#utility.yul\":12220:12235   */\n      mstore\n        /* \"#utility.yul\":12254:12258   */\n      0x24\n        /* \"#utility.yul\":12251:12252   */\n      0x00\n        /* \"#utility.yul\":12244:12259   */\n      revert\n        /* \"#utility.yul\":12271:12591   */\n    tag_77:\n        /* \"#utility.yul\":12315:12321   */\n      0x00\n        /* \"#utility.yul\":12352:12353   */\n      0x02\n        /* \"#utility.yul\":12346:12350   */\n      dup3\n        /* \"#utility.yul\":12342:12354   */\n      div\n        /* \"#utility.yul\":12332:12354   */\n      swap1\n      pop\n        /* \"#utility.yul\":12399:12400   */\n      0x01\n        /* \"#utility.yul\":12393:12397   */\n      dup3\n        /* \"#utility.yul\":12389:12401   */\n      and\n        /* \"#utility.yul\":12420:12438   */\n      dup1\n        /* \"#utility.yul\":12410:12491   */\n      tag_351\n      jumpi\n        /* \"#utility.yul\":12476:12480   */\n      0x7f\n        /* \"#utility.yul\":12468:12474   */\n      dup3\n        /* \"#utility.yul\":12464:12481   */\n      and\n        /* \"#utility.yul\":12454:12481   */\n      swap2\n      pop\n        /* \"#utility.yul\":12410:12491   */\n    tag_351:\n        /* \"#utility.yul\":12538:12540   */\n      0x20\n        /* \"#utility.yul\":12530:12536   */\n      dup3\n        /* \"#utility.yul\":12527:12541   */\n      lt\n        /* \"#utility.yul\":12507:12525   */\n      dup2\n        /* \"#utility.yul\":12504:12542   */\n      sub\n        /* \"#utility.yul\":12501:12585   */\n      tag_352\n      jumpi\n        /* \"#utility.yul\":12557:12575   */\n      tag_353\n      tag_212\n      jump\t// in\n    tag_353:\n        /* \"#utility.yul\":12501:12585   */\n    tag_352:\n        /* \"#utility.yul\":12322:12591   */\n      pop\n        /* \"#utility.yul\":12271:12591   */\n      swap2\n      swap1\n      pop\n      jump\t// out\n        /* \"#utility.yul\":12597:12738   */\n    tag_213:\n        /* \"#utility.yul\":12646:12650   */\n      0x00\n        /* \"#utility.yul\":12669:12672   */\n      dup2\n        /* \"#utility.yul\":12661:12672   */\n      swap1\n      pop\n        /* \"#utility.yul\":12692:12695   */\n      dup2\n        /* \"#utility.yul\":12689:12690   */\n      0x00\n        /* \"#utility.yul\":12682:12696   */\n      mstore\n        /* \"#utility.yul\":12726:12730   */\n      0x20\n        /* \"#utility.yul\":12723:12724   */\n      0x00\n        /* \"#utility.yul\":12713:12731   */\n      keccak256\n        /* \"#utility.yul\":12705:12731   */\n      swap1\n      pop\n        /* \"#utility.yul\":12597:12738   */\n      swap2\n      swap1\n      pop\n      jump\t// out\n        /* \"#utility.yul\":12744:12837   */\n    tag_214:\n        /* \"#utility.yul\":12781:12787   */\n      0x00\n        /* \"#utility.yul\":12828:12830   */\n      0x20\n        /* \"#utility.yul\":12823:12825   */\n      0x1f\n        /* \"#utility.yul\":12816:12821   */\n      dup4\n        /* \"#utility.yul\":12812:12826   */\n      add\n        /* \"#utility.yul\":12808:12831   */\n      div\n        /* \"#utility.yul\":12798:12831   */\n      swap1\n      pop\n        /* \"#utility.yul\":12744:12837   */\n      swap2\n      swap1\n      pop\n      jump\t// out\n        /* \"#utility.yul\":12843:12950   */\n    tag_215:\n        /* \"#utility.yul\":12887:12895   */\n      0x00\n        /* \"#utility.yul\":12937:12942   */\n      dup3\n        /* \"#utility.yul\":12931:12935   */\n      dup3\n        /* \"#utility.yul\":12927:12943   */\n      shl\n        /* \"#utility.yul\":12906:12943   */\n      swap1\n      pop\n        /* \"#utility.yul\":12843:12950   */\n      swap3\n      swap2\n      pop\n      pop\n      jump\t// out\n        /* \"#utility.yul\":12956:13349   */\n    tag_216:\n        /* \"#utility.yul\":13025:13031   */\n      0x00\n        /* \"#utility.yul\":13075:13076   */\n      0x08\n        /* \"#utility.yul\":13063:13073   */\n      dup4\n        /* \"#utility.yul\":13059:13077   */\n      mul\n        /* \"#utility.yul\":13098:13195   */\n      tag_358\n        /* \"#utility.yul\":13128:13194   */\n      0xffffffffffffffffffffffffffffffffffffffffffffffffffffffffffffffff\n        /* \"#utility.yul\":13117:13126   */\n      dup3\n        /* \"#utility.yul\":13098:13195   */\n      tag_215\n      jump\t// in\n    tag_358:\n        /* \"#utility.yul\":13216:13255   */\n      tag_359\n        /* \"#utility.yul\":13246:13254   */\n      dup7\n        /* \"#utility.yul\":13235:13244   */\n      dup4\n        /* \"#utility.yul\":13216:13255   */\n      tag_215\n      jump\t// in\n    tag_359:\n        /* \"#utility.yul\":13204:13255   */\n      swap6\n      pop\n        /* \"#utility.yul\":13288:13292   */\n      dup1\n        /* \"#utility.yul\":13284:13293   */\n      not\n        /* \"#utility.yul\":13277:13282   */\n      dup5\n        /* \"#utility.yul\":13273:13294   */\n      and\n        /* \"#utility.yul\":13264:13294   */\n      swap4\n      pop\n        /* \"#utility.yul\":13337:13341   */\n      dup1\n        /* \"#utility.yul\":13327:13335   */\n      dup7\n        /* \"#utility.yul\":13323:13342   */\n      and\n        /* \"#utility.yul\":13316:13321   */\n      dup5\n        /* \"#utility.yul\":13313:13343   */\n      or\n        /* \"#utility.yul\":13303:13343   */\n      swap3\n      pop\n        /* \"#utility.yul\":13032:13349   */\n      pop\n      pop\n        /* \"#utility.yul\":12956:13349   */\n      swap4\n      swap3\n      pop\n      pop\n      pop\n      jump\t// out\n        /* \"#utility.yul\":13355:13415   */\n    tag_217:\n        /* \"#utility.yul\":13383:13386   */\n      0x00\n        /* \"#utility.yul\":13404:13409   */\n      dup2\n        /* \"#utility.yul\":13397:13409   */\n      swap1\n      pop\n        /* \"#utility.yul\":13355:13415   */\n      swap2\n      swap1\n      pop\n      jump\t// out\n        /* \"#utility.yul\":13421:13563   */\n    tag_218:\n        /* \"#utility.yul\":13471:13480   */\n      0x00\n        /* \"#utility.yul\":13504:13557   */\n      tag_362\n        /* \"#utility.yul\":13522:13556   */\n      tag_363\n        /* \"#utility.yul\":13531:13555   */\n      tag_364\n        /* \"#utility.yul\":13549:13554   */\n      dup5\n        /* \"#utility.yul\":13531:13555   */\n      tag_182\n      jump\t// in\n    tag_364:\n        /* \"#utility.yul\":13522:13556   */\n      tag_217\n      jump\t// in\n    tag_363:\n        /* \"#utility.yul\":13504:13557   */\n      tag_182\n      jump\t// in\n    tag_362:\n        /* \"#utility.yul\":13491:13557   */\n      swap1\n      pop\n        /* \"#utility.yul\":13421:13563   */\n      swap2\n      swap1\n      pop\n      jump\t// out\n        /* \"#utility.yul\":13569:13644   */\n    tag_219:\n        /* \"#utility.yul\":13612:13615   */\n      0x00\n        /* \"#utility.yul\":13633:13638   */\n      dup2\n        /* \"#utility.yul\":13626:13638   */\n      swap1\n      pop\n        /* \"#utility.yul\":13569:13644   */\n      swap2\n      swap1\n      pop\n      jump\t// out\n        /* \"#utility.yul\":13650:13919   */\n    tag_220:\n        /* \"#utility.yul\":13760:13799   */\n      tag_367\n        /* \"#utility.yul\":13791:13798   */\n      dup4\n        /* \"#utility.yul\":13760:13799   */\n      tag_218\n      jump\t// in\n    tag_367:\n        /* \"#utility.yul\":13821:13912   */\n      tag_368\n        /* \"#utility.yul\":13870:13911   */\n      tag_369\n        /* \"#utility.yul\":13894:13910   */\n      dup3\n        /* \"#utility.yul\":13870:13911   */\n      tag_219\n      jump\t// in\n    tag_369:\n        /* \"#utility.yul\":13862:13868   */\n      dup5\n        /* \"#utility.yul\":13855:13859   */\n      dup5\n        /* \"#utility.yul\":13849:13860   */\n      sload\n        /* \"#utility.yul\":13821:13912   */\n      tag_216\n      jump\t// in\n    tag_368:\n        /* \"#utility.yul\":13815:13819   */\n      dup3\n        /* \"#utility.yul\":13808:13913   */\n      sstore\n        /* \"#utility.yul\":13726:13919   */\n      pop\n        /* \"#utility.yul\":13650:13919   */\n      pop\n      pop\n      pop\n      jump\t// out\n        /* \"#utility.yul\":13925:13998   */\n    tag_221:\n        /* \"#utility.yul\":13970:13973   */\n      0x00\n        /* \"#utility.yul\":13991:13992   */\n      0x00\n        /* \"#utility.yul\":13984:13992   */\n      swap1\n      pop\n        /* \"#utility.yul\":13925:13998   */\n      swap1\n      jump\t// out\n        /* \"#utility.yul\":14004:14193   */\n    tag_222:\n        /* \"#utility.yul\":14081:14113   */\n      tag_372\n      tag_221\n      jump\t// in\n    tag_372:\n        /* \"#utility.yul\":14122:14187   */\n      tag_373\n        /* \"#utility.yul\":14180:14186   */\n      dup2\n        /* \"#utility.yul\":14172:14178   */\n      dup5\n        /* \"#utility.yul\":14166:14170   */\n      dup5\n        /* \"#utility.yul\":14122:14187   */\n      tag_220\n      jump\t// in\n    tag_373:\n        /* \"#utility.yul\":14057:14193   */\n      pop\n        /* \"#utility.yul\":14004:14193   */\n      pop\n      pop\n      jump\t// out\n        /* \"#utility.yul\":14199:14385   */\n    tag_223:\n        /* \"#utility.yul\":14259:14379   */\n    tag_375:\n        /* \"#utility.yul\":14276:14279   */\n      dup2\n        /* \"#utility.yul\":14269:14274   */\n      dup2\n        /* \"#utility.yul\":14266:14280   */\n      lt\n        /* \"#utility.yul\":14259:14379   */\n      iszero\n      tag_377\n      jumpi\n        /* \"#utility.yul\":14330:14369   */\n      tag_378\n        /* \"#utility.yul\":14367:14368   */\n      0x00\n        /* \"#utility.yul\":14360:14365   */\n      dup3\n        /* \"#utility.yul\":14330:14369   */\n      tag_222\n      jump\t// in\n    tag_378:\n        /* \"#utility.yul\":14303:14304   */\n      0x01\n        /* \"#utility.yul\":14296:14301   */\n      dup2\n        /* \"#utility.yul\":14292:14305   */\n      add\n        /* \"#utility.yul\":14283:14305   */\n      swap1\n      pop\n        /* \"#utility.yul\":14259:14379   */\n      jump(tag_375)\n    tag_377:\n        /* \"#utility.yul\":14199:14385   */\n      pop\n      pop\n      jump\t// out\n        /* \"#utility.yul\":14391:14934   */\n    tag_224:\n        /* \"#utility.yul\":14492:14494   */\n      0x1f\n        /* \"#utility.yul\":14487:14490   */\n      dup3\n        /* \"#utility.yul\":14484:14495   */\n      gt\n        /* \"#utility.yul\":14481:14927   */\n      iszero\n      tag_380\n      jumpi\n        /* \"#utility.yul\":14526:14564   */\n      tag_381\n        /* \"#utility.yul\":14558:14563   */\n      dup2\n        /* \"#utility.yul\":14526:14564   */\n      tag_213\n      jump\t// in\n    tag_381:\n        /* \"#utility.yul\":14610:14639   */\n      tag_382\n        /* \"#utility.yul\":14628:14638   */\n      dup5\n        /* \"#utility.yul\":14610:14639   */\n      tag_214\n      jump\t// in\n    tag_382:\n        /* \"#utility.yul\":14600:14608   */\n      dup2\n        /* \"#utility.yul\":14596:14640   */\n      add\n        /* \"#utility.yul\":14793:14795   */\n      0x20\n        /* \"#utility.yul\":14781:14791   */\n      dup6\n        /* \"#utility.yul\":14778:14796   */\n      lt\n        /* \"#utility.yul\":14775:14824   */\n      iszero\n      tag_383\n      jumpi\n        /* \"#utility.yul\":14814:14822   */\n      dup2\n        /* \"#utility.yul\":14799:14822   */\n      swap1\n      pop\n        /* \"#utility.yul\":14775:14824   */\n    tag_383:\n        /* \"#utility.yul\":14837:14917   */\n      tag_384\n        /* \"#utility.yul\":14893:14915   */\n      tag_385\n        /* \"#utility.yul\":14911:14914   */\n      dup6\n        /* \"#utility.yul\":14893:14915   */\n      tag_214\n      jump\t// in\n    tag_385:\n        /* \"#utility.yul\":14883:14891   */\n      dup4\n        /* \"#utility.yul\":14879:14916   */\n      add\n        /* \"#utility.yul\":14866:14877   */\n      dup3\n        /* \"#utility.yul\":14837:14917   */\n      tag_223\n      jump\t// in\n    tag_384:\n        /* \"#utility.yul\":14496:14927   */\n      pop\n      pop\n        /* \"#utility.yul\":14481:14927   */\n    tag_380:\n        /* \"#utility.yul\":14391:14934   */\n      pop\n      pop\n      pop\n      jump\t// out\n        /* \"#utility.yul\":14940:15057   */\n    tag_225:\n        /* \"#utility.yul\":14994:15002   */\n      0x00\n        /* \"#utility.yul\":15044:15049   */\n      dup3\n        /* \"#utility.yul\":15038:15042   */\n      dup3\n        /* \"#utility.yul\":15034:15050   */\n      shr\n        /* \"#utility.yul\":15013:15050   */\n      swap1\n      pop\n        /* \"#utility.yul\":14940:15057   */\n      swap3\n      swap2\n      pop\n      pop\n      jump\t// out\n        /* \"#utility.yul\":15063:15232   */\n    tag_226:\n        /* \"#utility.yul\":15107:15113   */\n      0x00\n        /* \"#utility.yul\":15140:15191   */\n      tag_388\n        /* \"#utility.yul\":15188:15189   */\n      0x00\n        /* \"#utility.yul\":15184:15190   */\n      not\n        /* \"#utility.yul\":15176:15181   */\n      dup5\n        /* \"#utility.yul\":15173:15174   */\n      0x08\n        /* \"#utility.yul\":15169:15182   */\n      mul\n        /* \"#utility.yul\":15140:15191   */\n      tag_225\n      jump\t// in\n    tag_388:\n        /* \"#utility.yul\":15136:15192   */\n      not\n        /* \"#utility.yul\":15221:15225   */\n      dup1\n        /* \"#utility.yul\":15215:15219   */\n      dup4\n        /* \"#utility.yul\":15211:15226   */\n      and\n        /* \"#utility.yul\":15201:15226   */\n      swap2\n      pop\n        /* \"#utility.yul\":15114:15232   */\n      pop\n        /* \"#utility.yul\":15063:15232   */\n      swap3\n      swap2\n      pop\n      pop\n      jump\t// out\n        /* \"#utility.yul\":15237:15532   */\n    tag_227:\n        /* \"#utility.yul\":15313:15317   */\n      0x00\n        /* \"#utility.yul\":15459:15488   */\n      tag_390\n        /* \"#utility.yul\":15484:15487   */\n      dup4\n        /* \"#utility.yul\":15478:15482   */\n      dup4\n        /* \"#utility.yul\":15459:15488   */\n      tag_226\n      jump\t// in\n    tag_390:\n        /* \"#utility.yul\":15451:15488   */\n      swap2\n      pop\n        /* \"#utility.yul\":15521:15524   */\n      dup3\n        /* \"#utility.yul\":15518:15519   */\n      0x02\n        /* \"#utility.yul\":15514:15525   */\n      mul\n        /* \"#utility.yul\":15508:15512   */\n      dup3\n        /* \"#utility.yul\":15505:15526   */\n      or\n        /* \"#utility.yul\":15497:15526   */\n      swap1\n      pop\n        /* \"#utility.yul\":15237:15532   */\n      swap3\n      swap2\n      pop\n      pop\n      jump\t// out\n        /* \"#utility.yul\":15537:16932   */\n    tag_67:\n        /* \"#utility.yul\":15654:15691   */\n      tag_392\n        /* \"#utility.yul\":15687:15690   */\n      dup3\n        /* \"#utility.yul\":15654:15691   */\n      tag_186\n      jump\t// in\n    tag_392:\n        /* \"#utility.yul\":15756:15774   */\n      0xffffffffffffffff\n        /* \"#utility.yul\":15748:15754   */\n      dup2\n        /* \"#utility.yul\":15745:15775   */\n      gt\n        /* \"#utility.yul\":15742:15798   */\n      iszero\n      tag_393\n      jumpi\n        /* \"#utility.yul\":15778:15796   */\n      tag_394\n      tag_113\n      jump\t// in\n    tag_394:\n        /* \"#utility.yul\":15742:15798   */\n    tag_393:\n        /* \"#utility.yul\":15822:15860   */\n      tag_395\n        /* \"#utility.yul\":15854:15858   */\n      dup3\n        /* \"#utility.yul\":15848:15859   */\n      sload\n        /* \"#utility.yul\":15822:15860   */\n      tag_77\n      jump\t// in\n    tag_395:\n        /* \"#utility.yul\":15907:15974   */\n      tag_396\n        /* \"#utility.yul\":15967:15973   */\n      dup3\n        /* \"#utility.yul\":15959:15965   */\n      dup3\n        /* \"#utility.yul\":15953:15957   */\n      dup6\n        /* \"#utility.yul\":15907:15974   */\n      tag_224\n      jump\t// in\n    tag_396:\n        /* \"#utility.yul\":16001:16002   */\n      0x00\n        /* \"#utility.yul\":16025:16029   */\n      0x20\n        /* \"#utility.yul\":16012:16029   */\n      swap1\n      pop\n        /* \"#utility.yul\":16057:16059   */\n      0x1f\n        /* \"#utility.yul\":16049:16055   */\n      dup4\n        /* \"#utility.yul\":16046:16060   */\n      gt\n        /* \"#utility.yul\":16074:16075   */\n      0x01\n        /* \"#utility.yul\":16069:16687   */\n      dup2\n      eq\n      tag_398\n      jumpi\n        /* \"#utility.yul\":16731:16732   */\n      0x00\n        /* \"#utility.yul\":16748:16754   */\n      dup5\n        /* \"#utility.yul\":16745:16822   */\n      iszero\n      tag_399\n      jumpi\n        /* \"#utility.yul\":16797:16806   */\n      dup3\n        /* \"#utility.yul\":16792:16795   */\n      dup8\n        /* \"#utility.yul\":16788:16807   */\n      add\n        /* \"#utility.yul\":16782:16808   */\n      mload\n        /* \"#utility.yul\":16773:16808   */\n      swap1\n      pop\n        /* \"#utility.yul\":16745:16822   */\n    tag_399:\n        /* \"#utility.yul\":16848:16915   */\n      tag_400\n        /* \"#utility.yul\":16908:16914   */\n      dup6\n        /* \"#utility.yul\":16901:16906   */\n      dup3\n        /* \"#utility.yul\":16848:16915   */\n      tag_227\n      jump\t// in\n    tag_400:\n        /* \"#utility.yul\":16842:16846   */\n      dup7\n        /* \"#utility.yul\":16835:16916   */\n      sstore\n        /* \"#utility.yul\":16704:16926   */\n      pop\n        /* \"#utility.yul\":16039:16926   */\n      jump(tag_397)\n        /* \"#utility.yul\":16069:16687   */\n    tag_398:\n        /* \"#utility.yul\":16121:16125   */\n      0x1f\n        /* \"#utility.yul\":16117:16126   */\n      not\n        /* \"#utility.yul\":16109:16115   */\n      dup5\n        /* \"#utility.yul\":16105:16127   */\n      and\n        /* \"#utility.yul\":16155:16192   */\n      tag_401\n        /* \"#utility.yul\":16187:16191   */\n      dup7\n        /* \"#utility.yul\":16155:16192   */\n      tag_213\n      jump\t// in\n    tag_401:\n        /* \"#utility.yul\":16214:16215   */\n      0x00\n        /* \"#utility.yul\":16228:16436   */\n    tag_402:\n        /* \"#utility.yul\":16242:16249   */\n      dup3\n        /* \"#utility.yul\":16239:16240   */\n      dup2\n        /* \"#utility.yul\":16236:16250   */\n      lt\n        /* \"#utility.yul\":16228:16436   */\n      iszero\n      tag_404\n      jumpi\n        /* \"#utility.yul\":16321:16330   */\n      dup5\n        /* \"#utility.yul\":16316:16319   */\n      dup10\n        /* \"#utility.yul\":16312:16331   */\n      add\n        /* \"#utility.yul\":16306:16332   */\n      mload\n        /* \"#utility.yul\":16298:16304   */\n      dup3\n        /* \"#utility.yul\":16291:16333   */\n      sstore\n        /* \"#utility.yul\":16372:16373   */\n      0x01\n        /* \"#utility.yul\":16364:16370   */\n      dup3\n        /* \"#utility.yul\":16360:16374   */\n      add\n        /* \"#utility.yul\":16350:16374   */\n      swap2\n      pop\n        /* \"#utility.yul\":16419:16421   */\n      0x20\n        /* \"#utility.yul\":16408:16417   */\n      dup6\n        /* \"#utility.yul\":16404:16422   */\n      add\n        /* \"#utility.yul\":16391:16422   */\n      swap5\n      pop\n        /* \"#utility.yul\":16265:16269   */\n      0x20\n        /* \"#utility.yul\":16262:16263   */\n      dup2\n        /* \"#utility.yul\":16258:16270   */\n      add\n        /* \"#utility.yul\":16253:16270   */\n      swap1\n      pop\n        /* \"#utility.yul\":16228:16436   */\n      jump(tag_402)\n    tag_404:\n        /* \"#utility.yul\":16464:16470   */\n      dup7\n        /* \"#utility.yul\":16455:16462   */\n      dup4\n        /* \"#utility.yul\":16452:16471   */\n      lt\n        /* \"#utility.yul\":16449:16628   */\n      iszero\n      tag_405\n      jumpi\n        /* \"#utility.yul\":16522:16531   */\n      dup5\n        /* \"#utility.yul\":16517:16520   */\n      dup10\n        /* \"#utility.yul\":16513:16532   */\n      add\n        /* \"#utility.yul\":16507:16533   */\n      mload\n        /* \"#utility.yul\":16565:16613   */\n      tag_406\n        /* \"#utility.yul\":16607:16611   */\n      0x1f\n        /* \"#utility.yul\":16599:16605   */\n      dup10\n        /* \"#utility.yul\":16595:16612   */\n      and\n        /* \"#utility.yul\":16584:16593   */\n      dup3\n        /* \"#utility.yul\":16565:16613   */\n      tag_226\n      jump\t// in\n    tag_406:\n        /* \"#utility.yul\":16557:16563   */\n      dup4\n        /* \"#utility.yul\":16550:16614   */\n      sstore\n        /* \"#utility.yul\":16472:16628   */\n      pop\n        /* \"#utility.yul\":16449:16628   */\n    tag_405:\n        /* \"#utility.yul\":16674:16675   */\n      0x01\n        /* \"#utility.yul\":16670:16671   */\n      0x02\n        /* \"#utility.yul\":16662:16668   */\n      dup9\n        /* \"#utility.yul\":16658:16672   */\n      mul\n        /* \"#utility.yul\":16654:16676   */\n      add\n        /* \"#utility.yul\":16648:16652   */\n      dup9\n        /* \"#utility.yul\":16641:16677   */\n      sstore\n        /* \"#utility.yul\":16076:16687   */\n      pop\n      pop\n      pop\n        /* \"#utility.yul\":16039:16926   */\n    tag_397:\n      pop\n        /* \"#utility.yul\":15629:16932   */\n      pop\n      pop\n      pop\n        /* \"#utility.yul\":15537:16932   */\n      pop\n      pop\n      jump\t// out\n        /* \"#utility.yul\":16938:17086   */\n    tag_228:\n        /* \"#utility.yul\":17036:17042   */\n      dup3\n        /* \"#utility.yul\":17031:17034   */\n      dup2\n        /* \"#utility.yul\":17026:17029   */\n      dup4\n        /* \"#utility.yul\":17013:17043   */\n      calldatacopy\n        /* \"#utility.yul\":17077:17078   */\n      0x00\n        /* \"#utility.yul\":17068:17074   */\n      dup4\n        /* \"#utility.yul\":17063:17066   */\n      dup4\n        /* \"#utility.yul\":17059:17075   */\n      add\n        /* \"#utility.yul\":17052:17079   */\n      mstore\n        /* \"#utility.yul\":16938:17086   */\n      pop\n      pop\n      pop\n      jump\t// out\n        /* \"#utility.yul\":17116:17433   */\n    tag_229:\n        /* \"#utility.yul\":17214:17217   */\n      0x00\n        /* \"#utility.yul\":17235:17306   */\n      tag_409\n        /* \"#utility.yul\":17299:17305   */\n      dup4\n        /* \"#utility.yul\":17294:17297   */\n      dup6\n        /* \"#utility.yul\":17235:17306   */\n      tag_187\n      jump\t// in\n    tag_409:\n        /* \"#utility.yul\":17228:17306   */\n      swap4\n      pop\n        /* \"#utility.yul\":17316:17372   */\n      tag_410\n        /* \"#utility.yul\":17365:17371   */\n      dup4\n        /* \"#utility.yul\":17360:17363   */\n      dup6\n        /* \"#utility.yul\":17353:17358   */\n      dup5\n        /* \"#utility.yul\":17316:17372   */\n      tag_228\n      jump\t// in\n    tag_410:\n        /* \"#utility.yul\":17397:17426   */\n      tag_411\n        /* \"#utility.yul\":17419:17425   */\n      dup4\n        /* \"#utility.yul\":17397:17426   */\n      tag_189\n      jump\t// in\n    tag_411:\n        /* \"#utility.yul\":17392:17395   */\n      dup5\n        /* \"#utility.yul\":17388:17427   */\n      add\n        /* \"#utility.yul\":17381:17427   */\n      swap1\n      pop\n        /* \"#utility.yul\":17116:17433   */\n      swap4\n      swap3\n      pop\n      pop\n      pop\n      jump\t// out\n        /* \"#utility.yul\":17439:17772   */\n    tag_69:\n        /* \"#utility.yul\":17562:17566   */\n      0x00\n        /* \"#utility.yul\":17600:17602   */\n      0x20\n        /* \"#utility.yul\":17589:17598   */\n      dup3\n        /* \"#utility.yul\":17585:17603   */\n      add\n        /* \"#utility.yul\":17577:17603   */\n      swap1\n      pop\n        /* \"#utility.yul\":17649:17658   */\n      dup2\n        /* \"#utility.yul\":17643:17647   */\n      dup2\n        /* \"#utility.yul\":17639:17659   */\n      sub\n        /* \"#utility.yul\":17635:17636   */\n      0x00\n        /* \"#utility.yul\":17624:17633   */\n      dup4\n        /* \"#utility.yul\":17620:17637   */\n      add\n        /* \"#utility.yul\":17613:17660   */\n      mstore\n        /* \"#utility.yul\":17677:17765   */\n      tag_413\n        /* \"#utility.yul\":17760:17764   */\n      dup2\n        /* \"#utility.yul\":17751:17757   */\n      dup5\n        /* \"#utility.yul\":17743:17749   */\n      dup7\n        /* \"#utility.yul\":17677:17765   */\n      tag_229\n      jump\t// in\n    tag_413:\n        /* \"#utility.yul\":17669:17765   */\n      swap1\n      pop\n        /* \"#utility.yul\":17439:17772   */\n      swap4\n      swap3\n      pop\n      pop\n      pop\n      jump\t// out\n        /* \"#utility.yul\":17778:17956   */\n    tag_230:\n        /* \"#utility.yul\":17918:17948   */\n      0x546f446f4c697374203a205461736b20646f65736e7420657869737400000000\n        /* \"#utility.yul\":17914:17915   */\n      0x00\n        /* \"#utility.yul\":17906:17912   */\n      dup3\n        /* \"#utility.yul\":17902:17916   */\n      add\n        /* \"#utility.yul\":17895:17949   */\n      mstore\n        /* \"#utility.yul\":17778:17956   */\n      pop\n      jump\t// out\n        /* \"#utility.yul\":17962:18328   */\n    tag_231:\n        /* \"#utility.yul\":18104:18107   */\n      0x00\n        /* \"#utility.yul\":18125:18192   */\n      tag_416\n        /* \"#utility.yul\":18189:18191   */\n      0x1c\n        /* \"#utility.yul\":18184:18187   */\n      dup4\n        /* \"#utility.yul\":18125:18192   */\n      tag_187\n      jump\t// in\n    tag_416:\n        /* \"#utility.yul\":18118:18192   */\n      swap2\n      pop\n        /* \"#utility.yul\":18201:18294   */\n      tag_417\n        /* \"#utility.yul\":18290:18293   */\n      dup3\n        /* \"#utility.yul\":18201:18294   */\n      tag_230\n      jump\t// in\n    tag_417:\n        /* \"#utility.yul\":18319:18321   */\n      0x20\n        /* \"#utility.yul\":18314:18317   */\n      dup3\n        /* \"#utility.yul\":18310:18322   */\n      add\n        /* \"#utility.yul\":18303:18322   */\n      swap1\n      pop\n        /* \"#utility.yul\":17962:18328   */\n      swap2\n      swap1\n      pop\n      jump\t// out\n        /* \"#utility.yul\":18334:18753   */\n    tag_75:\n        /* \"#utility.yul\":18500:18504   */\n      0x00\n        /* \"#utility.yul\":18538:18540   */\n      0x20\n        /* \"#utility.yul\":18527:18536   */\n      dup3\n        /* \"#utility.yul\":18523:18541   */\n      add\n        /* \"#utility.yul\":18515:18541   */\n      swap1\n      pop\n        /* \"#utility.yul\":18587:18596   */\n      dup2\n        /* \"#utility.yul\":18581:18585   */\n      dup2\n        /* \"#utility.yul\":18577:18597   */\n      sub\n        /* \"#utility.yul\":18573:18574   */\n      0x00\n        /* \"#utility.yul\":18562:18571   */\n      dup4\n        /* \"#utility.yul\":18558:18575   */\n      add\n        /* \"#utility.yul\":18551:18598   */\n      mstore\n        /* \"#utility.yul\":18615:18746   */\n      tag_419\n        /* \"#utility.yul\":18741:18745   */\n      dup2\n        /* \"#utility.yul\":18615:18746   */\n      tag_231\n      jump\t// in\n    tag_419:\n        /* \"#utility.yul\":18607:18746   */\n      swap1\n      pop\n        /* \"#utility.yul\":18334:18753   */\n      swap2\n      swap1\n      pop\n      jump\t// out\n        /* \"#utility.yul\":18759:18969   */\n    tag_88:\n        /* \"#utility.yul\":18846:18850   */\n      0x00\n        /* \"#utility.yul\":18884:18886   */\n      0x20\n        /* \"#utility.yul\":18873:18882   */\n      dup3\n        /* \"#utility.yul\":18869:18887   */\n      add\n        /* \"#utility.yul\":18861:18887   */\n      swap1\n      pop\n        /* \"#utility.yul\":18897:18962   */\n      tag_421\n        /* \"#utility.yul\":18959:18960   */\n      0x00\n        /* \"#utility.yul\":18948:18957   */\n      dup4\n        /* \"#utility.yul\":18944:18961   */\n      add\n        /* \"#utility.yul\":18935:18941   */\n      dup5\n        /* \"#utility.yul\":18897:18962   */\n      tag_192\n      jump\t// in\n    tag_421:\n        /* \"#utility.yul\":18759:18969   */\n      swap3\n      swap2\n      pop\n      pop\n      jump\t// out\n        /* \"#utility.yul\":18975:19155   */\n    tag_134:\n        /* \"#utility.yul\":19023:19100   */\n      0x4e487b7100000000000000000000000000000000000000000000000000000000\n        /* \"#utility.yul\":19020:19021   */\n      0x00\n        /* \"#utility.yul\":19013:19101   */\n      mstore\n        /* \"#utility.yul\":19120:19124   */\n      0x32\n        /* \"#utility.yul\":19117:19118   */\n      0x04\n        /* \"#utility.yul\":19110:19125   */\n      mstore\n        /* \"#utility.yul\":19144:19148   */\n      0x24\n        /* \"#utility.yul\":19141:19142   */\n      0x00\n        /* \"#utility.yul\":19134:19149   */\n      revert\n        /* \"#utility.yul\":19161:19258   */\n    tag_232:\n        /* \"#utility.yul\":19220:19226   */\n      0x00\n        /* \"#utility.yul\":19248:19251   */\n      dup3\n        /* \"#utility.yul\":19238:19251   */\n      swap1\n      pop\n        /* \"#utility.yul\":19161:19258   */\n      swap3\n      swap2\n      pop\n      pop\n      jump\t// out\n        /* \"#utility.yul\":19264:20667   */\n    tag_145:\n        /* \"#utility.yul\":19388:19432   */\n      tag_425\n        /* \"#utility.yul\":19428:19431   */\n      dup4\n        /* \"#utility.yul\":19423:19426   */\n      dup4\n        /* \"#utility.yul\":19388:19432   */\n      tag_232\n      jump\t// in\n    tag_425:\n        /* \"#utility.yul\":19497:19515   */\n      0xffffffffffffffff\n        /* \"#utility.yul\":19489:19495   */\n      dup2\n        /* \"#utility.yul\":19486:19516   */\n      gt\n        /* \"#utility.yul\":19483:19539   */\n      iszero\n      tag_426\n      jumpi\n        /* \"#utility.yul\":19519:19537   */\n      tag_427\n      tag_113\n      jump\t// in\n    tag_427:\n        /* \"#utility.yul\":19483:19539   */\n    tag_426:\n        /* \"#utility.yul\":19563:19601   */\n      tag_428\n        /* \"#utility.yul\":19595:19599   */\n      dup3\n        /* \"#utility.yul\":19589:19600   */\n      sload\n        /* \"#utility.yul\":19563:19601   */\n      tag_77\n      jump\t// in\n    tag_428:\n        /* \"#utility.yul\":19648:19715   */\n      tag_429\n        /* \"#utility.yul\":19708:19714   */\n      dup3\n        /* \"#utility.yul\":19700:19706   */\n      dup3\n        /* \"#utility.yul\":19694:19698   */\n      dup6\n        /* \"#utility.yul\":19648:19715   */\n      tag_224\n      jump\t// in\n    tag_429:\n        /* \"#utility.yul\":19742:19743   */\n      0x00\n        /* \"#utility.yul\":19771:19773   */\n      0x1f\n        /* \"#utility.yul\":19763:19769   */\n      dup4\n        /* \"#utility.yul\":19760:19774   */\n      gt\n        /* \"#utility.yul\":19788:19789   */\n      0x01\n        /* \"#utility.yul\":19783:20415   */\n      dup2\n      eq\n      tag_431\n      jumpi\n        /* \"#utility.yul\":20459:20460   */\n      0x00\n        /* \"#utility.yul\":20476:20482   */\n      dup5\n        /* \"#utility.yul\":20473:20557   */\n      iszero\n      tag_432\n      jumpi\n        /* \"#utility.yul\":20532:20541   */\n      dup3\n        /* \"#utility.yul\":20527:20530   */\n      dup8\n        /* \"#utility.yul\":20523:20542   */\n      add\n        /* \"#utility.yul\":20510:20543   */\n      calldataload\n        /* \"#utility.yul\":20501:20543   */\n      swap1\n      pop\n        /* \"#utility.yul\":20473:20557   */\n    tag_432:\n        /* \"#utility.yul\":20583:20650   */\n      tag_433\n        /* \"#utility.yul\":20643:20649   */\n      dup6\n        /* \"#utility.yul\":20636:20641   */\n      dup3\n        /* \"#utility.yul\":20583:20650   */\n      tag_227\n      jump\t// in\n    tag_433:\n        /* \"#utility.yul\":20577:20581   */\n      dup7\n        /* \"#utility.yul\":20570:20651   */\n      sstore\n        /* \"#utility.yul\":20432:20661   */\n      pop\n        /* \"#utility.yul\":19753:20661   */\n      jump(tag_430)\n        /* \"#utility.yul\":19783:20415   */\n    tag_431:\n        /* \"#utility.yul\":19835:19839   */\n      0x1f\n        /* \"#utility.yul\":19831:19840   */\n      not\n        /* \"#utility.yul\":19823:19829   */\n      dup5\n        /* \"#utility.yul\":19819:19841   */\n      and\n        /* \"#utility.yul\":19869:19906   */\n      tag_434\n        /* \"#utility.yul\":19901:19905   */\n      dup7\n        /* \"#utility.yul\":19869:19906   */\n      tag_213\n      jump\t// in\n    tag_434:\n        /* \"#utility.yul\":19928:19929   */\n      0x00\n        /* \"#utility.yul\":19942:20157   */\n    tag_435:\n        /* \"#utility.yul\":19956:19963   */\n      dup3\n        /* \"#utility.yul\":19953:19954   */\n      dup2\n        /* \"#utility.yul\":19950:19964   */\n      lt\n        /* \"#utility.yul\":19942:20157   */\n      iszero\n      tag_437\n      jumpi\n        /* \"#utility.yul\":20042:20051   */\n      dup5\n        /* \"#utility.yul\":20037:20040   */\n      dup10\n        /* \"#utility.yul\":20033:20052   */\n      add\n        /* \"#utility.yul\":20020:20053   */\n      calldataload\n        /* \"#utility.yul\":20012:20018   */\n      dup3\n        /* \"#utility.yul\":20005:20054   */\n      sstore\n        /* \"#utility.yul\":20093:20094   */\n      0x01\n        /* \"#utility.yul\":20085:20091   */\n      dup3\n        /* \"#utility.yul\":20081:20095   */\n      add\n        /* \"#utility.yul\":20071:20095   */\n      swap2\n      pop\n        /* \"#utility.yul\":20140:20142   */\n      0x20\n        /* \"#utility.yul\":20129:20138   */\n      dup6\n        /* \"#utility.yul\":20125:20143   */\n      add\n        /* \"#utility.yul\":20112:20143   */\n      swap5\n      pop\n        /* \"#utility.yul\":19979:19983   */\n      0x20\n        /* \"#utility.yul\":19976:19977   */\n      dup2\n        /* \"#utility.yul\":19972:19984   */\n      add\n        /* \"#utility.yul\":19967:19984   */\n      swap1\n      pop\n        /* \"#utility.yul\":19942:20157   */\n      jump(tag_435)\n    tag_437:\n        /* \"#utility.yul\":20185:20191   */\n      dup7\n        /* \"#utility.yul\":20176:20183   */\n      dup4\n        /* \"#utility.yul\":20173:20192   */\n      lt\n        /* \"#utility.yul\":20170:20356   */\n      iszero\n      tag_438\n      jumpi\n        /* \"#utility.yul\":20250:20259   */\n      dup5\n        /* \"#utility.yul\":20245:20248   */\n      dup10\n        /* \"#utility.yul\":20241:20260   */\n      add\n        /* \"#utility.yul\":20228:20261   */\n      calldataload\n        /* \"#utility.yul\":20293:20341   */\n      tag_439\n        /* \"#utility.yul\":20335:20339   */\n      0x1f\n        /* \"#utility.yul\":20327:20333   */\n      dup10\n        /* \"#utility.yul\":20323:20340   */\n      and\n        /* \"#utility.yul\":20312:20321   */\n      dup3\n        /* \"#utility.yul\":20293:20341   */\n      tag_226\n      jump\t// in\n    tag_439:\n        /* \"#utility.yul\":20285:20291   */\n      dup4\n        /* \"#utility.yul\":20278:20342   */\n      sstore\n        /* \"#utility.yul\":20193:20356   */\n      pop\n        /* \"#utility.yul\":20170:20356   */\n    tag_438:\n        /* \"#utility.yul\":20402:20403   */\n      0x01\n        /* \"#utility.yul\":20398:20399   */\n      0x02\n        /* \"#utility.yul\":20390:20396   */\n      dup9\n        /* \"#utility.yul\":20386:20400   */\n      mul\n        /* \"#utility.yul\":20382:20404   */\n      add\n        /* \"#utility.yul\":20376:20380   */\n      dup9\n        /* \"#utility.yul\":20369:20405   */\n      sstore\n        /* \"#utility.yul\":19790:20415   */\n      pop\n      pop\n      pop\n        /* \"#utility.yul\":19753:20661   */\n    tag_430:\n      pop\n        /* \"#utility.yul\":19363:20667   */\n      pop\n      pop\n      pop\n        /* \"#utility.yul\":19264:20667   */\n      pop\n      pop\n      pop\n      jump\t// out\n\n    auxdata: 0xa26469706673582212207e5a0253a6de80b001bd177bf133260bfb8418704377a239bd7d16401acd5df964736f6c634300081e0033\n}\n",
				"bytecode": {
					"linkReferences": {},
					"object": "608060405234801561000f575f5ffd5b50335f73ffffffffffffffffffffffffffffffffffffffff168173ffffffffffffffffffffffffffffffffffffffff1603610081575f6040517f1e4fbdf70000000000000000000000000000000000000000000000000000000081526004016100789190610196565b60405180910390fd5b6100908161009660201b60201c565b506101af565b5f5f5f9054906101000a900473ffffffffffffffffffffffffffffffffffffffff169050815f5f6101000a81548173ffffffffffffffffffffffffffffffffffffffff021916908373ffffffffffffffffffffffffffffffffffffffff1602179055508173ffffffffffffffffffffffffffffffffffffffff168173ffffffffffffffffffffffffffffffffffffffff167f8be0079c531659141344cd1fd0a4f28419497f9722a3daafe3b4186f6b6457e060405160405180910390a35050565b5f73ffffffffffffffffffffffffffffffffffffffff82169050919050565b5f61018082610157565b9050919050565b61019081610176565b82525050565b5f6020820190506101a95f830184610187565b92915050565b61177f806101bc5f395ff3fe608060405234801561000f575f5ffd5b50600436106100a7575f3560e01c8063779900b41161006f578063779900b41461013b57806386533f6c146101595780638d977672146101755780638da5cb5b146101a7578063b6cb58a5146101c5578063f2fde38b146101e3576100a7565b8063111002aa146100ab5780631d65e77e146100c7578063455f5024146100f9578063560f319214610115578063715018a614610131575b5f5ffd5b6100c560048036038101906100c09190610d3e565b6101ff565b005b6100e160048036038101906100dc9190610dbc565b610359565b6040516100f093929190610e80565b60405180910390f35b610113600480360381019061010e9190610dbc565b61047f565b005b61012f600480360381019061012a9190610dbc565b610568565b005b610139610631565b005b610143610644565b604051610150919061102a565b60405180910390f35b610173600480360381019061016e919061104a565b61089f565b005b61018f600480360381019061018a9190610dbc565b6109a4565b60405161019e93929190610e80565b60405180910390f35b6101af610a5c565b6040516101bc91906110e6565b60405180910390f35b6101cd610a83565b6040516101da91906110ff565b60405180910390f35b6101fd60048036038101906101f89190611142565b610a89565b005b610207610b0d565b5f828290501161024c576040517f08c379a0000000000000000000000000000000000000000000000000000000008152600401610243906111dd565b60405180910390fd5b60015f81548092919061025e90611228565b91905055505f6001549050604051806060016040528082815260200184848080601f0160208091040260200160405190810160405280939291908181526020018383808284375f81840152601f19601f8201169050808301925050505050505081526020015f151581525060025f8381526020019081526020015f205f820151815f015560208201518160010190816102f79190611499565b506040820151816002015f6101000a81548160ff021916908315150217905550905050807fa5ed9e6226c584326505694539c95cb0e3238ae09bcda5a65c00bbfdab1c6662848460405161034c9291906115a2565b60405180910390a2505050565b5f60605f610365610b0d565b5f60025f8681526020019081526020015f205f0154036103ba576040517f08c379a00000000000000000000000000000000000000000000000000000000081526004016103b19061160e565b60405180910390fd5b5f60025f8681526020019081526020015f209050805f015481600101826002015f9054906101000a900460ff168180546103f3906112c9565b80601f016020809104026020016040519081016040528092919081815260200182805461041f906112c9565b801561046a5780601f106104415761010080835404028352916020019161046a565b820191905f5260205f20905b81548152906001019060200180831161044d57829003601f168201915b50505050509150935093509350509193909250565b610487610b0d565b5f60025f8381526020019081526020015f205f0154036104dc576040517f08c379a00000000000000000000000000000000000000000000000000000000081526004016104d39061160e565b60405180910390fd5b5f60025f8381526020019081526020015f209050806002015f9054906101000a900460ff1615816002015f6101000a81548160ff021916908315150217905550817fe21fa966ca5cd02748c0752352d18c48165e61cb55b4c29cccf924b5a95fcff1826002015f9054906101000a900460ff1660405161055c919061162c565b60405180910390a25050565b610570610b0d565b5f60025f8381526020019081526020015f205f0154036105c5576040517f08c379a00000000000000000000000000000000000000000000000000000000081526004016105bc9061160e565b60405180910390fd5b60025f8281526020019081526020015f205f5f82015f9055600182015f6105ec9190610c5c565b600282015f6101000a81549060ff02191690555050807fd078b251d950cc55c44340be1db732337ef4939a76e1367ee271ad2cb19c46af60405160405180910390a250565b610639610b0d565b6106425f610b94565b565b606061064e610b0d565b5f5f90505f600190505b600154811161069d575f60025f8381526020019081526020015f205f01541461068a57818061068690611228565b9250505b808061069590611228565b915050610658565b505f8103610701575f67ffffffffffffffff8111156106bf576106be61126f565b5b6040519080825280602002602001820160405280156106f857816020015b6106e5610c99565b8152602001906001900390816106dd5790505b5091505061089c565b5f8167ffffffffffffffff81111561071c5761071b61126f565b5b60405190808252806020026020018201604052801561075557816020015b610742610c99565b81526020019060019003908161073a5790505b5090505f5f90505f600190505b6001548111610894575f60025f8381526020019081526020015f205f0154146108815760025f8281526020019081526020015f206040518060600160405290815f82015481526020016001820180546107ba906112c9565b80601f01602080910402602001604051908101604052809291908181526020018280546107e6906112c9565b80156108315780601f1061080857610100808354040283529160200191610831565b820191905f5260205f20905b81548152906001019060200180831161081457829003601f168201915b50505050508152602001600282015f9054906101000a900460ff16151515158152505083838151811061086757610866611645565b5b6020026020010181905250818061087d90611228565b9250505b808061088c90611228565b915050610762565b508193505050505b90565b6108a7610b0d565b5f82829050116108ec576040517f08c379a00000000000000000000000000000000000000000000000000000000081526004016108e3906111dd565b60405180910390fd5b5f60025f8581526020019081526020015f205f015403610941576040517f08c379a00000000000000000000000000000000000000000000000000000000081526004016109389061160e565b60405180910390fd5b818160025f8681526020019081526020015f20600101918261096492919061167c565b50827f39fdc01494598bde3e34a388abd0032d3eafbd917b56d7572771da5146d2779383836040516109979291906115a2565b60405180910390a2505050565b6002602052805f5260405f205f91509050805f0154908060010180546109c9906112c9565b80601f01602080910402602001604051908101604052809291908181526020018280546109f5906112c9565b8015610a405780601f10610a1757610100808354040283529160200191610a40565b820191905f5260205f20905b815481529060010190602001808311610a2357829003601f168201915b505050505090806002015f9054906101000a900460ff16905083565b5f5f5f9054906101000a900473ffffffffffffffffffffffffffffffffffffffff16905090565b60015481565b610a91610b0d565b5f73ffffffffffffffffffffffffffffffffffffffff168173ffffffffffffffffffffffffffffffffffffffff1603610b01575f6040517f1e4fbdf7000000000000000000000000000000000000000000000000000000008152600401610af891906110e6565b60405180910390fd5b610b0a81610b94565b50565b610b15610c55565b73ffffffffffffffffffffffffffffffffffffffff16610b33610a5c565b73ffffffffffffffffffffffffffffffffffffffff1614610b9257610b56610c55565b6040517f118cdaa7000000000000000000000000000000000000000000000000000000008152600401610b8991906110e6565b60405180910390fd5b565b5f5f5f9054906101000a900473ffffffffffffffffffffffffffffffffffffffff169050815f5f6101000a81548173ffffffffffffffffffffffffffffffffffffffff021916908373ffffffffffffffffffffffffffffffffffffffff1602179055508173ffffffffffffffffffffffffffffffffffffffff168173ffffffffffffffffffffffffffffffffffffffff167f8be0079c531659141344cd1fd0a4f28419497f9722a3daafe3b4186f6b6457e060405160405180910390a35050565b5f33905090565b508054610c68906112c9565b5f825580601f10610c795750610c96565b601f0160209004905f5260205f2090810190610c959190610cba565b5b50565b60405180606001604052805f8152602001606081526020015f151581525090565b5b80821115610cd1575f815f905550600101610cbb565b5090565b5f5ffd5b5f5ffd5b5f5ffd5b5f5ffd5b5f5ffd5b5f5f83601f840112610cfe57610cfd610cdd565b5b8235905067ffffffffffffffff811115610d1b57610d1a610ce1565b5b602083019150836001820283011115610d3757610d36610ce5565b5b9250929050565b5f5f60208385031215610d5457610d53610cd5565b5b5f83013567ffffffffffffffff811115610d7157610d70610cd9565b5b610d7d85828601610ce9565b92509250509250929050565b5f819050919050565b610d9b81610d89565b8114610da5575f5ffd5b50565b5f81359050610db681610d92565b92915050565b5f60208284031215610dd157610dd0610cd5565b5b5f610dde84828501610da8565b91505092915050565b610df081610d89565b82525050565b5f81519050919050565b5f82825260208201905092915050565b8281835e5f83830152505050565b5f601f19601f8301169050919050565b5f610e3882610df6565b610e428185610e00565b9350610e52818560208601610e10565b610e5b81610e1e565b840191505092915050565b5f8115159050919050565b610e7a81610e66565b82525050565b5f606082019050610e935f830186610de7565b8181036020830152610ea58185610e2e565b9050610eb46040830184610e71565b949350505050565b5f81519050919050565b5f82825260208201905092915050565b5f819050602082019050919050565b610eee81610d89565b82525050565b5f82825260208201905092915050565b5f610f0e82610df6565b610f188185610ef4565b9350610f28818560208601610e10565b610f3181610e1e565b840191505092915050565b610f4581610e66565b82525050565b5f606083015f830151610f605f860182610ee5565b5060208301518482036020860152610f788282610f04565b9150506040830151610f8d6040860182610f3c565b508091505092915050565b5f610fa38383610f4b565b905092915050565b5f602082019050919050565b5f610fc182610ebc565b610fcb8185610ec6565b935083602082028501610fdd85610ed6565b805f5b858110156110185784840389528151610ff98582610f98565b945061100483610fab565b925060208a01995050600181019050610fe0565b50829750879550505050505092915050565b5f6020820190508181035f8301526110428184610fb7565b905092915050565b5f5f5f6040848603121561106157611060610cd5565b5b5f61106e86828701610da8565b935050602084013567ffffffffffffffff81111561108f5761108e610cd9565b5b61109b86828701610ce9565b92509250509250925092565b5f73ffffffffffffffffffffffffffffffffffffffff82169050919050565b5f6110d0826110a7565b9050919050565b6110e0816110c6565b82525050565b5f6020820190506110f95f8301846110d7565b92915050565b5f6020820190506111125f830184610de7565b92915050565b611121816110c6565b811461112b575f5ffd5b50565b5f8135905061113c81611118565b92915050565b5f6020828403121561115757611156610cd5565b5b5f6111648482850161112e565b91505092915050565b7f546f446f4c697374203a20436f6e74656e742063616e6e6f7420626520656d705f8201527f7479000000000000000000000000000000000000000000000000000000000000602082015250565b5f6111c7602283610e00565b91506111d28261116d565b604082019050919050565b5f6020820190508181035f8301526111f4816111bb565b9050919050565b7f4e487b71000000000000000000000000000000000000000000000000000000005f52601160045260245ffd5b5f61123282610d89565b91507fffffffffffffffffffffffffffffffffffffffffffffffffffffffffffffffff8203611264576112636111fb565b5b600182019050919050565b7f4e487b71000000000000000000000000000000000000000000000000000000005f52604160045260245ffd5b7f4e487b71000000000000000000000000000000000000000000000000000000005f52602260045260245ffd5b5f60028204905060018216806112e057607f821691505b6020821081036112f3576112f261129c565b5b50919050565b5f819050815f5260205f209050919050565b5f6020601f8301049050919050565b5f82821b905092915050565b5f600883026113557fffffffffffffffffffffffffffffffffffffffffffffffffffffffffffffffff8261131a565b61135f868361131a565b95508019841693508086168417925050509392505050565b5f819050919050565b5f61139a61139561139084610d89565b611377565b610d89565b9050919050565b5f819050919050565b6113b383611380565b6113c76113bf826113a1565b848454611326565b825550505050565b5f5f905090565b6113de6113cf565b6113e98184846113aa565b505050565b5b8181101561140c576114015f826113d6565b6001810190506113ef565b5050565b601f82111561145157611422816112f9565b61142b8461130b565b8101602085101561143a578190505b61144e6114468561130b565b8301826113ee565b50505b505050565b5f82821c905092915050565b5f6114715f1984600802611456565b1980831691505092915050565b5f6114898383611462565b9150826002028217905092915050565b6114a282610df6565b67ffffffffffffffff8111156114bb576114ba61126f565b5b6114c582546112c9565b6114d0828285611410565b5f60209050601f831160018114611501575f84156114ef578287015190505b6114f9858261147e565b865550611560565b601f19841661150f866112f9565b5f5b8281101561153657848901518255600182019150602085019450602081019050611511565b86831015611553578489015161154f601f891682611462565b8355505b6001600288020188555050505b505050505050565b828183375f83830152505050565b5f6115818385610e00565b935061158e838584611568565b61159783610e1e565b840190509392505050565b5f6020820190508181035f8301526115bb818486611576565b90509392505050565b7f546f446f4c697374203a205461736b20646f65736e74206578697374000000005f82015250565b5f6115f8601c83610e00565b9150611603826115c4565b602082019050919050565b5f6020820190508181035f830152611625816115ec565b9050919050565b5f60208201905061163f5f830184610e71565b92915050565b7f4e487b71000000000000000000000000000000000000000000000000000000005f52603260045260245ffd5b5f82905092915050565b6116868383611672565b67ffffffffffffffff81111561169f5761169e61126f565b5b6116a982546112c9565b6116b4828285611410565b5f601f8311600181146116e1575f84156116cf578287013590505b6116d9858261147e565b865550611740565b601f1984166116ef866112f9565b5f5b82811015611716578489013582556001820191506020850194506020810190506116f1565b86831015611733578489013561172f601f891682611462565b8355505b6001600288020188555050505b5050505050505056fea26469706673582212207e5a0253a6de80b001bd177bf133260bfb8418704377a239bd7d16401acd5df964736f6c634300081e0033",
					"opcodes": "PUSH1 0x80 PUSH1 0x40 MSTORE CALLVALUE DUP1 ISZERO PUSH2 0xF JUMPI PUSH0 PUSH0 REVERT JUMPDEST POP CALLER PUSH0 PUSH20 0xFFFFFFFFFFFFFFFFFFFFFFFFFFFFFFFFFFFFFFFF AND DUP2 PUSH20 0xFFFFFFFFFFFFFFFFFFFFFFFFFFFFFFFFFFFFFFFF AND SUB PUSH2 0x81 JUMPI PUSH0 PUSH1 0x40 MLOAD PUSH32 0x1E4FBDF700000000000000000000000000000000000000000000000000000000 DUP2 MSTORE PUSH1 0x4 ADD PUSH2 0x78 SWAP2 SWAP1 PUSH2 0x196 JUMP JUMPDEST PUSH1 0x40 MLOAD DUP1 SWAP2 SUB SWAP1 REVERT JUMPDEST PUSH2 0x90 DUP2 PUSH2 0x96 PUSH1 0x20 SHL PUSH1 0x20 SHR JUMP JUMPDEST POP PUSH2 0x1AF JUMP JUMPDEST PUSH0 PUSH0 PUSH0 SWAP1 SLOAD SWAP1 PUSH2 0x100 EXP SWAP1 DIV PUSH20 0xFFFFFFFFFFFFFFFFFFFFFFFFFFFFFFFFFFFFFFFF AND SWAP1 POP DUP2 PUSH0 PUSH0 PUSH2 0x100 EXP DUP2 SLOAD DUP2 PUSH20 0xFFFFFFFFFFFFFFFFFFFFFFFFFFFFFFFFFFFFFFFF MUL NOT AND SWAP1 DUP4 PUSH20 0xFFFFFFFFFFFFFFFFFFFFFFFFFFFFFFFFFFFFFFFF AND MUL OR SWAP1 SSTORE POP DUP2 PUSH20 0xFFFFFFFFFFFFFFFFFFFFFFFFFFFFFFFFFFFFFFFF AND DUP2 PUSH20 0xFFFFFFFFFFFFFFFFFFFFFFFFFFFFFFFFFFFFFFFF AND PUSH32 0x8BE0079C531659141344CD1FD0A4F28419497F9722A3DAAFE3B4186F6B6457E0 PUSH1 0x40 MLOAD PUSH1 0x40 MLOAD DUP1 SWAP2 SUB SWAP1 LOG3 POP POP JUMP JUMPDEST PUSH0 PUSH20 0xFFFFFFFFFFFFFFFFFFFFFFFFFFFFFFFFFFFFFFFF DUP3 AND SWAP1 POP SWAP2 SWAP1 POP JUMP JUMPDEST PUSH0 PUSH2 0x180 DUP3 PUSH2 0x157 JUMP JUMPDEST SWAP1 POP SWAP2 SWAP1 POP JUMP JUMPDEST PUSH2 0x190 DUP2 PUSH2 0x176 JUMP JUMPDEST DUP3 MSTORE POP POP JUMP JUMPDEST PUSH0 PUSH1 0x20 DUP3 ADD SWAP1 POP PUSH2 0x1A9 PUSH0 DUP4 ADD DUP5 PUSH2 0x187 JUMP JUMPDEST SWAP3 SWAP2 POP POP JUMP JUMPDEST PUSH2 0x177F DUP1 PUSH2 0x1BC PUSH0 CODECOPY PUSH0 RETURN INVALID PUSH1 0x80 PUSH1 0x40 MSTORE CALLVALUE DUP1 ISZERO PUSH2 0xF JUMPI PUSH0 PUSH0 REVERT JUMPDEST POP PUSH1 0x4 CALLDATASIZE LT PUSH2 0xA7 JUMPI PUSH0 CALLDATALOAD PUSH1 0xE0 SHR DUP1 PUSH4 0x779900B4 GT PUSH2 0x6F JUMPI DUP1 PUSH4 0x779900B4 EQ PUSH2 0x13B JUMPI DUP1 PUSH4 0x86533F6C EQ PUSH2 0x159 JUMPI DUP1 PUSH4 0x8D977672 EQ PUSH2 0x175 JUMPI DUP1 PUSH4 0x8DA5CB5B EQ PUSH2 0x1A7 JUMPI DUP1 PUSH4 0xB6CB58A5 EQ PUSH2 0x1C5 JUMPI DUP1 PUSH4 0xF2FDE38B EQ PUSH2 0x1E3 JUMPI PUSH2 0xA7 JUMP JUMPDEST DUP1 PUSH4 0x111002AA EQ PUSH2 0xAB JUMPI DUP1 PUSH4 0x1D65E77E EQ PUSH2 0xC7 JUMPI DUP1 PUSH4 0x455F5024 EQ PUSH2 0xF9 JUMPI DUP1 PUSH4 0x560F3192 EQ PUSH2 0x115 JUMPI DUP1 PUSH4 0x715018A6 EQ PUSH2 0x131 JUMPI JUMPDEST PUSH0 PUSH0 REVERT JUMPDEST PUSH2 0xC5 PUSH1 0x4 DUP1 CALLDATASIZE SUB DUP2 ADD SWAP1 PUSH2 0xC0 SWAP2 SWAP1 PUSH2 0xD3E JUMP JUMPDEST PUSH2 0x1FF JUMP JUMPDEST STOP JUMPDEST PUSH2 0xE1 PUSH1 0x4 DUP1 CALLDATASIZE SUB DUP2 ADD SWAP1 PUSH2 0xDC SWAP2 SWAP1 PUSH2 0xDBC JUMP JUMPDEST PUSH2 0x359 JUMP JUMPDEST PUSH1 0x40 MLOAD PUSH2 0xF0 SWAP4 SWAP3 SWAP2 SWAP1 PUSH2 0xE80 JUMP JUMPDEST PUSH1 0x40 MLOAD DUP1 SWAP2 SUB SWAP1 RETURN JUMPDEST PUSH2 0x113 PUSH1 0x4 DUP1 CALLDATASIZE SUB DUP2 ADD SWAP1 PUSH2 0x10E SWAP2 SWAP1 PUSH2 0xDBC JUMP JUMPDEST PUSH2 0x47F JUMP JUMPDEST STOP JUMPDEST PUSH2 0x12F PUSH1 0x4 DUP1 CALLDATASIZE SUB DUP2 ADD SWAP1 PUSH2 0x12A SWAP2 SWAP1 PUSH2 0xDBC JUMP JUMPDEST PUSH2 0x568 JUMP JUMPDEST STOP JUMPDEST PUSH2 0x139 PUSH2 0x631 JUMP JUMPDEST STOP JUMPDEST PUSH2 0x143 PUSH2 0x644 JUMP JUMPDEST PUSH1 0x40 MLOAD PUSH2 0x150 SWAP2 SWAP1 PUSH2 0x102A JUMP JUMPDEST PUSH1 0x40 MLOAD DUP1 SWAP2 SUB SWAP1 RETURN JUMPDEST PUSH2 0x173 PUSH1 0x4 DUP1 CALLDATASIZE SUB DUP2 ADD SWAP1 PUSH2 0x16E SWAP2 SWAP1 PUSH2 0x104A JUMP JUMPDEST PUSH2 0x89F JUMP JUMPDEST STOP JUMPDEST PUSH2 0x18F PUSH1 0x4 DUP1 CALLDATASIZE SUB DUP2 ADD SWAP1 PUSH2 0x18A SWAP2 SWAP1 PUSH2 0xDBC JUMP JUMPDEST PUSH2 0x9A4 JUMP JUMPDEST PUSH1 0x40 MLOAD PUSH2 0x19E SWAP4 SWAP3 SWAP2 SWAP1 PUSH2 0xE80 JUMP JUMPDEST PUSH1 0x40 MLOAD DUP1 SWAP2 SUB SWAP1 RETURN JUMPDEST PUSH2 0x1AF PUSH2 0xA5C JUMP JUMPDEST PUSH1 0x40 MLOAD PUSH2 0x1BC SWAP2 SWAP1 PUSH2 0x10E6 JUMP JUMPDEST PUSH1 0x40 MLOAD DUP1 SWAP2 SUB SWAP1 RETURN JUMPDEST PUSH2 0x1CD PUSH2 0xA83 JUMP JUMPDEST PUSH1 0x40 MLOAD PUSH2 0x1DA SWAP2 SWAP1 PUSH2 0x10FF JUMP JUMPDEST PUSH1 0x40 MLOAD DUP1 SWAP2 SUB SWAP1 RETURN JUMPDEST PUSH2 0x1FD PUSH1 0x4 DUP1 CALLDATASIZE SUB DUP2 ADD SWAP1 PUSH2 0x1F8 SWAP2 SWAP1 PUSH2 0x1142 JUMP JUMPDEST PUSH2 0xA89 JUMP JUMPDEST STOP JUMPDEST PUSH2 0x207 PUSH2 0xB0D JUMP JUMPDEST PUSH0 DUP3 DUP3 SWAP1 POP GT PUSH2 0x24C JUMPI PUSH1 0x40 MLOAD PUSH32 0x8C379A000000000000000000000000000000000000000000000000000000000 DUP2 MSTORE PUSH1 0x4 ADD PUSH2 0x243 SWAP1 PUSH2 0x11DD JUMP JUMPDEST PUSH1 0x40 MLOAD DUP1 SWAP2 SUB SWAP1 REVERT JUMPDEST PUSH1 0x1 PUSH0 DUP2 SLOAD DUP1 SWAP3 SWAP2 SWAP1 PUSH2 0x25E SWAP1 PUSH2 0x1228 JUMP JUMPDEST SWAP2 SWAP1 POP SSTORE POP PUSH0 PUSH1 0x1 SLOAD SWAP1 POP PUSH1 0x40 MLOAD DUP1 PUSH1 0x60 ADD PUSH1 0x40 MSTORE DUP1 DUP3 DUP2 MSTORE PUSH1 0x20 ADD DUP5 DUP5 DUP1 DUP1 PUSH1 0x1F ADD PUSH1 0x20 DUP1 SWAP2 DIV MUL PUSH1 0x20 ADD PUSH1 0x40 MLOAD SWAP1 DUP2 ADD PUSH1 0x40 MSTORE DUP1 SWAP4 SWAP3 SWAP2 SWAP1 DUP2 DUP2 MSTORE PUSH1 0x20 ADD DUP4 DUP4 DUP1 DUP3 DUP5 CALLDATACOPY PUSH0 DUP2 DUP5 ADD MSTORE PUSH1 0x1F NOT PUSH1 0x1F DUP3 ADD AND SWAP1 POP DUP1 DUP4 ADD SWAP3 POP POP POP POP POP POP POP DUP2 MSTORE PUSH1 0x20 ADD PUSH0 ISZERO ISZERO DUP2 MSTORE POP PUSH1 0x2 PUSH0 DUP4 DUP2 MSTORE PUSH1 0x20 ADD SWAP1 DUP2 MSTORE PUSH1 0x20 ADD PUSH0 KECCAK256 PUSH0 DUP3 ADD MLOAD DUP2 PUSH0 ADD SSTORE PUSH1 0x20 DUP3 ADD MLOAD DUP2 PUSH1 0x1 ADD SWAP1 DUP2 PUSH2 0x2F7 SWAP2 SWAP1 PUSH2 0x1499 JUMP JUMPDEST POP PUSH1 0x40 DUP3 ADD MLOAD DUP2 PUSH1 0x2 ADD PUSH0 PUSH2 0x100 EXP DUP2 SLOAD DUP2 PUSH1 0xFF MUL NOT AND SWAP1 DUP4 ISZERO ISZERO MUL OR SWAP1 SSTORE POP SWAP1 POP POP DUP1 PUSH32 0xA5ED9E6226C584326505694539C95CB0E3238AE09BCDA5A65C00BBFDAB1C6662 DUP5 DUP5 PUSH1 0x40 MLOAD PUSH2 0x34C SWAP3 SWAP2 SWAP1 PUSH2 0x15A2 JUMP JUMPDEST PUSH1 0x40 MLOAD DUP1 SWAP2 SUB SWAP1 LOG2 POP POP POP JUMP JUMPDEST PUSH0 PUSH1 0x60 PUSH0 PUSH2 0x365 PUSH2 0xB0D JUMP JUMPDEST PUSH0 PUSH1 0x2 PUSH0 DUP7 DUP2 MSTORE PUSH1 0x20 ADD SWAP1 DUP2 MSTORE PUSH1 0x20 ADD PUSH0 KECCAK256 PUSH0 ADD SLOAD SUB PUSH2 0x3BA JUMPI PUSH1 0x40 MLOAD PUSH32 0x8C379A000000000000000000000000000000000000000000000000000000000 DUP2 MSTORE PUSH1 0x4 ADD PUSH2 0x3B1 SWAP1 PUSH2 0x160E JUMP JUMPDEST PUSH1 0x40 MLOAD DUP1 SWAP2 SUB SWAP1 REVERT JUMPDEST PUSH0 PUSH1 0x2 PUSH0 DUP7 DUP2 MSTORE PUSH1 0x20 ADD SWAP1 DUP2 MSTORE PUSH1 0x20 ADD PUSH0 KECCAK256 SWAP1 POP DUP1 PUSH0 ADD SLOAD DUP2 PUSH1 0x1 ADD DUP3 PUSH1 0x2 ADD PUSH0 SWAP1 SLOAD SWAP1 PUSH2 0x100 EXP SWAP1 DIV PUSH1 0xFF AND DUP2 DUP1 SLOAD PUSH2 0x3F3 SWAP1 PUSH2 0x12C9 JUMP JUMPDEST DUP1 PUSH1 0x1F ADD PUSH1 0x20 DUP1 SWAP2 DIV MUL PUSH1 0x20 ADD PUSH1 0x40 MLOAD SWAP1 DUP2 ADD PUSH1 0x40 MSTORE DUP1 SWAP3 SWAP2 SWAP1 DUP2 DUP2 MSTORE PUSH1 0x20 ADD DUP3 DUP1 SLOAD PUSH2 0x41F SWAP1 PUSH2 0x12C9 JUMP JUMPDEST DUP1 ISZERO PUSH2 0x46A JUMPI DUP1 PUSH1 0x1F LT PUSH2 0x441 JUMPI PUSH2 0x100 DUP1 DUP4 SLOAD DIV MUL DUP4 MSTORE SWAP2 PUSH1 0x20 ADD SWAP2 PUSH2 0x46A JUMP JUMPDEST DUP3 ADD SWAP2 SWAP1 PUSH0 MSTORE PUSH1 0x20 PUSH0 KECCAK256 SWAP1 JUMPDEST DUP2 SLOAD DUP2 MSTORE SWAP1 PUSH1 0x1 ADD SWAP1 PUSH1 0x20 ADD DUP1 DUP4 GT PUSH2 0x44D JUMPI DUP3 SWAP1 SUB PUSH1 0x1F AND DUP3 ADD SWAP2 JUMPDEST POP POP POP POP POP SWAP2 POP SWAP4 POP SWAP4 POP SWAP4 POP POP SWAP2 SWAP4 SWAP1 SWAP3 POP JUMP JUMPDEST PUSH2 0x487 PUSH2 0xB0D JUMP JUMPDEST PUSH0 PUSH1 0x2 PUSH0 DUP4 DUP2 MSTORE PUSH1 0x20 ADD SWAP1 DUP2 MSTORE PUSH1 0x20 ADD PUSH0 KECCAK256 PUSH0 ADD SLOAD SUB PUSH2 0x4DC JUMPI PUSH1 0x40 MLOAD PUSH32 0x8C379A000000000000000000000000000000000000000000000000000000000 DUP2 MSTORE PUSH1 0x4 ADD PUSH2 0x4D3 SWAP1 PUSH2 0x160E JUMP JUMPDEST PUSH1 0x40 MLOAD DUP1 SWAP2 SUB SWAP1 REVERT JUMPDEST PUSH0 PUSH1 0x2 PUSH0 DUP4 DUP2 MSTORE PUSH1 0x20 ADD SWAP1 DUP2 MSTORE PUSH1 0x20 ADD PUSH0 KECCAK256 SWAP1 POP DUP1 PUSH1 0x2 ADD PUSH0 SWAP1 SLOAD SWAP1 PUSH2 0x100 EXP SWAP1 DIV PUSH1 0xFF AND ISZERO DUP2 PUSH1 0x2 ADD PUSH0 PUSH2 0x100 EXP DUP2 SLOAD DUP2 PUSH1 0xFF MUL NOT AND SWAP1 DUP4 ISZERO ISZERO MUL OR SWAP1 SSTORE POP DUP2 PUSH32 0xE21FA966CA5CD02748C0752352D18C48165E61CB55B4C29CCCF924B5A95FCFF1 DUP3 PUSH1 0x2 ADD PUSH0 SWAP1 SLOAD SWAP1 PUSH2 0x100 EXP SWAP1 DIV PUSH1 0xFF AND PUSH1 0x40 MLOAD PUSH2 0x55C SWAP2 SWAP1 PUSH2 0x162C JUMP JUMPDEST PUSH1 0x40 MLOAD DUP1 SWAP2 SUB SWAP1 LOG2 POP POP JUMP JUMPDEST PUSH2 0x570 PUSH2 0xB0D JUMP JUMPDEST PUSH0 PUSH1 0x2 PUSH0 DUP4 DUP2 MSTORE PUSH1 0x20 ADD SWAP1 DUP2 MSTORE PUSH1 0x20 ADD PUSH0 KECCAK256 PUSH0 ADD SLOAD SUB PUSH2 0x5C5 JUMPI PUSH1 0x40 MLOAD PUSH32 0x8C379A000000000000000000000000000000000000000000000000000000000 DUP2 MSTORE PUSH1 0x4 ADD PUSH2 0x5BC SWAP1 PUSH2 0x160E JUMP JUMPDEST PUSH1 0x40 MLOAD DUP1 SWAP2 SUB SWAP1 REVERT JUMPDEST PUSH1 0x2 PUSH0 DUP3 DUP2 MSTORE PUSH1 0x20 ADD SWAP1 DUP2 MSTORE PUSH1 0x20 ADD PUSH0 KECCAK256 PUSH0 PUSH0 DUP3 ADD PUSH0 SWAP1 SSTORE PUSH1 0x1 DUP3 ADD PUSH0 PUSH2 0x5EC SWAP2 SWAP1 PUSH2 0xC5C JUMP JUMPDEST PUSH1 0x2 DUP3 ADD PUSH0 PUSH2 0x100 EXP DUP2 SLOAD SWAP1 PUSH1 0xFF MUL NOT AND SWAP1 SSTORE POP POP DUP1 PUSH32 0xD078B251D950CC55C44340BE1DB732337EF4939A76E1367EE271AD2CB19C46AF PUSH1 0x40 MLOAD PUSH1 0x40 MLOAD DUP1 SWAP2 SUB SWAP1 LOG2 POP JUMP JUMPDEST PUSH2 0x639 PUSH2 0xB0D JUMP JUMPDEST PUSH2 0x642 PUSH0 PUSH2 0xB94 JUMP JUMPDEST JUMP JUMPDEST PUSH1 0x60 PUSH2 0x64E PUSH2 0xB0D JUMP JUMPDEST PUSH0 PUSH0 SWAP1 POP PUSH0 PUSH1 0x1 SWAP1 POP JUMPDEST PUSH1 0x1 SLOAD DUP2 GT PUSH2 0x69D JUMPI PUSH0 PUSH1 0x2 PUSH0 DUP4 DUP2 MSTORE PUSH1 0x20 ADD SWAP1 DUP2 MSTORE PUSH1 0x20 ADD PUSH0 KECCAK256 PUSH0 ADD SLOAD EQ PUSH2 0x68A JUMPI DUP2 DUP1 PUSH2 0x686 SWAP1 PUSH2 0x1228 JUMP JUMPDEST SWAP3 POP POP JUMPDEST DUP1 DUP1 PUSH2 0x695 SWAP1 PUSH2 0x1228 JUMP JUMPDEST SWAP2 POP POP PUSH2 0x658 JUMP JUMPDEST POP PUSH0 DUP2 SUB PUSH2 0x701 JUMPI PUSH0 PUSH8 0xFFFFFFFFFFFFFFFF DUP2 GT ISZERO PUSH2 0x6BF JUMPI PUSH2 0x6BE PUSH2 0x126F JUMP JUMPDEST JUMPDEST PUSH1 0x40 MLOAD SWAP1 DUP1 DUP3 MSTORE DUP1 PUSH1 0x20 MUL PUSH1 0x20 ADD DUP3 ADD PUSH1 0x40 MSTORE DUP1 ISZERO PUSH2 0x6F8 JUMPI DUP2 PUSH1 0x20 ADD JUMPDEST PUSH2 0x6E5 PUSH2 0xC99 JUMP JUMPDEST DUP2 MSTORE PUSH1 0x20 ADD SWAP1 PUSH1 0x1 SWAP1 SUB SWAP1 DUP2 PUSH2 0x6DD JUMPI SWAP1 POP JUMPDEST POP SWAP2 POP POP PUSH2 0x89C JUMP JUMPDEST PUSH0 DUP2 PUSH8 0xFFFFFFFFFFFFFFFF DUP2 GT ISZERO PUSH2 0x71C JUMPI PUSH2 0x71B PUSH2 0x126F JUMP JUMPDEST JUMPDEST PUSH1 0x40 MLOAD SWAP1 DUP1 DUP3 MSTORE DUP1 PUSH1 0x20 MUL PUSH1 0x20 ADD DUP3 ADD PUSH1 0x40 MSTORE DUP1 ISZERO PUSH2 0x755 JUMPI DUP2 PUSH1 0x20 ADD JUMPDEST PUSH2 0x742 PUSH2 0xC99 JUMP JUMPDEST DUP2 MSTORE PUSH1 0x20 ADD SWAP1 PUSH1 0x1 SWAP1 SUB SWAP1 DUP2 PUSH2 0x73A JUMPI SWAP1 POP JUMPDEST POP SWAP1 POP PUSH0 PUSH0 SWAP1 POP PUSH0 PUSH1 0x1 SWAP1 POP JUMPDEST PUSH1 0x1 SLOAD DUP2 GT PUSH2 0x894 JUMPI PUSH0 PUSH1 0x2 PUSH0 DUP4 DUP2 MSTORE PUSH1 0x20 ADD SWAP1 DUP2 MSTORE PUSH1 0x20 ADD PUSH0 KECCAK256 PUSH0 ADD SLOAD EQ PUSH2 0x881 JUMPI PUSH1 0x2 PUSH0 DUP3 DUP2 MSTORE PUSH1 0x20 ADD SWAP1 DUP2 MSTORE PUSH1 0x20 ADD PUSH0 KECCAK256 PUSH1 0x40 MLOAD DUP1 PUSH1 0x60 ADD PUSH1 0x40 MSTORE SWAP1 DUP2 PUSH0 DUP3 ADD SLOAD DUP2 MSTORE PUSH1 0x20 ADD PUSH1 0x1 DUP3 ADD DUP1 SLOAD PUSH2 0x7BA SWAP1 PUSH2 0x12C9 JUMP JUMPDEST DUP1 PUSH1 0x1F ADD PUSH1 0x20 DUP1 SWAP2 DIV MUL PUSH1 0x20 ADD PUSH1 0x40 MLOAD SWAP1 DUP2 ADD PUSH1 0x40 MSTORE DUP1 SWAP3 SWAP2 SWAP1 DUP2 DUP2 MSTORE PUSH1 0x20 ADD DUP3 DUP1 SLOAD PUSH2 0x7E6 SWAP1 PUSH2 0x12C9 JUMP JUMPDEST DUP1 ISZERO PUSH2 0x831 JUMPI DUP1 PUSH1 0x1F LT PUSH2 0x808 JUMPI PUSH2 0x100 DUP1 DUP4 SLOAD DIV MUL DUP4 MSTORE SWAP2 PUSH1 0x20 ADD SWAP2 PUSH2 0x831 JUMP JUMPDEST DUP3 ADD SWAP2 SWAP1 PUSH0 MSTORE PUSH1 0x20 PUSH0 KECCAK256 SWAP1 JUMPDEST DUP2 SLOAD DUP2 MSTORE SWAP1 PUSH1 0x1 ADD SWAP1 PUSH1 0x20 ADD DUP1 DUP4 GT PUSH2 0x814 JUMPI DUP3 SWAP1 SUB PUSH1 0x1F AND DUP3 ADD SWAP2 JUMPDEST POP POP POP POP POP DUP2 MSTORE PUSH1 0x20 ADD PUSH1 0x2 DUP3 ADD PUSH0 SWAP1 SLOAD SWAP1 PUSH2 0x100 EXP SWAP1 DIV PUSH1 0xFF AND ISZERO ISZERO ISZERO ISZERO DUP2 MSTORE POP POP DUP4 DUP4 DUP2 MLOAD DUP2 LT PUSH2 0x867 JUMPI PUSH2 0x866 PUSH2 0x1645 JUMP JUMPDEST JUMPDEST PUSH1 0x20 MUL PUSH1 0x20 ADD ADD DUP2 SWAP1 MSTORE POP DUP2 DUP1 PUSH2 0x87D SWAP1 PUSH2 0x1228 JUMP JUMPDEST SWAP3 POP POP JUMPDEST DUP1 DUP1 PUSH2 0x88C SWAP1 PUSH2 0x1228 JUMP JUMPDEST SWAP2 POP POP PUSH2 0x762 JUMP JUMPDEST POP DUP2 SWAP4 POP POP POP POP JUMPDEST SWAP1 JUMP JUMPDEST PUSH2 0x8A7 PUSH2 0xB0D JUMP JUMPDEST PUSH0 DUP3 DUP3 SWAP1 POP GT PUSH2 0x8EC JUMPI PUSH1 0x40 MLOAD PUSH32 0x8C379A000000000000000000000000000000000000000000000000000000000 DUP2 MSTORE PUSH1 0x4 ADD PUSH2 0x8E3 SWAP1 PUSH2 0x11DD JUMP JUMPDEST PUSH1 0x40 MLOAD DUP1 SWAP2 SUB SWAP1 REVERT JUMPDEST PUSH0 PUSH1 0x2 PUSH0 DUP6 DUP2 MSTORE PUSH1 0x20 ADD SWAP1 DUP2 MSTORE PUSH1 0x20 ADD PUSH0 KECCAK256 PUSH0 ADD SLOAD SUB PUSH2 0x941 JUMPI PUSH1 0x40 MLOAD PUSH32 0x8C379A000000000000000000000000000000000000000000000000000000000 DUP2 MSTORE PUSH1 0x4 ADD PUSH2 0x938 SWAP1 PUSH2 0x160E JUMP JUMPDEST PUSH1 0x40 MLOAD DUP1 SWAP2 SUB SWAP1 REVERT JUMPDEST DUP2 DUP2 PUSH1 0x2 PUSH0 DUP7 DUP2 MSTORE PUSH1 0x20 ADD SWAP1 DUP2 MSTORE PUSH1 0x20 ADD PUSH0 KECCAK256 PUSH1 0x1 ADD SWAP2 DUP3 PUSH2 0x964 SWAP3 SWAP2 SWAP1 PUSH2 0x167C JUMP JUMPDEST POP DUP3 PUSH32 0x39FDC01494598BDE3E34A388ABD0032D3EAFBD917B56D7572771DA5146D27793 DUP4 DUP4 PUSH1 0x40 MLOAD PUSH2 0x997 SWAP3 SWAP2 SWAP1 PUSH2 0x15A2 JUMP JUMPDEST PUSH1 0x40 MLOAD DUP1 SWAP2 SUB SWAP1 LOG2 POP POP POP JUMP JUMPDEST PUSH1 0x2 PUSH1 0x20 MSTORE DUP1 PUSH0 MSTORE PUSH1 0x40 PUSH0 KECCAK256 PUSH0 SWAP2 POP SWAP1 POP DUP1 PUSH0 ADD SLOAD SWAP1 DUP1 PUSH1 0x1 ADD DUP1 SLOAD PUSH2 0x9C9 SWAP1 PUSH2 0x12C9 JUMP JUMPDEST DUP1 PUSH1 0x1F ADD PUSH1 0x20 DUP1 SWAP2 DIV MUL PUSH1 0x20 ADD PUSH1 0x40 MLOAD SWAP1 DUP2 ADD PUSH1 0x40 MSTORE DUP1 SWAP3 SWAP2 SWAP1 DUP2 DUP2 MSTORE PUSH1 0x20 ADD DUP3 DUP1 SLOAD PUSH2 0x9F5 SWAP1 PUSH2 0x12C9 JUMP JUMPDEST DUP1 ISZERO PUSH2 0xA40 JUMPI DUP1 PUSH1 0x1F LT PUSH2 0xA17 JUMPI PUSH2 0x100 DUP1 DUP4 SLOAD DIV MUL DUP4 MSTORE SWAP2 PUSH1 0x20 ADD SWAP2 PUSH2 0xA40 JUMP JUMPDEST DUP3 ADD SWAP2 SWAP1 PUSH0 MSTORE PUSH1 0x20 PUSH0 KECCAK256 SWAP1 JUMPDEST DUP2 SLOAD DUP2 MSTORE SWAP1 PUSH1 0x1 ADD SWAP1 PUSH1 0x20 ADD DUP1 DUP4 GT PUSH2 0xA23 JUMPI DUP3 SWAP1 SUB PUSH1 0x1F AND DUP3 ADD SWAP2 JUMPDEST POP POP POP POP POP SWAP1 DUP1 PUSH1 0x2 ADD PUSH0 SWAP1 SLOAD SWAP1 PUSH2 0x100 EXP SWAP1 DIV PUSH1 0xFF AND SWAP1 POP DUP4 JUMP JUMPDEST PUSH0 PUSH0 PUSH0 SWAP1 SLOAD SWAP1 PUSH2 0x100 EXP SWAP1 DIV PUSH20 0xFFFFFFFFFFFFFFFFFFFFFFFFFFFFFFFFFFFFFFFF AND SWAP1 POP SWAP1 JUMP JUMPDEST PUSH1 0x1 SLOAD DUP2 JUMP JUMPDEST PUSH2 0xA91 PUSH2 0xB0D JUMP JUMPDEST PUSH0 PUSH20 0xFFFFFFFFFFFFFFFFFFFFFFFFFFFFFFFFFFFFFFFF AND DUP2 PUSH20 0xFFFFFFFFFFFFFFFFFFFFFFFFFFFFFFFFFFFFFFFF AND SUB PUSH2 0xB01 JUMPI PUSH0 PUSH1 0x40 MLOAD PUSH32 0x1E4FBDF700000000000000000000000000000000000000000000000000000000 DUP2 MSTORE PUSH1 0x4 ADD PUSH2 0xAF8 SWAP2 SWAP1 PUSH2 0x10E6 JUMP JUMPDEST PUSH1 0x40 MLOAD DUP1 SWAP2 SUB SWAP1 REVERT JUMPDEST PUSH2 0xB0A DUP2 PUSH2 0xB94 JUMP JUMPDEST POP JUMP JUMPDEST PUSH2 0xB15 PUSH2 0xC55 JUMP JUMPDEST PUSH20 0xFFFFFFFFFFFFFFFFFFFFFFFFFFFFFFFFFFFFFFFF AND PUSH2 0xB33 PUSH2 0xA5C JUMP JUMPDEST PUSH20 0xFFFFFFFFFFFFFFFFFFFFFFFFFFFFFFFFFFFFFFFF AND EQ PUSH2 0xB92 JUMPI PUSH2 0xB56 PUSH2 0xC55 JUMP JUMPDEST PUSH1 0x40 MLOAD PUSH32 0x118CDAA700000000000000000000000000000000000000000000000000000000 DUP2 MSTORE PUSH1 0x4 ADD PUSH2 0xB89 SWAP2 SWAP1 PUSH2 0x10E6 JUMP JUMPDEST PUSH1 0x40 MLOAD DUP1 SWAP2 SUB SWAP1 REVERT JUMPDEST JUMP JUMPDEST PUSH0 PUSH0 PUSH0 SWAP1 SLOAD SWAP1 PUSH2 0x100 EXP SWAP1 DIV PUSH20 0xFFFFFFFFFFFFFFFFFFFFFFFFFFFFFFFFFFFFFFFF AND SWAP1 POP DUP2 PUSH0 PUSH0 PUSH2 0x100 EXP DUP2 SLOAD DUP2 PUSH20 0xFFFFFFFFFFFFFFFFFFFFFFFFFFFFFFFFFFFFFFFF MUL NOT AND SWAP1 DUP4 PUSH20 0xFFFFFFFFFFFFFFFFFFFFFFFFFFFFFFFFFFFFFFFF AND MUL OR SWAP1 SSTORE POP DUP2 PUSH20 0xFFFFFFFFFFFFFFFFFFFFFFFFFFFFFFFFFFFFFFFF AND DUP2 PUSH20 0xFFFFFFFFFFFFFFFFFFFFFFFFFFFFFFFFFFFFFFFF AND PUSH32 0x8BE0079C531659141344CD1FD0A4F28419497F9722A3DAAFE3B4186F6B6457E0 PUSH1 0x40 MLOAD PUSH1 0x40 MLOAD DUP1 SWAP2 SUB SWAP1 LOG3 POP POP JUMP JUMPDEST PUSH0 CALLER SWAP1 POP SWAP1 JUMP JUMPDEST POP DUP1 SLOAD PUSH2 0xC68 SWAP1 PUSH2 0x12C9 JUMP JUMPDEST PUSH0 DUP3 SSTORE DUP1 PUSH1 0x1F LT PUSH2 0xC79 JUMPI POP PUSH2 0xC96 JUMP JUMPDEST PUSH1 0x1F ADD PUSH1 0x20 SWAP1 DIV SWAP1 PUSH0 MSTORE PUSH1 0x20 PUSH0 KECCAK256 SWAP1 DUP2 ADD SWAP1 PUSH2 0xC95 SWAP2 SWAP1 PUSH2 0xCBA JUMP JUMPDEST JUMPDEST POP JUMP JUMPDEST PUSH1 0x40 MLOAD DUP1 PUSH1 0x60 ADD PUSH1 0x40 MSTORE DUP1 PUSH0 DUP2 MSTORE PUSH1 0x20 ADD PUSH1 0x60 DUP2 MSTORE PUSH1 0x20 ADD PUSH0 ISZERO ISZERO DUP2 MSTORE POP SWAP1 JUMP JUMPDEST JUMPDEST DUP1 DUP3 GT ISZERO PUSH2 0xCD1 JUMPI PUSH0 DUP2 PUSH0 SWAP1 SSTORE POP PUSH1 0x1 ADD PUSH2 0xCBB JUMP JUMPDEST POP SWAP1 JUMP JUMPDEST PUSH0 PUSH0 REVERT JUMPDEST PUSH0 PUSH0 REVERT JUMPDEST PUSH0 PUSH0 REVERT JUMPDEST PUSH0 PUSH0 REVERT JUMPDEST PUSH0 PUSH0 REVERT JUMPDEST PUSH0 PUSH0 DUP4 PUSH1 0x1F DUP5 ADD SLT PUSH2 0xCFE JUMPI PUSH2 0xCFD PUSH2 0xCDD JUMP JUMPDEST JUMPDEST DUP3 CALLDATALOAD SWAP1 POP PUSH8 0xFFFFFFFFFFFFFFFF DUP2 GT ISZERO PUSH2 0xD1B JUMPI PUSH2 0xD1A PUSH2 0xCE1 JUMP JUMPDEST JUMPDEST PUSH1 0x20 DUP4 ADD SWAP2 POP DUP4 PUSH1 0x1 DUP3 MUL DUP4 ADD GT ISZERO PUSH2 0xD37 JUMPI PUSH2 0xD36 PUSH2 0xCE5 JUMP JUMPDEST JUMPDEST SWAP3 POP SWAP3 SWAP1 POP JUMP JUMPDEST PUSH0 PUSH0 PUSH1 0x20 DUP4 DUP6 SUB SLT ISZERO PUSH2 0xD54 JUMPI PUSH2 0xD53 PUSH2 0xCD5 JUMP JUMPDEST JUMPDEST PUSH0 DUP4 ADD CALLDATALOAD PUSH8 0xFFFFFFFFFFFFFFFF DUP2 GT ISZERO PUSH2 0xD71 JUMPI PUSH2 0xD70 PUSH2 0xCD9 JUMP JUMPDEST JUMPDEST PUSH2 0xD7D DUP6 DUP3 DUP7 ADD PUSH2 0xCE9 JUMP JUMPDEST SWAP3 POP SWAP3 POP POP SWAP3 POP SWAP3 SWAP1 POP JUMP JUMPDEST PUSH0 DUP2 SWAP1 POP SWAP2 SWAP1 POP JUMP JUMPDEST PUSH2 0xD9B DUP2 PUSH2 0xD89 JUMP JUMPDEST DUP2 EQ PUSH2 0xDA5 JUMPI PUSH0 PUSH0 REVERT JUMPDEST POP JUMP JUMPDEST PUSH0 DUP2 CALLDATALOAD SWAP1 POP PUSH2 0xDB6 DUP2 PUSH2 0xD92 JUMP JUMPDEST SWAP3 SWAP2 POP POP JUMP JUMPDEST PUSH0 PUSH1 0x20 DUP3 DUP5 SUB SLT ISZERO PUSH2 0xDD1 JUMPI PUSH2 0xDD0 PUSH2 0xCD5 JUMP JUMPDEST JUMPDEST PUSH0 PUSH2 0xDDE DUP5 DUP3 DUP6 ADD PUSH2 0xDA8 JUMP JUMPDEST SWAP2 POP POP SWAP3 SWAP2 POP POP JUMP JUMPDEST PUSH2 0xDF0 DUP2 PUSH2 0xD89 JUMP JUMPDEST DUP3 MSTORE POP POP JUMP JUMPDEST PUSH0 DUP2 MLOAD SWAP1 POP SWAP2 SWAP1 POP JUMP JUMPDEST PUSH0 DUP3 DUP3 MSTORE PUSH1 0x20 DUP3 ADD SWAP1 POP SWAP3 SWAP2 POP POP JUMP JUMPDEST DUP3 DUP2 DUP4 MCOPY PUSH0 DUP4 DUP4 ADD MSTORE POP POP POP JUMP JUMPDEST PUSH0 PUSH1 0x1F NOT PUSH1 0x1F DUP4 ADD AND SWAP1 POP SWAP2 SWAP1 POP JUMP JUMPDEST PUSH0 PUSH2 0xE38 DUP3 PUSH2 0xDF6 JUMP JUMPDEST PUSH2 0xE42 DUP2 DUP6 PUSH2 0xE00 JUMP JUMPDEST SWAP4 POP PUSH2 0xE52 DUP2 DUP6 PUSH1 0x20 DUP7 ADD PUSH2 0xE10 JUMP JUMPDEST PUSH2 0xE5B DUP2 PUSH2 0xE1E JUMP JUMPDEST DUP5 ADD SWAP2 POP POP SWAP3 SWAP2 POP POP JUMP JUMPDEST PUSH0 DUP2 ISZERO ISZERO SWAP1 POP SWAP2 SWAP1 POP JUMP JUMPDEST PUSH2 0xE7A DUP2 PUSH2 0xE66 JUMP JUMPDEST DUP3 MSTORE POP POP JUMP JUMPDEST PUSH0 PUSH1 0x60 DUP3 ADD SWAP1 POP PUSH2 0xE93 PUSH0 DUP4 ADD DUP7 PUSH2 0xDE7 JUMP JUMPDEST DUP2 DUP2 SUB PUSH1 0x20 DUP4 ADD MSTORE PUSH2 0xEA5 DUP2 DUP6 PUSH2 0xE2E JUMP JUMPDEST SWAP1 POP PUSH2 0xEB4 PUSH1 0x40 DUP4 ADD DUP5 PUSH2 0xE71 JUMP JUMPDEST SWAP5 SWAP4 POP POP POP POP JUMP JUMPDEST PUSH0 DUP2 MLOAD SWAP1 POP SWAP2 SWAP1 POP JUMP JUMPDEST PUSH0 DUP3 DUP3 MSTORE PUSH1 0x20 DUP3 ADD SWAP1 POP SWAP3 SWAP2 POP POP JUMP JUMPDEST PUSH0 DUP2 SWAP1 POP PUSH1 0x20 DUP3 ADD SWAP1 POP SWAP2 SWAP1 POP JUMP JUMPDEST PUSH2 0xEEE DUP2 PUSH2 0xD89 JUMP JUMPDEST DUP3 MSTORE POP POP JUMP JUMPDEST PUSH0 DUP3 DUP3 MSTORE PUSH1 0x20 DUP3 ADD SWAP1 POP SWAP3 SWAP2 POP POP JUMP JUMPDEST PUSH0 PUSH2 0xF0E DUP3 PUSH2 0xDF6 JUMP JUMPDEST PUSH2 0xF18 DUP2 DUP6 PUSH2 0xEF4 JUMP JUMPDEST SWAP4 POP PUSH2 0xF28 DUP2 DUP6 PUSH1 0x20 DUP7 ADD PUSH2 0xE10 JUMP JUMPDEST PUSH2 0xF31 DUP2 PUSH2 0xE1E JUMP JUMPDEST DUP5 ADD SWAP2 POP POP SWAP3 SWAP2 POP POP JUMP JUMPDEST PUSH2 0xF45 DUP2 PUSH2 0xE66 JUMP JUMPDEST DUP3 MSTORE POP POP JUMP JUMPDEST PUSH0 PUSH1 0x60 DUP4 ADD PUSH0 DUP4 ADD MLOAD PUSH2 0xF60 PUSH0 DUP7 ADD DUP3 PUSH2 0xEE5 JUMP JUMPDEST POP PUSH1 0x20 DUP4 ADD MLOAD DUP5 DUP3 SUB PUSH1 0x20 DUP7 ADD MSTORE PUSH2 0xF78 DUP3 DUP3 PUSH2 0xF04 JUMP JUMPDEST SWAP2 POP POP PUSH1 0x40 DUP4 ADD MLOAD PUSH2 0xF8D PUSH1 0x40 DUP7 ADD DUP3 PUSH2 0xF3C JUMP JUMPDEST POP DUP1 SWAP2 POP POP SWAP3 SWAP2 POP POP JUMP JUMPDEST PUSH0 PUSH2 0xFA3 DUP4 DUP4 PUSH2 0xF4B JUMP JUMPDEST SWAP1 POP SWAP3 SWAP2 POP POP JUMP JUMPDEST PUSH0 PUSH1 0x20 DUP3 ADD SWAP1 POP SWAP2 SWAP1 POP JUMP JUMPDEST PUSH0 PUSH2 0xFC1 DUP3 PUSH2 0xEBC JUMP JUMPDEST PUSH2 0xFCB DUP2 DUP6 PUSH2 0xEC6 JUMP JUMPDEST SWAP4 POP DUP4 PUSH1 0x20 DUP3 MUL DUP6 ADD PUSH2 0xFDD DUP6 PUSH2 0xED6 JUMP JUMPDEST DUP1 PUSH0 JUMPDEST DUP6 DUP2 LT ISZERO PUSH2 0x1018 JUMPI DUP5 DUP5 SUB DUP10 MSTORE DUP2 MLOAD PUSH2 0xFF9 DUP6 DUP3 PUSH2 0xF98 JUMP JUMPDEST SWAP5 POP PUSH2 0x1004 DUP4 PUSH2 0xFAB JUMP JUMPDEST SWAP3 POP PUSH1 0x20 DUP11 ADD SWAP10 POP POP PUSH1 0x1 DUP2 ADD SWAP1 POP PUSH2 0xFE0 JUMP JUMPDEST POP DUP3 SWAP8 POP DUP8 SWAP6 POP POP POP POP POP POP SWAP3 SWAP2 POP POP JUMP JUMPDEST PUSH0 PUSH1 0x20 DUP3 ADD SWAP1 POP DUP2 DUP2 SUB PUSH0 DUP4 ADD MSTORE PUSH2 0x1042 DUP2 DUP5 PUSH2 0xFB7 JUMP JUMPDEST SWAP1 POP SWAP3 SWAP2 POP POP JUMP JUMPDEST PUSH0 PUSH0 PUSH0 PUSH1 0x40 DUP5 DUP7 SUB SLT ISZERO PUSH2 0x1061 JUMPI PUSH2 0x1060 PUSH2 0xCD5 JUMP JUMPDEST JUMPDEST PUSH0 PUSH2 0x106E DUP7 DUP3 DUP8 ADD PUSH2 0xDA8 JUMP JUMPDEST SWAP4 POP POP PUSH1 0x20 DUP5 ADD CALLDATALOAD PUSH8 0xFFFFFFFFFFFFFFFF DUP2 GT ISZERO PUSH2 0x108F JUMPI PUSH2 0x108E PUSH2 0xCD9 JUMP JUMPDEST JUMPDEST PUSH2 0x109B DUP7 DUP3 DUP8 ADD PUSH2 0xCE9 JUMP JUMPDEST SWAP3 POP SWAP3 POP POP SWAP3 POP SWAP3 POP SWAP3 JUMP JUMPDEST PUSH0 PUSH20 0xFFFFFFFFFFFFFFFFFFFFFFFFFFFFFFFFFFFFFFFF DUP3 AND SWAP1 POP SWAP2 SWAP1 POP JUMP JUMPDEST PUSH0 PUSH2 0x10D0 DUP3 PUSH2 0x10A7 JUMP JUMPDEST SWAP1 POP SWAP2 SWAP1 POP JUMP JUMPDEST PUSH2 0x10E0 DUP2 PUSH2 0x10C6 JUMP JUMPDEST DUP3 MSTORE POP POP JUMP JUMPDEST PUSH0 PUSH1 0x20 DUP3 ADD SWAP1 POP PUSH2 0x10F9 PUSH0 DUP4 ADD DUP5 PUSH2 0x10D7 JUMP JUMPDEST SWAP3 SWAP2 POP POP JUMP JUMPDEST PUSH0 PUSH1 0x20 DUP3 ADD SWAP1 POP PUSH2 0x1112 PUSH0 DUP4 ADD DUP5 PUSH2 0xDE7 JUMP JUMPDEST SWAP3 SWAP2 POP POP JUMP JUMPDEST PUSH2 0x1121 DUP2 PUSH2 0x10C6 JUMP JUMPDEST DUP2 EQ PUSH2 0x112B JUMPI PUSH0 PUSH0 REVERT JUMPDEST POP JUMP JUMPDEST PUSH0 DUP2 CALLDATALOAD SWAP1 POP PUSH2 0x113C DUP2 PUSH2 0x1118 JUMP JUMPDEST SWAP3 SWAP2 POP POP JUMP JUMPDEST PUSH0 PUSH1 0x20 DUP3 DUP5 SUB SLT ISZERO PUSH2 0x1157 JUMPI PUSH2 0x1156 PUSH2 0xCD5 JUMP JUMPDEST JUMPDEST PUSH0 PUSH2 0x1164 DUP5 DUP3 DUP6 ADD PUSH2 0x112E JUMP JUMPDEST SWAP2 POP POP SWAP3 SWAP2 POP POP JUMP JUMPDEST PUSH32 0x546F446F4C697374203A20436F6E74656E742063616E6E6F7420626520656D70 PUSH0 DUP3 ADD MSTORE PUSH32 0x7479000000000000000000000000000000000000000000000000000000000000 PUSH1 0x20 DUP3 ADD MSTORE POP JUMP JUMPDEST PUSH0 PUSH2 0x11C7 PUSH1 0x22 DUP4 PUSH2 0xE00 JUMP JUMPDEST SWAP2 POP PUSH2 0x11D2 DUP3 PUSH2 0x116D JUMP JUMPDEST PUSH1 0x40 DUP3 ADD SWAP1 POP SWAP2 SWAP1 POP JUMP JUMPDEST PUSH0 PUSH1 0x20 DUP3 ADD SWAP1 POP DUP2 DUP2 SUB PUSH0 DUP4 ADD MSTORE PUSH2 0x11F4 DUP2 PUSH2 0x11BB JUMP JUMPDEST SWAP1 POP SWAP2 SWAP1 POP JUMP JUMPDEST PUSH32 0x4E487B7100000000000000000000000000000000000000000000000000000000 PUSH0 MSTORE PUSH1 0x11 PUSH1 0x4 MSTORE PUSH1 0x24 PUSH0 REVERT JUMPDEST PUSH0 PUSH2 0x1232 DUP3 PUSH2 0xD89 JUMP JUMPDEST SWAP2 POP PUSH32 0xFFFFFFFFFFFFFFFFFFFFFFFFFFFFFFFFFFFFFFFFFFFFFFFFFFFFFFFFFFFFFFFF DUP3 SUB PUSH2 0x1264 JUMPI PUSH2 0x1263 PUSH2 0x11FB JUMP JUMPDEST JUMPDEST PUSH1 0x1 DUP3 ADD SWAP1 POP SWAP2 SWAP1 POP JUMP JUMPDEST PUSH32 0x4E487B7100000000000000000000000000000000000000000000000000000000 PUSH0 MSTORE PUSH1 0x41 PUSH1 0x4 MSTORE PUSH1 0x24 PUSH0 REVERT JUMPDEST PUSH32 0x4E487B7100000000000000000000000000000000000000000000000000000000 PUSH0 MSTORE PUSH1 0x22 PUSH1 0x4 MSTORE PUSH1 0x24 PUSH0 REVERT JUMPDEST PUSH0 PUSH1 0x2 DUP3 DIV SWAP1 POP PUSH1 0x1 DUP3 AND DUP1 PUSH2 0x12E0 JUMPI PUSH1 0x7F DUP3 AND SWAP2 POP JUMPDEST PUSH1 0x20 DUP3 LT DUP2 SUB PUSH2 0x12F3 JUMPI PUSH2 0x12F2 PUSH2 0x129C JUMP JUMPDEST JUMPDEST POP SWAP2 SWAP1 POP JUMP JUMPDEST PUSH0 DUP2 SWAP1 POP DUP2 PUSH0 MSTORE PUSH1 0x20 PUSH0 KECCAK256 SWAP1 POP SWAP2 SWAP1 POP JUMP JUMPDEST PUSH0 PUSH1 0x20 PUSH1 0x1F DUP4 ADD DIV SWAP1 POP SWAP2 SWAP1 POP JUMP JUMPDEST PUSH0 DUP3 DUP3 SHL SWAP1 POP SWAP3 SWAP2 POP POP JUMP JUMPDEST PUSH0 PUSH1 0x8 DUP4 MUL PUSH2 0x1355 PUSH32 0xFFFFFFFFFFFFFFFFFFFFFFFFFFFFFFFFFFFFFFFFFFFFFFFFFFFFFFFFFFFFFFFF DUP3 PUSH2 0x131A JUMP JUMPDEST PUSH2 0x135F DUP7 DUP4 PUSH2 0x131A JUMP JUMPDEST SWAP6 POP DUP1 NOT DUP5 AND SWAP4 POP DUP1 DUP7 AND DUP5 OR SWAP3 POP POP POP SWAP4 SWAP3 POP POP POP JUMP JUMPDEST PUSH0 DUP2 SWAP1 POP SWAP2 SWAP1 POP JUMP JUMPDEST PUSH0 PUSH2 0x139A PUSH2 0x1395 PUSH2 0x1390 DUP5 PUSH2 0xD89 JUMP JUMPDEST PUSH2 0x1377 JUMP JUMPDEST PUSH2 0xD89 JUMP JUMPDEST SWAP1 POP SWAP2 SWAP1 POP JUMP JUMPDEST PUSH0 DUP2 SWAP1 POP SWAP2 SWAP1 POP JUMP JUMPDEST PUSH2 0x13B3 DUP4 PUSH2 0x1380 JUMP JUMPDEST PUSH2 0x13C7 PUSH2 0x13BF DUP3 PUSH2 0x13A1 JUMP JUMPDEST DUP5 DUP5 SLOAD PUSH2 0x1326 JUMP JUMPDEST DUP3 SSTORE POP POP POP POP JUMP JUMPDEST PUSH0 PUSH0 SWAP1 POP SWAP1 JUMP JUMPDEST PUSH2 0x13DE PUSH2 0x13CF JUMP JUMPDEST PUSH2 0x13E9 DUP2 DUP5 DUP5 PUSH2 0x13AA JUMP JUMPDEST POP POP POP JUMP JUMPDEST JUMPDEST DUP2 DUP2 LT ISZERO PUSH2 0x140C JUMPI PUSH2 0x1401 PUSH0 DUP3 PUSH2 0x13D6 JUMP JUMPDEST PUSH1 0x1 DUP2 ADD SWAP1 POP PUSH2 0x13EF JUMP JUMPDEST POP POP JUMP JUMPDEST PUSH1 0x1F DUP3 GT ISZERO PUSH2 0x1451 JUMPI PUSH2 0x1422 DUP2 PUSH2 0x12F9 JUMP JUMPDEST PUSH2 0x142B DUP5 PUSH2 0x130B JUMP JUMPDEST DUP2 ADD PUSH1 0x20 DUP6 LT ISZERO PUSH2 0x143A JUMPI DUP2 SWAP1 POP JUMPDEST PUSH2 0x144E PUSH2 0x1446 DUP6 PUSH2 0x130B JUMP JUMPDEST DUP4 ADD DUP3 PUSH2 0x13EE JUMP JUMPDEST POP POP JUMPDEST POP POP POP JUMP JUMPDEST PUSH0 DUP3 DUP3 SHR SWAP1 POP SWAP3 SWAP2 POP POP JUMP JUMPDEST PUSH0 PUSH2 0x1471 PUSH0 NOT DUP5 PUSH1 0x8 MUL PUSH2 0x1456 JUMP JUMPDEST NOT DUP1 DUP4 AND SWAP2 POP POP SWAP3 SWAP2 POP POP JUMP JUMPDEST PUSH0 PUSH2 0x1489 DUP4 DUP4 PUSH2 0x1462 JUMP JUMPDEST SWAP2 POP DUP3 PUSH1 0x2 MUL DUP3 OR SWAP1 POP SWAP3 SWAP2 POP POP JUMP JUMPDEST PUSH2 0x14A2 DUP3 PUSH2 0xDF6 JUMP JUMPDEST PUSH8 0xFFFFFFFFFFFFFFFF DUP2 GT ISZERO PUSH2 0x14BB JUMPI PUSH2 0x14BA PUSH2 0x126F JUMP JUMPDEST JUMPDEST PUSH2 0x14C5 DUP3 SLOAD PUSH2 0x12C9 JUMP JUMPDEST PUSH2 0x14D0 DUP3 DUP3 DUP6 PUSH2 0x1410 JUMP JUMPDEST PUSH0 PUSH1 0x20 SWAP1 POP PUSH1 0x1F DUP4 GT PUSH1 0x1 DUP2 EQ PUSH2 0x1501 JUMPI PUSH0 DUP5 ISZERO PUSH2 0x14EF JUMPI DUP3 DUP8 ADD MLOAD SWAP1 POP JUMPDEST PUSH2 0x14F9 DUP6 DUP3 PUSH2 0x147E JUMP JUMPDEST DUP7 SSTORE POP PUSH2 0x1560 JUMP JUMPDEST PUSH1 0x1F NOT DUP5 AND PUSH2 0x150F DUP7 PUSH2 0x12F9 JUMP JUMPDEST PUSH0 JUMPDEST DUP3 DUP2 LT ISZERO PUSH2 0x1536 JUMPI DUP5 DUP10 ADD MLOAD DUP3 SSTORE PUSH1 0x1 DUP3 ADD SWAP2 POP PUSH1 0x20 DUP6 ADD SWAP5 POP PUSH1 0x20 DUP2 ADD SWAP1 POP PUSH2 0x1511 JUMP JUMPDEST DUP7 DUP4 LT ISZERO PUSH2 0x1553 JUMPI DUP5 DUP10 ADD MLOAD PUSH2 0x154F PUSH1 0x1F DUP10 AND DUP3 PUSH2 0x1462 JUMP JUMPDEST DUP4 SSTORE POP JUMPDEST PUSH1 0x1 PUSH1 0x2 DUP9 MUL ADD DUP9 SSTORE POP POP POP JUMPDEST POP POP POP POP POP POP JUMP JUMPDEST DUP3 DUP2 DUP4 CALLDATACOPY PUSH0 DUP4 DUP4 ADD MSTORE POP POP POP JUMP JUMPDEST PUSH0 PUSH2 0x1581 DUP4 DUP6 PUSH2 0xE00 JUMP JUMPDEST SWAP4 POP PUSH2 0x158E DUP4 DUP6 DUP5 PUSH2 0x1568 JUMP JUMPDEST PUSH2 0x1597 DUP4 PUSH2 0xE1E JUMP JUMPDEST DUP5 ADD SWAP1 POP SWAP4 SWAP3 POP POP POP JUMP JUMPDEST PUSH0 PUSH1 0x20 DUP3 ADD SWAP1 POP DUP2 DUP2 SUB PUSH0 DUP4 ADD MSTORE PUSH2 0x15BB DUP2 DUP5 DUP7 PUSH2 0x1576 JUMP JUMPDEST SWAP1 POP SWAP4 SWAP3 POP POP POP JUMP JUMPDEST PUSH32 0x546F446F4C697374203A205461736B20646F65736E7420657869737400000000 PUSH0 DUP3 ADD MSTORE POP JUMP JUMPDEST PUSH0 PUSH2 0x15F8 PUSH1 0x1C DUP4 PUSH2 0xE00 JUMP JUMPDEST SWAP2 POP PUSH2 0x1603 DUP3 PUSH2 0x15C4 JUMP JUMPDEST PUSH1 0x20 DUP3 ADD SWAP1 POP SWAP2 SWAP1 POP JUMP JUMPDEST PUSH0 PUSH1 0x20 DUP3 ADD SWAP1 POP DUP2 DUP2 SUB PUSH0 DUP4 ADD MSTORE PUSH2 0x1625 DUP2 PUSH2 0x15EC JUMP JUMPDEST SWAP1 POP SWAP2 SWAP1 POP JUMP JUMPDEST PUSH0 PUSH1 0x20 DUP3 ADD SWAP1 POP PUSH2 0x163F PUSH0 DUP4 ADD DUP5 PUSH2 0xE71 JUMP JUMPDEST SWAP3 SWAP2 POP POP JUMP JUMPDEST PUSH32 0x4E487B7100000000000000000000000000000000000000000000000000000000 PUSH0 MSTORE PUSH1 0x32 PUSH1 0x4 MSTORE PUSH1 0x24 PUSH0 REVERT JUMPDEST PUSH0 DUP3 SWAP1 POP SWAP3 SWAP2 POP POP JUMP JUMPDEST PUSH2 0x1686 DUP4 DUP4 PUSH2 0x1672 JUMP JUMPDEST PUSH8 0xFFFFFFFFFFFFFFFF DUP2 GT ISZERO PUSH2 0x169F JUMPI PUSH2 0x169E PUSH2 0x126F JUMP JUMPDEST JUMPDEST PUSH2 0x16A9 DUP3 SLOAD PUSH2 0x12C9 JUMP JUMPDEST PUSH2 0x16B4 DUP3 DUP3 DUP6 PUSH2 0x1410 JUMP JUMPDEST PUSH0 PUSH1 0x1F DUP4 GT PUSH1 0x1 DUP2 EQ PUSH2 0x16E1 JUMPI PUSH0 DUP5 ISZERO PUSH2 0x16CF JUMPI DUP3 DUP8 ADD CALLDATALOAD SWAP1 POP JUMPDEST PUSH2 0x16D9 DUP6 DUP3 PUSH2 0x147E JUMP JUMPDEST DUP7 SSTORE POP PUSH2 0x1740 JUMP JUMPDEST PUSH1 0x1F NOT DUP5 AND PUSH2 0x16EF DUP7 PUSH2 0x12F9 JUMP JUMPDEST PUSH0 JUMPDEST DUP3 DUP2 LT ISZERO PUSH2 0x1716 JUMPI DUP5 DUP10 ADD CALLDATALOAD DUP3 SSTORE PUSH1 0x1 DUP3 ADD SWAP2 POP PUSH1 0x20 DUP6 ADD SWAP5 POP PUSH1 0x20 DUP2 ADD SWAP1 POP PUSH2 0x16F1 JUMP JUMPDEST DUP7 DUP4 LT ISZERO PUSH2 0x1733 JUMPI DUP5 DUP10 ADD CALLDATALOAD PUSH2 0x172F PUSH1 0x1F DUP10 AND DUP3 PUSH2 0x1462 JUMP JUMPDEST DUP4 SSTORE POP JUMPDEST PUSH1 0x1 PUSH1 0x2 DUP9 MUL ADD DUP9 SSTORE POP POP POP JUMPDEST POP POP POP POP POP POP POP JUMP INVALID LOG2 PUSH5 0x6970667358 0x22 SLT KECCAK256 PUSH31 0x5A0253A6DE80B001BD177BF133260BFB8418704377A239BD7D16401ACD5DF9 PUSH5 0x736F6C6343 STOP ADDMOD 0x1E STOP CALLER "
				},
				"gasEstimates": {
					"creation": {
						"codeDepositCost": "1203000",
						"executionCost": "infinite",
						"totalCost": "infinite"
					},
					"external": {
						"createTask(string)": "infinite",
						"deleteTask(uint256)": "infinite",
						"getAllTasks()": "infinite",
						"getTask(uint256)": "infinite",
						"owner()": "2580",
						"renounceOwnership()": "infinite",
						"taskCount()": "2513",
						"tasks(uint256)": "infinite",
						"toggleCompleted(uint256)": "infinite",
						"transferOwnership(address)": "infinite",
						"updateTask(uint256,string)": "infinite"
					}
				},
				"methodIdentifiers": {
					"createTask(string)": "111002aa",
					"deleteTask(uint256)": "560f3192",
					"getAllTasks()": "779900b4",
					"getTask(uint256)": "1d65e77e",
					"owner()": "8da5cb5b",
					"renounceOwnership()": "715018a6",
					"taskCount()": "b6cb58a5",
					"tasks(uint256)": "8d977672",
					"toggleCompleted(uint256)": "455f5024",
					"transferOwnership(address)": "f2fde38b",
					"updateTask(uint256,string)": "86533f6c"
				}
			},
			"storageLayout": {
				"storage": [
					{
						"astId": 8,
						"contract": "contracts/ToDoList.sol:ToDoList",
						"label": "_owner",
						"offset": 0,
						"slot": "0",
						"type": "t_address"
					},
					{
						"astId": 192,
						"contract": "contracts/ToDoList.sol:ToDoList",
						"label": "taskCount",
						"offset": 0,
						"slot": "1",
						"type": "t_uint256"
					},
					{
						"astId": 197,
						"contract": "contracts/ToDoList.sol:ToDoList",
						"label": "tasks",
						"offset": 0,
						"slot": "2",
						"type": "t_mapping(t_uint256,t_struct(Task)190_storage)"
					}
				],
				"types": {
					"t_address": {
						"encoding": "inplace",
						"label": "address",
						"numberOfBytes": "20"
					},
					"t_bool": {
						"encoding": "inplace",
						"label": "bool",
						"numberOfBytes": "1"
					},
					"t_mapping(t_uint256,t_struct(Task)190_storage)": {
						"encoding": "mapping",
						"key": "t_uint256",
						"label": "mapping(uint256 => struct ToDoList.Task)",
						"numberOfBytes": "32",
						"value": "t_struct(Task)190_storage"
					},
					"t_string_storage": {
						"encoding": "bytes",
						"label": "string",
						"numberOfBytes": "32"
					},
					"t_struct(Task)190_storage": {
						"encoding": "inplace",
						"label": "struct ToDoList.Task",
						"members": [
							{
								"astId": 185,
								"contract": "contracts/ToDoList.sol:ToDoList",
								"label": "id",
								"offset": 0,
								"slot": "0",
								"type": "t_uint256"
							},
							{
								"astId": 187,
								"contract": "contracts/ToDoList.sol:ToDoList",
								"label": "content",
								"offset": 0,
								"slot": "1",
								"type": "t_string_storage"
							},
							{
								"astId": 189,
								"contract": "contracts/ToDoList.sol:ToDoList",
								"label": "completed",
								"offset": 0,
								"slot": "2",
								"type": "t_bool"
							}
						],
						"numberOfBytes": "96"
					},
					"t_uint256": {
						"encoding": "inplace",
						"label": "uint256",
						"numberOfBytes": "32"
					}
				}
			},
			"userdoc": {
				"kind": "user",
				"methods": {
					"getTask(uint256)": {
						"notice": "Retrieves task details based on ID."
					},
					"updateTask(uint256,string)": {
						"notice": "Change the content/text of a task. "
					}
				},
				"version": 1
			}
		}
	}
}