{
	"contracts/Todo.sol": {
		"Todo": {
			"abi": [
				{
					"inputs": [],
					"stateMutability": "nonpayable",
					"type": "constructor"
				},
				{
					"anonymous": false,
					"inputs": [
						{
							"indexed": true,
							"internalType": "uint256",
							"name": "id",
							"type": "uint256"
						},
						{
							"indexed": false,
							"internalType": "string",
							"name": "newContent",
							"type": "string"
						}
					],
					"name": "TaskContentUpdated",
					"type": "event"
				},
				{
					"anonymous": false,
					"inputs": [
						{
							"indexed": true,
							"internalType": "uint256",
							"name": "id",
							"type": "uint256"
						},
						{
							"indexed": false,
							"internalType": "string",
							"name": "content",
							"type": "string"
						},
						{
							"indexed": false,
							"internalType": "bool",
							"name": "completed",
							"type": "bool"
						}
					],
					"name": "TaskCreated",
					"type": "event"
				},
				{
					"anonymous": false,
					"inputs": [
						{
							"indexed": true,
							"internalType": "uint256",
							"name": "id",
							"type": "uint256"
						}
					],
					"name": "TaskDeleted",
					"type": "event"
				},
				{
					"anonymous": false,
					"inputs": [
						{
							"indexed": true,
							"internalType": "uint256",
							"name": "id",
							"type": "uint256"
						},
						{
							"indexed": false,
							"internalType": "bool",
							"name": "completed",
							"type": "bool"
						}
					],
					"name": "TaskToggled",
					"type": "event"
				},
				{
					"inputs": [
						{
							"internalType": "string",
							"name": "_content",
							"type": "string"
						}
					],
					"name": "createTask",
					"outputs": [],
					"stateMutability": "nonpayable",
					"type": "function"
				},
				{
					"inputs": [
						{
							"internalType": "uint256",
							"name": "_id",
							"type": "uint256"
						}
					],
					"name": "deleteTask",
					"outputs": [],
					"stateMutability": "nonpayable",
					"type": "function"
				},
				{
					"inputs": [],
					"name": "getAllTasks",
					"outputs": [
						{
							"components": [
								{
									"internalType": "uint256",
									"name": "id",
									"type": "uint256"
								},
								{
									"internalType": "string",
									"name": "content",
									"type": "string"
								},
								{
									"internalType": "bool",
									"name": "completed",
									"type": "bool"
								}
							],
							"internalType": "struct Todo.Task[]",
							"name": "",
							"type": "tuple[]"
						}
					],
					"stateMutability": "view",
					"type": "function"
				},
				{
					"inputs": [
						{
							"internalType": "uint256",
							"name": "_id",
							"type": "uint256"
						}
					],
					"name": "getTask",
					"outputs": [
						{
							"internalType": "uint256",
							"name": "",
							"type": "uint256"
						},
						{
							"internalType": "string",
							"name": "",
							"type": "string"
						},
						{
							"internalType": "bool",
							"name": "",
							"type": "bool"
						}
					],
					"stateMutability": "view",
					"type": "function"
				},
				{
					"inputs": [],
					"name": "owner",
					"outputs": [
						{
							"internalType": "address",
							"name": "",
							"type": "address"
						}
					],
					"stateMutability": "view",
					"type": "function"
				},
				{
					"inputs": [],
					"name": "taskCount",
					"outputs": [
						{
							"internalType": "uint256",
							"name": "",
							"type": "uint256"
						}
					],
					"stateMutability": "view",
					"type": "function"
				},
				{
					"inputs": [
						{
							"internalType": "uint256",
							"name": "",
							"type": "uint256"
						}
					],
					"name": "tasks",
					"outputs": [
						{
							"internalType": "uint256",
							"name": "id",
							"type": "uint256"
						},
						{
							"internalType": "string",
							"name": "content",
							"type": "string"
						},
						{
							"internalType": "bool",
							"name": "completed",
							"type": "bool"
						}
					],
					"stateMutability": "view",
					"type": "function"
				},
				{
					"inputs": [
						{
							"internalType": "uint256",
							"name": "_id",
							"type": "uint256"
						}
					],
					"name": "toggleCompleted",
					"outputs": [],
					"stateMutability": "nonpayable",
					"type": "function"
				},
				{
					"inputs": [
						{
							"internalType": "uint256",
							"name": "_id",
							"type": "uint256"
						},
						{
							"internalType": "string",
							"name": "_newContent",
							"type": "string"
						}
					],
					"name": "updatedTask",
					"outputs": [],
					"stateMutability": "nonpayable",
					"type": "function"
				}
			],
			"devdoc": {
				"kind": "dev",
				"methods": {},
				"version": 1
			},
			"evm": {
				"assembly": "    /* \"contracts/Todo.sol\":61:2835  contract Todo {... */\n  mstore(0x40, 0x80)\n    /* \"contracts/Todo.sol\":406:457  constructor() {... */\n  callvalue\n  dup1\n  iszero\n  tag_1\n  jumpi\n  revert(0x00, 0x00)\ntag_1:\n  pop\n    /* \"contracts/Todo.sol\":439:449  msg.sender */\n  caller\n    /* \"contracts/Todo.sol\":431:436  owner */\n  0x00\n  0x00\n    /* \"contracts/Todo.sol\":431:449  owner = msg.sender */\n  0x0100\n  exp\n  dup2\n  sload\n  dup2\n  0xffffffffffffffffffffffffffffffffffffffff\n  mul\n  not\n  and\n  swap1\n  dup4\n  0xffffffffffffffffffffffffffffffffffffffff\n  and\n  mul\n  or\n  swap1\n  sstore\n  pop\n    /* \"contracts/Todo.sol\":61:2835  contract Todo {... */\n  dataSize(sub_0)\n  dup1\n  dataOffset(sub_0)\n  0x00\n  codecopy\n  0x00\n  return\nstop\n\nsub_0: assembly {\n        /* \"contracts/Todo.sol\":61:2835  contract Todo {... */\n      mstore(0x40, 0x80)\n      callvalue\n      dup1\n      iszero\n      tag_1\n      jumpi\n      revert(0x00, 0x00)\n    tag_1:\n      pop\n      jumpi(tag_2, lt(calldatasize, 0x04))\n      shr(0xe0, calldataload(0x00))\n      dup1\n      0x779900b4\n      gt\n      tag_12\n      jumpi\n      dup1\n      0x779900b4\n      eq\n      tag_7\n      jumpi\n      dup1\n      0x8d977672\n      eq\n      tag_8\n      jumpi\n      dup1\n      0x8da5cb5b\n      eq\n      tag_9\n      jumpi\n      dup1\n      0xb0ac92c2\n      eq\n      tag_10\n      jumpi\n      dup1\n      0xb6cb58a5\n      eq\n      tag_11\n      jumpi\n      jump(tag_2)\n    tag_12:\n      dup1\n      0x111002aa\n      eq\n      tag_3\n      jumpi\n      dup1\n      0x1d65e77e\n      eq\n      tag_4\n      jumpi\n      dup1\n      0x455f5024\n      eq\n      tag_5\n      jumpi\n      dup1\n      0x560f3192\n      eq\n      tag_6\n      jumpi\n    tag_2:\n      revert(0x00, 0x00)\n        /* \"contracts/Todo.sol\":705:1038  function createTask(string calldata _content) external onlyOwner {... */\n    tag_3:\n      tag_13\n      0x04\n      dup1\n      calldatasize\n      sub\n      dup2\n      add\n      swap1\n      tag_14\n      swap2\n      swap1\n      tag_15\n      jump\t// in\n    tag_14:\n      tag_16\n      jump\t// in\n    tag_13:\n      stop\n        /* \"contracts/Todo.sol\":1906:2168  function getTask(uint _id) external view returns(uint, string memory, bool) {... */\n    tag_4:\n      tag_17\n      0x04\n      dup1\n      calldatasize\n      sub\n      dup2\n      add\n      swap1\n      tag_18\n      swap2\n      swap1\n      tag_19\n      jump\t// in\n    tag_18:\n      tag_20\n      jump\t// in\n    tag_17:\n      mload(0x40)\n      tag_21\n      swap4\n      swap3\n      swap2\n      swap1\n      tag_22\n      jump\t// in\n    tag_21:\n      mload(0x40)\n      dup1\n      swap2\n      sub\n      swap1\n      return\n        /* \"contracts/Todo.sol\":1046:1348  function toggleCompleted(uint _id) external onlyOwner {... */\n    tag_5:\n      tag_23\n      0x04\n      dup1\n      calldatasize\n      sub\n      dup2\n      add\n      swap1\n      tag_24\n      swap2\n      swap1\n      tag_19\n      jump\t// in\n    tag_24:\n      tag_25\n      jump\t// in\n    tag_23:\n      stop\n        /* \"contracts/Todo.sol\":1705:1898  function deleteTask(uint _id) external onlyOwner {... */\n    tag_6:\n      tag_26\n      0x04\n      dup1\n      calldatasize\n      sub\n      dup2\n      add\n      swap1\n      tag_27\n      swap2\n      swap1\n      tag_19\n      jump\t// in\n    tag_27:\n      tag_28\n      jump\t// in\n    tag_26:\n      stop\n        /* \"contracts/Todo.sol\":2176:2829  function getAllTasks() external view returns(Task[] memory) {... */\n    tag_7:\n      tag_29\n      tag_30\n      jump\t// in\n    tag_29:\n      mload(0x40)\n      tag_31\n      swap2\n      swap1\n      tag_32\n      jump\t// in\n    tag_31:\n      mload(0x40)\n      dup1\n      swap2\n      sub\n      swap1\n      return\n        /* \"contracts/Todo.sol\":241:275  mapping(uint => Task) public tasks */\n    tag_8:\n      tag_33\n      0x04\n      dup1\n      calldatasize\n      sub\n      dup2\n      add\n      swap1\n      tag_34\n      swap2\n      swap1\n      tag_19\n      jump\t// in\n    tag_34:\n      tag_35\n      jump\t// in\n    tag_33:\n      mload(0x40)\n      tag_36\n      swap4\n      swap3\n      swap2\n      swap1\n      tag_22\n      jump\t// in\n    tag_36:\n      mload(0x40)\n      dup1\n      swap2\n      sub\n      swap1\n      return\n        /* \"contracts/Todo.sol\":184:204  address public owner */\n    tag_9:\n      tag_37\n      tag_38\n      jump\t// in\n    tag_37:\n      mload(0x40)\n      tag_39\n      swap2\n      swap1\n      tag_40\n      jump\t// in\n    tag_39:\n      mload(0x40)\n      dup1\n      swap2\n      sub\n      swap1\n      return\n        /* \"contracts/Todo.sol\":1356:1697  function updatedTask(uint _id, string calldata _newContent) external onlyOwner {... */\n    tag_10:\n      tag_41\n      0x04\n      dup1\n      calldatasize\n      sub\n      dup2\n      add\n      swap1\n      tag_42\n      swap2\n      swap1\n      tag_43\n      jump\t// in\n    tag_42:\n      tag_44\n      jump\t// in\n    tag_41:\n      stop\n        /* \"contracts/Todo.sol\":211:232  uint public taskCount */\n    tag_11:\n      tag_45\n      tag_46\n      jump\t// in\n    tag_45:\n      mload(0x40)\n      tag_47\n      swap2\n      swap1\n      tag_48\n      jump\t// in\n    tag_47:\n      mload(0x40)\n      dup1\n      swap2\n      sub\n      swap1\n      return\n        /* \"contracts/Todo.sol\":705:1038  function createTask(string calldata _content) external onlyOwner {... */\n    tag_16:\n        /* \"contracts/Todo.sol\":338:343  owner */\n      0x00\n      0x00\n      swap1\n      sload\n      swap1\n      0x0100\n      exp\n      swap1\n      div\n      0xffffffffffffffffffffffffffffffffffffffff\n      and\n        /* \"contracts/Todo.sol\":324:343  msg.sender == owner */\n      0xffffffffffffffffffffffffffffffffffffffff\n      and\n        /* \"contracts/Todo.sol\":324:334  msg.sender */\n      caller\n        /* \"contracts/Todo.sol\":324:343  msg.sender == owner */\n      0xffffffffffffffffffffffffffffffffffffffff\n      and\n      eq\n        /* \"contracts/Todo.sol\":316:378  require(msg.sender == owner, \"ToDo : Caller is not the Owner\") */\n      tag_50\n      jumpi\n      mload(0x40)\n      0x08c379a000000000000000000000000000000000000000000000000000000000\n      dup2\n      mstore\n      0x04\n      add\n      tag_51\n      swap1\n      tag_52\n      jump\t// in\n    tag_51:\n      mload(0x40)\n      dup1\n      swap2\n      sub\n      swap1\n      revert\n    tag_50:\n        /* \"contracts/Todo.sol\":814:815  0 */\n      0x00\n        /* \"contracts/Todo.sol\":795:803  _content */\n      dup3\n      dup3\n        /* \"contracts/Todo.sol\":789:811  bytes(_content).length */\n      swap1\n      pop\n        /* \"contracts/Todo.sol\":789:815  bytes(_content).length > 0 */\n      gt\n        /* \"contracts/Todo.sol\":781:850  require(bytes(_content).length > 0, \"ToDo : Content cannot be empty\") */\n      tag_54\n      jumpi\n      mload(0x40)\n      0x08c379a000000000000000000000000000000000000000000000000000000000\n      dup2\n      mstore\n      0x04\n      add\n      tag_55\n      swap1\n      tag_56\n      jump\t// in\n    tag_55:\n      mload(0x40)\n      dup1\n      swap2\n      sub\n      swap1\n      revert\n    tag_54:\n        /* \"contracts/Todo.sol\":863:872  taskCount */\n      0x01\n      0x00\n        /* \"contracts/Todo.sol\":863:874  taskCount++ */\n      dup2\n      sload\n      dup1\n      swap3\n      swap2\n      swap1\n      tag_57\n      swap1\n      tag_58\n      jump\t// in\n    tag_57:\n      swap2\n      swap1\n      pop\n      sstore\n      pop\n        /* \"contracts/Todo.sol\":885:899  uint newTaskId */\n      0x00\n        /* \"contracts/Todo.sol\":902:911  taskCount */\n      sload(0x01)\n        /* \"contracts/Todo.sol\":885:911  uint newTaskId = taskCount */\n      swap1\n      pop\n        /* \"contracts/Todo.sol\":941:973  Task(newTaskId, _content, false) */\n      mload(0x40)\n      dup1\n      0x60\n      add\n      0x40\n      mstore\n      dup1\n        /* \"contracts/Todo.sol\":946:955  newTaskId */\n      dup3\n        /* \"contracts/Todo.sol\":941:973  Task(newTaskId, _content, false) */\n      dup2\n      mstore\n      0x20\n      add\n        /* \"contracts/Todo.sol\":957:965  _content */\n      dup5\n      dup5\n        /* \"contracts/Todo.sol\":941:973  Task(newTaskId, _content, false) */\n      dup1\n      dup1\n      0x1f\n      add\n      0x20\n      dup1\n      swap2\n      div\n      mul\n      0x20\n      add\n      mload(0x40)\n      swap1\n      dup2\n      add\n      0x40\n      mstore\n      dup1\n      swap4\n      swap3\n      swap2\n      swap1\n      dup2\n      dup2\n      mstore\n      0x20\n      add\n      dup4\n      dup4\n      dup1\n      dup3\n      dup5\n      calldatacopy\n      0x00\n      dup2\n      dup5\n      add\n      mstore\n      not(0x1f)\n      0x1f\n      dup3\n      add\n      and\n      swap1\n      pop\n      dup1\n      dup4\n      add\n      swap3\n      pop\n      pop\n      pop\n      pop\n      pop\n      pop\n      pop\n      dup2\n      mstore\n      0x20\n      add\n        /* \"contracts/Todo.sol\":967:972  false */\n      0x00\n        /* \"contracts/Todo.sol\":941:973  Task(newTaskId, _content, false) */\n      iszero\n      iszero\n      dup2\n      mstore\n      pop\n        /* \"contracts/Todo.sol\":922:927  tasks */\n      0x02\n        /* \"contracts/Todo.sol\":922:938  tasks[newTaskId] */\n      0x00\n        /* \"contracts/Todo.sol\":928:937  newTaskId */\n      dup4\n        /* \"contracts/Todo.sol\":922:938  tasks[newTaskId] */\n      dup2\n      mstore\n      0x20\n      add\n      swap1\n      dup2\n      mstore\n      0x20\n      add\n      0x00\n      keccak256\n        /* \"contracts/Todo.sol\":922:973  tasks[newTaskId] = Task(newTaskId, _content, false) */\n      0x00\n      dup3\n      add\n      mload\n      dup2\n      0x00\n      add\n      sstore\n      0x20\n      dup3\n      add\n      mload\n      dup2\n      0x01\n      add\n      swap1\n      dup2\n      tag_59\n      swap2\n      swap1\n      tag_60\n      jump\t// in\n    tag_59:\n      pop\n      0x40\n      dup3\n      add\n      mload\n      dup2\n      0x02\n      add\n      exp(0x0100, 0x00)\n      dup2\n      sload\n      dup2\n      0xff\n      mul\n      not\n      and\n      swap1\n      dup4\n      iszero\n      iszero\n      mul\n      or\n      swap1\n      sstore\n      pop\n      swap1\n      pop\n      pop\n        /* \"contracts/Todo.sol\":1003:1012  newTaskId */\n      dup1\n        /* \"contracts/Todo.sol\":991:1030  TaskCreated(newTaskId, _content, false) */\n      0x05d0fb833127fc08168556d0e7ca9554fc3f6bc843b3b7d2bf1c35aea6bab660\n        /* \"contracts/Todo.sol\":1014:1022  _content */\n      dup5\n      dup5\n        /* \"contracts/Todo.sol\":1024:1029  false */\n      0x00\n        /* \"contracts/Todo.sol\":991:1030  TaskCreated(newTaskId, _content, false) */\n      mload(0x40)\n      tag_61\n      swap4\n      swap3\n      swap2\n      swap1\n      tag_62\n      jump\t// in\n    tag_61:\n      mload(0x40)\n      dup1\n      swap2\n      sub\n      swap1\n      log2\n        /* \"contracts/Todo.sol\":770:1038  {... */\n      pop\n        /* \"contracts/Todo.sol\":705:1038  function createTask(string calldata _content) external onlyOwner {... */\n      pop\n      pop\n      jump\t// out\n        /* \"contracts/Todo.sol\":1906:2168  function getTask(uint _id) external view returns(uint, string memory, bool) {... */\n    tag_20:\n        /* \"contracts/Todo.sol\":1955:1959  uint */\n      0x00\n        /* \"contracts/Todo.sol\":1961:1974  string memory */\n      0x60\n        /* \"contracts/Todo.sol\":1976:1980  bool */\n      0x00\n        /* \"contracts/Todo.sol\":2019:2020  0 */\n      0x00\n        /* \"contracts/Todo.sol\":2001:2006  tasks */\n      0x02\n        /* \"contracts/Todo.sol\":2001:2011  tasks[_id] */\n      0x00\n        /* \"contracts/Todo.sol\":2007:2010  _id */\n      dup7\n        /* \"contracts/Todo.sol\":2001:2011  tasks[_id] */\n      dup2\n      mstore\n      0x20\n      add\n      swap1\n      dup2\n      mstore\n      0x20\n      add\n      0x00\n      keccak256\n        /* \"contracts/Todo.sol\":2001:2014  tasks[_id].id */\n      0x00\n      add\n      sload\n        /* \"contracts/Todo.sol\":2001:2020  tasks[_id].id  != 0 */\n      sub\n        /* \"contracts/Todo.sol\":1993:2054  require(tasks[_id].id  != 0, \"ToDo : Task does not exist ! \") */\n      tag_64\n      jumpi\n      mload(0x40)\n      0x08c379a000000000000000000000000000000000000000000000000000000000\n      dup2\n      mstore\n      0x04\n      add\n      tag_65\n      swap1\n      tag_66\n      jump\t// in\n    tag_65:\n      mload(0x40)\n      dup1\n      swap2\n      sub\n      swap1\n      revert\n    tag_64:\n        /* \"contracts/Todo.sol\":2067:2085  Task storage _task */\n      0x00\n        /* \"contracts/Todo.sol\":2088:2093  tasks */\n      0x02\n        /* \"contracts/Todo.sol\":2088:2098  tasks[_id] */\n      0x00\n        /* \"contracts/Todo.sol\":2094:2097  _id */\n      dup7\n        /* \"contracts/Todo.sol\":2088:2098  tasks[_id] */\n      dup2\n      mstore\n      0x20\n      add\n      swap1\n      dup2\n      mstore\n      0x20\n      add\n      0x00\n      keccak256\n        /* \"contracts/Todo.sol\":2067:2098  Task storage _task = tasks[_id] */\n      swap1\n      pop\n        /* \"contracts/Todo.sol\":2119:2124  _task */\n      dup1\n        /* \"contracts/Todo.sol\":2119:2127  _task.id */\n      0x00\n      add\n      sload\n        /* \"contracts/Todo.sol\":2129:2134  _task */\n      dup2\n        /* \"contracts/Todo.sol\":2129:2142  _task.content */\n      0x01\n      add\n        /* \"contracts/Todo.sol\":2144:2149  _task */\n      dup3\n        /* \"contracts/Todo.sol\":2144:2159  _task.completed */\n      0x02\n      add\n      0x00\n      swap1\n      sload\n      swap1\n      0x0100\n      exp\n      swap1\n      div\n      0xff\n      and\n        /* \"contracts/Todo.sol\":2111:2160  return (_task.id, _task.content, _task.completed) */\n      dup2\n      dup1\n      sload\n      tag_67\n      swap1\n      tag_68\n      jump\t// in\n    tag_67:\n      dup1\n      0x1f\n      add\n      0x20\n      dup1\n      swap2\n      div\n      mul\n      0x20\n      add\n      mload(0x40)\n      swap1\n      dup2\n      add\n      0x40\n      mstore\n      dup1\n      swap3\n      swap2\n      swap1\n      dup2\n      dup2\n      mstore\n      0x20\n      add\n      dup3\n      dup1\n      sload\n      tag_69\n      swap1\n      tag_68\n      jump\t// in\n    tag_69:\n      dup1\n      iszero\n      tag_70\n      jumpi\n      dup1\n      0x1f\n      lt\n      tag_71\n      jumpi\n      0x0100\n      dup1\n      dup4\n      sload\n      div\n      mul\n      dup4\n      mstore\n      swap2\n      0x20\n      add\n      swap2\n      jump(tag_70)\n    tag_71:\n      dup3\n      add\n      swap2\n      swap1\n      0x00\n      mstore\n      keccak256(0x00, 0x20)\n      swap1\n    tag_72:\n      dup2\n      sload\n      dup2\n      mstore\n      swap1\n      0x01\n      add\n      swap1\n      0x20\n      add\n      dup1\n      dup4\n      gt\n      tag_72\n      jumpi\n      dup3\n      swap1\n      sub\n      0x1f\n      and\n      dup3\n      add\n      swap2\n    tag_70:\n      pop\n      pop\n      pop\n      pop\n      pop\n      swap2\n      pop\n      swap4\n      pop\n      swap4\n      pop\n      swap4\n      pop\n      pop\n        /* \"contracts/Todo.sol\":1906:2168  function getTask(uint _id) external view returns(uint, string memory, bool) {... */\n      swap2\n      swap4\n      swap1\n      swap3\n      pop\n      jump\t// out\n        /* \"contracts/Todo.sol\":1046:1348  function toggleCompleted(uint _id) external onlyOwner {... */\n    tag_25:\n        /* \"contracts/Todo.sol\":338:343  owner */\n      0x00\n      0x00\n      swap1\n      sload\n      swap1\n      0x0100\n      exp\n      swap1\n      div\n      0xffffffffffffffffffffffffffffffffffffffff\n      and\n        /* \"contracts/Todo.sol\":324:343  msg.sender == owner */\n      0xffffffffffffffffffffffffffffffffffffffff\n      and\n        /* \"contracts/Todo.sol\":324:334  msg.sender */\n      caller\n        /* \"contracts/Todo.sol\":324:343  msg.sender == owner */\n      0xffffffffffffffffffffffffffffffffffffffff\n      and\n      eq\n        /* \"contracts/Todo.sol\":316:378  require(msg.sender == owner, \"ToDo : Caller is not the Owner\") */\n      tag_74\n      jumpi\n      mload(0x40)\n      0x08c379a000000000000000000000000000000000000000000000000000000000\n      dup2\n      mstore\n      0x04\n      add\n      tag_75\n      swap1\n      tag_52\n      jump\t// in\n    tag_75:\n      mload(0x40)\n      dup1\n      swap2\n      sub\n      swap1\n      revert\n    tag_74:\n        /* \"contracts/Todo.sol\":1137:1138  0 */\n      0x00\n        /* \"contracts/Todo.sol\":1119:1124  tasks */\n      0x02\n        /* \"contracts/Todo.sol\":1119:1129  tasks[_id] */\n      0x00\n        /* \"contracts/Todo.sol\":1125:1128  _id */\n      dup4\n        /* \"contracts/Todo.sol\":1119:1129  tasks[_id] */\n      dup2\n      mstore\n      0x20\n      add\n      swap1\n      dup2\n      mstore\n      0x20\n      add\n      0x00\n      keccak256\n        /* \"contracts/Todo.sol\":1119:1132  tasks[_id].id */\n      0x00\n      add\n      sload\n        /* \"contracts/Todo.sol\":1119:1138  tasks[_id].id  != 0 */\n      sub\n        /* \"contracts/Todo.sol\":1111:1172  require(tasks[_id].id  != 0, \"ToDo : Task does not exist ! \") */\n      tag_77\n      jumpi\n      mload(0x40)\n      0x08c379a000000000000000000000000000000000000000000000000000000000\n      dup2\n      mstore\n      0x04\n      add\n      tag_78\n      swap1\n      tag_66\n      jump\t// in\n    tag_78:\n      mload(0x40)\n      dup1\n      swap2\n      sub\n      swap1\n      revert\n    tag_77:\n        /* \"contracts/Todo.sol\":1185:1210  Task storage taskToToggle */\n      0x00\n        /* \"contracts/Todo.sol\":1213:1218  tasks */\n      0x02\n        /* \"contracts/Todo.sol\":1213:1223  tasks[_id] */\n      0x00\n        /* \"contracts/Todo.sol\":1219:1222  _id */\n      dup4\n        /* \"contracts/Todo.sol\":1213:1223  tasks[_id] */\n      dup2\n      mstore\n      0x20\n      add\n      swap1\n      dup2\n      mstore\n      0x20\n      add\n      0x00\n      keccak256\n        /* \"contracts/Todo.sol\":1185:1223  Task storage taskToToggle = tasks[_id] */\n      swap1\n      pop\n        /* \"contracts/Todo.sol\":1260:1272  taskToToggle */\n      dup1\n        /* \"contracts/Todo.sol\":1260:1282  taskToToggle.completed */\n      0x02\n      add\n      0x00\n      swap1\n      sload\n      swap1\n      0x0100\n      exp\n      swap1\n      div\n      0xff\n      and\n        /* \"contracts/Todo.sol\":1259:1282  !taskToToggle.completed */\n      iszero\n        /* \"contracts/Todo.sol\":1234:1246  taskToToggle */\n      dup2\n        /* \"contracts/Todo.sol\":1234:1256  taskToToggle.completed */\n      0x02\n      add\n      0x00\n        /* \"contracts/Todo.sol\":1234:1282  taskToToggle.completed = !taskToToggle.completed */\n      0x0100\n      exp\n      dup2\n      sload\n      dup2\n      0xff\n      mul\n      not\n      and\n      swap1\n      dup4\n      iszero\n      iszero\n      mul\n      or\n      swap1\n      sstore\n      pop\n        /* \"contracts/Todo.sol\":1312:1315  _id */\n      dup2\n        /* \"contracts/Todo.sol\":1300:1340  TaskToggled(_id, taskToToggle.completed) */\n      0xe668c7a227d9261aa1f964bf5a852ab642446a7af6c29405caf8d0e9ce2c11f0\n        /* \"contracts/Todo.sol\":1317:1329  taskToToggle */\n      dup3\n        /* \"contracts/Todo.sol\":1317:1339  taskToToggle.completed */\n      0x02\n      add\n      0x00\n      swap1\n      sload\n      swap1\n      0x0100\n      exp\n      swap1\n      div\n      0xff\n      and\n        /* \"contracts/Todo.sol\":1300:1340  TaskToggled(_id, taskToToggle.completed) */\n      mload(0x40)\n      tag_79\n      swap2\n      swap1\n      tag_80\n      jump\t// in\n    tag_79:\n      mload(0x40)\n      dup1\n      swap2\n      sub\n      swap1\n      log2\n        /* \"contracts/Todo.sol\":1100:1348  {... */\n      pop\n        /* \"contracts/Todo.sol\":1046:1348  function toggleCompleted(uint _id) external onlyOwner {... */\n      pop\n      jump\t// out\n        /* \"contracts/Todo.sol\":1705:1898  function deleteTask(uint _id) external onlyOwner {... */\n    tag_28:\n        /* \"contracts/Todo.sol\":338:343  owner */\n      0x00\n      0x00\n      swap1\n      sload\n      swap1\n      0x0100\n      exp\n      swap1\n      div\n      0xffffffffffffffffffffffffffffffffffffffff\n      and\n        /* \"contracts/Todo.sol\":324:343  msg.sender == owner */\n      0xffffffffffffffffffffffffffffffffffffffff\n      and\n        /* \"contracts/Todo.sol\":324:334  msg.sender */\n      caller\n        /* \"contracts/Todo.sol\":324:343  msg.sender == owner */\n      0xffffffffffffffffffffffffffffffffffffffff\n      and\n      eq\n        /* \"contracts/Todo.sol\":316:378  require(msg.sender == owner, \"ToDo : Caller is not the Owner\") */\n      tag_82\n      jumpi\n      mload(0x40)\n      0x08c379a000000000000000000000000000000000000000000000000000000000\n      dup2\n      mstore\n      0x04\n      add\n      tag_83\n      swap1\n      tag_52\n      jump\t// in\n    tag_83:\n      mload(0x40)\n      dup1\n      swap2\n      sub\n      swap1\n      revert\n    tag_82:\n        /* \"contracts/Todo.sol\":1791:1792  0 */\n      0x00\n        /* \"contracts/Todo.sol\":1773:1778  tasks */\n      0x02\n        /* \"contracts/Todo.sol\":1773:1783  tasks[_id] */\n      0x00\n        /* \"contracts/Todo.sol\":1779:1782  _id */\n      dup4\n        /* \"contracts/Todo.sol\":1773:1783  tasks[_id] */\n      dup2\n      mstore\n      0x20\n      add\n      swap1\n      dup2\n      mstore\n      0x20\n      add\n      0x00\n      keccak256\n        /* \"contracts/Todo.sol\":1773:1786  tasks[_id].id */\n      0x00\n      add\n      sload\n        /* \"contracts/Todo.sol\":1773:1792  tasks[_id].id  != 0 */\n      sub\n        /* \"contracts/Todo.sol\":1765:1826  require(tasks[_id].id  != 0, \"ToDo : Task does not exist ! \") */\n      tag_85\n      jumpi\n      mload(0x40)\n      0x08c379a000000000000000000000000000000000000000000000000000000000\n      dup2\n      mstore\n      0x04\n      add\n      tag_86\n      swap1\n      tag_66\n      jump\t// in\n    tag_86:\n      mload(0x40)\n      dup1\n      swap2\n      sub\n      swap1\n      revert\n    tag_85:\n        /* \"contracts/Todo.sol\":1846:1851  tasks */\n      0x02\n        /* \"contracts/Todo.sol\":1846:1856  tasks[_id] */\n      0x00\n        /* \"contracts/Todo.sol\":1852:1855  _id */\n      dup3\n        /* \"contracts/Todo.sol\":1846:1856  tasks[_id] */\n      dup2\n      mstore\n      0x20\n      add\n      swap1\n      dup2\n      mstore\n      0x20\n      add\n      0x00\n      keccak256\n      0x00\n        /* \"contracts/Todo.sol\":1839:1856  delete tasks[_id] */\n      0x00\n      dup3\n      add\n      0x00\n      swap1\n      sstore\n      0x01\n      dup3\n      add\n      0x00\n      tag_87\n      swap2\n      swap1\n      tag_88\n      jump\t// in\n    tag_87:\n      0x02\n      dup3\n      add\n      exp(0x0100, 0x00)\n      dup2\n      sload\n      swap1\n      0xff\n      mul\n      not\n      and\n      swap1\n      sstore\n      pop\n      pop\n        /* \"contracts/Todo.sol\":1886:1889  _id */\n      dup1\n        /* \"contracts/Todo.sol\":1874:1890  TaskDeleted(_id) */\n      0xd078b251d950cc55c44340be1db732337ef4939a76e1367ee271ad2cb19c46af\n      mload(0x40)\n      mload(0x40)\n      dup1\n      swap2\n      sub\n      swap1\n      log2\n        /* \"contracts/Todo.sol\":1705:1898  function deleteTask(uint _id) external onlyOwner {... */\n      pop\n      jump\t// out\n        /* \"contracts/Todo.sol\":2176:2829  function getAllTasks() external view returns(Task[] memory) {... */\n    tag_30:\n        /* \"contracts/Todo.sol\":2221:2234  Task[] memory */\n      0x60\n        /* \"contracts/Todo.sol\":2247:2267  uint activeTaskCount */\n      0x00\n        /* \"contracts/Todo.sol\":2270:2271  0 */\n      0x00\n        /* \"contracts/Todo.sol\":2247:2271  uint activeTaskCount = 0 */\n      swap1\n      pop\n        /* \"contracts/Todo.sol\":2286:2292  uint i */\n      0x00\n        /* \"contracts/Todo.sol\":2295:2296  1 */\n      0x01\n        /* \"contracts/Todo.sol\":2286:2296  uint i = 1 */\n      swap1\n      pop\n        /* \"contracts/Todo.sol\":2282:2418  for(uint i = 1; i <= taskCount; i++) {... */\n    tag_90:\n        /* \"contracts/Todo.sol\":2303:2312  taskCount */\n      sload(0x01)\n        /* \"contracts/Todo.sol\":2298:2299  i */\n      dup2\n        /* \"contracts/Todo.sol\":2298:2312  i <= taskCount */\n      gt\n        /* \"contracts/Todo.sol\":2282:2418  for(uint i = 1; i <= taskCount; i++) {... */\n      tag_91\n      jumpi\n        /* \"contracts/Todo.sol\":2352:2353  0 */\n      0x00\n        /* \"contracts/Todo.sol\":2337:2342  tasks */\n      0x02\n        /* \"contracts/Todo.sol\":2337:2345  tasks[i] */\n      0x00\n        /* \"contracts/Todo.sol\":2343:2344  i */\n      dup4\n        /* \"contracts/Todo.sol\":2337:2345  tasks[i] */\n      dup2\n      mstore\n      0x20\n      add\n      swap1\n      dup2\n      mstore\n      0x20\n      add\n      0x00\n      keccak256\n        /* \"contracts/Todo.sol\":2337:2348  tasks[i].id */\n      0x00\n      add\n      sload\n        /* \"contracts/Todo.sol\":2337:2353  tasks[i].id != 0 */\n      eq\n        /* \"contracts/Todo.sol\":2334:2407  if(tasks[i].id != 0) {... */\n      tag_93\n      jumpi\n        /* \"contracts/Todo.sol\":2374:2391  activeTaskCount++ */\n      dup2\n      dup1\n      tag_94\n      swap1\n      tag_58\n      jump\t// in\n    tag_94:\n      swap3\n      pop\n      pop\n        /* \"contracts/Todo.sol\":2334:2407  if(tasks[i].id != 0) {... */\n    tag_93:\n        /* \"contracts/Todo.sol\":2314:2317  i++ */\n      dup1\n      dup1\n      tag_95\n      swap1\n      tag_58\n      jump\t// in\n    tag_95:\n      swap2\n      pop\n      pop\n        /* \"contracts/Todo.sol\":2282:2418  for(uint i = 1; i <= taskCount; i++) {... */\n      jump(tag_90)\n    tag_91:\n      pop\n        /* \"contracts/Todo.sol\":2452:2453  0 */\n      0x00\n        /* \"contracts/Todo.sol\":2433:2448  activeTaskCount */\n      dup2\n        /* \"contracts/Todo.sol\":2433:2453  activeTaskCount == 0 */\n      sub\n        /* \"contracts/Todo.sol\":2430:2502  if(activeTaskCount == 0) {... */\n      tag_96\n      jumpi\n        /* \"contracts/Todo.sol\":2488:2489  0 */\n      0x00\n        /* \"contracts/Todo.sol\":2477:2490  new Task[](0) */\n      0xffffffffffffffff\n      dup2\n      gt\n      iszero\n      tag_97\n      jumpi\n      tag_98\n      tag_99\n      jump\t// in\n    tag_98:\n    tag_97:\n      mload(0x40)\n      swap1\n      dup1\n      dup3\n      mstore\n      dup1\n      0x20\n      mul\n      0x20\n      add\n      dup3\n      add\n      0x40\n      mstore\n      dup1\n      iszero\n      tag_100\n      jumpi\n      dup2\n      0x20\n      add\n    tag_101:\n      tag_102\n      tag_103\n      jump\t// in\n    tag_102:\n      dup2\n      mstore\n      0x20\n      add\n      swap1\n      0x01\n      swap1\n      sub\n      swap1\n      dup2\n      tag_101\n      jumpi\n      swap1\n      pop\n    tag_100:\n      pop\n        /* \"contracts/Todo.sol\":2470:2490  return new Task[](0) */\n      swap2\n      pop\n      pop\n      jump(tag_89)\n        /* \"contracts/Todo.sol\":2430:2502  if(activeTaskCount == 0) {... */\n    tag_96:\n        /* \"contracts/Todo.sol\":2514:2536  Task[] memory allTasks */\n      0x00\n        /* \"contracts/Todo.sol\":2550:2565  activeTaskCount */\n      dup2\n        /* \"contracts/Todo.sol\":2539:2566  new Task[](activeTaskCount) */\n      0xffffffffffffffff\n      dup2\n      gt\n      iszero\n      tag_104\n      jumpi\n      tag_105\n      tag_99\n      jump\t// in\n    tag_105:\n    tag_104:\n      mload(0x40)\n      swap1\n      dup1\n      dup3\n      mstore\n      dup1\n      0x20\n      mul\n      0x20\n      add\n      dup3\n      add\n      0x40\n      mstore\n      dup1\n      iszero\n      tag_106\n      jumpi\n      dup2\n      0x20\n      add\n    tag_107:\n      tag_108\n      tag_103\n      jump\t// in\n    tag_108:\n      dup2\n      mstore\n      0x20\n      add\n      swap1\n      0x01\n      swap1\n      sub\n      swap1\n      dup2\n      tag_107\n      jumpi\n      swap1\n      pop\n    tag_106:\n      pop\n        /* \"contracts/Todo.sol\":2514:2566  Task[] memory allTasks = new Task[](activeTaskCount) */\n      swap1\n      pop\n        /* \"contracts/Todo.sol\":2577:2594  uint currentIndex */\n      0x00\n        /* \"contracts/Todo.sol\":2597:2598  0 */\n      0x00\n        /* \"contracts/Todo.sol\":2577:2598  uint currentIndex = 0 */\n      swap1\n      pop\n        /* \"contracts/Todo.sol\":2613:2619  uint i */\n      0x00\n        /* \"contracts/Todo.sol\":2622:2623  1 */\n      0x01\n        /* \"contracts/Todo.sol\":2613:2623  uint i = 1 */\n      swap1\n      pop\n        /* \"contracts/Todo.sol\":2609:2794  for(uint i = 1; i <= taskCount; i++) {... */\n    tag_109:\n        /* \"contracts/Todo.sol\":2630:2639  taskCount */\n      sload(0x01)\n        /* \"contracts/Todo.sol\":2625:2626  i */\n      dup2\n        /* \"contracts/Todo.sol\":2625:2639  i <= taskCount */\n      gt\n        /* \"contracts/Todo.sol\":2609:2794  for(uint i = 1; i <= taskCount; i++) {... */\n      tag_110\n      jumpi\n        /* \"contracts/Todo.sol\":2679:2680  0 */\n      0x00\n        /* \"contracts/Todo.sol\":2664:2669  tasks */\n      0x02\n        /* \"contracts/Todo.sol\":2664:2672  tasks[i] */\n      0x00\n        /* \"contracts/Todo.sol\":2670:2671  i */\n      dup4\n        /* \"contracts/Todo.sol\":2664:2672  tasks[i] */\n      dup2\n      mstore\n      0x20\n      add\n      swap1\n      dup2\n      mstore\n      0x20\n      add\n      0x00\n      keccak256\n        /* \"contracts/Todo.sol\":2664:2675  tasks[i].id */\n      0x00\n      add\n      sload\n        /* \"contracts/Todo.sol\":2664:2680  tasks[i].id != 0 */\n      eq\n        /* \"contracts/Todo.sol\":2661:2783  if(tasks[i].id != 0) {... */\n      tag_112\n      jumpi\n        /* \"contracts/Todo.sol\":2726:2731  tasks */\n      0x02\n        /* \"contracts/Todo.sol\":2726:2734  tasks[i] */\n      0x00\n        /* \"contracts/Todo.sol\":2732:2733  i */\n      dup3\n        /* \"contracts/Todo.sol\":2726:2734  tasks[i] */\n      dup2\n      mstore\n      0x20\n      add\n      swap1\n      dup2\n      mstore\n      0x20\n      add\n      0x00\n      keccak256\n        /* \"contracts/Todo.sol\":2701:2734  allTasks[currentIndex] = tasks[i] */\n      mload(0x40)\n      dup1\n      0x60\n      add\n      0x40\n      mstore\n      swap1\n      dup2\n      0x00\n      dup3\n      add\n      sload\n      dup2\n      mstore\n      0x20\n      add\n      0x01\n      dup3\n      add\n      dup1\n      sload\n      tag_113\n      swap1\n      tag_68\n      jump\t// in\n    tag_113:\n      dup1\n      0x1f\n      add\n      0x20\n      dup1\n      swap2\n      div\n      mul\n      0x20\n      add\n      mload(0x40)\n      swap1\n      dup2\n      add\n      0x40\n      mstore\n      dup1\n      swap3\n      swap2\n      swap1\n      dup2\n      dup2\n      mstore\n      0x20\n      add\n      dup3\n      dup1\n      sload\n      tag_114\n      swap1\n      tag_68\n      jump\t// in\n    tag_114:\n      dup1\n      iszero\n      tag_115\n      jumpi\n      dup1\n      0x1f\n      lt\n      tag_116\n      jumpi\n      0x0100\n      dup1\n      dup4\n      sload\n      div\n      mul\n      dup4\n      mstore\n      swap2\n      0x20\n      add\n      swap2\n      jump(tag_115)\n    tag_116:\n      dup3\n      add\n      swap2\n      swap1\n      0x00\n      mstore\n      keccak256(0x00, 0x20)\n      swap1\n    tag_117:\n      dup2\n      sload\n      dup2\n      mstore\n      swap1\n      0x01\n      add\n      swap1\n      0x20\n      add\n      dup1\n      dup4\n      gt\n      tag_117\n      jumpi\n      dup3\n      swap1\n      sub\n      0x1f\n      and\n      dup3\n      add\n      swap2\n    tag_115:\n      pop\n      pop\n      pop\n      pop\n      pop\n      dup2\n      mstore\n      0x20\n      add\n      0x02\n      dup3\n      add\n      0x00\n      swap1\n      sload\n      swap1\n      0x0100\n      exp\n      swap1\n      div\n      0xff\n      and\n      iszero\n      iszero\n      iszero\n      iszero\n      dup2\n      mstore\n      pop\n      pop\n        /* \"contracts/Todo.sol\":2701:2709  allTasks */\n      dup4\n        /* \"contracts/Todo.sol\":2710:2722  currentIndex */\n      dup4\n        /* \"contracts/Todo.sol\":2701:2723  allTasks[currentIndex] */\n      dup2\n      mload\n      dup2\n      lt\n      tag_118\n      jumpi\n      tag_119\n      tag_120\n      jump\t// in\n    tag_119:\n    tag_118:\n      0x20\n      mul\n      0x20\n      add\n      add\n        /* \"contracts/Todo.sol\":2701:2734  allTasks[currentIndex] = tasks[i] */\n      dup2\n      swap1\n      mstore\n      pop\n        /* \"contracts/Todo.sol\":2753:2767  currentIndex++ */\n      dup2\n      dup1\n      tag_121\n      swap1\n      tag_58\n      jump\t// in\n    tag_121:\n      swap3\n      pop\n      pop\n        /* \"contracts/Todo.sol\":2661:2783  if(tasks[i].id != 0) {... */\n    tag_112:\n        /* \"contracts/Todo.sol\":2641:2644  i++ */\n      dup1\n      dup1\n      tag_122\n      swap1\n      tag_58\n      jump\t// in\n    tag_122:\n      swap2\n      pop\n      pop\n        /* \"contracts/Todo.sol\":2609:2794  for(uint i = 1; i <= taskCount; i++) {... */\n      jump(tag_109)\n    tag_110:\n      pop\n        /* \"contracts/Todo.sol\":2813:2821  allTasks */\n      dup2\n        /* \"contracts/Todo.sol\":2806:2821  return allTasks */\n      swap4\n      pop\n      pop\n      pop\n      pop\n        /* \"contracts/Todo.sol\":2176:2829  function getAllTasks() external view returns(Task[] memory) {... */\n    tag_89:\n      swap1\n      jump\t// out\n        /* \"contracts/Todo.sol\":241:275  mapping(uint => Task) public tasks */\n    tag_35:\n      mstore(0x20, 0x02)\n      dup1\n      0x00\n      mstore\n      keccak256(0x00, 0x40)\n      0x00\n      swap2\n      pop\n      swap1\n      pop\n      dup1\n      0x00\n      add\n      sload\n      swap1\n      dup1\n      0x01\n      add\n      dup1\n      sload\n      tag_123\n      swap1\n      tag_68\n      jump\t// in\n    tag_123:\n      dup1\n      0x1f\n      add\n      0x20\n      dup1\n      swap2\n      div\n      mul\n      0x20\n      add\n      mload(0x40)\n      swap1\n      dup2\n      add\n      0x40\n      mstore\n      dup1\n      swap3\n      swap2\n      swap1\n      dup2\n      dup2\n      mstore\n      0x20\n      add\n      dup3\n      dup1\n      sload\n      tag_124\n      swap1\n      tag_68\n      jump\t// in\n    tag_124:\n      dup1\n      iszero\n      tag_125\n      jumpi\n      dup1\n      0x1f\n      lt\n      tag_126\n      jumpi\n      0x0100\n      dup1\n      dup4\n      sload\n      div\n      mul\n      dup4\n      mstore\n      swap2\n      0x20\n      add\n      swap2\n      jump(tag_125)\n    tag_126:\n      dup3\n      add\n      swap2\n      swap1\n      0x00\n      mstore\n      keccak256(0x00, 0x20)\n      swap1\n    tag_127:\n      dup2\n      sload\n      dup2\n      mstore\n      swap1\n      0x01\n      add\n      swap1\n      0x20\n      add\n      dup1\n      dup4\n      gt\n      tag_127\n      jumpi\n      dup3\n      swap1\n      sub\n      0x1f\n      and\n      dup3\n      add\n      swap2\n    tag_125:\n      pop\n      pop\n      pop\n      pop\n      pop\n      swap1\n      dup1\n      0x02\n      add\n      0x00\n      swap1\n      sload\n      swap1\n      0x0100\n      exp\n      swap1\n      div\n      0xff\n      and\n      swap1\n      pop\n      dup4\n      jump\t// out\n        /* \"contracts/Todo.sol\":184:204  address public owner */\n    tag_38:\n      0x00\n      0x00\n      swap1\n      sload\n      swap1\n      0x0100\n      exp\n      swap1\n      div\n      0xffffffffffffffffffffffffffffffffffffffff\n      and\n      dup2\n      jump\t// out\n        /* \"contracts/Todo.sol\":1356:1697  function updatedTask(uint _id, string calldata _newContent) external onlyOwner {... */\n    tag_44:\n        /* \"contracts/Todo.sol\":338:343  owner */\n      0x00\n      0x00\n      swap1\n      sload\n      swap1\n      0x0100\n      exp\n      swap1\n      div\n      0xffffffffffffffffffffffffffffffffffffffff\n      and\n        /* \"contracts/Todo.sol\":324:343  msg.sender == owner */\n      0xffffffffffffffffffffffffffffffffffffffff\n      and\n        /* \"contracts/Todo.sol\":324:334  msg.sender */\n      caller\n        /* \"contracts/Todo.sol\":324:343  msg.sender == owner */\n      0xffffffffffffffffffffffffffffffffffffffff\n      and\n      eq\n        /* \"contracts/Todo.sol\":316:378  require(msg.sender == owner, \"ToDo : Caller is not the Owner\") */\n      tag_129\n      jumpi\n      mload(0x40)\n      0x08c379a000000000000000000000000000000000000000000000000000000000\n      dup2\n      mstore\n      0x04\n      add\n      tag_130\n      swap1\n      tag_52\n      jump\t// in\n    tag_130:\n      mload(0x40)\n      dup1\n      swap2\n      sub\n      swap1\n      revert\n    tag_129:\n        /* \"contracts/Todo.sol\":1472:1473  0 */\n      0x00\n        /* \"contracts/Todo.sol\":1454:1459  tasks */\n      0x02\n        /* \"contracts/Todo.sol\":1454:1464  tasks[_id] */\n      0x00\n        /* \"contracts/Todo.sol\":1460:1463  _id */\n      dup6\n        /* \"contracts/Todo.sol\":1454:1464  tasks[_id] */\n      dup2\n      mstore\n      0x20\n      add\n      swap1\n      dup2\n      mstore\n      0x20\n      add\n      0x00\n      keccak256\n        /* \"contracts/Todo.sol\":1454:1467  tasks[_id].id */\n      0x00\n      add\n      sload\n        /* \"contracts/Todo.sol\":1454:1473  tasks[_id].id  != 0 */\n      sub\n        /* \"contracts/Todo.sol\":1446:1507  require(tasks[_id].id  != 0, \"ToDo : Task does not exist ! \") */\n      tag_132\n      jumpi\n      mload(0x40)\n      0x08c379a000000000000000000000000000000000000000000000000000000000\n      dup2\n      mstore\n      0x04\n      add\n      tag_133\n      swap1\n      tag_66\n      jump\t// in\n    tag_133:\n      mload(0x40)\n      dup1\n      swap2\n      sub\n      swap1\n      revert\n    tag_132:\n        /* \"contracts/Todo.sol\":1554:1555  0 */\n      0x00\n        /* \"contracts/Todo.sol\":1532:1543  _newContent */\n      dup3\n      dup3\n        /* \"contracts/Todo.sol\":1526:1551  bytes(_newContent).length */\n      swap1\n      pop\n        /* \"contracts/Todo.sol\":1526:1555  bytes(_newContent).length > 0 */\n      gt\n        /* \"contracts/Todo.sol\":1518:1590  require(bytes(_newContent).length > 0, \"ToDo : Content cannot be empty\") */\n      tag_134\n      jumpi\n      mload(0x40)\n      0x08c379a000000000000000000000000000000000000000000000000000000000\n      dup2\n      mstore\n      0x04\n      add\n      tag_135\n      swap1\n      tag_56\n      jump\t// in\n    tag_135:\n      mload(0x40)\n      dup1\n      swap2\n      sub\n      swap1\n      revert\n    tag_134:\n        /* \"contracts/Todo.sol\":1624:1635  _newContent */\n      dup2\n      dup2\n        /* \"contracts/Todo.sol\":1603:1608  tasks */\n      0x02\n        /* \"contracts/Todo.sol\":1603:1613  tasks[_id] */\n      0x00\n        /* \"contracts/Todo.sol\":1609:1612  _id */\n      dup7\n        /* \"contracts/Todo.sol\":1603:1613  tasks[_id] */\n      dup2\n      mstore\n      0x20\n      add\n      swap1\n      dup2\n      mstore\n      0x20\n      add\n      0x00\n      keccak256\n        /* \"contracts/Todo.sol\":1603:1621  tasks[_id].content */\n      0x01\n      add\n        /* \"contracts/Todo.sol\":1603:1635  tasks[_id].content = _newContent */\n      swap2\n      dup3\n      tag_136\n      swap3\n      swap2\n      swap1\n      tag_137\n      jump\t// in\n    tag_136:\n      pop\n        /* \"contracts/Todo.sol\":1672:1675  _id */\n      dup3\n        /* \"contracts/Todo.sol\":1653:1689  TaskContentUpdated(_id, _newContent) */\n      0x39fdc01494598bde3e34a388abd0032d3eafbd917b56d7572771da5146d27793\n        /* \"contracts/Todo.sol\":1677:1688  _newContent */\n      dup4\n      dup4\n        /* \"contracts/Todo.sol\":1653:1689  TaskContentUpdated(_id, _newContent) */\n      mload(0x40)\n      tag_138\n      swap3\n      swap2\n      swap1\n      tag_139\n      jump\t// in\n    tag_138:\n      mload(0x40)\n      dup1\n      swap2\n      sub\n      swap1\n      log2\n        /* \"contracts/Todo.sol\":1356:1697  function updatedTask(uint _id, string calldata _newContent) external onlyOwner {... */\n      pop\n      pop\n      pop\n      jump\t// out\n        /* \"contracts/Todo.sol\":211:232  uint public taskCount */\n    tag_46:\n      sload(0x01)\n      dup2\n      jump\t// out\n    tag_88:\n      pop\n      dup1\n      sload\n      tag_140\n      swap1\n      tag_68\n      jump\t// in\n    tag_140:\n      0x00\n      dup3\n      sstore\n      dup1\n      0x1f\n      lt\n      tag_142\n      jumpi\n      pop\n      jump(tag_141)\n    tag_142:\n      0x1f\n      add\n      0x20\n      swap1\n      div\n      swap1\n      0x00\n      mstore\n      keccak256(0x00, 0x20)\n      swap1\n      dup2\n      add\n      swap1\n      tag_143\n      swap2\n      swap1\n      tag_144\n      jump\t// in\n    tag_143:\n    tag_141:\n      pop\n      jump\t// out\n    tag_103:\n      mload(0x40)\n      dup1\n      0x60\n      add\n      0x40\n      mstore\n      dup1\n      0x00\n      dup2\n      mstore\n      0x20\n      add\n      0x60\n      dup2\n      mstore\n      0x20\n      add\n      iszero(iszero(0x00))\n      dup2\n      mstore\n      pop\n      swap1\n      jump\t// out\n    tag_144:\n    tag_145:\n      dup1\n      dup3\n      gt\n      iszero\n      tag_146\n      jumpi\n      0x00\n      dup2\n      0x00\n      swap1\n      sstore\n      pop\n      0x01\n      add\n      jump(tag_145)\n    tag_146:\n      pop\n      swap1\n      jump\t// out\n        /* \"#utility.yul\":88:205   */\n    tag_148:\n        /* \"#utility.yul\":197:198   */\n      0x00\n        /* \"#utility.yul\":194:195   */\n      0x00\n        /* \"#utility.yul\":187:199   */\n      revert\n        /* \"#utility.yul\":211:328   */\n    tag_149:\n        /* \"#utility.yul\":320:321   */\n      0x00\n        /* \"#utility.yul\":317:318   */\n      0x00\n        /* \"#utility.yul\":310:322   */\n      revert\n        /* \"#utility.yul\":334:451   */\n    tag_150:\n        /* \"#utility.yul\":443:444   */\n      0x00\n        /* \"#utility.yul\":440:441   */\n      0x00\n        /* \"#utility.yul\":433:445   */\n      revert\n        /* \"#utility.yul\":457:574   */\n    tag_151:\n        /* \"#utility.yul\":566:567   */\n      0x00\n        /* \"#utility.yul\":563:564   */\n      0x00\n        /* \"#utility.yul\":556:568   */\n      revert\n        /* \"#utility.yul\":580:697   */\n    tag_152:\n        /* \"#utility.yul\":689:690   */\n      0x00\n        /* \"#utility.yul\":686:687   */\n      0x00\n        /* \"#utility.yul\":679:691   */\n      revert\n        /* \"#utility.yul\":717:1270   */\n    tag_153:\n        /* \"#utility.yul\":775:783   */\n      0x00\n        /* \"#utility.yul\":785:791   */\n      0x00\n        /* \"#utility.yul\":835:838   */\n      dup4\n        /* \"#utility.yul\":828:832   */\n      0x1f\n        /* \"#utility.yul\":820:826   */\n      dup5\n        /* \"#utility.yul\":816:833   */\n      add\n        /* \"#utility.yul\":812:839   */\n      slt\n        /* \"#utility.yul\":802:924   */\n      tag_213\n      jumpi\n        /* \"#utility.yul\":843:922   */\n      tag_214\n      tag_150\n      jump\t// in\n    tag_214:\n        /* \"#utility.yul\":802:924   */\n    tag_213:\n        /* \"#utility.yul\":956:962   */\n      dup3\n        /* \"#utility.yul\":943:963   */\n      calldataload\n        /* \"#utility.yul\":933:963   */\n      swap1\n      pop\n        /* \"#utility.yul\":986:1004   */\n      0xffffffffffffffff\n        /* \"#utility.yul\":978:984   */\n      dup2\n        /* \"#utility.yul\":975:1005   */\n      gt\n        /* \"#utility.yul\":972:1089   */\n      iszero\n      tag_215\n      jumpi\n        /* \"#utility.yul\":1008:1087   */\n      tag_216\n      tag_151\n      jump\t// in\n    tag_216:\n        /* \"#utility.yul\":972:1089   */\n    tag_215:\n        /* \"#utility.yul\":1122:1126   */\n      0x20\n        /* \"#utility.yul\":1114:1120   */\n      dup4\n        /* \"#utility.yul\":1110:1127   */\n      add\n        /* \"#utility.yul\":1098:1127   */\n      swap2\n      pop\n        /* \"#utility.yul\":1176:1179   */\n      dup4\n        /* \"#utility.yul\":1168:1172   */\n      0x01\n        /* \"#utility.yul\":1160:1166   */\n      dup3\n        /* \"#utility.yul\":1156:1173   */\n      mul\n        /* \"#utility.yul\":1146:1154   */\n      dup4\n        /* \"#utility.yul\":1142:1174   */\n      add\n        /* \"#utility.yul\":1139:1180   */\n      gt\n        /* \"#utility.yul\":1136:1264   */\n      iszero\n      tag_217\n      jumpi\n        /* \"#utility.yul\":1183:1262   */\n      tag_218\n      tag_152\n      jump\t// in\n    tag_218:\n        /* \"#utility.yul\":1136:1264   */\n    tag_217:\n        /* \"#utility.yul\":717:1270   */\n      swap3\n      pop\n      swap3\n      swap1\n      pop\n      jump\t// out\n        /* \"#utility.yul\":1276:1805   */\n    tag_15:\n        /* \"#utility.yul\":1347:1353   */\n      0x00\n        /* \"#utility.yul\":1355:1361   */\n      0x00\n        /* \"#utility.yul\":1404:1406   */\n      0x20\n        /* \"#utility.yul\":1392:1401   */\n      dup4\n        /* \"#utility.yul\":1383:1390   */\n      dup6\n        /* \"#utility.yul\":1379:1402   */\n      sub\n        /* \"#utility.yul\":1375:1407   */\n      slt\n        /* \"#utility.yul\":1372:1491   */\n      iszero\n      tag_220\n      jumpi\n        /* \"#utility.yul\":1410:1489   */\n      tag_221\n      tag_148\n      jump\t// in\n    tag_221:\n        /* \"#utility.yul\":1372:1491   */\n    tag_220:\n        /* \"#utility.yul\":1558:1559   */\n      0x00\n        /* \"#utility.yul\":1547:1556   */\n      dup4\n        /* \"#utility.yul\":1543:1560   */\n      add\n        /* \"#utility.yul\":1530:1561   */\n      calldataload\n        /* \"#utility.yul\":1588:1606   */\n      0xffffffffffffffff\n        /* \"#utility.yul\":1580:1586   */\n      dup2\n        /* \"#utility.yul\":1577:1607   */\n      gt\n        /* \"#utility.yul\":1574:1691   */\n      iszero\n      tag_222\n      jumpi\n        /* \"#utility.yul\":1610:1689   */\n      tag_223\n      tag_149\n      jump\t// in\n    tag_223:\n        /* \"#utility.yul\":1574:1691   */\n    tag_222:\n        /* \"#utility.yul\":1723:1788   */\n      tag_224\n        /* \"#utility.yul\":1780:1787   */\n      dup6\n        /* \"#utility.yul\":1771:1777   */\n      dup3\n        /* \"#utility.yul\":1760:1769   */\n      dup7\n        /* \"#utility.yul\":1756:1778   */\n      add\n        /* \"#utility.yul\":1723:1788   */\n      tag_153\n      jump\t// in\n    tag_224:\n        /* \"#utility.yul\":1705:1788   */\n      swap3\n      pop\n      swap3\n      pop\n        /* \"#utility.yul\":1501:1798   */\n      pop\n        /* \"#utility.yul\":1276:1805   */\n      swap3\n      pop\n      swap3\n      swap1\n      pop\n      jump\t// out\n        /* \"#utility.yul\":1811:1888   */\n    tag_154:\n        /* \"#utility.yul\":1848:1855   */\n      0x00\n        /* \"#utility.yul\":1877:1882   */\n      dup2\n        /* \"#utility.yul\":1866:1882   */\n      swap1\n      pop\n        /* \"#utility.yul\":1811:1888   */\n      swap2\n      swap1\n      pop\n      jump\t// out\n        /* \"#utility.yul\":1894:2016   */\n    tag_155:\n        /* \"#utility.yul\":1967:1991   */\n      tag_227\n        /* \"#utility.yul\":1985:1990   */\n      dup2\n        /* \"#utility.yul\":1967:1991   */\n      tag_154\n      jump\t// in\n    tag_227:\n        /* \"#utility.yul\":1960:1965   */\n      dup2\n        /* \"#utility.yul\":1957:1992   */\n      eq\n        /* \"#utility.yul\":1947:2010   */\n      tag_228\n      jumpi\n        /* \"#utility.yul\":2006:2007   */\n      0x00\n        /* \"#utility.yul\":2003:2004   */\n      0x00\n        /* \"#utility.yul\":1996:2008   */\n      revert\n        /* \"#utility.yul\":1947:2010   */\n    tag_228:\n        /* \"#utility.yul\":1894:2016   */\n      pop\n      jump\t// out\n        /* \"#utility.yul\":2022:2161   */\n    tag_156:\n        /* \"#utility.yul\":2068:2073   */\n      0x00\n        /* \"#utility.yul\":2106:2112   */\n      dup2\n        /* \"#utility.yul\":2093:2113   */\n      calldataload\n        /* \"#utility.yul\":2084:2113   */\n      swap1\n      pop\n        /* \"#utility.yul\":2122:2155   */\n      tag_230\n        /* \"#utility.yul\":2149:2154   */\n      dup2\n        /* \"#utility.yul\":2122:2155   */\n      tag_155\n      jump\t// in\n    tag_230:\n        /* \"#utility.yul\":2022:2161   */\n      swap3\n      swap2\n      pop\n      pop\n      jump\t// out\n        /* \"#utility.yul\":2167:2496   */\n    tag_19:\n        /* \"#utility.yul\":2226:2232   */\n      0x00\n        /* \"#utility.yul\":2275:2277   */\n      0x20\n        /* \"#utility.yul\":2263:2272   */\n      dup3\n        /* \"#utility.yul\":2254:2261   */\n      dup5\n        /* \"#utility.yul\":2250:2273   */\n      sub\n        /* \"#utility.yul\":2246:2278   */\n      slt\n        /* \"#utility.yul\":2243:2362   */\n      iszero\n      tag_232\n      jumpi\n        /* \"#utility.yul\":2281:2360   */\n      tag_233\n      tag_148\n      jump\t// in\n    tag_233:\n        /* \"#utility.yul\":2243:2362   */\n    tag_232:\n        /* \"#utility.yul\":2401:2402   */\n      0x00\n        /* \"#utility.yul\":2426:2479   */\n      tag_234\n        /* \"#utility.yul\":2471:2478   */\n      dup5\n        /* \"#utility.yul\":2462:2468   */\n      dup3\n        /* \"#utility.yul\":2451:2460   */\n      dup6\n        /* \"#utility.yul\":2447:2469   */\n      add\n        /* \"#utility.yul\":2426:2479   */\n      tag_156\n      jump\t// in\n    tag_234:\n        /* \"#utility.yul\":2416:2479   */\n      swap2\n      pop\n        /* \"#utility.yul\":2372:2489   */\n      pop\n        /* \"#utility.yul\":2167:2496   */\n      swap3\n      swap2\n      pop\n      pop\n      jump\t// out\n        /* \"#utility.yul\":2502:2620   */\n    tag_157:\n        /* \"#utility.yul\":2589:2613   */\n      tag_236\n        /* \"#utility.yul\":2607:2612   */\n      dup2\n        /* \"#utility.yul\":2589:2613   */\n      tag_154\n      jump\t// in\n    tag_236:\n        /* \"#utility.yul\":2584:2587   */\n      dup3\n        /* \"#utility.yul\":2577:2614   */\n      mstore\n        /* \"#utility.yul\":2502:2620   */\n      pop\n      pop\n      jump\t// out\n        /* \"#utility.yul\":2626:2725   */\n    tag_158:\n        /* \"#utility.yul\":2678:2684   */\n      0x00\n        /* \"#utility.yul\":2712:2717   */\n      dup2\n        /* \"#utility.yul\":2706:2718   */\n      mload\n        /* \"#utility.yul\":2696:2718   */\n      swap1\n      pop\n        /* \"#utility.yul\":2626:2725   */\n      swap2\n      swap1\n      pop\n      jump\t// out\n        /* \"#utility.yul\":2731:2900   */\n    tag_159:\n        /* \"#utility.yul\":2815:2826   */\n      0x00\n        /* \"#utility.yul\":2849:2855   */\n      dup3\n        /* \"#utility.yul\":2844:2847   */\n      dup3\n        /* \"#utility.yul\":2837:2856   */\n      mstore\n        /* \"#utility.yul\":2889:2893   */\n      0x20\n        /* \"#utility.yul\":2884:2887   */\n      dup3\n        /* \"#utility.yul\":2880:2894   */\n      add\n        /* \"#utility.yul\":2865:2894   */\n      swap1\n      pop\n        /* \"#utility.yul\":2731:2900   */\n      swap3\n      swap2\n      pop\n      pop\n      jump\t// out\n        /* \"#utility.yul\":2906:3045   */\n    tag_160:\n        /* \"#utility.yul\":2995:3001   */\n      dup3\n        /* \"#utility.yul\":2990:2993   */\n      dup2\n        /* \"#utility.yul\":2985:2988   */\n      dup4\n        /* \"#utility.yul\":2979:3002   */\n      mcopy\n        /* \"#utility.yul\":3036:3037   */\n      0x00\n        /* \"#utility.yul\":3027:3033   */\n      dup4\n        /* \"#utility.yul\":3022:3025   */\n      dup4\n        /* \"#utility.yul\":3018:3034   */\n      add\n        /* \"#utility.yul\":3011:3038   */\n      mstore\n        /* \"#utility.yul\":2906:3045   */\n      pop\n      pop\n      pop\n      jump\t// out\n        /* \"#utility.yul\":3051:3153   */\n    tag_161:\n        /* \"#utility.yul\":3092:3098   */\n      0x00\n        /* \"#utility.yul\":3143:3145   */\n      0x1f\n        /* \"#utility.yul\":3139:3146   */\n      not\n        /* \"#utility.yul\":3134:3136   */\n      0x1f\n        /* \"#utility.yul\":3127:3132   */\n      dup4\n        /* \"#utility.yul\":3123:3137   */\n      add\n        /* \"#utility.yul\":3119:3147   */\n      and\n        /* \"#utility.yul\":3109:3147   */\n      swap1\n      pop\n        /* \"#utility.yul\":3051:3153   */\n      swap2\n      swap1\n      pop\n      jump\t// out\n        /* \"#utility.yul\":3159:3536   */\n    tag_162:\n        /* \"#utility.yul\":3247:3250   */\n      0x00\n        /* \"#utility.yul\":3275:3314   */\n      tag_242\n        /* \"#utility.yul\":3308:3313   */\n      dup3\n        /* \"#utility.yul\":3275:3314   */\n      tag_158\n      jump\t// in\n    tag_242:\n        /* \"#utility.yul\":3330:3401   */\n      tag_243\n        /* \"#utility.yul\":3394:3400   */\n      dup2\n        /* \"#utility.yul\":3389:3392   */\n      dup6\n        /* \"#utility.yul\":3330:3401   */\n      tag_159\n      jump\t// in\n    tag_243:\n        /* \"#utility.yul\":3323:3401   */\n      swap4\n      pop\n        /* \"#utility.yul\":3410:3475   */\n      tag_244\n        /* \"#utility.yul\":3468:3474   */\n      dup2\n        /* \"#utility.yul\":3463:3466   */\n      dup6\n        /* \"#utility.yul\":3456:3460   */\n      0x20\n        /* \"#utility.yul\":3449:3454   */\n      dup7\n        /* \"#utility.yul\":3445:3461   */\n      add\n        /* \"#utility.yul\":3410:3475   */\n      tag_160\n      jump\t// in\n    tag_244:\n        /* \"#utility.yul\":3500:3529   */\n      tag_245\n        /* \"#utility.yul\":3522:3528   */\n      dup2\n        /* \"#utility.yul\":3500:3529   */\n      tag_161\n      jump\t// in\n    tag_245:\n        /* \"#utility.yul\":3495:3498   */\n      dup5\n        /* \"#utility.yul\":3491:3530   */\n      add\n        /* \"#utility.yul\":3484:3530   */\n      swap2\n      pop\n        /* \"#utility.yul\":3251:3536   */\n      pop\n        /* \"#utility.yul\":3159:3536   */\n      swap3\n      swap2\n      pop\n      pop\n      jump\t// out\n        /* \"#utility.yul\":3542:3632   */\n    tag_163:\n        /* \"#utility.yul\":3576:3583   */\n      0x00\n        /* \"#utility.yul\":3619:3624   */\n      dup2\n        /* \"#utility.yul\":3612:3625   */\n      iszero\n        /* \"#utility.yul\":3605:3626   */\n      iszero\n        /* \"#utility.yul\":3594:3626   */\n      swap1\n      pop\n        /* \"#utility.yul\":3542:3632   */\n      swap2\n      swap1\n      pop\n      jump\t// out\n        /* \"#utility.yul\":3638:3747   */\n    tag_164:\n        /* \"#utility.yul\":3719:3740   */\n      tag_248\n        /* \"#utility.yul\":3734:3739   */\n      dup2\n        /* \"#utility.yul\":3719:3740   */\n      tag_163\n      jump\t// in\n    tag_248:\n        /* \"#utility.yul\":3714:3717   */\n      dup3\n        /* \"#utility.yul\":3707:3741   */\n      mstore\n        /* \"#utility.yul\":3638:3747   */\n      pop\n      pop\n      jump\t// out\n        /* \"#utility.yul\":3753:4274   */\n    tag_22:\n        /* \"#utility.yul\":3916:3920   */\n      0x00\n        /* \"#utility.yul\":3954:3956   */\n      0x60\n        /* \"#utility.yul\":3943:3952   */\n      dup3\n        /* \"#utility.yul\":3939:3957   */\n      add\n        /* \"#utility.yul\":3931:3957   */\n      swap1\n      pop\n        /* \"#utility.yul\":3967:4038   */\n      tag_250\n        /* \"#utility.yul\":4035:4036   */\n      0x00\n        /* \"#utility.yul\":4024:4033   */\n      dup4\n        /* \"#utility.yul\":4020:4037   */\n      add\n        /* \"#utility.yul\":4011:4017   */\n      dup7\n        /* \"#utility.yul\":3967:4038   */\n      tag_157\n      jump\t// in\n    tag_250:\n        /* \"#utility.yul\":4085:4094   */\n      dup2\n        /* \"#utility.yul\":4079:4083   */\n      dup2\n        /* \"#utility.yul\":4075:4095   */\n      sub\n        /* \"#utility.yul\":4070:4072   */\n      0x20\n        /* \"#utility.yul\":4059:4068   */\n      dup4\n        /* \"#utility.yul\":4055:4073   */\n      add\n        /* \"#utility.yul\":4048:4096   */\n      mstore\n        /* \"#utility.yul\":4113:4191   */\n      tag_251\n        /* \"#utility.yul\":4186:4190   */\n      dup2\n        /* \"#utility.yul\":4177:4183   */\n      dup6\n        /* \"#utility.yul\":4113:4191   */\n      tag_162\n      jump\t// in\n    tag_251:\n        /* \"#utility.yul\":4105:4191   */\n      swap1\n      pop\n        /* \"#utility.yul\":4201:4267   */\n      tag_252\n        /* \"#utility.yul\":4263:4265   */\n      0x40\n        /* \"#utility.yul\":4252:4261   */\n      dup4\n        /* \"#utility.yul\":4248:4266   */\n      add\n        /* \"#utility.yul\":4239:4245   */\n      dup5\n        /* \"#utility.yul\":4201:4267   */\n      tag_164\n      jump\t// in\n    tag_252:\n        /* \"#utility.yul\":3753:4274   */\n      swap5\n      swap4\n      pop\n      pop\n      pop\n      pop\n      jump\t// out\n        /* \"#utility.yul\":4280:4413   */\n    tag_165:\n        /* \"#utility.yul\":4366:4372   */\n      0x00\n        /* \"#utility.yul\":4400:4405   */\n      dup2\n        /* \"#utility.yul\":4394:4406   */\n      mload\n        /* \"#utility.yul\":4384:4406   */\n      swap1\n      pop\n        /* \"#utility.yul\":4280:4413   */\n      swap2\n      swap1\n      pop\n      jump\t// out\n        /* \"#utility.yul\":4419:4622   */\n    tag_166:\n        /* \"#utility.yul\":4537:4548   */\n      0x00\n        /* \"#utility.yul\":4571:4577   */\n      dup3\n        /* \"#utility.yul\":4566:4569   */\n      dup3\n        /* \"#utility.yul\":4559:4578   */\n      mstore\n        /* \"#utility.yul\":4611:4615   */\n      0x20\n        /* \"#utility.yul\":4606:4609   */\n      dup3\n        /* \"#utility.yul\":4602:4616   */\n      add\n        /* \"#utility.yul\":4587:4616   */\n      swap1\n      pop\n        /* \"#utility.yul\":4419:4622   */\n      swap3\n      swap2\n      pop\n      pop\n      jump\t// out\n        /* \"#utility.yul\":4628:4779   */\n    tag_167:\n        /* \"#utility.yul\":4714:4718   */\n      0x00\n        /* \"#utility.yul\":4737:4740   */\n      dup2\n        /* \"#utility.yul\":4729:4740   */\n      swap1\n      pop\n        /* \"#utility.yul\":4767:4771   */\n      0x20\n        /* \"#utility.yul\":4762:4765   */\n      dup3\n        /* \"#utility.yul\":4758:4772   */\n      add\n        /* \"#utility.yul\":4750:4772   */\n      swap1\n      pop\n        /* \"#utility.yul\":4628:4779   */\n      swap2\n      swap1\n      pop\n      jump\t// out\n        /* \"#utility.yul\":4785:4893   */\n    tag_168:\n        /* \"#utility.yul\":4862:4886   */\n      tag_257\n        /* \"#utility.yul\":4880:4885   */\n      dup2\n        /* \"#utility.yul\":4862:4886   */\n      tag_154\n      jump\t// in\n    tag_257:\n        /* \"#utility.yul\":4857:4860   */\n      dup3\n        /* \"#utility.yul\":4850:4887   */\n      mstore\n        /* \"#utility.yul\":4785:4893   */\n      pop\n      pop\n      jump\t// out\n        /* \"#utility.yul\":4899:5058   */\n    tag_169:\n        /* \"#utility.yul\":4973:4984   */\n      0x00\n        /* \"#utility.yul\":5007:5013   */\n      dup3\n        /* \"#utility.yul\":5002:5005   */\n      dup3\n        /* \"#utility.yul\":4995:5014   */\n      mstore\n        /* \"#utility.yul\":5047:5051   */\n      0x20\n        /* \"#utility.yul\":5042:5045   */\n      dup3\n        /* \"#utility.yul\":5038:5052   */\n      add\n        /* \"#utility.yul\":5023:5052   */\n      swap1\n      pop\n        /* \"#utility.yul\":4899:5058   */\n      swap3\n      swap2\n      pop\n      pop\n      jump\t// out\n        /* \"#utility.yul\":5064:5421   */\n    tag_170:\n        /* \"#utility.yul\":5142:5145   */\n      0x00\n        /* \"#utility.yul\":5170:5209   */\n      tag_260\n        /* \"#utility.yul\":5203:5208   */\n      dup3\n        /* \"#utility.yul\":5170:5209   */\n      tag_158\n      jump\t// in\n    tag_260:\n        /* \"#utility.yul\":5225:5286   */\n      tag_261\n        /* \"#utility.yul\":5279:5285   */\n      dup2\n        /* \"#utility.yul\":5274:5277   */\n      dup6\n        /* \"#utility.yul\":5225:5286   */\n      tag_169\n      jump\t// in\n    tag_261:\n        /* \"#utility.yul\":5218:5286   */\n      swap4\n      pop\n        /* \"#utility.yul\":5295:5360   */\n      tag_262\n        /* \"#utility.yul\":5353:5359   */\n      dup2\n        /* \"#utility.yul\":5348:5351   */\n      dup6\n        /* \"#utility.yul\":5341:5345   */\n      0x20\n        /* \"#utility.yul\":5334:5339   */\n      dup7\n        /* \"#utility.yul\":5330:5346   */\n      add\n        /* \"#utility.yul\":5295:5360   */\n      tag_160\n      jump\t// in\n    tag_262:\n        /* \"#utility.yul\":5385:5414   */\n      tag_263\n        /* \"#utility.yul\":5407:5413   */\n      dup2\n        /* \"#utility.yul\":5385:5414   */\n      tag_161\n      jump\t// in\n    tag_263:\n        /* \"#utility.yul\":5380:5383   */\n      dup5\n        /* \"#utility.yul\":5376:5415   */\n      add\n        /* \"#utility.yul\":5369:5415   */\n      swap2\n      pop\n        /* \"#utility.yul\":5146:5421   */\n      pop\n        /* \"#utility.yul\":5064:5421   */\n      swap3\n      swap2\n      pop\n      pop\n      jump\t// out\n        /* \"#utility.yul\":5427:5526   */\n    tag_171:\n        /* \"#utility.yul\":5498:5519   */\n      tag_265\n        /* \"#utility.yul\":5513:5518   */\n      dup2\n        /* \"#utility.yul\":5498:5519   */\n      tag_163\n      jump\t// in\n    tag_265:\n        /* \"#utility.yul\":5493:5496   */\n      dup3\n        /* \"#utility.yul\":5486:5520   */\n      mstore\n        /* \"#utility.yul\":5427:5526   */\n      pop\n      pop\n      jump\t// out\n        /* \"#utility.yul\":5576:6334   */\n    tag_172:\n        /* \"#utility.yul\":5673:5676   */\n      0x00\n        /* \"#utility.yul\":5709:5713   */\n      0x60\n        /* \"#utility.yul\":5704:5707   */\n      dup4\n        /* \"#utility.yul\":5700:5714   */\n      add\n        /* \"#utility.yul\":5794:5798   */\n      0x00\n        /* \"#utility.yul\":5787:5792   */\n      dup4\n        /* \"#utility.yul\":5783:5799   */\n      add\n        /* \"#utility.yul\":5777:5800   */\n      mload\n        /* \"#utility.yul\":5813:5876   */\n      tag_267\n        /* \"#utility.yul\":5870:5874   */\n      0x00\n        /* \"#utility.yul\":5865:5868   */\n      dup7\n        /* \"#utility.yul\":5861:5875   */\n      add\n        /* \"#utility.yul\":5847:5859   */\n      dup3\n        /* \"#utility.yul\":5813:5876   */\n      tag_168\n      jump\t// in\n    tag_267:\n        /* \"#utility.yul\":5724:5886   */\n      pop\n        /* \"#utility.yul\":5971:5975   */\n      0x20\n        /* \"#utility.yul\":5964:5969   */\n      dup4\n        /* \"#utility.yul\":5960:5976   */\n      add\n        /* \"#utility.yul\":5954:5977   */\n      mload\n        /* \"#utility.yul\":6024:6027   */\n      dup5\n        /* \"#utility.yul\":6018:6022   */\n      dup3\n        /* \"#utility.yul\":6014:6028   */\n      sub\n        /* \"#utility.yul\":6007:6011   */\n      0x20\n        /* \"#utility.yul\":6002:6005   */\n      dup7\n        /* \"#utility.yul\":5998:6012   */\n      add\n        /* \"#utility.yul\":5991:6029   */\n      mstore\n        /* \"#utility.yul\":6050:6123   */\n      tag_268\n        /* \"#utility.yul\":6118:6122   */\n      dup3\n        /* \"#utility.yul\":6104:6116   */\n      dup3\n        /* \"#utility.yul\":6050:6123   */\n      tag_170\n      jump\t// in\n    tag_268:\n        /* \"#utility.yul\":6042:6123   */\n      swap2\n      pop\n        /* \"#utility.yul\":5896:6134   */\n      pop\n        /* \"#utility.yul\":6221:6225   */\n      0x40\n        /* \"#utility.yul\":6214:6219   */\n      dup4\n        /* \"#utility.yul\":6210:6226   */\n      add\n        /* \"#utility.yul\":6204:6227   */\n      mload\n        /* \"#utility.yul\":6240:6297   */\n      tag_269\n        /* \"#utility.yul\":6291:6295   */\n      0x40\n        /* \"#utility.yul\":6286:6289   */\n      dup7\n        /* \"#utility.yul\":6282:6296   */\n      add\n        /* \"#utility.yul\":6268:6280   */\n      dup3\n        /* \"#utility.yul\":6240:6297   */\n      tag_171\n      jump\t// in\n    tag_269:\n        /* \"#utility.yul\":6144:6307   */\n      pop\n        /* \"#utility.yul\":6324:6328   */\n      dup1\n        /* \"#utility.yul\":6317:6328   */\n      swap2\n      pop\n        /* \"#utility.yul\":5678:6334   */\n      pop\n        /* \"#utility.yul\":5576:6334   */\n      swap3\n      swap2\n      pop\n      pop\n      jump\t// out\n        /* \"#utility.yul\":6340:6572   */\n    tag_173:\n        /* \"#utility.yul\":6447:6457   */\n      0x00\n        /* \"#utility.yul\":6482:6566   */\n      tag_271\n        /* \"#utility.yul\":6562:6565   */\n      dup4\n        /* \"#utility.yul\":6554:6560   */\n      dup4\n        /* \"#utility.yul\":6482:6566   */\n      tag_172\n      jump\t// in\n    tag_271:\n        /* \"#utility.yul\":6468:6566   */\n      swap1\n      pop\n        /* \"#utility.yul\":6340:6572   */\n      swap3\n      swap2\n      pop\n      pop\n      jump\t// out\n        /* \"#utility.yul\":6578:6710   */\n    tag_174:\n        /* \"#utility.yul\":6667:6671   */\n      0x00\n        /* \"#utility.yul\":6699:6703   */\n      0x20\n        /* \"#utility.yul\":6694:6697   */\n      dup3\n        /* \"#utility.yul\":6690:6704   */\n      add\n        /* \"#utility.yul\":6682:6704   */\n      swap1\n      pop\n        /* \"#utility.yul\":6578:6710   */\n      swap2\n      swap1\n      pop\n      jump\t// out\n        /* \"#utility.yul\":6764:7827   */\n    tag_175:\n        /* \"#utility.yul\":6921:6924   */\n      0x00\n        /* \"#utility.yul\":6950:7023   */\n      tag_274\n        /* \"#utility.yul\":7017:7022   */\n      dup3\n        /* \"#utility.yul\":6950:7023   */\n      tag_165\n      jump\t// in\n    tag_274:\n        /* \"#utility.yul\":7039:7144   */\n      tag_275\n        /* \"#utility.yul\":7137:7143   */\n      dup2\n        /* \"#utility.yul\":7132:7135   */\n      dup6\n        /* \"#utility.yul\":7039:7144   */\n      tag_166\n      jump\t// in\n    tag_275:\n        /* \"#utility.yul\":7032:7144   */\n      swap4\n      pop\n        /* \"#utility.yul\":7170:7173   */\n      dup4\n        /* \"#utility.yul\":7215:7219   */\n      0x20\n        /* \"#utility.yul\":7207:7213   */\n      dup3\n        /* \"#utility.yul\":7203:7220   */\n      mul\n        /* \"#utility.yul\":7198:7201   */\n      dup6\n        /* \"#utility.yul\":7194:7221   */\n      add\n        /* \"#utility.yul\":7245:7320   */\n      tag_276\n        /* \"#utility.yul\":7314:7319   */\n      dup6\n        /* \"#utility.yul\":7245:7320   */\n      tag_167\n      jump\t// in\n    tag_276:\n        /* \"#utility.yul\":7343:7350   */\n      dup1\n        /* \"#utility.yul\":7374:7375   */\n      0x00\n        /* \"#utility.yul\":7359:7782   */\n    tag_277:\n        /* \"#utility.yul\":7384:7390   */\n      dup6\n        /* \"#utility.yul\":7381:7382   */\n      dup2\n        /* \"#utility.yul\":7378:7391   */\n      lt\n        /* \"#utility.yul\":7359:7782   */\n      iszero\n      tag_279\n      jumpi\n        /* \"#utility.yul\":7455:7464   */\n      dup5\n        /* \"#utility.yul\":7449:7453   */\n      dup5\n        /* \"#utility.yul\":7445:7465   */\n      sub\n        /* \"#utility.yul\":7440:7443   */\n      dup10\n        /* \"#utility.yul\":7433:7466   */\n      mstore\n        /* \"#utility.yul\":7506:7512   */\n      dup2\n        /* \"#utility.yul\":7500:7513   */\n      mload\n        /* \"#utility.yul\":7534:7636   */\n      tag_280\n        /* \"#utility.yul\":7631:7635   */\n      dup6\n        /* \"#utility.yul\":7616:7629   */\n      dup3\n        /* \"#utility.yul\":7534:7636   */\n      tag_173\n      jump\t// in\n    tag_280:\n        /* \"#utility.yul\":7526:7636   */\n      swap5\n      pop\n        /* \"#utility.yul\":7659:7738   */\n      tag_281\n        /* \"#utility.yul\":7731:7737   */\n      dup4\n        /* \"#utility.yul\":7659:7738   */\n      tag_174\n      jump\t// in\n    tag_281:\n        /* \"#utility.yul\":7649:7738   */\n      swap3\n      pop\n        /* \"#utility.yul\":7767:7771   */\n      0x20\n        /* \"#utility.yul\":7762:7765   */\n      dup11\n        /* \"#utility.yul\":7758:7772   */\n      add\n        /* \"#utility.yul\":7751:7772   */\n      swap10\n      pop\n        /* \"#utility.yul\":7419:7782   */\n      pop\n        /* \"#utility.yul\":7406:7407   */\n      0x01\n        /* \"#utility.yul\":7403:7404   */\n      dup2\n        /* \"#utility.yul\":7399:7408   */\n      add\n        /* \"#utility.yul\":7394:7408   */\n      swap1\n      pop\n        /* \"#utility.yul\":7359:7782   */\n      jump(tag_277)\n    tag_279:\n        /* \"#utility.yul\":7363:7377   */\n      pop\n        /* \"#utility.yul\":7798:7802   */\n      dup3\n        /* \"#utility.yul\":7791:7802   */\n      swap8\n      pop\n        /* \"#utility.yul\":7818:7821   */\n      dup8\n        /* \"#utility.yul\":7811:7821   */\n      swap6\n      pop\n        /* \"#utility.yul\":6926:7827   */\n      pop\n      pop\n      pop\n      pop\n      pop\n        /* \"#utility.yul\":6764:7827   */\n      swap3\n      swap2\n      pop\n      pop\n      jump\t// out\n        /* \"#utility.yul\":7833:8282   */\n    tag_32:\n        /* \"#utility.yul\":8014:8018   */\n      0x00\n        /* \"#utility.yul\":8052:8054   */\n      0x20\n        /* \"#utility.yul\":8041:8050   */\n      dup3\n        /* \"#utility.yul\":8037:8055   */\n      add\n        /* \"#utility.yul\":8029:8055   */\n      swap1\n      pop\n        /* \"#utility.yul\":8101:8110   */\n      dup2\n        /* \"#utility.yul\":8095:8099   */\n      dup2\n        /* \"#utility.yul\":8091:8111   */\n      sub\n        /* \"#utility.yul\":8087:8088   */\n      0x00\n        /* \"#utility.yul\":8076:8085   */\n      dup4\n        /* \"#utility.yul\":8072:8089   */\n      add\n        /* \"#utility.yul\":8065:8112   */\n      mstore\n        /* \"#utility.yul\":8129:8275   */\n      tag_283\n        /* \"#utility.yul\":8270:8274   */\n      dup2\n        /* \"#utility.yul\":8261:8267   */\n      dup5\n        /* \"#utility.yul\":8129:8275   */\n      tag_175\n      jump\t// in\n    tag_283:\n        /* \"#utility.yul\":8121:8275   */\n      swap1\n      pop\n        /* \"#utility.yul\":7833:8282   */\n      swap3\n      swap2\n      pop\n      pop\n      jump\t// out\n        /* \"#utility.yul\":8288:8414   */\n    tag_176:\n        /* \"#utility.yul\":8325:8332   */\n      0x00\n        /* \"#utility.yul\":8365:8407   */\n      0xffffffffffffffffffffffffffffffffffffffff\n        /* \"#utility.yul\":8358:8363   */\n      dup3\n        /* \"#utility.yul\":8354:8408   */\n      and\n        /* \"#utility.yul\":8343:8408   */\n      swap1\n      pop\n        /* \"#utility.yul\":8288:8414   */\n      swap2\n      swap1\n      pop\n      jump\t// out\n        /* \"#utility.yul\":8420:8516   */\n    tag_177:\n        /* \"#utility.yul\":8457:8464   */\n      0x00\n        /* \"#utility.yul\":8486:8510   */\n      tag_286\n        /* \"#utility.yul\":8504:8509   */\n      dup3\n        /* \"#utility.yul\":8486:8510   */\n      tag_176\n      jump\t// in\n    tag_286:\n        /* \"#utility.yul\":8475:8510   */\n      swap1\n      pop\n        /* \"#utility.yul\":8420:8516   */\n      swap2\n      swap1\n      pop\n      jump\t// out\n        /* \"#utility.yul\":8522:8640   */\n    tag_178:\n        /* \"#utility.yul\":8609:8633   */\n      tag_288\n        /* \"#utility.yul\":8627:8632   */\n      dup2\n        /* \"#utility.yul\":8609:8633   */\n      tag_177\n      jump\t// in\n    tag_288:\n        /* \"#utility.yul\":8604:8607   */\n      dup3\n        /* \"#utility.yul\":8597:8634   */\n      mstore\n        /* \"#utility.yul\":8522:8640   */\n      pop\n      pop\n      jump\t// out\n        /* \"#utility.yul\":8646:8868   */\n    tag_40:\n        /* \"#utility.yul\":8739:8743   */\n      0x00\n        /* \"#utility.yul\":8777:8779   */\n      0x20\n        /* \"#utility.yul\":8766:8775   */\n      dup3\n        /* \"#utility.yul\":8762:8780   */\n      add\n        /* \"#utility.yul\":8754:8780   */\n      swap1\n      pop\n        /* \"#utility.yul\":8790:8861   */\n      tag_290\n        /* \"#utility.yul\":8858:8859   */\n      0x00\n        /* \"#utility.yul\":8847:8856   */\n      dup4\n        /* \"#utility.yul\":8843:8860   */\n      add\n        /* \"#utility.yul\":8834:8840   */\n      dup5\n        /* \"#utility.yul\":8790:8861   */\n      tag_178\n      jump\t// in\n    tag_290:\n        /* \"#utility.yul\":8646:8868   */\n      swap3\n      swap2\n      pop\n      pop\n      jump\t// out\n        /* \"#utility.yul\":8874:9548   */\n    tag_43:\n        /* \"#utility.yul\":8954:8960   */\n      0x00\n        /* \"#utility.yul\":8962:8968   */\n      0x00\n        /* \"#utility.yul\":8970:8976   */\n      0x00\n        /* \"#utility.yul\":9019:9021   */\n      0x40\n        /* \"#utility.yul\":9007:9016   */\n      dup5\n        /* \"#utility.yul\":8998:9005   */\n      dup7\n        /* \"#utility.yul\":8994:9017   */\n      sub\n        /* \"#utility.yul\":8990:9022   */\n      slt\n        /* \"#utility.yul\":8987:9106   */\n      iszero\n      tag_292\n      jumpi\n        /* \"#utility.yul\":9025:9104   */\n      tag_293\n      tag_148\n      jump\t// in\n    tag_293:\n        /* \"#utility.yul\":8987:9106   */\n    tag_292:\n        /* \"#utility.yul\":9145:9146   */\n      0x00\n        /* \"#utility.yul\":9170:9223   */\n      tag_294\n        /* \"#utility.yul\":9215:9222   */\n      dup7\n        /* \"#utility.yul\":9206:9212   */\n      dup3\n        /* \"#utility.yul\":9195:9204   */\n      dup8\n        /* \"#utility.yul\":9191:9213   */\n      add\n        /* \"#utility.yul\":9170:9223   */\n      tag_156\n      jump\t// in\n    tag_294:\n        /* \"#utility.yul\":9160:9223   */\n      swap4\n      pop\n        /* \"#utility.yul\":9116:9233   */\n      pop\n        /* \"#utility.yul\":9300:9302   */\n      0x20\n        /* \"#utility.yul\":9289:9298   */\n      dup5\n        /* \"#utility.yul\":9285:9303   */\n      add\n        /* \"#utility.yul\":9272:9304   */\n      calldataload\n        /* \"#utility.yul\":9331:9349   */\n      0xffffffffffffffff\n        /* \"#utility.yul\":9323:9329   */\n      dup2\n        /* \"#utility.yul\":9320:9350   */\n      gt\n        /* \"#utility.yul\":9317:9434   */\n      iszero\n      tag_295\n      jumpi\n        /* \"#utility.yul\":9353:9432   */\n      tag_296\n      tag_149\n      jump\t// in\n    tag_296:\n        /* \"#utility.yul\":9317:9434   */\n    tag_295:\n        /* \"#utility.yul\":9466:9531   */\n      tag_297\n        /* \"#utility.yul\":9523:9530   */\n      dup7\n        /* \"#utility.yul\":9514:9520   */\n      dup3\n        /* \"#utility.yul\":9503:9512   */\n      dup8\n        /* \"#utility.yul\":9499:9521   */\n      add\n        /* \"#utility.yul\":9466:9531   */\n      tag_153\n      jump\t// in\n    tag_297:\n        /* \"#utility.yul\":9448:9531   */\n      swap3\n      pop\n      swap3\n      pop\n        /* \"#utility.yul\":9243:9541   */\n      pop\n        /* \"#utility.yul\":8874:9548   */\n      swap3\n      pop\n      swap3\n      pop\n      swap3\n      jump\t// out\n        /* \"#utility.yul\":9554:9776   */\n    tag_48:\n        /* \"#utility.yul\":9647:9651   */\n      0x00\n        /* \"#utility.yul\":9685:9687   */\n      0x20\n        /* \"#utility.yul\":9674:9683   */\n      dup3\n        /* \"#utility.yul\":9670:9688   */\n      add\n        /* \"#utility.yul\":9662:9688   */\n      swap1\n      pop\n        /* \"#utility.yul\":9698:9769   */\n      tag_299\n        /* \"#utility.yul\":9766:9767   */\n      0x00\n        /* \"#utility.yul\":9755:9764   */\n      dup4\n        /* \"#utility.yul\":9751:9768   */\n      add\n        /* \"#utility.yul\":9742:9748   */\n      dup5\n        /* \"#utility.yul\":9698:9769   */\n      tag_157\n      jump\t// in\n    tag_299:\n        /* \"#utility.yul\":9554:9776   */\n      swap3\n      swap2\n      pop\n      pop\n      jump\t// out\n        /* \"#utility.yul\":9782:9962   */\n    tag_179:\n        /* \"#utility.yul\":9922:9954   */\n      0x546f446f203a2043616c6c6572206973206e6f7420746865204f776e65720000\n        /* \"#utility.yul\":9918:9919   */\n      0x00\n        /* \"#utility.yul\":9910:9916   */\n      dup3\n        /* \"#utility.yul\":9906:9920   */\n      add\n        /* \"#utility.yul\":9899:9955   */\n      mstore\n        /* \"#utility.yul\":9782:9962   */\n      pop\n      jump\t// out\n        /* \"#utility.yul\":9968:10334   */\n    tag_180:\n        /* \"#utility.yul\":10110:10113   */\n      0x00\n        /* \"#utility.yul\":10131:10198   */\n      tag_302\n        /* \"#utility.yul\":10195:10197   */\n      0x1e\n        /* \"#utility.yul\":10190:10193   */\n      dup4\n        /* \"#utility.yul\":10131:10198   */\n      tag_159\n      jump\t// in\n    tag_302:\n        /* \"#utility.yul\":10124:10198   */\n      swap2\n      pop\n        /* \"#utility.yul\":10207:10300   */\n      tag_303\n        /* \"#utility.yul\":10296:10299   */\n      dup3\n        /* \"#utility.yul\":10207:10300   */\n      tag_179\n      jump\t// in\n    tag_303:\n        /* \"#utility.yul\":10325:10327   */\n      0x20\n        /* \"#utility.yul\":10320:10323   */\n      dup3\n        /* \"#utility.yul\":10316:10328   */\n      add\n        /* \"#utility.yul\":10309:10328   */\n      swap1\n      pop\n        /* \"#utility.yul\":9968:10334   */\n      swap2\n      swap1\n      pop\n      jump\t// out\n        /* \"#utility.yul\":10340:10759   */\n    tag_52:\n        /* \"#utility.yul\":10506:10510   */\n      0x00\n        /* \"#utility.yul\":10544:10546   */\n      0x20\n        /* \"#utility.yul\":10533:10542   */\n      dup3\n        /* \"#utility.yul\":10529:10547   */\n      add\n        /* \"#utility.yul\":10521:10547   */\n      swap1\n      pop\n        /* \"#utility.yul\":10593:10602   */\n      dup2\n        /* \"#utility.yul\":10587:10591   */\n      dup2\n        /* \"#utility.yul\":10583:10603   */\n      sub\n        /* \"#utility.yul\":10579:10580   */\n      0x00\n        /* \"#utility.yul\":10568:10577   */\n      dup4\n        /* \"#utility.yul\":10564:10581   */\n      add\n        /* \"#utility.yul\":10557:10604   */\n      mstore\n        /* \"#utility.yul\":10621:10752   */\n      tag_305\n        /* \"#utility.yul\":10747:10751   */\n      dup2\n        /* \"#utility.yul\":10621:10752   */\n      tag_180\n      jump\t// in\n    tag_305:\n        /* \"#utility.yul\":10613:10752   */\n      swap1\n      pop\n        /* \"#utility.yul\":10340:10759   */\n      swap2\n      swap1\n      pop\n      jump\t// out\n        /* \"#utility.yul\":10765:10945   */\n    tag_181:\n        /* \"#utility.yul\":10905:10937   */\n      0x546f446f203a20436f6e74656e742063616e6e6f7420626520656d7074790000\n        /* \"#utility.yul\":10901:10902   */\n      0x00\n        /* \"#utility.yul\":10893:10899   */\n      dup3\n        /* \"#utility.yul\":10889:10903   */\n      add\n        /* \"#utility.yul\":10882:10938   */\n      mstore\n        /* \"#utility.yul\":10765:10945   */\n      pop\n      jump\t// out\n        /* \"#utility.yul\":10951:11317   */\n    tag_182:\n        /* \"#utility.yul\":11093:11096   */\n      0x00\n        /* \"#utility.yul\":11114:11181   */\n      tag_308\n        /* \"#utility.yul\":11178:11180   */\n      0x1e\n        /* \"#utility.yul\":11173:11176   */\n      dup4\n        /* \"#utility.yul\":11114:11181   */\n      tag_159\n      jump\t// in\n    tag_308:\n        /* \"#utility.yul\":11107:11181   */\n      swap2\n      pop\n        /* \"#utility.yul\":11190:11283   */\n      tag_309\n        /* \"#utility.yul\":11279:11282   */\n      dup3\n        /* \"#utility.yul\":11190:11283   */\n      tag_181\n      jump\t// in\n    tag_309:\n        /* \"#utility.yul\":11308:11310   */\n      0x20\n        /* \"#utility.yul\":11303:11306   */\n      dup3\n        /* \"#utility.yul\":11299:11311   */\n      add\n        /* \"#utility.yul\":11292:11311   */\n      swap1\n      pop\n        /* \"#utility.yul\":10951:11317   */\n      swap2\n      swap1\n      pop\n      jump\t// out\n        /* \"#utility.yul\":11323:11742   */\n    tag_56:\n        /* \"#utility.yul\":11489:11493   */\n      0x00\n        /* \"#utility.yul\":11527:11529   */\n      0x20\n        /* \"#utility.yul\":11516:11525   */\n      dup3\n        /* \"#utility.yul\":11512:11530   */\n      add\n        /* \"#utility.yul\":11504:11530   */\n      swap1\n      pop\n        /* \"#utility.yul\":11576:11585   */\n      dup2\n        /* \"#utility.yul\":11570:11574   */\n      dup2\n        /* \"#utility.yul\":11566:11586   */\n      sub\n        /* \"#utility.yul\":11562:11563   */\n      0x00\n        /* \"#utility.yul\":11551:11560   */\n      dup4\n        /* \"#utility.yul\":11547:11564   */\n      add\n        /* \"#utility.yul\":11540:11587   */\n      mstore\n        /* \"#utility.yul\":11604:11735   */\n      tag_311\n        /* \"#utility.yul\":11730:11734   */\n      dup2\n        /* \"#utility.yul\":11604:11735   */\n      tag_182\n      jump\t// in\n    tag_311:\n        /* \"#utility.yul\":11596:11735   */\n      swap1\n      pop\n        /* \"#utility.yul\":11323:11742   */\n      swap2\n      swap1\n      pop\n      jump\t// out\n        /* \"#utility.yul\":11748:11928   */\n    tag_183:\n        /* \"#utility.yul\":11796:11873   */\n      0x4e487b7100000000000000000000000000000000000000000000000000000000\n        /* \"#utility.yul\":11793:11794   */\n      0x00\n        /* \"#utility.yul\":11786:11874   */\n      mstore\n        /* \"#utility.yul\":11893:11897   */\n      0x11\n        /* \"#utility.yul\":11890:11891   */\n      0x04\n        /* \"#utility.yul\":11883:11898   */\n      mstore\n        /* \"#utility.yul\":11917:11921   */\n      0x24\n        /* \"#utility.yul\":11914:11915   */\n      0x00\n        /* \"#utility.yul\":11907:11922   */\n      revert\n        /* \"#utility.yul\":11934:12167   */\n    tag_58:\n        /* \"#utility.yul\":11973:11976   */\n      0x00\n        /* \"#utility.yul\":11996:12020   */\n      tag_314\n        /* \"#utility.yul\":12014:12019   */\n      dup3\n        /* \"#utility.yul\":11996:12020   */\n      tag_154\n      jump\t// in\n    tag_314:\n        /* \"#utility.yul\":11987:12020   */\n      swap2\n      pop\n        /* \"#utility.yul\":12042:12108   */\n      0xffffffffffffffffffffffffffffffffffffffffffffffffffffffffffffffff\n        /* \"#utility.yul\":12035:12040   */\n      dup3\n        /* \"#utility.yul\":12032:12109   */\n      sub\n        /* \"#utility.yul\":12029:12132   */\n      tag_315\n      jumpi\n        /* \"#utility.yul\":12112:12130   */\n      tag_316\n      tag_183\n      jump\t// in\n    tag_316:\n        /* \"#utility.yul\":12029:12132   */\n    tag_315:\n        /* \"#utility.yul\":12159:12160   */\n      0x01\n        /* \"#utility.yul\":12152:12157   */\n      dup3\n        /* \"#utility.yul\":12148:12161   */\n      add\n        /* \"#utility.yul\":12141:12161   */\n      swap1\n      pop\n        /* \"#utility.yul\":11934:12167   */\n      swap2\n      swap1\n      pop\n      jump\t// out\n        /* \"#utility.yul\":12173:12353   */\n    tag_99:\n        /* \"#utility.yul\":12221:12298   */\n      0x4e487b7100000000000000000000000000000000000000000000000000000000\n        /* \"#utility.yul\":12218:12219   */\n      0x00\n        /* \"#utility.yul\":12211:12299   */\n      mstore\n        /* \"#utility.yul\":12318:12322   */\n      0x41\n        /* \"#utility.yul\":12315:12316   */\n      0x04\n        /* \"#utility.yul\":12308:12323   */\n      mstore\n        /* \"#utility.yul\":12342:12346   */\n      0x24\n        /* \"#utility.yul\":12339:12340   */\n      0x00\n        /* \"#utility.yul\":12332:12347   */\n      revert\n        /* \"#utility.yul\":12359:12539   */\n    tag_184:\n        /* \"#utility.yul\":12407:12484   */\n      0x4e487b7100000000000000000000000000000000000000000000000000000000\n        /* \"#utility.yul\":12404:12405   */\n      0x00\n        /* \"#utility.yul\":12397:12485   */\n      mstore\n        /* \"#utility.yul\":12504:12508   */\n      0x22\n        /* \"#utility.yul\":12501:12502   */\n      0x04\n        /* \"#utility.yul\":12494:12509   */\n      mstore\n        /* \"#utility.yul\":12528:12532   */\n      0x24\n        /* \"#utility.yul\":12525:12526   */\n      0x00\n        /* \"#utility.yul\":12518:12533   */\n      revert\n        /* \"#utility.yul\":12545:12865   */\n    tag_68:\n        /* \"#utility.yul\":12589:12595   */\n      0x00\n        /* \"#utility.yul\":12626:12627   */\n      0x02\n        /* \"#utility.yul\":12620:12624   */\n      dup3\n        /* \"#utility.yul\":12616:12628   */\n      div\n        /* \"#utility.yul\":12606:12628   */\n      swap1\n      pop\n        /* \"#utility.yul\":12673:12674   */\n      0x01\n        /* \"#utility.yul\":12667:12671   */\n      dup3\n        /* \"#utility.yul\":12663:12675   */\n      and\n        /* \"#utility.yul\":12694:12712   */\n      dup1\n        /* \"#utility.yul\":12684:12765   */\n      tag_320\n      jumpi\n        /* \"#utility.yul\":12750:12754   */\n      0x7f\n        /* \"#utility.yul\":12742:12748   */\n      dup3\n        /* \"#utility.yul\":12738:12755   */\n      and\n        /* \"#utility.yul\":12728:12755   */\n      swap2\n      pop\n        /* \"#utility.yul\":12684:12765   */\n    tag_320:\n        /* \"#utility.yul\":12812:12814   */\n      0x20\n        /* \"#utility.yul\":12804:12810   */\n      dup3\n        /* \"#utility.yul\":12801:12815   */\n      lt\n        /* \"#utility.yul\":12781:12799   */\n      dup2\n        /* \"#utility.yul\":12778:12816   */\n      sub\n        /* \"#utility.yul\":12775:12859   */\n      tag_321\n      jumpi\n        /* \"#utility.yul\":12831:12849   */\n      tag_322\n      tag_184\n      jump\t// in\n    tag_322:\n        /* \"#utility.yul\":12775:12859   */\n    tag_321:\n        /* \"#utility.yul\":12596:12865   */\n      pop\n        /* \"#utility.yul\":12545:12865   */\n      swap2\n      swap1\n      pop\n      jump\t// out\n        /* \"#utility.yul\":12871:13012   */\n    tag_185:\n        /* \"#utility.yul\":12920:12924   */\n      0x00\n        /* \"#utility.yul\":12943:12946   */\n      dup2\n        /* \"#utility.yul\":12935:12946   */\n      swap1\n      pop\n        /* \"#utility.yul\":12966:12969   */\n      dup2\n        /* \"#utility.yul\":12963:12964   */\n      0x00\n        /* \"#utility.yul\":12956:12970   */\n      mstore\n        /* \"#utility.yul\":13000:13004   */\n      0x20\n        /* \"#utility.yul\":12997:12998   */\n      0x00\n        /* \"#utility.yul\":12987:13005   */\n      keccak256\n        /* \"#utility.yul\":12979:13005   */\n      swap1\n      pop\n        /* \"#utility.yul\":12871:13012   */\n      swap2\n      swap1\n      pop\n      jump\t// out\n        /* \"#utility.yul\":13018:13111   */\n    tag_186:\n        /* \"#utility.yul\":13055:13061   */\n      0x00\n        /* \"#utility.yul\":13102:13104   */\n      0x20\n        /* \"#utility.yul\":13097:13099   */\n      0x1f\n        /* \"#utility.yul\":13090:13095   */\n      dup4\n        /* \"#utility.yul\":13086:13100   */\n      add\n        /* \"#utility.yul\":13082:13105   */\n      div\n        /* \"#utility.yul\":13072:13105   */\n      swap1\n      pop\n        /* \"#utility.yul\":13018:13111   */\n      swap2\n      swap1\n      pop\n      jump\t// out\n        /* \"#utility.yul\":13117:13224   */\n    tag_187:\n        /* \"#utility.yul\":13161:13169   */\n      0x00\n        /* \"#utility.yul\":13211:13216   */\n      dup3\n        /* \"#utility.yul\":13205:13209   */\n      dup3\n        /* \"#utility.yul\":13201:13217   */\n      shl\n        /* \"#utility.yul\":13180:13217   */\n      swap1\n      pop\n        /* \"#utility.yul\":13117:13224   */\n      swap3\n      swap2\n      pop\n      pop\n      jump\t// out\n        /* \"#utility.yul\":13230:13623   */\n    tag_188:\n        /* \"#utility.yul\":13299:13305   */\n      0x00\n        /* \"#utility.yul\":13349:13350   */\n      0x08\n        /* \"#utility.yul\":13337:13347   */\n      dup4\n        /* \"#utility.yul\":13333:13351   */\n      mul\n        /* \"#utility.yul\":13372:13469   */\n      tag_327\n        /* \"#utility.yul\":13402:13468   */\n      0xffffffffffffffffffffffffffffffffffffffffffffffffffffffffffffffff\n        /* \"#utility.yul\":13391:13400   */\n      dup3\n        /* \"#utility.yul\":13372:13469   */\n      tag_187\n      jump\t// in\n    tag_327:\n        /* \"#utility.yul\":13490:13529   */\n      tag_328\n        /* \"#utility.yul\":13520:13528   */\n      dup7\n        /* \"#utility.yul\":13509:13518   */\n      dup4\n        /* \"#utility.yul\":13490:13529   */\n      tag_187\n      jump\t// in\n    tag_328:\n        /* \"#utility.yul\":13478:13529   */\n      swap6\n      pop\n        /* \"#utility.yul\":13562:13566   */\n      dup1\n        /* \"#utility.yul\":13558:13567   */\n      not\n        /* \"#utility.yul\":13551:13556   */\n      dup5\n        /* \"#utility.yul\":13547:13568   */\n      and\n        /* \"#utility.yul\":13538:13568   */\n      swap4\n      pop\n        /* \"#utility.yul\":13611:13615   */\n      dup1\n        /* \"#utility.yul\":13601:13609   */\n      dup7\n        /* \"#utility.yul\":13597:13616   */\n      and\n        /* \"#utility.yul\":13590:13595   */\n      dup5\n        /* \"#utility.yul\":13587:13617   */\n      or\n        /* \"#utility.yul\":13577:13617   */\n      swap3\n      pop\n        /* \"#utility.yul\":13306:13623   */\n      pop\n      pop\n        /* \"#utility.yul\":13230:13623   */\n      swap4\n      swap3\n      pop\n      pop\n      pop\n      jump\t// out\n        /* \"#utility.yul\":13629:13689   */\n    tag_189:\n        /* \"#utility.yul\":13657:13660   */\n      0x00\n        /* \"#utility.yul\":13678:13683   */\n      dup2\n        /* \"#utility.yul\":13671:13683   */\n      swap1\n      pop\n        /* \"#utility.yul\":13629:13689   */\n      swap2\n      swap1\n      pop\n      jump\t// out\n        /* \"#utility.yul\":13695:13837   */\n    tag_190:\n        /* \"#utility.yul\":13745:13754   */\n      0x00\n        /* \"#utility.yul\":13778:13831   */\n      tag_331\n        /* \"#utility.yul\":13796:13830   */\n      tag_332\n        /* \"#utility.yul\":13805:13829   */\n      tag_333\n        /* \"#utility.yul\":13823:13828   */\n      dup5\n        /* \"#utility.yul\":13805:13829   */\n      tag_154\n      jump\t// in\n    tag_333:\n        /* \"#utility.yul\":13796:13830   */\n      tag_189\n      jump\t// in\n    tag_332:\n        /* \"#utility.yul\":13778:13831   */\n      tag_154\n      jump\t// in\n    tag_331:\n        /* \"#utility.yul\":13765:13831   */\n      swap1\n      pop\n        /* \"#utility.yul\":13695:13837   */\n      swap2\n      swap1\n      pop\n      jump\t// out\n        /* \"#utility.yul\":13843:13918   */\n    tag_191:\n        /* \"#utility.yul\":13886:13889   */\n      0x00\n        /* \"#utility.yul\":13907:13912   */\n      dup2\n        /* \"#utility.yul\":13900:13912   */\n      swap1\n      pop\n        /* \"#utility.yul\":13843:13918   */\n      swap2\n      swap1\n      pop\n      jump\t// out\n        /* \"#utility.yul\":13924:14193   */\n    tag_192:\n        /* \"#utility.yul\":14034:14073   */\n      tag_336\n        /* \"#utility.yul\":14065:14072   */\n      dup4\n        /* \"#utility.yul\":14034:14073   */\n      tag_190\n      jump\t// in\n    tag_336:\n        /* \"#utility.yul\":14095:14186   */\n      tag_337\n        /* \"#utility.yul\":14144:14185   */\n      tag_338\n        /* \"#utility.yul\":14168:14184   */\n      dup3\n        /* \"#utility.yul\":14144:14185   */\n      tag_191\n      jump\t// in\n    tag_338:\n        /* \"#utility.yul\":14136:14142   */\n      dup5\n        /* \"#utility.yul\":14129:14133   */\n      dup5\n        /* \"#utility.yul\":14123:14134   */\n      sload\n        /* \"#utility.yul\":14095:14186   */\n      tag_188\n      jump\t// in\n    tag_337:\n        /* \"#utility.yul\":14089:14093   */\n      dup3\n        /* \"#utility.yul\":14082:14187   */\n      sstore\n        /* \"#utility.yul\":14000:14193   */\n      pop\n        /* \"#utility.yul\":13924:14193   */\n      pop\n      pop\n      pop\n      jump\t// out\n        /* \"#utility.yul\":14199:14272   */\n    tag_193:\n        /* \"#utility.yul\":14244:14247   */\n      0x00\n        /* \"#utility.yul\":14265:14266   */\n      0x00\n        /* \"#utility.yul\":14258:14266   */\n      swap1\n      pop\n        /* \"#utility.yul\":14199:14272   */\n      swap1\n      jump\t// out\n        /* \"#utility.yul\":14278:14467   */\n    tag_194:\n        /* \"#utility.yul\":14355:14387   */\n      tag_341\n      tag_193\n      jump\t// in\n    tag_341:\n        /* \"#utility.yul\":14396:14461   */\n      tag_342\n        /* \"#utility.yul\":14454:14460   */\n      dup2\n        /* \"#utility.yul\":14446:14452   */\n      dup5\n        /* \"#utility.yul\":14440:14444   */\n      dup5\n        /* \"#utility.yul\":14396:14461   */\n      tag_192\n      jump\t// in\n    tag_342:\n        /* \"#utility.yul\":14331:14467   */\n      pop\n        /* \"#utility.yul\":14278:14467   */\n      pop\n      pop\n      jump\t// out\n        /* \"#utility.yul\":14473:14659   */\n    tag_195:\n        /* \"#utility.yul\":14533:14653   */\n    tag_344:\n        /* \"#utility.yul\":14550:14553   */\n      dup2\n        /* \"#utility.yul\":14543:14548   */\n      dup2\n        /* \"#utility.yul\":14540:14554   */\n      lt\n        /* \"#utility.yul\":14533:14653   */\n      iszero\n      tag_346\n      jumpi\n        /* \"#utility.yul\":14604:14643   */\n      tag_347\n        /* \"#utility.yul\":14641:14642   */\n      0x00\n        /* \"#utility.yul\":14634:14639   */\n      dup3\n        /* \"#utility.yul\":14604:14643   */\n      tag_194\n      jump\t// in\n    tag_347:\n        /* \"#utility.yul\":14577:14578   */\n      0x01\n        /* \"#utility.yul\":14570:14575   */\n      dup2\n        /* \"#utility.yul\":14566:14579   */\n      add\n        /* \"#utility.yul\":14557:14579   */\n      swap1\n      pop\n        /* \"#utility.yul\":14533:14653   */\n      jump(tag_344)\n    tag_346:\n        /* \"#utility.yul\":14473:14659   */\n      pop\n      pop\n      jump\t// out\n        /* \"#utility.yul\":14665:15208   */\n    tag_196:\n        /* \"#utility.yul\":14766:14768   */\n      0x1f\n        /* \"#utility.yul\":14761:14764   */\n      dup3\n        /* \"#utility.yul\":14758:14769   */\n      gt\n        /* \"#utility.yul\":14755:15201   */\n      iszero\n      tag_349\n      jumpi\n        /* \"#utility.yul\":14800:14838   */\n      tag_350\n        /* \"#utility.yul\":14832:14837   */\n      dup2\n        /* \"#utility.yul\":14800:14838   */\n      tag_185\n      jump\t// in\n    tag_350:\n        /* \"#utility.yul\":14884:14913   */\n      tag_351\n        /* \"#utility.yul\":14902:14912   */\n      dup5\n        /* \"#utility.yul\":14884:14913   */\n      tag_186\n      jump\t// in\n    tag_351:\n        /* \"#utility.yul\":14874:14882   */\n      dup2\n        /* \"#utility.yul\":14870:14914   */\n      add\n        /* \"#utility.yul\":15067:15069   */\n      0x20\n        /* \"#utility.yul\":15055:15065   */\n      dup6\n        /* \"#utility.yul\":15052:15070   */\n      lt\n        /* \"#utility.yul\":15049:15098   */\n      iszero\n      tag_352\n      jumpi\n        /* \"#utility.yul\":15088:15096   */\n      dup2\n        /* \"#utility.yul\":15073:15096   */\n      swap1\n      pop\n        /* \"#utility.yul\":15049:15098   */\n    tag_352:\n        /* \"#utility.yul\":15111:15191   */\n      tag_353\n        /* \"#utility.yul\":15167:15189   */\n      tag_354\n        /* \"#utility.yul\":15185:15188   */\n      dup6\n        /* \"#utility.yul\":15167:15189   */\n      tag_186\n      jump\t// in\n    tag_354:\n        /* \"#utility.yul\":15157:15165   */\n      dup4\n        /* \"#utility.yul\":15153:15190   */\n      add\n        /* \"#utility.yul\":15140:15151   */\n      dup3\n        /* \"#utility.yul\":15111:15191   */\n      tag_195\n      jump\t// in\n    tag_353:\n        /* \"#utility.yul\":14770:15201   */\n      pop\n      pop\n        /* \"#utility.yul\":14755:15201   */\n    tag_349:\n        /* \"#utility.yul\":14665:15208   */\n      pop\n      pop\n      pop\n      jump\t// out\n        /* \"#utility.yul\":15214:15331   */\n    tag_197:\n        /* \"#utility.yul\":15268:15276   */\n      0x00\n        /* \"#utility.yul\":15318:15323   */\n      dup3\n        /* \"#utility.yul\":15312:15316   */\n      dup3\n        /* \"#utility.yul\":15308:15324   */\n      shr\n        /* \"#utility.yul\":15287:15324   */\n      swap1\n      pop\n        /* \"#utility.yul\":15214:15331   */\n      swap3\n      swap2\n      pop\n      pop\n      jump\t// out\n        /* \"#utility.yul\":15337:15506   */\n    tag_198:\n        /* \"#utility.yul\":15381:15387   */\n      0x00\n        /* \"#utility.yul\":15414:15465   */\n      tag_357\n        /* \"#utility.yul\":15462:15463   */\n      0x00\n        /* \"#utility.yul\":15458:15464   */\n      not\n        /* \"#utility.yul\":15450:15455   */\n      dup5\n        /* \"#utility.yul\":15447:15448   */\n      0x08\n        /* \"#utility.yul\":15443:15456   */\n      mul\n        /* \"#utility.yul\":15414:15465   */\n      tag_197\n      jump\t// in\n    tag_357:\n        /* \"#utility.yul\":15410:15466   */\n      not\n        /* \"#utility.yul\":15495:15499   */\n      dup1\n        /* \"#utility.yul\":15489:15493   */\n      dup4\n        /* \"#utility.yul\":15485:15500   */\n      and\n        /* \"#utility.yul\":15475:15500   */\n      swap2\n      pop\n        /* \"#utility.yul\":15388:15506   */\n      pop\n        /* \"#utility.yul\":15337:15506   */\n      swap3\n      swap2\n      pop\n      pop\n      jump\t// out\n        /* \"#utility.yul\":15511:15806   */\n    tag_199:\n        /* \"#utility.yul\":15587:15591   */\n      0x00\n        /* \"#utility.yul\":15733:15762   */\n      tag_359\n        /* \"#utility.yul\":15758:15761   */\n      dup4\n        /* \"#utility.yul\":15752:15756   */\n      dup4\n        /* \"#utility.yul\":15733:15762   */\n      tag_198\n      jump\t// in\n    tag_359:\n        /* \"#utility.yul\":15725:15762   */\n      swap2\n      pop\n        /* \"#utility.yul\":15795:15798   */\n      dup3\n        /* \"#utility.yul\":15792:15793   */\n      0x02\n        /* \"#utility.yul\":15788:15799   */\n      mul\n        /* \"#utility.yul\":15782:15786   */\n      dup3\n        /* \"#utility.yul\":15779:15800   */\n      or\n        /* \"#utility.yul\":15771:15800   */\n      swap1\n      pop\n        /* \"#utility.yul\":15511:15806   */\n      swap3\n      swap2\n      pop\n      pop\n      jump\t// out\n        /* \"#utility.yul\":15811:17206   */\n    tag_60:\n        /* \"#utility.yul\":15928:15965   */\n      tag_361\n        /* \"#utility.yul\":15961:15964   */\n      dup3\n        /* \"#utility.yul\":15928:15965   */\n      tag_158\n      jump\t// in\n    tag_361:\n        /* \"#utility.yul\":16030:16048   */\n      0xffffffffffffffff\n        /* \"#utility.yul\":16022:16028   */\n      dup2\n        /* \"#utility.yul\":16019:16049   */\n      gt\n        /* \"#utility.yul\":16016:16072   */\n      iszero\n      tag_362\n      jumpi\n        /* \"#utility.yul\":16052:16070   */\n      tag_363\n      tag_99\n      jump\t// in\n    tag_363:\n        /* \"#utility.yul\":16016:16072   */\n    tag_362:\n        /* \"#utility.yul\":16096:16134   */\n      tag_364\n        /* \"#utility.yul\":16128:16132   */\n      dup3\n        /* \"#utility.yul\":16122:16133   */\n      sload\n        /* \"#utility.yul\":16096:16134   */\n      tag_68\n      jump\t// in\n    tag_364:\n        /* \"#utility.yul\":16181:16248   */\n      tag_365\n        /* \"#utility.yul\":16241:16247   */\n      dup3\n        /* \"#utility.yul\":16233:16239   */\n      dup3\n        /* \"#utility.yul\":16227:16231   */\n      dup6\n        /* \"#utility.yul\":16181:16248   */\n      tag_196\n      jump\t// in\n    tag_365:\n        /* \"#utility.yul\":16275:16276   */\n      0x00\n        /* \"#utility.yul\":16299:16303   */\n      0x20\n        /* \"#utility.yul\":16286:16303   */\n      swap1\n      pop\n        /* \"#utility.yul\":16331:16333   */\n      0x1f\n        /* \"#utility.yul\":16323:16329   */\n      dup4\n        /* \"#utility.yul\":16320:16334   */\n      gt\n        /* \"#utility.yul\":16348:16349   */\n      0x01\n        /* \"#utility.yul\":16343:16961   */\n      dup2\n      eq\n      tag_367\n      jumpi\n        /* \"#utility.yul\":17005:17006   */\n      0x00\n        /* \"#utility.yul\":17022:17028   */\n      dup5\n        /* \"#utility.yul\":17019:17096   */\n      iszero\n      tag_368\n      jumpi\n        /* \"#utility.yul\":17071:17080   */\n      dup3\n        /* \"#utility.yul\":17066:17069   */\n      dup8\n        /* \"#utility.yul\":17062:17081   */\n      add\n        /* \"#utility.yul\":17056:17082   */\n      mload\n        /* \"#utility.yul\":17047:17082   */\n      swap1\n      pop\n        /* \"#utility.yul\":17019:17096   */\n    tag_368:\n        /* \"#utility.yul\":17122:17189   */\n      tag_369\n        /* \"#utility.yul\":17182:17188   */\n      dup6\n        /* \"#utility.yul\":17175:17180   */\n      dup3\n        /* \"#utility.yul\":17122:17189   */\n      tag_199\n      jump\t// in\n    tag_369:\n        /* \"#utility.yul\":17116:17120   */\n      dup7\n        /* \"#utility.yul\":17109:17190   */\n      sstore\n        /* \"#utility.yul\":16978:17200   */\n      pop\n        /* \"#utility.yul\":16313:17200   */\n      jump(tag_366)\n        /* \"#utility.yul\":16343:16961   */\n    tag_367:\n        /* \"#utility.yul\":16395:16399   */\n      0x1f\n        /* \"#utility.yul\":16391:16400   */\n      not\n        /* \"#utility.yul\":16383:16389   */\n      dup5\n        /* \"#utility.yul\":16379:16401   */\n      and\n        /* \"#utility.yul\":16429:16466   */\n      tag_370\n        /* \"#utility.yul\":16461:16465   */\n      dup7\n        /* \"#utility.yul\":16429:16466   */\n      tag_185\n      jump\t// in\n    tag_370:\n        /* \"#utility.yul\":16488:16489   */\n      0x00\n        /* \"#utility.yul\":16502:16710   */\n    tag_371:\n        /* \"#utility.yul\":16516:16523   */\n      dup3\n        /* \"#utility.yul\":16513:16514   */\n      dup2\n        /* \"#utility.yul\":16510:16524   */\n      lt\n        /* \"#utility.yul\":16502:16710   */\n      iszero\n      tag_373\n      jumpi\n        /* \"#utility.yul\":16595:16604   */\n      dup5\n        /* \"#utility.yul\":16590:16593   */\n      dup10\n        /* \"#utility.yul\":16586:16605   */\n      add\n        /* \"#utility.yul\":16580:16606   */\n      mload\n        /* \"#utility.yul\":16572:16578   */\n      dup3\n        /* \"#utility.yul\":16565:16607   */\n      sstore\n        /* \"#utility.yul\":16646:16647   */\n      0x01\n        /* \"#utility.yul\":16638:16644   */\n      dup3\n        /* \"#utility.yul\":16634:16648   */\n      add\n        /* \"#utility.yul\":16624:16648   */\n      swap2\n      pop\n        /* \"#utility.yul\":16693:16695   */\n      0x20\n        /* \"#utility.yul\":16682:16691   */\n      dup6\n        /* \"#utility.yul\":16678:16696   */\n      add\n        /* \"#utility.yul\":16665:16696   */\n      swap5\n      pop\n        /* \"#utility.yul\":16539:16543   */\n      0x20\n        /* \"#utility.yul\":16536:16537   */\n      dup2\n        /* \"#utility.yul\":16532:16544   */\n      add\n        /* \"#utility.yul\":16527:16544   */\n      swap1\n      pop\n        /* \"#utility.yul\":16502:16710   */\n      jump(tag_371)\n    tag_373:\n        /* \"#utility.yul\":16738:16744   */\n      dup7\n        /* \"#utility.yul\":16729:16736   */\n      dup4\n        /* \"#utility.yul\":16726:16745   */\n      lt\n        /* \"#utility.yul\":16723:16902   */\n      iszero\n      tag_374\n      jumpi\n        /* \"#utility.yul\":16796:16805   */\n      dup5\n        /* \"#utility.yul\":16791:16794   */\n      dup10\n        /* \"#utility.yul\":16787:16806   */\n      add\n        /* \"#utility.yul\":16781:16807   */\n      mload\n        /* \"#utility.yul\":16839:16887   */\n      tag_375\n        /* \"#utility.yul\":16881:16885   */\n      0x1f\n        /* \"#utility.yul\":16873:16879   */\n      dup10\n        /* \"#utility.yul\":16869:16886   */\n      and\n        /* \"#utility.yul\":16858:16867   */\n      dup3\n        /* \"#utility.yul\":16839:16887   */\n      tag_198\n      jump\t// in\n    tag_375:\n        /* \"#utility.yul\":16831:16837   */\n      dup4\n        /* \"#utility.yul\":16824:16888   */\n      sstore\n        /* \"#utility.yul\":16746:16902   */\n      pop\n        /* \"#utility.yul\":16723:16902   */\n    tag_374:\n        /* \"#utility.yul\":16948:16949   */\n      0x01\n        /* \"#utility.yul\":16944:16945   */\n      0x02\n        /* \"#utility.yul\":16936:16942   */\n      dup9\n        /* \"#utility.yul\":16932:16946   */\n      mul\n        /* \"#utility.yul\":16928:16950   */\n      add\n        /* \"#utility.yul\":16922:16926   */\n      dup9\n        /* \"#utility.yul\":16915:16951   */\n      sstore\n        /* \"#utility.yul\":16350:16961   */\n      pop\n      pop\n      pop\n        /* \"#utility.yul\":16313:17200   */\n    tag_366:\n      pop\n        /* \"#utility.yul\":15903:17206   */\n      pop\n      pop\n      pop\n        /* \"#utility.yul\":15811:17206   */\n      pop\n      pop\n      jump\t// out\n        /* \"#utility.yul\":17212:17360   */\n    tag_200:\n        /* \"#utility.yul\":17310:17316   */\n      dup3\n        /* \"#utility.yul\":17305:17308   */\n      dup2\n        /* \"#utility.yul\":17300:17303   */\n      dup4\n        /* \"#utility.yul\":17287:17317   */\n      calldatacopy\n        /* \"#utility.yul\":17351:17352   */\n      0x00\n        /* \"#utility.yul\":17342:17348   */\n      dup4\n        /* \"#utility.yul\":17337:17340   */\n      dup4\n        /* \"#utility.yul\":17333:17349   */\n      add\n        /* \"#utility.yul\":17326:17353   */\n      mstore\n        /* \"#utility.yul\":17212:17360   */\n      pop\n      pop\n      pop\n      jump\t// out\n        /* \"#utility.yul\":17390:17707   */\n    tag_201:\n        /* \"#utility.yul\":17488:17491   */\n      0x00\n        /* \"#utility.yul\":17509:17580   */\n      tag_378\n        /* \"#utility.yul\":17573:17579   */\n      dup4\n        /* \"#utility.yul\":17568:17571   */\n      dup6\n        /* \"#utility.yul\":17509:17580   */\n      tag_159\n      jump\t// in\n    tag_378:\n        /* \"#utility.yul\":17502:17580   */\n      swap4\n      pop\n        /* \"#utility.yul\":17590:17646   */\n      tag_379\n        /* \"#utility.yul\":17639:17645   */\n      dup4\n        /* \"#utility.yul\":17634:17637   */\n      dup6\n        /* \"#utility.yul\":17627:17632   */\n      dup5\n        /* \"#utility.yul\":17590:17646   */\n      tag_200\n      jump\t// in\n    tag_379:\n        /* \"#utility.yul\":17671:17700   */\n      tag_380\n        /* \"#utility.yul\":17693:17699   */\n      dup4\n        /* \"#utility.yul\":17671:17700   */\n      tag_161\n      jump\t// in\n    tag_380:\n        /* \"#utility.yul\":17666:17669   */\n      dup5\n        /* \"#utility.yul\":17662:17701   */\n      add\n        /* \"#utility.yul\":17655:17701   */\n      swap1\n      pop\n        /* \"#utility.yul\":17390:17707   */\n      swap4\n      swap3\n      pop\n      pop\n      pop\n      jump\t// out\n        /* \"#utility.yul\":17713:18144   */\n    tag_62:\n        /* \"#utility.yul\":17858:17862   */\n      0x00\n        /* \"#utility.yul\":17896:17898   */\n      0x40\n        /* \"#utility.yul\":17885:17894   */\n      dup3\n        /* \"#utility.yul\":17881:17899   */\n      add\n        /* \"#utility.yul\":17873:17899   */\n      swap1\n      pop\n        /* \"#utility.yul\":17945:17954   */\n      dup2\n        /* \"#utility.yul\":17939:17943   */\n      dup2\n        /* \"#utility.yul\":17935:17955   */\n      sub\n        /* \"#utility.yul\":17931:17932   */\n      0x00\n        /* \"#utility.yul\":17920:17929   */\n      dup4\n        /* \"#utility.yul\":17916:17933   */\n      add\n        /* \"#utility.yul\":17909:17956   */\n      mstore\n        /* \"#utility.yul\":17973:18061   */\n      tag_382\n        /* \"#utility.yul\":18056:18060   */\n      dup2\n        /* \"#utility.yul\":18047:18053   */\n      dup6\n        /* \"#utility.yul\":18039:18045   */\n      dup8\n        /* \"#utility.yul\":17973:18061   */\n      tag_201\n      jump\t// in\n    tag_382:\n        /* \"#utility.yul\":17965:18061   */\n      swap1\n      pop\n        /* \"#utility.yul\":18071:18137   */\n      tag_383\n        /* \"#utility.yul\":18133:18135   */\n      0x20\n        /* \"#utility.yul\":18122:18131   */\n      dup4\n        /* \"#utility.yul\":18118:18136   */\n      add\n        /* \"#utility.yul\":18109:18115   */\n      dup5\n        /* \"#utility.yul\":18071:18137   */\n      tag_164\n      jump\t// in\n    tag_383:\n        /* \"#utility.yul\":17713:18144   */\n      swap5\n      swap4\n      pop\n      pop\n      pop\n      pop\n      jump\t// out\n        /* \"#utility.yul\":18150:18329   */\n    tag_202:\n        /* \"#utility.yul\":18290:18321   */\n      0x546f446f203a205461736b20646f6573206e6f74206578697374202120000000\n        /* \"#utility.yul\":18286:18287   */\n      0x00\n        /* \"#utility.yul\":18278:18284   */\n      dup3\n        /* \"#utility.yul\":18274:18288   */\n      add\n        /* \"#utility.yul\":18267:18322   */\n      mstore\n        /* \"#utility.yul\":18150:18329   */\n      pop\n      jump\t// out\n        /* \"#utility.yul\":18335:18701   */\n    tag_203:\n        /* \"#utility.yul\":18477:18480   */\n      0x00\n        /* \"#utility.yul\":18498:18565   */\n      tag_386\n        /* \"#utility.yul\":18562:18564   */\n      0x1d\n        /* \"#utility.yul\":18557:18560   */\n      dup4\n        /* \"#utility.yul\":18498:18565   */\n      tag_159\n      jump\t// in\n    tag_386:\n        /* \"#utility.yul\":18491:18565   */\n      swap2\n      pop\n        /* \"#utility.yul\":18574:18667   */\n      tag_387\n        /* \"#utility.yul\":18663:18666   */\n      dup3\n        /* \"#utility.yul\":18574:18667   */\n      tag_202\n      jump\t// in\n    tag_387:\n        /* \"#utility.yul\":18692:18694   */\n      0x20\n        /* \"#utility.yul\":18687:18690   */\n      dup3\n        /* \"#utility.yul\":18683:18695   */\n      add\n        /* \"#utility.yul\":18676:18695   */\n      swap1\n      pop\n        /* \"#utility.yul\":18335:18701   */\n      swap2\n      swap1\n      pop\n      jump\t// out\n        /* \"#utility.yul\":18707:19126   */\n    tag_66:\n        /* \"#utility.yul\":18873:18877   */\n      0x00\n        /* \"#utility.yul\":18911:18913   */\n      0x20\n        /* \"#utility.yul\":18900:18909   */\n      dup3\n        /* \"#utility.yul\":18896:18914   */\n      add\n        /* \"#utility.yul\":18888:18914   */\n      swap1\n      pop\n        /* \"#utility.yul\":18960:18969   */\n      dup2\n        /* \"#utility.yul\":18954:18958   */\n      dup2\n        /* \"#utility.yul\":18950:18970   */\n      sub\n        /* \"#utility.yul\":18946:18947   */\n      0x00\n        /* \"#utility.yul\":18935:18944   */\n      dup4\n        /* \"#utility.yul\":18931:18948   */\n      add\n        /* \"#utility.yul\":18924:18971   */\n      mstore\n        /* \"#utility.yul\":18988:19119   */\n      tag_389\n        /* \"#utility.yul\":19114:19118   */\n      dup2\n        /* \"#utility.yul\":18988:19119   */\n      tag_203\n      jump\t// in\n    tag_389:\n        /* \"#utility.yul\":18980:19119   */\n      swap1\n      pop\n        /* \"#utility.yul\":18707:19126   */\n      swap2\n      swap1\n      pop\n      jump\t// out\n        /* \"#utility.yul\":19132:19342   */\n    tag_80:\n        /* \"#utility.yul\":19219:19223   */\n      0x00\n        /* \"#utility.yul\":19257:19259   */\n      0x20\n        /* \"#utility.yul\":19246:19255   */\n      dup3\n        /* \"#utility.yul\":19242:19260   */\n      add\n        /* \"#utility.yul\":19234:19260   */\n      swap1\n      pop\n        /* \"#utility.yul\":19270:19335   */\n      tag_391\n        /* \"#utility.yul\":19332:19333   */\n      0x00\n        /* \"#utility.yul\":19321:19330   */\n      dup4\n        /* \"#utility.yul\":19317:19334   */\n      add\n        /* \"#utility.yul\":19308:19314   */\n      dup5\n        /* \"#utility.yul\":19270:19335   */\n      tag_164\n      jump\t// in\n    tag_391:\n        /* \"#utility.yul\":19132:19342   */\n      swap3\n      swap2\n      pop\n      pop\n      jump\t// out\n        /* \"#utility.yul\":19348:19528   */\n    tag_120:\n        /* \"#utility.yul\":19396:19473   */\n      0x4e487b7100000000000000000000000000000000000000000000000000000000\n        /* \"#utility.yul\":19393:19394   */\n      0x00\n        /* \"#utility.yul\":19386:19474   */\n      mstore\n        /* \"#utility.yul\":19493:19497   */\n      0x32\n        /* \"#utility.yul\":19490:19491   */\n      0x04\n        /* \"#utility.yul\":19483:19498   */\n      mstore\n        /* \"#utility.yul\":19517:19521   */\n      0x24\n        /* \"#utility.yul\":19514:19515   */\n      0x00\n        /* \"#utility.yul\":19507:19522   */\n      revert\n        /* \"#utility.yul\":19534:19631   */\n    tag_204:\n        /* \"#utility.yul\":19593:19599   */\n      0x00\n        /* \"#utility.yul\":19621:19624   */\n      dup3\n        /* \"#utility.yul\":19611:19624   */\n      swap1\n      pop\n        /* \"#utility.yul\":19534:19631   */\n      swap3\n      swap2\n      pop\n      pop\n      jump\t// out\n        /* \"#utility.yul\":19637:21040   */\n    tag_137:\n        /* \"#utility.yul\":19761:19805   */\n      tag_395\n        /* \"#utility.yul\":19801:19804   */\n      dup4\n        /* \"#utility.yul\":19796:19799   */\n      dup4\n        /* \"#utility.yul\":19761:19805   */\n      tag_204\n      jump\t// in\n    tag_395:\n        /* \"#utility.yul\":19870:19888   */\n      0xffffffffffffffff\n        /* \"#utility.yul\":19862:19868   */\n      dup2\n        /* \"#utility.yul\":19859:19889   */\n      gt\n        /* \"#utility.yul\":19856:19912   */\n      iszero\n      tag_396\n      jumpi\n        /* \"#utility.yul\":19892:19910   */\n      tag_397\n      tag_99\n      jump\t// in\n    tag_397:\n        /* \"#utility.yul\":19856:19912   */\n    tag_396:\n        /* \"#utility.yul\":19936:19974   */\n      tag_398\n        /* \"#utility.yul\":19968:19972   */\n      dup3\n        /* \"#utility.yul\":19962:19973   */\n      sload\n        /* \"#utility.yul\":19936:19974   */\n      tag_68\n      jump\t// in\n    tag_398:\n        /* \"#utility.yul\":20021:20088   */\n      tag_399\n        /* \"#utility.yul\":20081:20087   */\n      dup3\n        /* \"#utility.yul\":20073:20079   */\n      dup3\n        /* \"#utility.yul\":20067:20071   */\n      dup6\n        /* \"#utility.yul\":20021:20088   */\n      tag_196\n      jump\t// in\n    tag_399:\n        /* \"#utility.yul\":20115:20116   */\n      0x00\n        /* \"#utility.yul\":20144:20146   */\n      0x1f\n        /* \"#utility.yul\":20136:20142   */\n      dup4\n        /* \"#utility.yul\":20133:20147   */\n      gt\n        /* \"#utility.yul\":20161:20162   */\n      0x01\n        /* \"#utility.yul\":20156:20788   */\n      dup2\n      eq\n      tag_401\n      jumpi\n        /* \"#utility.yul\":20832:20833   */\n      0x00\n        /* \"#utility.yul\":20849:20855   */\n      dup5\n        /* \"#utility.yul\":20846:20930   */\n      iszero\n      tag_402\n      jumpi\n        /* \"#utility.yul\":20905:20914   */\n      dup3\n        /* \"#utility.yul\":20900:20903   */\n      dup8\n        /* \"#utility.yul\":20896:20915   */\n      add\n        /* \"#utility.yul\":20883:20916   */\n      calldataload\n        /* \"#utility.yul\":20874:20916   */\n      swap1\n      pop\n        /* \"#utility.yul\":20846:20930   */\n    tag_402:\n        /* \"#utility.yul\":20956:21023   */\n      tag_403\n        /* \"#utility.yul\":21016:21022   */\n      dup6\n        /* \"#utility.yul\":21009:21014   */\n      dup3\n        /* \"#utility.yul\":20956:21023   */\n      tag_199\n      jump\t// in\n    tag_403:\n        /* \"#utility.yul\":20950:20954   */\n      dup7\n        /* \"#utility.yul\":20943:21024   */\n      sstore\n        /* \"#utility.yul\":20805:21034   */\n      pop\n        /* \"#utility.yul\":20126:21034   */\n      jump(tag_400)\n        /* \"#utility.yul\":20156:20788   */\n    tag_401:\n        /* \"#utility.yul\":20208:20212   */\n      0x1f\n        /* \"#utility.yul\":20204:20213   */\n      not\n        /* \"#utility.yul\":20196:20202   */\n      dup5\n        /* \"#utility.yul\":20192:20214   */\n      and\n        /* \"#utility.yul\":20242:20279   */\n      tag_404\n        /* \"#utility.yul\":20274:20278   */\n      dup7\n        /* \"#utility.yul\":20242:20279   */\n      tag_185\n      jump\t// in\n    tag_404:\n        /* \"#utility.yul\":20301:20302   */\n      0x00\n        /* \"#utility.yul\":20315:20530   */\n    tag_405:\n        /* \"#utility.yul\":20329:20336   */\n      dup3\n        /* \"#utility.yul\":20326:20327   */\n      dup2\n        /* \"#utility.yul\":20323:20337   */\n      lt\n        /* \"#utility.yul\":20315:20530   */\n      iszero\n      tag_407\n      jumpi\n        /* \"#utility.yul\":20415:20424   */\n      dup5\n        /* \"#utility.yul\":20410:20413   */\n      dup10\n        /* \"#utility.yul\":20406:20425   */\n      add\n        /* \"#utility.yul\":20393:20426   */\n      calldataload\n        /* \"#utility.yul\":20385:20391   */\n      dup3\n        /* \"#utility.yul\":20378:20427   */\n      sstore\n        /* \"#utility.yul\":20466:20467   */\n      0x01\n        /* \"#utility.yul\":20458:20464   */\n      dup3\n        /* \"#utility.yul\":20454:20468   */\n      add\n        /* \"#utility.yul\":20444:20468   */\n      swap2\n      pop\n        /* \"#utility.yul\":20513:20515   */\n      0x20\n        /* \"#utility.yul\":20502:20511   */\n      dup6\n        /* \"#utility.yul\":20498:20516   */\n      add\n        /* \"#utility.yul\":20485:20516   */\n      swap5\n      pop\n        /* \"#utility.yul\":20352:20356   */\n      0x20\n        /* \"#utility.yul\":20349:20350   */\n      dup2\n        /* \"#utility.yul\":20345:20357   */\n      add\n        /* \"#utility.yul\":20340:20357   */\n      swap1\n      pop\n        /* \"#utility.yul\":20315:20530   */\n      jump(tag_405)\n    tag_407:\n        /* \"#utility.yul\":20558:20564   */\n      dup7\n        /* \"#utility.yul\":20549:20556   */\n      dup4\n        /* \"#utility.yul\":20546:20565   */\n      lt\n        /* \"#utility.yul\":20543:20729   */\n      iszero\n      tag_408\n      jumpi\n        /* \"#utility.yul\":20623:20632   */\n      dup5\n        /* \"#utility.yul\":20618:20621   */\n      dup10\n        /* \"#utility.yul\":20614:20633   */\n      add\n        /* \"#utility.yul\":20601:20634   */\n      calldataload\n        /* \"#utility.yul\":20666:20714   */\n      tag_409\n        /* \"#utility.yul\":20708:20712   */\n      0x1f\n        /* \"#utility.yul\":20700:20706   */\n      dup10\n        /* \"#utility.yul\":20696:20713   */\n      and\n        /* \"#utility.yul\":20685:20694   */\n      dup3\n        /* \"#utility.yul\":20666:20714   */\n      tag_198\n      jump\t// in\n    tag_409:\n        /* \"#utility.yul\":20658:20664   */\n      dup4\n        /* \"#utility.yul\":20651:20715   */\n      sstore\n        /* \"#utility.yul\":20566:20729   */\n      pop\n        /* \"#utility.yul\":20543:20729   */\n    tag_408:\n        /* \"#utility.yul\":20775:20776   */\n      0x01\n        /* \"#utility.yul\":20771:20772   */\n      0x02\n        /* \"#utility.yul\":20763:20769   */\n      dup9\n        /* \"#utility.yul\":20759:20773   */\n      mul\n        /* \"#utility.yul\":20755:20777   */\n      add\n        /* \"#utility.yul\":20749:20753   */\n      dup9\n        /* \"#utility.yul\":20742:20778   */\n      sstore\n        /* \"#utility.yul\":20163:20788   */\n      pop\n      pop\n      pop\n        /* \"#utility.yul\":20126:21034   */\n    tag_400:\n      pop\n        /* \"#utility.yul\":19736:21040   */\n      pop\n      pop\n      pop\n        /* \"#utility.yul\":19637:21040   */\n      pop\n      pop\n      pop\n      jump\t// out\n        /* \"#utility.yul\":21046:21379   */\n    tag_139:\n        /* \"#utility.yul\":21169:21173   */\n      0x00\n        /* \"#utility.yul\":21207:21209   */\n      0x20\n        /* \"#utility.yul\":21196:21205   */\n      dup3\n        /* \"#utility.yul\":21192:21210   */\n      add\n        /* \"#utility.yul\":21184:21210   */\n      swap1\n      pop\n        /* \"#utility.yul\":21256:21265   */\n      dup2\n        /* \"#utility.yul\":21250:21254   */\n      dup2\n        /* \"#utility.yul\":21246:21266   */\n      sub\n        /* \"#utility.yul\":21242:21243   */\n      0x00\n        /* \"#utility.yul\":21231:21240   */\n      dup4\n        /* \"#utility.yul\":21227:21244   */\n      add\n        /* \"#utility.yul\":21220:21267   */\n      mstore\n        /* \"#utility.yul\":21284:21372   */\n      tag_411\n        /* \"#utility.yul\":21367:21371   */\n      dup2\n        /* \"#utility.yul\":21358:21364   */\n      dup5\n        /* \"#utility.yul\":21350:21356   */\n      dup7\n        /* \"#utility.yul\":21284:21372   */\n      tag_201\n      jump\t// in\n    tag_411:\n        /* \"#utility.yul\":21276:21372   */\n      swap1\n      pop\n        /* \"#utility.yul\":21046:21379   */\n      swap4\n      swap3\n      pop\n      pop\n      pop\n      jump\t// out\n\n    auxdata: 0xa264697066735822122049086d39a14d96a934dacab7d87679b4beeefe6ef33157ff83a8db79009d993f64736f6c634300081e0033\n}\n",
				"bytecode": {
					"linkReferences": {},
					"object": "6080604052348015600e575f5ffd5b50335f5f6101000a81548173ffffffffffffffffffffffffffffffffffffffff021916908373ffffffffffffffffffffffffffffffffffffffff1602179055506117818061005b5f395ff3fe608060405234801561000f575f5ffd5b5060043610610091575f3560e01c8063779900b411610064578063779900b41461011b5780638d977672146101395780638da5cb5b1461016b578063b0ac92c214610189578063b6cb58a5146101a557610091565b8063111002aa146100955780631d65e77e146100b1578063455f5024146100e3578063560f3192146100ff575b5f5ffd5b6100af60048036038101906100aa9190610d23565b6101c3565b005b6100cb60048036038101906100c69190610da1565b6103a5565b6040516100da93929190610e65565b60405180910390f35b6100fd60048036038101906100f89190610da1565b6104c3565b005b61011960048036038101906101149190610da1565b610632565b005b610123610781565b604051610130919061100f565b60405180910390f35b610153600480360381019061014e9190610da1565b6109d4565b60405161016293929190610e65565b60405180910390f35b610173610a8c565b604051610180919061106e565b60405180910390f35b6101a3600480360381019061019e9190611087565b610ab0565b005b6101ad610c3b565b6040516101ba91906110e4565b60405180910390f35b5f5f9054906101000a900473ffffffffffffffffffffffffffffffffffffffff1673ffffffffffffffffffffffffffffffffffffffff163373ffffffffffffffffffffffffffffffffffffffff1614610251576040517f08c379a000000000000000000000000000000000000000000000000000000000815260040161024890611147565b60405180910390fd5b5f8282905011610296576040517f08c379a000000000000000000000000000000000000000000000000000000000815260040161028d906111af565b60405180910390fd5b60015f8154809291906102a8906111fa565b91905055505f6001549050604051806060016040528082815260200184848080601f0160208091040260200160405190810160405280939291908181526020018383808284375f81840152601f19601f8201169050808301925050505050505081526020015f151581525060025f8381526020019081526020015f205f820151815f01556020820151816001019081610341919061146b565b506040820151816002015f6101000a81548160ff021916908315150217905550905050807f05d0fb833127fc08168556d0e7ca9554fc3f6bc843b3b7d2bf1c35aea6bab66084845f60405161039893929190611574565b60405180910390a2505050565b5f60605f5f60025f8681526020019081526020015f205f0154036103fe576040517f08c379a00000000000000000000000000000000000000000000000000000000081526004016103f5906115ee565b60405180910390fd5b5f60025f8681526020019081526020015f209050805f015481600101826002015f9054906101000a900460ff168180546104379061129b565b80601f01602080910402602001604051908101604052809291908181526020018280546104639061129b565b80156104ae5780601f10610485576101008083540402835291602001916104ae565b820191905f5260205f20905b81548152906001019060200180831161049157829003601f168201915b50505050509150935093509350509193909250565b5f5f9054906101000a900473ffffffffffffffffffffffffffffffffffffffff1673ffffffffffffffffffffffffffffffffffffffff163373ffffffffffffffffffffffffffffffffffffffff1614610551576040517f08c379a000000000000000000000000000000000000000000000000000000000815260040161054890611147565b60405180910390fd5b5f60025f8381526020019081526020015f205f0154036105a6576040517f08c379a000000000000000000000000000000000000000000000000000000000815260040161059d906115ee565b60405180910390fd5b5f60025f8381526020019081526020015f209050806002015f9054906101000a900460ff1615816002015f6101000a81548160ff021916908315150217905550817fe668c7a227d9261aa1f964bf5a852ab642446a7af6c29405caf8d0e9ce2c11f0826002015f9054906101000a900460ff16604051610626919061160c565b60405180910390a25050565b5f5f9054906101000a900473ffffffffffffffffffffffffffffffffffffffff1673ffffffffffffffffffffffffffffffffffffffff163373ffffffffffffffffffffffffffffffffffffffff16146106c0576040517f08c379a00000000000000000000000000000000000000000000000000000000081526004016106b790611147565b60405180910390fd5b5f60025f8381526020019081526020015f205f015403610715576040517f08c379a000000000000000000000000000000000000000000000000000000000815260040161070c906115ee565b60405180910390fd5b60025f8281526020019081526020015f205f5f82015f9055600182015f61073c9190610c41565b600282015f6101000a81549060ff02191690555050807fd078b251d950cc55c44340be1db732337ef4939a76e1367ee271ad2cb19c46af60405160405180910390a250565b60605f5f90505f600190505b60015481116107d2575f60025f8381526020019081526020015f205f0154146107bf5781806107bb906111fa565b9250505b80806107ca906111fa565b91505061078d565b505f8103610836575f67ffffffffffffffff8111156107f4576107f3611241565b5b60405190808252806020026020018201604052801561082d57816020015b61081a610c7e565b8152602001906001900390816108125790505b509150506109d1565b5f8167ffffffffffffffff81111561085157610850611241565b5b60405190808252806020026020018201604052801561088a57816020015b610877610c7e565b81526020019060019003908161086f5790505b5090505f5f90505f600190505b60015481116109c9575f60025f8381526020019081526020015f205f0154146109b65760025f8281526020019081526020015f206040518060600160405290815f82015481526020016001820180546108ef9061129b565b80601f016020809104026020016040519081016040528092919081815260200182805461091b9061129b565b80156109665780601f1061093d57610100808354040283529160200191610966565b820191905f5260205f20905b81548152906001019060200180831161094957829003601f168201915b50505050508152602001600282015f9054906101000a900460ff16151515158152505083838151811061099c5761099b611625565b5b602002602001018190525081806109b2906111fa565b9250505b80806109c1906111fa565b915050610897565b508193505050505b90565b6002602052805f5260405f205f91509050805f0154908060010180546109f99061129b565b80601f0160208091040260200160405190810160405280929190818152602001828054610a259061129b565b8015610a705780601f10610a4757610100808354040283529160200191610a70565b820191905f5260205f20905b815481529060010190602001808311610a5357829003601f168201915b505050505090806002015f9054906101000a900460ff16905083565b5f5f9054906101000a900473ffffffffffffffffffffffffffffffffffffffff1681565b5f5f9054906101000a900473ffffffffffffffffffffffffffffffffffffffff1673ffffffffffffffffffffffffffffffffffffffff163373ffffffffffffffffffffffffffffffffffffffff1614610b3e576040517f08c379a0000000000000000000000000000000000000000000000000000000008152600401610b3590611147565b60405180910390fd5b5f60025f8581526020019081526020015f205f015403610b93576040517f08c379a0000000000000000000000000000000000000000000000000000000008152600401610b8a906115ee565b60405180910390fd5b5f8282905011610bd8576040517f08c379a0000000000000000000000000000000000000000000000000000000008152600401610bcf906111af565b60405180910390fd5b818160025f8681526020019081526020015f206001019182610bfb92919061165c565b50827f39fdc01494598bde3e34a388abd0032d3eafbd917b56d7572771da5146d277938383604051610c2e929190611729565b60405180910390a2505050565b60015481565b508054610c4d9061129b565b5f825580601f10610c5e5750610c7b565b601f0160209004905f5260205f2090810190610c7a9190610c9f565b5b50565b60405180606001604052805f8152602001606081526020015f151581525090565b5b80821115610cb6575f815f905550600101610ca0565b5090565b5f5ffd5b5f5ffd5b5f5ffd5b5f5ffd5b5f5ffd5b5f5f83601f840112610ce357610ce2610cc2565b5b8235905067ffffffffffffffff811115610d0057610cff610cc6565b5b602083019150836001820283011115610d1c57610d1b610cca565b5b9250929050565b5f5f60208385031215610d3957610d38610cba565b5b5f83013567ffffffffffffffff811115610d5657610d55610cbe565b5b610d6285828601610cce565b92509250509250929050565b5f819050919050565b610d8081610d6e565b8114610d8a575f5ffd5b50565b5f81359050610d9b81610d77565b92915050565b5f60208284031215610db657610db5610cba565b5b5f610dc384828501610d8d565b91505092915050565b610dd581610d6e565b82525050565b5f81519050919050565b5f82825260208201905092915050565b8281835e5f83830152505050565b5f601f19601f8301169050919050565b5f610e1d82610ddb565b610e278185610de5565b9350610e37818560208601610df5565b610e4081610e03565b840191505092915050565b5f8115159050919050565b610e5f81610e4b565b82525050565b5f606082019050610e785f830186610dcc565b8181036020830152610e8a8185610e13565b9050610e996040830184610e56565b949350505050565b5f81519050919050565b5f82825260208201905092915050565b5f819050602082019050919050565b610ed381610d6e565b82525050565b5f82825260208201905092915050565b5f610ef382610ddb565b610efd8185610ed9565b9350610f0d818560208601610df5565b610f1681610e03565b840191505092915050565b610f2a81610e4b565b82525050565b5f606083015f830151610f455f860182610eca565b5060208301518482036020860152610f5d8282610ee9565b9150506040830151610f726040860182610f21565b508091505092915050565b5f610f888383610f30565b905092915050565b5f602082019050919050565b5f610fa682610ea1565b610fb08185610eab565b935083602082028501610fc285610ebb565b805f5b85811015610ffd5784840389528151610fde8582610f7d565b9450610fe983610f90565b925060208a01995050600181019050610fc5565b50829750879550505050505092915050565b5f6020820190508181035f8301526110278184610f9c565b905092915050565b5f73ffffffffffffffffffffffffffffffffffffffff82169050919050565b5f6110588261102f565b9050919050565b6110688161104e565b82525050565b5f6020820190506110815f83018461105f565b92915050565b5f5f5f6040848603121561109e5761109d610cba565b5b5f6110ab86828701610d8d565b935050602084013567ffffffffffffffff8111156110cc576110cb610cbe565b5b6110d886828701610cce565b92509250509250925092565b5f6020820190506110f75f830184610dcc565b92915050565b7f546f446f203a2043616c6c6572206973206e6f7420746865204f776e657200005f82015250565b5f611131601e83610de5565b915061113c826110fd565b602082019050919050565b5f6020820190508181035f83015261115e81611125565b9050919050565b7f546f446f203a20436f6e74656e742063616e6e6f7420626520656d70747900005f82015250565b5f611199601e83610de5565b91506111a482611165565b602082019050919050565b5f6020820190508181035f8301526111c68161118d565b9050919050565b7f4e487b71000000000000000000000000000000000000000000000000000000005f52601160045260245ffd5b5f61120482610d6e565b91507fffffffffffffffffffffffffffffffffffffffffffffffffffffffffffffffff8203611236576112356111cd565b5b600182019050919050565b7f4e487b71000000000000000000000000000000000000000000000000000000005f52604160045260245ffd5b7f4e487b71000000000000000000000000000000000000000000000000000000005f52602260045260245ffd5b5f60028204905060018216806112b257607f821691505b6020821081036112c5576112c461126e565b5b50919050565b5f819050815f5260205f209050919050565b5f6020601f8301049050919050565b5f82821b905092915050565b5f600883026113277fffffffffffffffffffffffffffffffffffffffffffffffffffffffffffffffff826112ec565b61133186836112ec565b95508019841693508086168417925050509392505050565b5f819050919050565b5f61136c61136761136284610d6e565b611349565b610d6e565b9050919050565b5f819050919050565b61138583611352565b61139961139182611373565b8484546112f8565b825550505050565b5f5f905090565b6113b06113a1565b6113bb81848461137c565b505050565b5b818110156113de576113d35f826113a8565b6001810190506113c1565b5050565b601f821115611423576113f4816112cb565b6113fd846112dd565b8101602085101561140c578190505b611420611418856112dd565b8301826113c0565b50505b505050565b5f82821c905092915050565b5f6114435f1984600802611428565b1980831691505092915050565b5f61145b8383611434565b9150826002028217905092915050565b61147482610ddb565b67ffffffffffffffff81111561148d5761148c611241565b5b611497825461129b565b6114a28282856113e2565b5f60209050601f8311600181146114d3575f84156114c1578287015190505b6114cb8582611450565b865550611532565b601f1984166114e1866112cb565b5f5b82811015611508578489015182556001820191506020850194506020810190506114e3565b868310156115255784890151611521601f891682611434565b8355505b6001600288020188555050505b505050505050565b828183375f83830152505050565b5f6115538385610de5565b935061156083858461153a565b61156983610e03565b840190509392505050565b5f6040820190508181035f83015261158d818587611548565b905061159c6020830184610e56565b949350505050565b7f546f446f203a205461736b20646f6573206e6f742065786973742021200000005f82015250565b5f6115d8601d83610de5565b91506115e3826115a4565b602082019050919050565b5f6020820190508181035f830152611605816115cc565b9050919050565b5f60208201905061161f5f830184610e56565b92915050565b7f4e487b71000000000000000000000000000000000000000000000000000000005f52603260045260245ffd5b5f82905092915050565b6116668383611652565b67ffffffffffffffff81111561167f5761167e611241565b5b611689825461129b565b6116948282856113e2565b5f601f8311600181146116c1575f84156116af578287013590505b6116b98582611450565b865550611720565b601f1984166116cf866112cb565b5f5b828110156116f6578489013582556001820191506020850194506020810190506116d1565b86831015611713578489013561170f601f891682611434565b8355505b6001600288020188555050505b50505050505050565b5f6020820190508181035f830152611742818486611548565b9050939250505056fea264697066735822122049086d39a14d96a934dacab7d87679b4beeefe6ef33157ff83a8db79009d993f64736f6c634300081e0033",
					"opcodes": "PUSH1 0x80 PUSH1 0x40 MSTORE CALLVALUE DUP1 ISZERO PUSH1 0xE JUMPI PUSH0 PUSH0 REVERT JUMPDEST POP CALLER PUSH0 PUSH0 PUSH2 0x100 EXP DUP2 SLOAD DUP2 PUSH20 0xFFFFFFFFFFFFFFFFFFFFFFFFFFFFFFFFFFFFFFFF MUL NOT AND SWAP1 DUP4 PUSH20 0xFFFFFFFFFFFFFFFFFFFFFFFFFFFFFFFFFFFFFFFF AND MUL OR SWAP1 SSTORE POP PUSH2 0x1781 DUP1 PUSH2 0x5B PUSH0 CODECOPY PUSH0 RETURN INVALID PUSH1 0x80 PUSH1 0x40 MSTORE CALLVALUE DUP1 ISZERO PUSH2 0xF JUMPI PUSH0 PUSH0 REVERT JUMPDEST POP PUSH1 0x4 CALLDATASIZE LT PUSH2 0x91 JUMPI PUSH0 CALLDATALOAD PUSH1 0xE0 SHR DUP1 PUSH4 0x779900B4 GT PUSH2 0x64 JUMPI DUP1 PUSH4 0x779900B4 EQ PUSH2 0x11B JUMPI DUP1 PUSH4 0x8D977672 EQ PUSH2 0x139 JUMPI DUP1 PUSH4 0x8DA5CB5B EQ PUSH2 0x16B JUMPI DUP1 PUSH4 0xB0AC92C2 EQ PUSH2 0x189 JUMPI DUP1 PUSH4 0xB6CB58A5 EQ PUSH2 0x1A5 JUMPI PUSH2 0x91 JUMP JUMPDEST DUP1 PUSH4 0x111002AA EQ PUSH2 0x95 JUMPI DUP1 PUSH4 0x1D65E77E EQ PUSH2 0xB1 JUMPI DUP1 PUSH4 0x455F5024 EQ PUSH2 0xE3 JUMPI DUP1 PUSH4 0x560F3192 EQ PUSH2 0xFF JUMPI JUMPDEST PUSH0 PUSH0 REVERT JUMPDEST PUSH2 0xAF PUSH1 0x4 DUP1 CALLDATASIZE SUB DUP2 ADD SWAP1 PUSH2 0xAA SWAP2 SWAP1 PUSH2 0xD23 JUMP JUMPDEST PUSH2 0x1C3 JUMP JUMPDEST STOP JUMPDEST PUSH2 0xCB PUSH1 0x4 DUP1 CALLDATASIZE SUB DUP2 ADD SWAP1 PUSH2 0xC6 SWAP2 SWAP1 PUSH2 0xDA1 JUMP JUMPDEST PUSH2 0x3A5 JUMP JUMPDEST PUSH1 0x40 MLOAD PUSH2 0xDA SWAP4 SWAP3 SWAP2 SWAP1 PUSH2 0xE65 JUMP JUMPDEST PUSH1 0x40 MLOAD DUP1 SWAP2 SUB SWAP1 RETURN JUMPDEST PUSH2 0xFD PUSH1 0x4 DUP1 CALLDATASIZE SUB DUP2 ADD SWAP1 PUSH2 0xF8 SWAP2 SWAP1 PUSH2 0xDA1 JUMP JUMPDEST PUSH2 0x4C3 JUMP JUMPDEST STOP JUMPDEST PUSH2 0x119 PUSH1 0x4 DUP1 CALLDATASIZE SUB DUP2 ADD SWAP1 PUSH2 0x114 SWAP2 SWAP1 PUSH2 0xDA1 JUMP JUMPDEST PUSH2 0x632 JUMP JUMPDEST STOP JUMPDEST PUSH2 0x123 PUSH2 0x781 JUMP JUMPDEST PUSH1 0x40 MLOAD PUSH2 0x130 SWAP2 SWAP1 PUSH2 0x100F JUMP JUMPDEST PUSH1 0x40 MLOAD DUP1 SWAP2 SUB SWAP1 RETURN JUMPDEST PUSH2 0x153 PUSH1 0x4 DUP1 CALLDATASIZE SUB DUP2 ADD SWAP1 PUSH2 0x14E SWAP2 SWAP1 PUSH2 0xDA1 JUMP JUMPDEST PUSH2 0x9D4 JUMP JUMPDEST PUSH1 0x40 MLOAD PUSH2 0x162 SWAP4 SWAP3 SWAP2 SWAP1 PUSH2 0xE65 JUMP JUMPDEST PUSH1 0x40 MLOAD DUP1 SWAP2 SUB SWAP1 RETURN JUMPDEST PUSH2 0x173 PUSH2 0xA8C JUMP JUMPDEST PUSH1 0x40 MLOAD PUSH2 0x180 SWAP2 SWAP1 PUSH2 0x106E JUMP JUMPDEST PUSH1 0x40 MLOAD DUP1 SWAP2 SUB SWAP1 RETURN JUMPDEST PUSH2 0x1A3 PUSH1 0x4 DUP1 CALLDATASIZE SUB DUP2 ADD SWAP1 PUSH2 0x19E SWAP2 SWAP1 PUSH2 0x1087 JUMP JUMPDEST PUSH2 0xAB0 JUMP JUMPDEST STOP JUMPDEST PUSH2 0x1AD PUSH2 0xC3B JUMP JUMPDEST PUSH1 0x40 MLOAD PUSH2 0x1BA SWAP2 SWAP1 PUSH2 0x10E4 JUMP JUMPDEST PUSH1 0x40 MLOAD DUP1 SWAP2 SUB SWAP1 RETURN JUMPDEST PUSH0 PUSH0 SWAP1 SLOAD SWAP1 PUSH2 0x100 EXP SWAP1 DIV PUSH20 0xFFFFFFFFFFFFFFFFFFFFFFFFFFFFFFFFFFFFFFFF AND PUSH20 0xFFFFFFFFFFFFFFFFFFFFFFFFFFFFFFFFFFFFFFFF AND CALLER PUSH20 0xFFFFFFFFFFFFFFFFFFFFFFFFFFFFFFFFFFFFFFFF AND EQ PUSH2 0x251 JUMPI PUSH1 0x40 MLOAD PUSH32 0x8C379A000000000000000000000000000000000000000000000000000000000 DUP2 MSTORE PUSH1 0x4 ADD PUSH2 0x248 SWAP1 PUSH2 0x1147 JUMP JUMPDEST PUSH1 0x40 MLOAD DUP1 SWAP2 SUB SWAP1 REVERT JUMPDEST PUSH0 DUP3 DUP3 SWAP1 POP GT PUSH2 0x296 JUMPI PUSH1 0x40 MLOAD PUSH32 0x8C379A000000000000000000000000000000000000000000000000000000000 DUP2 MSTORE PUSH1 0x4 ADD PUSH2 0x28D SWAP1 PUSH2 0x11AF JUMP JUMPDEST PUSH1 0x40 MLOAD DUP1 SWAP2 SUB SWAP1 REVERT JUMPDEST PUSH1 0x1 PUSH0 DUP2 SLOAD DUP1 SWAP3 SWAP2 SWAP1 PUSH2 0x2A8 SWAP1 PUSH2 0x11FA JUMP JUMPDEST SWAP2 SWAP1 POP SSTORE POP PUSH0 PUSH1 0x1 SLOAD SWAP1 POP PUSH1 0x40 MLOAD DUP1 PUSH1 0x60 ADD PUSH1 0x40 MSTORE DUP1 DUP3 DUP2 MSTORE PUSH1 0x20 ADD DUP5 DUP5 DUP1 DUP1 PUSH1 0x1F ADD PUSH1 0x20 DUP1 SWAP2 DIV MUL PUSH1 0x20 ADD PUSH1 0x40 MLOAD SWAP1 DUP2 ADD PUSH1 0x40 MSTORE DUP1 SWAP4 SWAP3 SWAP2 SWAP1 DUP2 DUP2 MSTORE PUSH1 0x20 ADD DUP4 DUP4 DUP1 DUP3 DUP5 CALLDATACOPY PUSH0 DUP2 DUP5 ADD MSTORE PUSH1 0x1F NOT PUSH1 0x1F DUP3 ADD AND SWAP1 POP DUP1 DUP4 ADD SWAP3 POP POP POP POP POP POP POP DUP2 MSTORE PUSH1 0x20 ADD PUSH0 ISZERO ISZERO DUP2 MSTORE POP PUSH1 0x2 PUSH0 DUP4 DUP2 MSTORE PUSH1 0x20 ADD SWAP1 DUP2 MSTORE PUSH1 0x20 ADD PUSH0 KECCAK256 PUSH0 DUP3 ADD MLOAD DUP2 PUSH0 ADD SSTORE PUSH1 0x20 DUP3 ADD MLOAD DUP2 PUSH1 0x1 ADD SWAP1 DUP2 PUSH2 0x341 SWAP2 SWAP1 PUSH2 0x146B JUMP JUMPDEST POP PUSH1 0x40 DUP3 ADD MLOAD DUP2 PUSH1 0x2 ADD PUSH0 PUSH2 0x100 EXP DUP2 SLOAD DUP2 PUSH1 0xFF MUL NOT AND SWAP1 DUP4 ISZERO ISZERO MUL OR SWAP1 SSTORE POP SWAP1 POP POP DUP1 PUSH32 0x5D0FB833127FC08168556D0E7CA9554FC3F6BC843B3B7D2BF1C35AEA6BAB660 DUP5 DUP5 PUSH0 PUSH1 0x40 MLOAD PUSH2 0x398 SWAP4 SWAP3 SWAP2 SWAP1 PUSH2 0x1574 JUMP JUMPDEST PUSH1 0x40 MLOAD DUP1 SWAP2 SUB SWAP1 LOG2 POP POP POP JUMP JUMPDEST PUSH0 PUSH1 0x60 PUSH0 PUSH0 PUSH1 0x2 PUSH0 DUP7 DUP2 MSTORE PUSH1 0x20 ADD SWAP1 DUP2 MSTORE PUSH1 0x20 ADD PUSH0 KECCAK256 PUSH0 ADD SLOAD SUB PUSH2 0x3FE JUMPI PUSH1 0x40 MLOAD PUSH32 0x8C379A000000000000000000000000000000000000000000000000000000000 DUP2 MSTORE PUSH1 0x4 ADD PUSH2 0x3F5 SWAP1 PUSH2 0x15EE JUMP JUMPDEST PUSH1 0x40 MLOAD DUP1 SWAP2 SUB SWAP1 REVERT JUMPDEST PUSH0 PUSH1 0x2 PUSH0 DUP7 DUP2 MSTORE PUSH1 0x20 ADD SWAP1 DUP2 MSTORE PUSH1 0x20 ADD PUSH0 KECCAK256 SWAP1 POP DUP1 PUSH0 ADD SLOAD DUP2 PUSH1 0x1 ADD DUP3 PUSH1 0x2 ADD PUSH0 SWAP1 SLOAD SWAP1 PUSH2 0x100 EXP SWAP1 DIV PUSH1 0xFF AND DUP2 DUP1 SLOAD PUSH2 0x437 SWAP1 PUSH2 0x129B JUMP JUMPDEST DUP1 PUSH1 0x1F ADD PUSH1 0x20 DUP1 SWAP2 DIV MUL PUSH1 0x20 ADD PUSH1 0x40 MLOAD SWAP1 DUP2 ADD PUSH1 0x40 MSTORE DUP1 SWAP3 SWAP2 SWAP1 DUP2 DUP2 MSTORE PUSH1 0x20 ADD DUP3 DUP1 SLOAD PUSH2 0x463 SWAP1 PUSH2 0x129B JUMP JUMPDEST DUP1 ISZERO PUSH2 0x4AE JUMPI DUP1 PUSH1 0x1F LT PUSH2 0x485 JUMPI PUSH2 0x100 DUP1 DUP4 SLOAD DIV MUL DUP4 MSTORE SWAP2 PUSH1 0x20 ADD SWAP2 PUSH2 0x4AE JUMP JUMPDEST DUP3 ADD SWAP2 SWAP1 PUSH0 MSTORE PUSH1 0x20 PUSH0 KECCAK256 SWAP1 JUMPDEST DUP2 SLOAD DUP2 MSTORE SWAP1 PUSH1 0x1 ADD SWAP1 PUSH1 0x20 ADD DUP1 DUP4 GT PUSH2 0x491 JUMPI DUP3 SWAP1 SUB PUSH1 0x1F AND DUP3 ADD SWAP2 JUMPDEST POP POP POP POP POP SWAP2 POP SWAP4 POP SWAP4 POP SWAP4 POP POP SWAP2 SWAP4 SWAP1 SWAP3 POP JUMP JUMPDEST PUSH0 PUSH0 SWAP1 SLOAD SWAP1 PUSH2 0x100 EXP SWAP1 DIV PUSH20 0xFFFFFFFFFFFFFFFFFFFFFFFFFFFFFFFFFFFFFFFF AND PUSH20 0xFFFFFFFFFFFFFFFFFFFFFFFFFFFFFFFFFFFFFFFF AND CALLER PUSH20 0xFFFFFFFFFFFFFFFFFFFFFFFFFFFFFFFFFFFFFFFF AND EQ PUSH2 0x551 JUMPI PUSH1 0x40 MLOAD PUSH32 0x8C379A000000000000000000000000000000000000000000000000000000000 DUP2 MSTORE PUSH1 0x4 ADD PUSH2 0x548 SWAP1 PUSH2 0x1147 JUMP JUMPDEST PUSH1 0x40 MLOAD DUP1 SWAP2 SUB SWAP1 REVERT JUMPDEST PUSH0 PUSH1 0x2 PUSH0 DUP4 DUP2 MSTORE PUSH1 0x20 ADD SWAP1 DUP2 MSTORE PUSH1 0x20 ADD PUSH0 KECCAK256 PUSH0 ADD SLOAD SUB PUSH2 0x5A6 JUMPI PUSH1 0x40 MLOAD PUSH32 0x8C379A000000000000000000000000000000000000000000000000000000000 DUP2 MSTORE PUSH1 0x4 ADD PUSH2 0x59D SWAP1 PUSH2 0x15EE JUMP JUMPDEST PUSH1 0x40 MLOAD DUP1 SWAP2 SUB SWAP1 REVERT JUMPDEST PUSH0 PUSH1 0x2 PUSH0 DUP4 DUP2 MSTORE PUSH1 0x20 ADD SWAP1 DUP2 MSTORE PUSH1 0x20 ADD PUSH0 KECCAK256 SWAP1 POP DUP1 PUSH1 0x2 ADD PUSH0 SWAP1 SLOAD SWAP1 PUSH2 0x100 EXP SWAP1 DIV PUSH1 0xFF AND ISZERO DUP2 PUSH1 0x2 ADD PUSH0 PUSH2 0x100 EXP DUP2 SLOAD DUP2 PUSH1 0xFF MUL NOT AND SWAP1 DUP4 ISZERO ISZERO MUL OR SWAP1 SSTORE POP DUP2 PUSH32 0xE668C7A227D9261AA1F964BF5A852AB642446A7AF6C29405CAF8D0E9CE2C11F0 DUP3 PUSH1 0x2 ADD PUSH0 SWAP1 SLOAD SWAP1 PUSH2 0x100 EXP SWAP1 DIV PUSH1 0xFF AND PUSH1 0x40 MLOAD PUSH2 0x626 SWAP2 SWAP1 PUSH2 0x160C JUMP JUMPDEST PUSH1 0x40 MLOAD DUP1 SWAP2 SUB SWAP1 LOG2 POP POP JUMP JUMPDEST PUSH0 PUSH0 SWAP1 SLOAD SWAP1 PUSH2 0x100 EXP SWAP1 DIV PUSH20 0xFFFFFFFFFFFFFFFFFFFFFFFFFFFFFFFFFFFFFFFF AND PUSH20 0xFFFFFFFFFFFFFFFFFFFFFFFFFFFFFFFFFFFFFFFF AND CALLER PUSH20 0xFFFFFFFFFFFFFFFFFFFFFFFFFFFFFFFFFFFFFFFF AND EQ PUSH2 0x6C0 JUMPI PUSH1 0x40 MLOAD PUSH32 0x8C379A000000000000000000000000000000000000000000000000000000000 DUP2 MSTORE PUSH1 0x4 ADD PUSH2 0x6B7 SWAP1 PUSH2 0x1147 JUMP JUMPDEST PUSH1 0x40 MLOAD DUP1 SWAP2 SUB SWAP1 REVERT JUMPDEST PUSH0 PUSH1 0x2 PUSH0 DUP4 DUP2 MSTORE PUSH1 0x20 ADD SWAP1 DUP2 MSTORE PUSH1 0x20 ADD PUSH0 KECCAK256 PUSH0 ADD SLOAD SUB PUSH2 0x715 JUMPI PUSH1 0x40 MLOAD PUSH32 0x8C379A000000000000000000000000000000000000000000000000000000000 DUP2 MSTORE PUSH1 0x4 ADD PUSH2 0x70C SWAP1 PUSH2 0x15EE JUMP JUMPDEST PUSH1 0x40 MLOAD DUP1 SWAP2 SUB SWAP1 REVERT JUMPDEST PUSH1 0x2 PUSH0 DUP3 DUP2 MSTORE PUSH1 0x20 ADD SWAP1 DUP2 MSTORE PUSH1 0x20 ADD PUSH0 KECCAK256 PUSH0 PUSH0 DUP3 ADD PUSH0 SWAP1 SSTORE PUSH1 0x1 DUP3 ADD PUSH0 PUSH2 0x73C SWAP2 SWAP1 PUSH2 0xC41 JUMP JUMPDEST PUSH1 0x2 DUP3 ADD PUSH0 PUSH2 0x100 EXP DUP2 SLOAD SWAP1 PUSH1 0xFF MUL NOT AND SWAP1 SSTORE POP POP DUP1 PUSH32 0xD078B251D950CC55C44340BE1DB732337EF4939A76E1367EE271AD2CB19C46AF PUSH1 0x40 MLOAD PUSH1 0x40 MLOAD DUP1 SWAP2 SUB SWAP1 LOG2 POP JUMP JUMPDEST PUSH1 0x60 PUSH0 PUSH0 SWAP1 POP PUSH0 PUSH1 0x1 SWAP1 POP JUMPDEST PUSH1 0x1 SLOAD DUP2 GT PUSH2 0x7D2 JUMPI PUSH0 PUSH1 0x2 PUSH0 DUP4 DUP2 MSTORE PUSH1 0x20 ADD SWAP1 DUP2 MSTORE PUSH1 0x20 ADD PUSH0 KECCAK256 PUSH0 ADD SLOAD EQ PUSH2 0x7BF JUMPI DUP2 DUP1 PUSH2 0x7BB SWAP1 PUSH2 0x11FA JUMP JUMPDEST SWAP3 POP POP JUMPDEST DUP1 DUP1 PUSH2 0x7CA SWAP1 PUSH2 0x11FA JUMP JUMPDEST SWAP2 POP POP PUSH2 0x78D JUMP JUMPDEST POP PUSH0 DUP2 SUB PUSH2 0x836 JUMPI PUSH0 PUSH8 0xFFFFFFFFFFFFFFFF DUP2 GT ISZERO PUSH2 0x7F4 JUMPI PUSH2 0x7F3 PUSH2 0x1241 JUMP JUMPDEST JUMPDEST PUSH1 0x40 MLOAD SWAP1 DUP1 DUP3 MSTORE DUP1 PUSH1 0x20 MUL PUSH1 0x20 ADD DUP3 ADD PUSH1 0x40 MSTORE DUP1 ISZERO PUSH2 0x82D JUMPI DUP2 PUSH1 0x20 ADD JUMPDEST PUSH2 0x81A PUSH2 0xC7E JUMP JUMPDEST DUP2 MSTORE PUSH1 0x20 ADD SWAP1 PUSH1 0x1 SWAP1 SUB SWAP1 DUP2 PUSH2 0x812 JUMPI SWAP1 POP JUMPDEST POP SWAP2 POP POP PUSH2 0x9D1 JUMP JUMPDEST PUSH0 DUP2 PUSH8 0xFFFFFFFFFFFFFFFF DUP2 GT ISZERO PUSH2 0x851 JUMPI PUSH2 0x850 PUSH2 0x1241 JUMP JUMPDEST JUMPDEST PUSH1 0x40 MLOAD SWAP1 DUP1 DUP3 MSTORE DUP1 PUSH1 0x20 MUL PUSH1 0x20 ADD DUP3 ADD PUSH1 0x40 MSTORE DUP1 ISZERO PUSH2 0x88A JUMPI DUP2 PUSH1 0x20 ADD JUMPDEST PUSH2 0x877 PUSH2 0xC7E JUMP JUMPDEST DUP2 MSTORE PUSH1 0x20 ADD SWAP1 PUSH1 0x1 SWAP1 SUB SWAP1 DUP2 PUSH2 0x86F JUMPI SWAP1 POP JUMPDEST POP SWAP1 POP PUSH0 PUSH0 SWAP1 POP PUSH0 PUSH1 0x1 SWAP1 POP JUMPDEST PUSH1 0x1 SLOAD DUP2 GT PUSH2 0x9C9 JUMPI PUSH0 PUSH1 0x2 PUSH0 DUP4 DUP2 MSTORE PUSH1 0x20 ADD SWAP1 DUP2 MSTORE PUSH1 0x20 ADD PUSH0 KECCAK256 PUSH0 ADD SLOAD EQ PUSH2 0x9B6 JUMPI PUSH1 0x2 PUSH0 DUP3 DUP2 MSTORE PUSH1 0x20 ADD SWAP1 DUP2 MSTORE PUSH1 0x20 ADD PUSH0 KECCAK256 PUSH1 0x40 MLOAD DUP1 PUSH1 0x60 ADD PUSH1 0x40 MSTORE SWAP1 DUP2 PUSH0 DUP3 ADD SLOAD DUP2 MSTORE PUSH1 0x20 ADD PUSH1 0x1 DUP3 ADD DUP1 SLOAD PUSH2 0x8EF SWAP1 PUSH2 0x129B JUMP JUMPDEST DUP1 PUSH1 0x1F ADD PUSH1 0x20 DUP1 SWAP2 DIV MUL PUSH1 0x20 ADD PUSH1 0x40 MLOAD SWAP1 DUP2 ADD PUSH1 0x40 MSTORE DUP1 SWAP3 SWAP2 SWAP1 DUP2 DUP2 MSTORE PUSH1 0x20 ADD DUP3 DUP1 SLOAD PUSH2 0x91B SWAP1 PUSH2 0x129B JUMP JUMPDEST DUP1 ISZERO PUSH2 0x966 JUMPI DUP1 PUSH1 0x1F LT PUSH2 0x93D JUMPI PUSH2 0x100 DUP1 DUP4 SLOAD DIV MUL DUP4 MSTORE SWAP2 PUSH1 0x20 ADD SWAP2 PUSH2 0x966 JUMP JUMPDEST DUP3 ADD SWAP2 SWAP1 PUSH0 MSTORE PUSH1 0x20 PUSH0 KECCAK256 SWAP1 JUMPDEST DUP2 SLOAD DUP2 MSTORE SWAP1 PUSH1 0x1 ADD SWAP1 PUSH1 0x20 ADD DUP1 DUP4 GT PUSH2 0x949 JUMPI DUP3 SWAP1 SUB PUSH1 0x1F AND DUP3 ADD SWAP2 JUMPDEST POP POP POP POP POP DUP2 MSTORE PUSH1 0x20 ADD PUSH1 0x2 DUP3 ADD PUSH0 SWAP1 SLOAD SWAP1 PUSH2 0x100 EXP SWAP1 DIV PUSH1 0xFF AND ISZERO ISZERO ISZERO ISZERO DUP2 MSTORE POP POP DUP4 DUP4 DUP2 MLOAD DUP2 LT PUSH2 0x99C JUMPI PUSH2 0x99B PUSH2 0x1625 JUMP JUMPDEST JUMPDEST PUSH1 0x20 MUL PUSH1 0x20 ADD ADD DUP2 SWAP1 MSTORE POP DUP2 DUP1 PUSH2 0x9B2 SWAP1 PUSH2 0x11FA JUMP JUMPDEST SWAP3 POP POP JUMPDEST DUP1 DUP1 PUSH2 0x9C1 SWAP1 PUSH2 0x11FA JUMP JUMPDEST SWAP2 POP POP PUSH2 0x897 JUMP JUMPDEST POP DUP2 SWAP4 POP POP POP POP JUMPDEST SWAP1 JUMP JUMPDEST PUSH1 0x2 PUSH1 0x20 MSTORE DUP1 PUSH0 MSTORE PUSH1 0x40 PUSH0 KECCAK256 PUSH0 SWAP2 POP SWAP1 POP DUP1 PUSH0 ADD SLOAD SWAP1 DUP1 PUSH1 0x1 ADD DUP1 SLOAD PUSH2 0x9F9 SWAP1 PUSH2 0x129B JUMP JUMPDEST DUP1 PUSH1 0x1F ADD PUSH1 0x20 DUP1 SWAP2 DIV MUL PUSH1 0x20 ADD PUSH1 0x40 MLOAD SWAP1 DUP2 ADD PUSH1 0x40 MSTORE DUP1 SWAP3 SWAP2 SWAP1 DUP2 DUP2 MSTORE PUSH1 0x20 ADD DUP3 DUP1 SLOAD PUSH2 0xA25 SWAP1 PUSH2 0x129B JUMP JUMPDEST DUP1 ISZERO PUSH2 0xA70 JUMPI DUP1 PUSH1 0x1F LT PUSH2 0xA47 JUMPI PUSH2 0x100 DUP1 DUP4 SLOAD DIV MUL DUP4 MSTORE SWAP2 PUSH1 0x20 ADD SWAP2 PUSH2 0xA70 JUMP JUMPDEST DUP3 ADD SWAP2 SWAP1 PUSH0 MSTORE PUSH1 0x20 PUSH0 KECCAK256 SWAP1 JUMPDEST DUP2 SLOAD DUP2 MSTORE SWAP1 PUSH1 0x1 ADD SWAP1 PUSH1 0x20 ADD DUP1 DUP4 GT PUSH2 0xA53 JUMPI DUP3 SWAP1 SUB PUSH1 0x1F AND DUP3 ADD SWAP2 JUMPDEST POP POP POP POP POP SWAP1 DUP1 PUSH1 0x2 ADD PUSH0 SWAP1 SLOAD SWAP1 PUSH2 0x100 EXP SWAP1 DIV PUSH1 0xFF AND SWAP1 POP DUP4 JUMP JUMPDEST PUSH0 PUSH0 SWAP1 SLOAD SWAP1 PUSH2 0x100 EXP SWAP1 DIV PUSH20 0xFFFFFFFFFFFFFFFFFFFFFFFFFFFFFFFFFFFFFFFF AND DUP2 JUMP JUMPDEST PUSH0 PUSH0 SWAP1 SLOAD SWAP1 PUSH2 0x100 EXP SWAP1 DIV PUSH20 0xFFFFFFFFFFFFFFFFFFFFFFFFFFFFFFFFFFFFFFFF AND PUSH20 0xFFFFFFFFFFFFFFFFFFFFFFFFFFFFFFFFFFFFFFFF AND CALLER PUSH20 0xFFFFFFFFFFFFFFFFFFFFFFFFFFFFFFFFFFFFFFFF AND EQ PUSH2 0xB3E JUMPI PUSH1 0x40 MLOAD PUSH32 0x8C379A000000000000000000000000000000000000000000000000000000000 DUP2 MSTORE PUSH1 0x4 ADD PUSH2 0xB35 SWAP1 PUSH2 0x1147 JUMP JUMPDEST PUSH1 0x40 MLOAD DUP1 SWAP2 SUB SWAP1 REVERT JUMPDEST PUSH0 PUSH1 0x2 PUSH0 DUP6 DUP2 MSTORE PUSH1 0x20 ADD SWAP1 DUP2 MSTORE PUSH1 0x20 ADD PUSH0 KECCAK256 PUSH0 ADD SLOAD SUB PUSH2 0xB93 JUMPI PUSH1 0x40 MLOAD PUSH32 0x8C379A000000000000000000000000000000000000000000000000000000000 DUP2 MSTORE PUSH1 0x4 ADD PUSH2 0xB8A SWAP1 PUSH2 0x15EE JUMP JUMPDEST PUSH1 0x40 MLOAD DUP1 SWAP2 SUB SWAP1 REVERT JUMPDEST PUSH0 DUP3 DUP3 SWAP1 POP GT PUSH2 0xBD8 JUMPI PUSH1 0x40 MLOAD PUSH32 0x8C379A000000000000000000000000000000000000000000000000000000000 DUP2 MSTORE PUSH1 0x4 ADD PUSH2 0xBCF SWAP1 PUSH2 0x11AF JUMP JUMPDEST PUSH1 0x40 MLOAD DUP1 SWAP2 SUB SWAP1 REVERT JUMPDEST DUP2 DUP2 PUSH1 0x2 PUSH0 DUP7 DUP2 MSTORE PUSH1 0x20 ADD SWAP1 DUP2 MSTORE PUSH1 0x20 ADD PUSH0 KECCAK256 PUSH1 0x1 ADD SWAP2 DUP3 PUSH2 0xBFB SWAP3 SWAP2 SWAP1 PUSH2 0x165C JUMP JUMPDEST POP DUP3 PUSH32 0x39FDC01494598BDE3E34A388ABD0032D3EAFBD917B56D7572771DA5146D27793 DUP4 DUP4 PUSH1 0x40 MLOAD PUSH2 0xC2E SWAP3 SWAP2 SWAP1 PUSH2 0x1729 JUMP JUMPDEST PUSH1 0x40 MLOAD DUP1 SWAP2 SUB SWAP1 LOG2 POP POP POP JUMP JUMPDEST PUSH1 0x1 SLOAD DUP2 JUMP JUMPDEST POP DUP1 SLOAD PUSH2 0xC4D SWAP1 PUSH2 0x129B JUMP JUMPDEST PUSH0 DUP3 SSTORE DUP1 PUSH1 0x1F LT PUSH2 0xC5E JUMPI POP PUSH2 0xC7B JUMP JUMPDEST PUSH1 0x1F ADD PUSH1 0x20 SWAP1 DIV SWAP1 PUSH0 MSTORE PUSH1 0x20 PUSH0 KECCAK256 SWAP1 DUP2 ADD SWAP1 PUSH2 0xC7A SWAP2 SWAP1 PUSH2 0xC9F JUMP JUMPDEST JUMPDEST POP JUMP JUMPDEST PUSH1 0x40 MLOAD DUP1 PUSH1 0x60 ADD PUSH1 0x40 MSTORE DUP1 PUSH0 DUP2 MSTORE PUSH1 0x20 ADD PUSH1 0x60 DUP2 MSTORE PUSH1 0x20 ADD PUSH0 ISZERO ISZERO DUP2 MSTORE POP SWAP1 JUMP JUMPDEST JUMPDEST DUP1 DUP3 GT ISZERO PUSH2 0xCB6 JUMPI PUSH0 DUP2 PUSH0 SWAP1 SSTORE POP PUSH1 0x1 ADD PUSH2 0xCA0 JUMP JUMPDEST POP SWAP1 JUMP JUMPDEST PUSH0 PUSH0 REVERT JUMPDEST PUSH0 PUSH0 REVERT JUMPDEST PUSH0 PUSH0 REVERT JUMPDEST PUSH0 PUSH0 REVERT JUMPDEST PUSH0 PUSH0 REVERT JUMPDEST PUSH0 PUSH0 DUP4 PUSH1 0x1F DUP5 ADD SLT PUSH2 0xCE3 JUMPI PUSH2 0xCE2 PUSH2 0xCC2 JUMP JUMPDEST JUMPDEST DUP3 CALLDATALOAD SWAP1 POP PUSH8 0xFFFFFFFFFFFFFFFF DUP2 GT ISZERO PUSH2 0xD00 JUMPI PUSH2 0xCFF PUSH2 0xCC6 JUMP JUMPDEST JUMPDEST PUSH1 0x20 DUP4 ADD SWAP2 POP DUP4 PUSH1 0x1 DUP3 MUL DUP4 ADD GT ISZERO PUSH2 0xD1C JUMPI PUSH2 0xD1B PUSH2 0xCCA JUMP JUMPDEST JUMPDEST SWAP3 POP SWAP3 SWAP1 POP JUMP JUMPDEST PUSH0 PUSH0 PUSH1 0x20 DUP4 DUP6 SUB SLT ISZERO PUSH2 0xD39 JUMPI PUSH2 0xD38 PUSH2 0xCBA JUMP JUMPDEST JUMPDEST PUSH0 DUP4 ADD CALLDATALOAD PUSH8 0xFFFFFFFFFFFFFFFF DUP2 GT ISZERO PUSH2 0xD56 JUMPI PUSH2 0xD55 PUSH2 0xCBE JUMP JUMPDEST JUMPDEST PUSH2 0xD62 DUP6 DUP3 DUP7 ADD PUSH2 0xCCE JUMP JUMPDEST SWAP3 POP SWAP3 POP POP SWAP3 POP SWAP3 SWAP1 POP JUMP JUMPDEST PUSH0 DUP2 SWAP1 POP SWAP2 SWAP1 POP JUMP JUMPDEST PUSH2 0xD80 DUP2 PUSH2 0xD6E JUMP JUMPDEST DUP2 EQ PUSH2 0xD8A JUMPI PUSH0 PUSH0 REVERT JUMPDEST POP JUMP JUMPDEST PUSH0 DUP2 CALLDATALOAD SWAP1 POP PUSH2 0xD9B DUP2 PUSH2 0xD77 JUMP JUMPDEST SWAP3 SWAP2 POP POP JUMP JUMPDEST PUSH0 PUSH1 0x20 DUP3 DUP5 SUB SLT ISZERO PUSH2 0xDB6 JUMPI PUSH2 0xDB5 PUSH2 0xCBA JUMP JUMPDEST JUMPDEST PUSH0 PUSH2 0xDC3 DUP5 DUP3 DUP6 ADD PUSH2 0xD8D JUMP JUMPDEST SWAP2 POP POP SWAP3 SWAP2 POP POP JUMP JUMPDEST PUSH2 0xDD5 DUP2 PUSH2 0xD6E JUMP JUMPDEST DUP3 MSTORE POP POP JUMP JUMPDEST PUSH0 DUP2 MLOAD SWAP1 POP SWAP2 SWAP1 POP JUMP JUMPDEST PUSH0 DUP3 DUP3 MSTORE PUSH1 0x20 DUP3 ADD SWAP1 POP SWAP3 SWAP2 POP POP JUMP JUMPDEST DUP3 DUP2 DUP4 MCOPY PUSH0 DUP4 DUP4 ADD MSTORE POP POP POP JUMP JUMPDEST PUSH0 PUSH1 0x1F NOT PUSH1 0x1F DUP4 ADD AND SWAP1 POP SWAP2 SWAP1 POP JUMP JUMPDEST PUSH0 PUSH2 0xE1D DUP3 PUSH2 0xDDB JUMP JUMPDEST PUSH2 0xE27 DUP2 DUP6 PUSH2 0xDE5 JUMP JUMPDEST SWAP4 POP PUSH2 0xE37 DUP2 DUP6 PUSH1 0x20 DUP7 ADD PUSH2 0xDF5 JUMP JUMPDEST PUSH2 0xE40 DUP2 PUSH2 0xE03 JUMP JUMPDEST DUP5 ADD SWAP2 POP POP SWAP3 SWAP2 POP POP JUMP JUMPDEST PUSH0 DUP2 ISZERO ISZERO SWAP1 POP SWAP2 SWAP1 POP JUMP JUMPDEST PUSH2 0xE5F DUP2 PUSH2 0xE4B JUMP JUMPDEST DUP3 MSTORE POP POP JUMP JUMPDEST PUSH0 PUSH1 0x60 DUP3 ADD SWAP1 POP PUSH2 0xE78 PUSH0 DUP4 ADD DUP7 PUSH2 0xDCC JUMP JUMPDEST DUP2 DUP2 SUB PUSH1 0x20 DUP4 ADD MSTORE PUSH2 0xE8A DUP2 DUP6 PUSH2 0xE13 JUMP JUMPDEST SWAP1 POP PUSH2 0xE99 PUSH1 0x40 DUP4 ADD DUP5 PUSH2 0xE56 JUMP JUMPDEST SWAP5 SWAP4 POP POP POP POP JUMP JUMPDEST PUSH0 DUP2 MLOAD SWAP1 POP SWAP2 SWAP1 POP JUMP JUMPDEST PUSH0 DUP3 DUP3 MSTORE PUSH1 0x20 DUP3 ADD SWAP1 POP SWAP3 SWAP2 POP POP JUMP JUMPDEST PUSH0 DUP2 SWAP1 POP PUSH1 0x20 DUP3 ADD SWAP1 POP SWAP2 SWAP1 POP JUMP JUMPDEST PUSH2 0xED3 DUP2 PUSH2 0xD6E JUMP JUMPDEST DUP3 MSTORE POP POP JUMP JUMPDEST PUSH0 DUP3 DUP3 MSTORE PUSH1 0x20 DUP3 ADD SWAP1 POP SWAP3 SWAP2 POP POP JUMP JUMPDEST PUSH0 PUSH2 0xEF3 DUP3 PUSH2 0xDDB JUMP JUMPDEST PUSH2 0xEFD DUP2 DUP6 PUSH2 0xED9 JUMP JUMPDEST SWAP4 POP PUSH2 0xF0D DUP2 DUP6 PUSH1 0x20 DUP7 ADD PUSH2 0xDF5 JUMP JUMPDEST PUSH2 0xF16 DUP2 PUSH2 0xE03 JUMP JUMPDEST DUP5 ADD SWAP2 POP POP SWAP3 SWAP2 POP POP JUMP JUMPDEST PUSH2 0xF2A DUP2 PUSH2 0xE4B JUMP JUMPDEST DUP3 MSTORE POP POP JUMP JUMPDEST PUSH0 PUSH1 0x60 DUP4 ADD PUSH0 DUP4 ADD MLOAD PUSH2 0xF45 PUSH0 DUP7 ADD DUP3 PUSH2 0xECA JUMP JUMPDEST POP PUSH1 0x20 DUP4 ADD MLOAD DUP5 DUP3 SUB PUSH1 0x20 DUP7 ADD MSTORE PUSH2 0xF5D DUP3 DUP3 PUSH2 0xEE9 JUMP JUMPDEST SWAP2 POP POP PUSH1 0x40 DUP4 ADD MLOAD PUSH2 0xF72 PUSH1 0x40 DUP7 ADD DUP3 PUSH2 0xF21 JUMP JUMPDEST POP DUP1 SWAP2 POP POP SWAP3 SWAP2 POP POP JUMP JUMPDEST PUSH0 PUSH2 0xF88 DUP4 DUP4 PUSH2 0xF30 JUMP JUMPDEST SWAP1 POP SWAP3 SWAP2 POP POP JUMP JUMPDEST PUSH0 PUSH1 0x20 DUP3 ADD SWAP1 POP SWAP2 SWAP1 POP JUMP JUMPDEST PUSH0 PUSH2 0xFA6 DUP3 PUSH2 0xEA1 JUMP JUMPDEST PUSH2 0xFB0 DUP2 DUP6 PUSH2 0xEAB JUMP JUMPDEST SWAP4 POP DUP4 PUSH1 0x20 DUP3 MUL DUP6 ADD PUSH2 0xFC2 DUP6 PUSH2 0xEBB JUMP JUMPDEST DUP1 PUSH0 JUMPDEST DUP6 DUP2 LT ISZERO PUSH2 0xFFD JUMPI DUP5 DUP5 SUB DUP10 MSTORE DUP2 MLOAD PUSH2 0xFDE DUP6 DUP3 PUSH2 0xF7D JUMP JUMPDEST SWAP5 POP PUSH2 0xFE9 DUP4 PUSH2 0xF90 JUMP JUMPDEST SWAP3 POP PUSH1 0x20 DUP11 ADD SWAP10 POP POP PUSH1 0x1 DUP2 ADD SWAP1 POP PUSH2 0xFC5 JUMP JUMPDEST POP DUP3 SWAP8 POP DUP8 SWAP6 POP POP POP POP POP POP SWAP3 SWAP2 POP POP JUMP JUMPDEST PUSH0 PUSH1 0x20 DUP3 ADD SWAP1 POP DUP2 DUP2 SUB PUSH0 DUP4 ADD MSTORE PUSH2 0x1027 DUP2 DUP5 PUSH2 0xF9C JUMP JUMPDEST SWAP1 POP SWAP3 SWAP2 POP POP JUMP JUMPDEST PUSH0 PUSH20 0xFFFFFFFFFFFFFFFFFFFFFFFFFFFFFFFFFFFFFFFF DUP3 AND SWAP1 POP SWAP2 SWAP1 POP JUMP JUMPDEST PUSH0 PUSH2 0x1058 DUP3 PUSH2 0x102F JUMP JUMPDEST SWAP1 POP SWAP2 SWAP1 POP JUMP JUMPDEST PUSH2 0x1068 DUP2 PUSH2 0x104E JUMP JUMPDEST DUP3 MSTORE POP POP JUMP JUMPDEST PUSH0 PUSH1 0x20 DUP3 ADD SWAP1 POP PUSH2 0x1081 PUSH0 DUP4 ADD DUP5 PUSH2 0x105F JUMP JUMPDEST SWAP3 SWAP2 POP POP JUMP JUMPDEST PUSH0 PUSH0 PUSH0 PUSH1 0x40 DUP5 DUP7 SUB SLT ISZERO PUSH2 0x109E JUMPI PUSH2 0x109D PUSH2 0xCBA JUMP JUMPDEST JUMPDEST PUSH0 PUSH2 0x10AB DUP7 DUP3 DUP8 ADD PUSH2 0xD8D JUMP JUMPDEST SWAP4 POP POP PUSH1 0x20 DUP5 ADD CALLDATALOAD PUSH8 0xFFFFFFFFFFFFFFFF DUP2 GT ISZERO PUSH2 0x10CC JUMPI PUSH2 0x10CB PUSH2 0xCBE JUMP JUMPDEST JUMPDEST PUSH2 0x10D8 DUP7 DUP3 DUP8 ADD PUSH2 0xCCE JUMP JUMPDEST SWAP3 POP SWAP3 POP POP SWAP3 POP SWAP3 POP SWAP3 JUMP JUMPDEST PUSH0 PUSH1 0x20 DUP3 ADD SWAP1 POP PUSH2 0x10F7 PUSH0 DUP4 ADD DUP5 PUSH2 0xDCC JUMP JUMPDEST SWAP3 SWAP2 POP POP JUMP JUMPDEST PUSH32 0x546F446F203A2043616C6C6572206973206E6F7420746865204F776E65720000 PUSH0 DUP3 ADD MSTORE POP JUMP JUMPDEST PUSH0 PUSH2 0x1131 PUSH1 0x1E DUP4 PUSH2 0xDE5 JUMP JUMPDEST SWAP2 POP PUSH2 0x113C DUP3 PUSH2 0x10FD JUMP JUMPDEST PUSH1 0x20 DUP3 ADD SWAP1 POP SWAP2 SWAP1 POP JUMP JUMPDEST PUSH0 PUSH1 0x20 DUP3 ADD SWAP1 POP DUP2 DUP2 SUB PUSH0 DUP4 ADD MSTORE PUSH2 0x115E DUP2 PUSH2 0x1125 JUMP JUMPDEST SWAP1 POP SWAP2 SWAP1 POP JUMP JUMPDEST PUSH32 0x546F446F203A20436F6E74656E742063616E6E6F7420626520656D7074790000 PUSH0 DUP3 ADD MSTORE POP JUMP JUMPDEST PUSH0 PUSH2 0x1199 PUSH1 0x1E DUP4 PUSH2 0xDE5 JUMP JUMPDEST SWAP2 POP PUSH2 0x11A4 DUP3 PUSH2 0x1165 JUMP JUMPDEST PUSH1 0x20 DUP3 ADD SWAP1 POP SWAP2 SWAP1 POP JUMP JUMPDEST PUSH0 PUSH1 0x20 DUP3 ADD SWAP1 POP DUP2 DUP2 SUB PUSH0 DUP4 ADD MSTORE PUSH2 0x11C6 DUP2 PUSH2 0x118D JUMP JUMPDEST SWAP1 POP SWAP2 SWAP1 POP JUMP JUMPDEST PUSH32 0x4E487B7100000000000000000000000000000000000000000000000000000000 PUSH0 MSTORE PUSH1 0x11 PUSH1 0x4 MSTORE PUSH1 0x24 PUSH0 REVERT JUMPDEST PUSH0 PUSH2 0x1204 DUP3 PUSH2 0xD6E JUMP JUMPDEST SWAP2 POP PUSH32 0xFFFFFFFFFFFFFFFFFFFFFFFFFFFFFFFFFFFFFFFFFFFFFFFFFFFFFFFFFFFFFFFF DUP3 SUB PUSH2 0x1236 JUMPI PUSH2 0x1235 PUSH2 0x11CD JUMP JUMPDEST JUMPDEST PUSH1 0x1 DUP3 ADD SWAP1 POP SWAP2 SWAP1 POP JUMP JUMPDEST PUSH32 0x4E487B7100000000000000000000000000000000000000000000000000000000 PUSH0 MSTORE PUSH1 0x41 PUSH1 0x4 MSTORE PUSH1 0x24 PUSH0 REVERT JUMPDEST PUSH32 0x4E487B7100000000000000000000000000000000000000000000000000000000 PUSH0 MSTORE PUSH1 0x22 PUSH1 0x4 MSTORE PUSH1 0x24 PUSH0 REVERT JUMPDEST PUSH0 PUSH1 0x2 DUP3 DIV SWAP1 POP PUSH1 0x1 DUP3 AND DUP1 PUSH2 0x12B2 JUMPI PUSH1 0x7F DUP3 AND SWAP2 POP JUMPDEST PUSH1 0x20 DUP3 LT DUP2 SUB PUSH2 0x12C5 JUMPI PUSH2 0x12C4 PUSH2 0x126E JUMP JUMPDEST JUMPDEST POP SWAP2 SWAP1 POP JUMP JUMPDEST PUSH0 DUP2 SWAP1 POP DUP2 PUSH0 MSTORE PUSH1 0x20 PUSH0 KECCAK256 SWAP1 POP SWAP2 SWAP1 POP JUMP JUMPDEST PUSH0 PUSH1 0x20 PUSH1 0x1F DUP4 ADD DIV SWAP1 POP SWAP2 SWAP1 POP JUMP JUMPDEST PUSH0 DUP3 DUP3 SHL SWAP1 POP SWAP3 SWAP2 POP POP JUMP JUMPDEST PUSH0 PUSH1 0x8 DUP4 MUL PUSH2 0x1327 PUSH32 0xFFFFFFFFFFFFFFFFFFFFFFFFFFFFFFFFFFFFFFFFFFFFFFFFFFFFFFFFFFFFFFFF DUP3 PUSH2 0x12EC JUMP JUMPDEST PUSH2 0x1331 DUP7 DUP4 PUSH2 0x12EC JUMP JUMPDEST SWAP6 POP DUP1 NOT DUP5 AND SWAP4 POP DUP1 DUP7 AND DUP5 OR SWAP3 POP POP POP SWAP4 SWAP3 POP POP POP JUMP JUMPDEST PUSH0 DUP2 SWAP1 POP SWAP2 SWAP1 POP JUMP JUMPDEST PUSH0 PUSH2 0x136C PUSH2 0x1367 PUSH2 0x1362 DUP5 PUSH2 0xD6E JUMP JUMPDEST PUSH2 0x1349 JUMP JUMPDEST PUSH2 0xD6E JUMP JUMPDEST SWAP1 POP SWAP2 SWAP1 POP JUMP JUMPDEST PUSH0 DUP2 SWAP1 POP SWAP2 SWAP1 POP JUMP JUMPDEST PUSH2 0x1385 DUP4 PUSH2 0x1352 JUMP JUMPDEST PUSH2 0x1399 PUSH2 0x1391 DUP3 PUSH2 0x1373 JUMP JUMPDEST DUP5 DUP5 SLOAD PUSH2 0x12F8 JUMP JUMPDEST DUP3 SSTORE POP POP POP POP JUMP JUMPDEST PUSH0 PUSH0 SWAP1 POP SWAP1 JUMP JUMPDEST PUSH2 0x13B0 PUSH2 0x13A1 JUMP JUMPDEST PUSH2 0x13BB DUP2 DUP5 DUP5 PUSH2 0x137C JUMP JUMPDEST POP POP POP JUMP JUMPDEST JUMPDEST DUP2 DUP2 LT ISZERO PUSH2 0x13DE JUMPI PUSH2 0x13D3 PUSH0 DUP3 PUSH2 0x13A8 JUMP JUMPDEST PUSH1 0x1 DUP2 ADD SWAP1 POP PUSH2 0x13C1 JUMP JUMPDEST POP POP JUMP JUMPDEST PUSH1 0x1F DUP3 GT ISZERO PUSH2 0x1423 JUMPI PUSH2 0x13F4 DUP2 PUSH2 0x12CB JUMP JUMPDEST PUSH2 0x13FD DUP5 PUSH2 0x12DD JUMP JUMPDEST DUP2 ADD PUSH1 0x20 DUP6 LT ISZERO PUSH2 0x140C JUMPI DUP2 SWAP1 POP JUMPDEST PUSH2 0x1420 PUSH2 0x1418 DUP6 PUSH2 0x12DD JUMP JUMPDEST DUP4 ADD DUP3 PUSH2 0x13C0 JUMP JUMPDEST POP POP JUMPDEST POP POP POP JUMP JUMPDEST PUSH0 DUP3 DUP3 SHR SWAP1 POP SWAP3 SWAP2 POP POP JUMP JUMPDEST PUSH0 PUSH2 0x1443 PUSH0 NOT DUP5 PUSH1 0x8 MUL PUSH2 0x1428 JUMP JUMPDEST NOT DUP1 DUP4 AND SWAP2 POP POP SWAP3 SWAP2 POP POP JUMP JUMPDEST PUSH0 PUSH2 0x145B DUP4 DUP4 PUSH2 0x1434 JUMP JUMPDEST SWAP2 POP DUP3 PUSH1 0x2 MUL DUP3 OR SWAP1 POP SWAP3 SWAP2 POP POP JUMP JUMPDEST PUSH2 0x1474 DUP3 PUSH2 0xDDB JUMP JUMPDEST PUSH8 0xFFFFFFFFFFFFFFFF DUP2 GT ISZERO PUSH2 0x148D JUMPI PUSH2 0x148C PUSH2 0x1241 JUMP JUMPDEST JUMPDEST PUSH2 0x1497 DUP3 SLOAD PUSH2 0x129B JUMP JUMPDEST PUSH2 0x14A2 DUP3 DUP3 DUP6 PUSH2 0x13E2 JUMP JUMPDEST PUSH0 PUSH1 0x20 SWAP1 POP PUSH1 0x1F DUP4 GT PUSH1 0x1 DUP2 EQ PUSH2 0x14D3 JUMPI PUSH0 DUP5 ISZERO PUSH2 0x14C1 JUMPI DUP3 DUP8 ADD MLOAD SWAP1 POP JUMPDEST PUSH2 0x14CB DUP6 DUP3 PUSH2 0x1450 JUMP JUMPDEST DUP7 SSTORE POP PUSH2 0x1532 JUMP JUMPDEST PUSH1 0x1F NOT DUP5 AND PUSH2 0x14E1 DUP7 PUSH2 0x12CB JUMP JUMPDEST PUSH0 JUMPDEST DUP3 DUP2 LT ISZERO PUSH2 0x1508 JUMPI DUP5 DUP10 ADD MLOAD DUP3 SSTORE PUSH1 0x1 DUP3 ADD SWAP2 POP PUSH1 0x20 DUP6 ADD SWAP5 POP PUSH1 0x20 DUP2 ADD SWAP1 POP PUSH2 0x14E3 JUMP JUMPDEST DUP7 DUP4 LT ISZERO PUSH2 0x1525 JUMPI DUP5 DUP10 ADD MLOAD PUSH2 0x1521 PUSH1 0x1F DUP10 AND DUP3 PUSH2 0x1434 JUMP JUMPDEST DUP4 SSTORE POP JUMPDEST PUSH1 0x1 PUSH1 0x2 DUP9 MUL ADD DUP9 SSTORE POP POP POP JUMPDEST POP POP POP POP POP POP JUMP JUMPDEST DUP3 DUP2 DUP4 CALLDATACOPY PUSH0 DUP4 DUP4 ADD MSTORE POP POP POP JUMP JUMPDEST PUSH0 PUSH2 0x1553 DUP4 DUP6 PUSH2 0xDE5 JUMP JUMPDEST SWAP4 POP PUSH2 0x1560 DUP4 DUP6 DUP5 PUSH2 0x153A JUMP JUMPDEST PUSH2 0x1569 DUP4 PUSH2 0xE03 JUMP JUMPDEST DUP5 ADD SWAP1 POP SWAP4 SWAP3 POP POP POP JUMP JUMPDEST PUSH0 PUSH1 0x40 DUP3 ADD SWAP1 POP DUP2 DUP2 SUB PUSH0 DUP4 ADD MSTORE PUSH2 0x158D DUP2 DUP6 DUP8 PUSH2 0x1548 JUMP JUMPDEST SWAP1 POP PUSH2 0x159C PUSH1 0x20 DUP4 ADD DUP5 PUSH2 0xE56 JUMP JUMPDEST SWAP5 SWAP4 POP POP POP POP JUMP JUMPDEST PUSH32 0x546F446F203A205461736B20646F6573206E6F74206578697374202120000000 PUSH0 DUP3 ADD MSTORE POP JUMP JUMPDEST PUSH0 PUSH2 0x15D8 PUSH1 0x1D DUP4 PUSH2 0xDE5 JUMP JUMPDEST SWAP2 POP PUSH2 0x15E3 DUP3 PUSH2 0x15A4 JUMP JUMPDEST PUSH1 0x20 DUP3 ADD SWAP1 POP SWAP2 SWAP1 POP JUMP JUMPDEST PUSH0 PUSH1 0x20 DUP3 ADD SWAP1 POP DUP2 DUP2 SUB PUSH0 DUP4 ADD MSTORE PUSH2 0x1605 DUP2 PUSH2 0x15CC JUMP JUMPDEST SWAP1 POP SWAP2 SWAP1 POP JUMP JUMPDEST PUSH0 PUSH1 0x20 DUP3 ADD SWAP1 POP PUSH2 0x161F PUSH0 DUP4 ADD DUP5 PUSH2 0xE56 JUMP JUMPDEST SWAP3 SWAP2 POP POP JUMP JUMPDEST PUSH32 0x4E487B7100000000000000000000000000000000000000000000000000000000 PUSH0 MSTORE PUSH1 0x32 PUSH1 0x4 MSTORE PUSH1 0x24 PUSH0 REVERT JUMPDEST PUSH0 DUP3 SWAP1 POP SWAP3 SWAP2 POP POP JUMP JUMPDEST PUSH2 0x1666 DUP4 DUP4 PUSH2 0x1652 JUMP JUMPDEST PUSH8 0xFFFFFFFFFFFFFFFF DUP2 GT ISZERO PUSH2 0x167F JUMPI PUSH2 0x167E PUSH2 0x1241 JUMP JUMPDEST JUMPDEST PUSH2 0x1689 DUP3 SLOAD PUSH2 0x129B JUMP JUMPDEST PUSH2 0x1694 DUP3 DUP3 DUP6 PUSH2 0x13E2 JUMP JUMPDEST PUSH0 PUSH1 0x1F DUP4 GT PUSH1 0x1 DUP2 EQ PUSH2 0x16C1 JUMPI PUSH0 DUP5 ISZERO PUSH2 0x16AF JUMPI DUP3 DUP8 ADD CALLDATALOAD SWAP1 POP JUMPDEST PUSH2 0x16B9 DUP6 DUP3 PUSH2 0x1450 JUMP JUMPDEST DUP7 SSTORE POP PUSH2 0x1720 JUMP JUMPDEST PUSH1 0x1F NOT DUP5 AND PUSH2 0x16CF DUP7 PUSH2 0x12CB JUMP JUMPDEST PUSH0 JUMPDEST DUP3 DUP2 LT ISZERO PUSH2 0x16F6 JUMPI DUP5 DUP10 ADD CALLDATALOAD DUP3 SSTORE PUSH1 0x1 DUP3 ADD SWAP2 POP PUSH1 0x20 DUP6 ADD SWAP5 POP PUSH1 0x20 DUP2 ADD SWAP1 POP PUSH2 0x16D1 JUMP JUMPDEST DUP7 DUP4 LT ISZERO PUSH2 0x1713 JUMPI DUP5 DUP10 ADD CALLDATALOAD PUSH2 0x170F PUSH1 0x1F DUP10 AND DUP3 PUSH2 0x1434 JUMP JUMPDEST DUP4 SSTORE POP JUMPDEST PUSH1 0x1 PUSH1 0x2 DUP9 MUL ADD DUP9 SSTORE POP POP POP JUMPDEST POP POP POP POP POP POP POP JUMP JUMPDEST PUSH0 PUSH1 0x20 DUP3 ADD SWAP1 POP DUP2 DUP2 SUB PUSH0 DUP4 ADD MSTORE PUSH2 0x1742 DUP2 DUP5 DUP7 PUSH2 0x1548 JUMP JUMPDEST SWAP1 POP SWAP4 SWAP3 POP POP POP JUMP INVALID LOG2 PUSH5 0x6970667358 0x22 SLT KECCAK256 BLOBHASH ADDMOD PUSH14 0x39A14D96A934DACAB7D87679B4BE RETURNCONTRACT 0xFE PUSH15 0xF33157FF83A8DB79009D993F64736F PUSH13 0x634300081E0033000000000000 "
				},
				"gasEstimates": {
					"creation": {
						"codeDepositCost": "1203400",
						"executionCost": "25516",
						"totalCost": "1228916"
					},
					"external": {
						"createTask(string)": "infinite",
						"deleteTask(uint256)": "infinite",
						"getAllTasks()": "infinite",
						"getTask(uint256)": "infinite",
						"owner()": "2551",
						"taskCount()": "2513",
						"tasks(uint256)": "infinite",
						"toggleCompleted(uint256)": "35034",
						"updatedTask(uint256,string)": "infinite"
					}
				},
				"methodIdentifiers": {
					"createTask(string)": "111002aa",
					"deleteTask(uint256)": "560f3192",
					"getAllTasks()": "779900b4",
					"getTask(uint256)": "1d65e77e",
					"owner()": "8da5cb5b",
					"taskCount()": "b6cb58a5",
					"tasks(uint256)": "8d977672",
					"toggleCompleted(uint256)": "455f5024",
					"updatedTask(uint256,string)": "b0ac92c2"
				}
			},
			"storageLayout": {
				"storage": [
					{
						"astId": 10,
						"contract": "contracts/Todo.sol:Todo",
						"label": "owner",
						"offset": 0,
						"slot": "0",
						"type": "t_address"
					},
					{
						"astId": 12,
						"contract": "contracts/Todo.sol:Todo",
						"label": "taskCount",
						"offset": 0,
						"slot": "1",
						"type": "t_uint256"
					},
					{
						"astId": 17,
						"contract": "contracts/Todo.sol:Todo",
						"label": "tasks",
						"offset": 0,
						"slot": "2",
						"type": "t_mapping(t_uint256,t_struct(Task)8_storage)"
					}
				],
				"types": {
					"t_address": {
						"encoding": "inplace",
						"label": "address",
						"numberOfBytes": "20"
					},
					"t_bool": {
						"encoding": "inplace",
						"label": "bool",
						"numberOfBytes": "1"
					},
					"t_mapping(t_uint256,t_struct(Task)8_storage)": {
						"encoding": "mapping",
						"key": "t_uint256",
						"label": "mapping(uint256 => struct Todo.Task)",
						"numberOfBytes": "32",
						"value": "t_struct(Task)8_storage"
					},
					"t_string_storage": {
						"encoding": "bytes",
						"label": "string",
						"numberOfBytes": "32"
					},
					"t_struct(Task)8_storage": {
						"encoding": "inplace",
						"label": "struct Todo.Task",
						"members": [
							{
								"astId": 3,
								"contract": "contracts/Todo.sol:Todo",
								"label": "id",
								"offset": 0,
								"slot": "0",
								"type": "t_uint256"
							},
							{
								"astId": 5,
								"contract": "contracts/Todo.sol:Todo",
								"label": "content",
								"offset": 0,
								"slot": "1",
								"type": "t_string_storage"
							},
							{
								"astId": 7,
								"contract": "contracts/Todo.sol:Todo",
								"label": "completed",
								"offset": 0,
								"slot": "2",
								"type": "t_bool"
							}
						],
						"numberOfBytes": "96"
					},
					"t_uint256": {
						"encoding": "inplace",
						"label": "uint256",
						"numberOfBytes": "32"
					}
				}
			},
			"userdoc": {
				"kind": "user",
				"methods": {},
				"version": 1
			}
		}
	}
}